:10000000404B012081470000B7A500005547000084
:10001000554700005547000055470000000000000C
:100020000000000000000000000000003D40000053
:100030005547000000000000E93F00005547000060
:10004000ED400000ED400000ED400000ED400000FC
:10005000ED400000ED400000ED400000ED400000EC
:10006000ED400000ED400000ED400000ED400000DC
:10007000ED400000ED400000ED400000ED400000CC
:10008000ED400000ED400000ED400000ED400000BC
:10009000ED400000ED400000ED400000ED400000AC
:1000A000ED400000ED400000ED400000ED4000009C
:1000B000ED400000ED400000ED400000ED4000008C
:1000C000ED400000ED400000ED400000ED4000007C
:1000D000ED400000ED400000ED400000ED4000006C
:1000E000ED400000ED400000ED400000ED4000005C
:1000F000ED400000ED400000ED400000ED4000004C
:1001000081F0004102E000BF83F0004330B54FEAC8
:1001100041044FEA430594EA050F08BF90EA020F35
:100120001FBF54EA000C55EA020C7FEA645C7FEAC8
:10013000655C00F0E2804FEA5454D4EB5555B8BFEB
:100140006D420CDD2C4480EA020281EA030382EA5C
:10015000000083EA010180EA020281EA0303362DEE
:1001600088BF30BD11F0004F4FEA01314FF4801CC1
:100170004CEA113102D0404261EB410113F0004FD3
:100180004FEA03334CEA133302D0524263EB43038A
:1001900094EA050F00F0A780A4F10104D5F1200E28
:1001A0000DDB02FA0EFC22FA05F2801841F1000183
:1001B00003FA0EF2801843FA05F359410EE0A5F157
:1001C00020050EF1200E012A03FA0EFC28BF4CF088
:1001D000020C43FA05F3C01851EBE37101F000453E
:1001E00007D54FF0000EDCF1000C7EEB00006EEB4B
:1001F0000101B1F5801F1BD3B1F5001F0CD34908D5
:100200005FEA30004FEA3C0C04F101044FEA44522B
:1002100012F5800F80F09A80BCF1004F08BF5FEAB2
:10022000500C50F1000041EB045141EA050130BD92
:100230005FEA4C0C404141EB0101013C28BFB1F5A4
:10024000801FE9D291F0000F04BF01460020B1FAEF
:1002500081F308BF2033A3F10B03B3F120020CDAC2
:100260000C3208DD02F1140CC2F10C0201FA0CF0A0
:1002700021FA02F10CE002F11402D8BFC2F1200C05
:1002800001FA02F120FA0CFCDCBF41EA0C019040BB
:10029000E41AA2BF01EB0451294330BD6FEA040404
:1002A0001F3C1CDA0C340EDC04F11404C4F12002EF
:1002B00020FA04F001FA02F340EA030021FA04F301
:1002C00045EA030130BDC4F10C04C4F1200220FA58
:1002D00002F001FA04F340EA0300294630BD21FA96
:1002E00004F0294630BD94F0000F83F4801306BF5C
:1002F00081F480110134013D4EE77FEA645C18BF50
:100300007FEA655C29D094EA050F08BF90EA020FE6
:1003100005D054EA000C04BF1946104630BD91EADE
:10032000030F1EBF0021002030BD5FEA545C05D1E1
:100330004000494128BF41F0004130BD14F5800420
:100340003CBF01F5801130BD01F0004545F0FE4194
:1003500041F470014FF0000030BD7FEA645C1ABFC9
:10036000194610467FEA655C1CBF0B46024650EA00
:10037000013406BF52EA033591EA030F41F400212C
:1003800030BD00BF90F0000F04BF0021704730B5B2
:100390004FF4806404F132044FF000054FF0000187
:1003A00050E700BF90F0000F04BF0021704730B548
:1003B0004FF4806404F1320410F0004548BF40421D
:1003C0004FF000013EE700BF42004FEAE2014FEA72
:1003D00031014FEA02701FBF12F07F4393F07F4F4D
:1003E00081F06051704732F07F4208BF704793F050
:1003F0007F4F04BF41F40021704730B54FF4607463
:1004000001F0004521F000411CE700BF50EA010265
:1004100008BF704730B54FF000050AE050EA01020E
:1004200008BF704730B511F0004502D5404261EB7E
:1004300041014FF4806404F132045FEA915C3FF4BF
:10044000D8AE4FF003025FEADC0C18BF03325FEA5C
:10045000DC0C18BF033202EBDC02C2F1200300FA0D
:1004600003FC20FA02F001FA03FE40EA0E0021FA32
:1004700002F11444BDE600BF70B54FF0FF0C4CF420
:10048000E06C1CEA11541DBF1CEA135594EA0C0FD2
:1004900095EA0C0F00F0DEF82C4481EA030621EA0D
:1004A0004C5123EA4C5350EA013518BF52EA033548
:1004B00041F4801143F4801338D0A0FB02CE4FF0FA
:1004C0000005E1FB02E506F00042E0FB03E54FF02A
:1004D0000006E1FB03569CF0000F18BF4EF0010E22
:1004E000A4F1FF04B6F5007F64F5407404D25FEA1E
:1004F0004E0E6D4146EB060642EAC62141EA5551D1
:100500004FEAC52040EA5E504FEACE2EB4F1FD0C12
:1005100088BFBCF5E06F1ED8BEF1004F08BF5FEA90
:10052000500E50F1000041EB045170BD06F0004642
:1005300046EA010140EA020081EA0301B4EB5C04EF
:10054000C2BFD4EB0C0541EA045170BD41F48011E7
:100550004FF0000E013C00F3AB8014F1360FDEBF0C
:10056000002001F0004170BDC4F10004203C35DAE8
:100570000C341BDC04F11404C4F1200500FA05F36B
:1005800020FA04F001FA05F240EA020001F000420C
:1005900021F0004110EBD37021FA04F642EB060182
:1005A0005EEA430E08BF20EAD37070BDC4F10C04AC
:1005B000C4F1200500FA04F320FA05F001FA04F270
:1005C00040EA020001F0004110EBD37041F100015C
:1005D0005EEA430E08BF20EAD37070BDC4F1200567
:1005E00000FA05F24EEA020E20FA04F301FA05F2CF
:1005F00043EA020321FA04F001F0004121FA04F277
:1006000020EA020000EBD3705EEA430E08BF20EA46
:10061000D37070BD94F0000F0FD101F00046400080
:1006200041EB010111F4801F08BF013CF7D041EA02
:10063000060195F0000F18BF704703F00046520006
:1006400043EB030313F4801F08BF013DF7D043EAD7
:100650000603704794EA0C0F0CEA135518BF95EA8D
:100660000C0F0CD050EA410618BF52EA4306D1D114
:1006700081EA030101F000414FF0000070BD50EA33
:10068000410606BF1046194652EA430619D094EABD
:100690000C0F02D150EA013613D195EA0C0F05D1A7
:1006A00052EA03361CBF104619460AD181EA0301FB
:1006B00001F0004141F0FE4141F470014FF00000B3
:1006C00070BD41F0FE4141F4780170BD70B54FF04E
:1006D000FF0C4CF4E06C1CEA11541DBF1CEA1355CE
:1006E00094EA0C0F95EA0C0F00F0A7F8A4EB0504B0
:1006F00081EA030E52EA03354FEA013100F08880A7
:100700004FEA03334FF0805545EA131343EA12636F
:100710004FEA022245EA111545EA10654FEA002624
:100720000EF000419D4208BF964244F1FD0404F5DD
:10073000407402D25B084FEA3202B61A65EB030539
:100740005B084FEA32024FF480104FF4002CB6EBF6
:10075000020E75EB030E22BFB61A754640EA0C0076
:100760005B084FEA3202B6EB020E75EB030E22BFB6
:10077000B61A754640EA5C005B084FEA3202B6EBF7
:10078000020E75EB030E22BFB61A754640EA9C00B6
:100790005B084FEA3202B6EB020E75EB030E22BF86
:1007A000B61A754640EADC0055EA060E18D04FEA44
:1007B000051545EA16754FEA06164FEAC30343EAE4
:1007C00052734FEAC2025FEA1C1CC0D111F4801FB1
:1007D0000BD141EA00014FF000004FF0004CB6E7AA
:1007E00011F4801F04BF01430020B4F1FD0C88BF49
:1007F000BCF5E06F3FF6AFAEB5EB030C04BFB6EB54
:10080000020C5FEA500C50F1000041EB045170BD46
:100810000EF0004E4EEA113114EB5C04C2BFD4EB73
:100820000C0541EA045170BD41F480114FF0000EF7
:10083000013C90E645EA060E8DE60CEA135594EA73
:100840000C0F08BF95EA0C0F3FF43BAF94EA0C0F76
:100850000AD150EA01347FF434AF95EA0C0F7FF4EB
:1008600025AF104619462CE795EA0C0F06D152EA3F
:1008700003353FF4FDAE1046194622E750EA410623
:1008800018BF52EA43067FF4C5AE50EA41047FF434
:100890000DAF52EA43057FF4EBAE12E74FEA410297
:1008A000B2F1E04324BFB3F5001CDCF1FE5C0DD9CE
:1008B00001F0004C4FEAC0024CEA5070B2F1004F18
:1008C00040EB830008BF20F00100704711F0804F1B
:1008D00021D113F13872BCBF01F00040704741F4E0
:1008E00080114FEA5252C2F11802C2F1200C10FAE4
:1008F0000CF320FA02F018BF40F001004FEAC123C8
:100900004FEAD32303FA0CFC40EA0C0023FA02F36B
:100910004FEA4303CCE77FEA625307D150EA013341
:100920001EBF4FF0FE4040F44000704701F0004011
:1009300040F0FE4040F40000704700BF53B94AB990
:10094000002908BF00281CBF4FF0FF314FF0FF30D7
:1009500000F00CB8ADF1080C6DE904CE00F090F891
:10096000DDF804E0DDE9022304B07047704700BF02
:100970004FF0FF3C06E000BF4FF0010C02E000BF6B
:100980004FF0010C4DF804CD4FEA410C7FEA6C5C4E
:100990004FEA430C18BF7FEA6C5C1BD001B050EAF1
:1009A000410C0CBF52EA430C91EA030F02BF90EADC
:1009B000020F0020704710F1000F91EA030F58BF9B
:1009C000994208BF90422CBFD8176FEAE37040F0FD
:1009D000010070474FEA410C7FEA6C5C02D150EA9B
:1009E000013C07D14FEA430C7FEA6C5CD6D152EA56
:1009F000033CD3D05DF8040B704700BF844610461B
:100A000062468C461946634600E000BF01B5FFF719
:100A1000B7FF002848BF10F1000F01BD4DF808EDE9
:100A2000FFF7F4FF0CBF012000205DF808FB00BFBA
:100A30004DF808EDFFF7EAFF34BF012000205DF814
:100A400008FB00BF4DF808EDFFF7E0FF94BF012061
:100A500000205DF808FB00BF4DF808EDFFF7CEFF62
:100A600094BF012000205DF808FB00BF4DF808EDA1
:100A7000FFF7C4FF34BF012000205DF808FB00BF72
:100A80002DE9F04786468C460846089E1546744672
:100A90001946002B40F0C2808542B2FA82F245D955
:100AA0004AB1C2F1200300FA02FC2EFA03F395408A
:100AB00043EA0C0C94404FEA154EA8B2BCFBFEF87A
:100AC000230C0EFB18CC08FB00F943EA0C439945B4
:100AD00028D9EB1808F1FF3704D2994502D9A8F1BB
:100AE00002072B44A3EB0903A4B2B3FBFEFC0EFBED
:100AF0001C330CFB00F044EA0344A04214D92C1927
:100B00000CF1FF3304D2A04202D9ACF102032C4411
:100B1000241A43EA07401EB1D440002334607360B6
:100B2000BDE8F0874746DDE76346F1E792BB431B2C
:100B300001214FEA154EAFB2B3FBFEFC200C0EFBB9
:100B40001C330CFB07F840EA0343984562D9EB18C5
:100B50000CF1FF3004D2984502D9ACF102002B44CD
:100B6000A3EB0803A4B2B3FBFEFC0EFB1C330CFB8F
:100B700007F744EA0344A7424ED92C190CF1FF337E
:100B800004D2A74202D9ACF102032C44E41B43EA8D
:100B90000040C0E7C2F1200320FA03F195409040E5
:100BA0002EFA03F303434FEA154EAFB2B1FBFEFC3E
:100BB0000EFB1C10190C0CFB07F841EA004188459C
:100BC00004FA02F422D969180CF1FF3004D28845E6
:100BD00002D9ACF102002944A1EB08019BB2B1FBA0
:100BE000FEFC0EFB1C110CFB07F743EA01439F427E
:100BF0000ED9EB180CF1FF3104D29F4202D9ACF1AF
:100C000002012B44DB1B41EA004192E76046E3E727
:100C10006146F7E76046A3E76346B7E7834206D934
:100C200016B9002108467BE7C6E900E0F9E7B3FA08
:100C300083F78FB9834201D3724508D8BEEB020413
:100C400060EB030301209C461EB9002168E738468B
:100C5000FAE7C6E9004CF8E7C7F1200CBB4022FADE
:100C60000CF41C432EFA0CF120FA0CF3B8400143AB
:100C70004FEA14490EFA07F5B3FBF9F81FFA84FEA0
:100C800009FB18300B0C08FB0EFA43EA00439A45A7
:100C900002FA07F240D9E31808F1FF3004D29A456E
:100CA00002D9A8F102002344A3EB0A0389B2B3FBE3
:100CB000F9F809FB183308FB0EFE41EA03418E45A3
:100CC0002CD9611808F1FF3304D28E4502D9A8F15E
:100CD0000203214443EA0040A0FB0298A1EB0E016D
:100CE0004145CE46434602D306D14D4504D2B9EB29
:100CF000020E68EB04030138002EA6D0B5EB0E02FD
:100D000061EB030101FA0CFC22FA07F34CEA03033E
:100D1000F940C6E9003198E74046C5E74346D9E7C0
:100D200010F8012B11F8013B012A28BF9A42F7D095
:100D3000D01A7047034613F8012B002AFBD1181A6A
:100D40000138704700000000F8B500240D46174632
:100D500026462346C25CFF2A1ED00133802BF9D1E0
:100D600000F57D533F33002113F8012FFF2A15D0E2
:100D700001318029F8D1A01BFFF714FB08A3D3E9A8
:100D800000230AF0F5F9FFF789FD642306FB03331E
:100D9000DB1138602B80F8BD9CB2E1E78EB2EAE748
:100DA0000000000000C05F402DE9F84F1746904654
:100DB000994623F000427B42DFF884A13B4342EA9C
:100DC000D373534504460D4609D8464221F00043EB
:100DD000064343EAD67656458E46834608D94246B0
:100DE0004B4620462946FFF791F904460D4616E08A
:100DF00009F1404606F580163E4303D1BDE8F84FA1
:100E000000F0A6B84FEAA97606F0020653EA0B0BEB
:100E100046EAD17607D1022E64D0032E66D0204652
:100E20002946BDE8F88F174306D1BEF1000F68DAF6
:100E300037A5D5E90045F2E752450FD1934206F1B7
:100E4000FF3607D1022E55D83E4B03EBC603D3E93C
:100E50000045E4E7022E51D83B4BF6E75345E4D07A
:100E60009B1AB3F1747F4FEA235221DAB9F1000FD4
:100E700001DA3C3220DB42464B4620462946FFF74A
:100E800025FC0AF077F900F063F804460D46012EC0
:100E900015D0022E17D0002EC1D01FA3D3E90023F6
:100EA00020462946FFF730F91DA3D3E9002316E0B9
:100EB0001DA5D5E90045EAE700240025E7E705F18F
:100EC00000431D46ABE714A3D3E90023204629467F
:100ED000FFF71AF902460B4611A1D1E90001FFF70D
:100EE00013F982E70EA5D5E9004598E710A5D5E9E5
:100EF000004594E710A5D5E9004590E700240025BA
:100F00008DE709A5D5E9004589E700BFAFF300806B
:100F1000182D4454FB21F9BF075C143326A6A13CCD
:100F2000182D4454FB210940182D4454FB21F93F4E
:100F3000182D4454FB2109C0182D4454FB21E93FCE
:100F40000000F07F20B5000008B5000000000000A0
:100F50002DE9F84FBC4B21F000469E4204460D4659
:100F60008B4618D9B94B9E4201D809D140B12246CF
:100F70002B4620462946FFF7C9F804460D4606E0F1
:100F8000BBF1000F40F3238193A5D5E9004520462E
:100F90002946BDE8F88FAE4B9E4211D8A3F1DE730F
:100FA0009E420AD88EA3D3E90023FFF7AFF8A94BDE
:100FB0000022FFF75BFD0028E9D14FF0FF3A27E060
:100FC0000AF0D8F8A44B9E4204460D4600F2B880C1
:100FD000A3F550239E4200F29C8002460B46FFF789
:100FE00095F89C4B0022FFF78FF8002206460F462B
:100FF0004FF0804320462946FFF788F802460B460B
:1010000030463946FFF762FB4FF0000A04460D46B2
:1010100022462B4620462946FFF72EFA02460B466B
:1010200080468946FFF728FA6FA3D3E900230646D6
:101030000F46FFF721FA6EA3D3E90023FFF766F806
:1010400032463B46FFF718FA6BA3D3E90023FFF7BC
:101050005DF832463B46FFF70FFA69A3D3E9002358
:10106000FFF754F832463B46FFF706FA66A3D3E98A
:101070000023FFF74BF832463B46FFF7FDF964A328
:10108000D3E90023FFF742F842464B46FFF7F4F955
:1010900061A3D3E900238046894630463946FFF7ED
:1010A000EBF95FA3D3E90023FFF72EF832463B4666
:1010B000FFF7E2F95CA3D3E90023FFF725F83246F6
:1010C0003B46FFF7D9F95AA3D3E90023FFF71CF8F1
:1010D00032463B46FFF7D0F957A3D3E90023FFF789
:1010E00013F832463B46FFF7C7F902460B46404627
:1010F0004946FFF70BF822462B46FFF7BDF9BAF138
:10110000FF3F02460B4644D120462946FEF7FCFF2E
:1011100033E7504B0022FEF7F7FF4E4B06460F46D3
:10112000002220462946FEF7F1FF02460B463046D4
:101130003946FFF7CBFA4FF0010A04460D4667E740
:10114000464B9E421AD2464B0022FEF7DDFF444B2F
:1011500006460F46002220462946FFF78DF93D4BF3
:101160000022FEF7D3FF02460B4630463946FFF712
:10117000ADFA4FF0020A04460D4649E702460B4617
:1011800000203849FFF7A2FA4FF0030A04460D4643
:101190003EE7354B354E03EBCA03D3E90023FEF798
:1011A000B3FF22462B46FEF7AFFF06EBCA06024608
:1011B0000B46D6E90001FEF7A7FFBBF1000F04467E
:1011C0000D46BFF6E4AE01F100431D46DFE61CA567
:1011D000D5E90045DBE600BF182D4454FB21F93F5B
:1011E0009C7500883CE4377E11DA22E33AAD903FEB
:1011F000EB0D76244B7BA93F513DD0A0660DB13F4E
:101200006E204CC5CD45B73FFF8300922449C23FB5
:101210000D5555555555D53F2F6C6A2C44B4A2BF7A
:101220009AFDDE522DDEAD3F6D9A74AFF2B0B33F42
:10123000711623FEC671BC3FC4EB98999999C93FBA
:10124000182D4454FB21F9BFFFFF0F440000F07F2D
:10125000FFFFDB3F0000F03FFFFFF23F0080034055
:101260000000F83F0000F0BF38B5000058B500009E
:1012700073B50D4E0D4D0E4C4FF0FF324FF0FF3356
:10128000304606F0C9FD2868FFF79EF80B4609496D
:101290000988019108490988009102462178074888
:1012A00008F07BFFE8E700BFA0470020C44700200C
:1012B00004510020025100200051002040B80000DD
:1012C00010B50B78032B11D0052B19D0022B0CD1A4
:1012D000D1E90140CA684FF480432118124809F04F
:1012E0005BFF124A13680133136010BD104B1149A4
:1012F00018688368BDE810401B694FF480421847A6
:101300000B4B186883680C49DC684FF480424FF43B
:101310007A73A04701460028E7D0084808F03DFF4F
:101320004FF0FF3008F00CFD05510020DC47002095
:10133000E04700200591002005D10020A0B8000062
:10134000F8B50D4F0D4D0E4E4FF0FF334FF0FF32FD
:10135000384606F061FD286809F09BFE32460446D7
:101360000849FFF7F1FC2968204609F0ADFE064860
:1013700006F014FDE8E700BF90470020C0470020BA
:10138000C447002000510020A0470020F8B50C4FB2
:101390000C4D0D4E4FF0FF324FF0FF33384606F044
:1013A0003BFD286809F075FE044609F0BFFE296878
:1013B0003080204609F088FE044806F0EFFCE9E79B
:1013C00080470020C047002002510020A047002095
:1013D000F8B50C4F0C4D0D4E4FF0FF324FF0FF3370
:1013E000384606F019FD286809F053FE044609F056
:1013F00086FE29683070204609F066FE044806F033
:10140000CDFCE9E7B0470020C04700200451002090
:10141000A0470020F7B51B4B1B4E1C4C1C4F0193E3
:101420003368002B28DD206808F05CFC2368054643
:101430001A89394609F0A2FE2846216809F00EFEF5
:1014400000233360134B1868836804225D680DEB3A
:1014500002014FF0FF33A847014620B10E4808F0C3
:101460009CFE03B0F0BD0D4806F098FC0C4806F059
:1014700095FC0C4806F092FC46F2113007F0E6FDB0
:10148000CEE700BF41434B00DC470020C0470020AF
:1014900005510020E0470020C8B80000B0470020F8
:1014A0009047002080470020F0B58DB00025594BB3
:1014B00059480B9501224FF48041CDE9095509F0B7
:1014C000A1FD564B18605648564C05F09BFE206017
:1014D00020B95349544808F060FE09E0534808F029
:1014E0005CFE206883685B6A23B9514808F055FEAA
:1014F0000DB0F0BD4F4998475830F6D0206883684A
:101500001B6833B14C492A469847014620B14B48E5
:10151000E1E76FF05701FAE7206883684849DC6823
:101520004FF480424FF0FF33A047044610B101460C
:101530004448D0E701220146434809F0E0FC01227B
:101540002146424809F0DBFC01222146404809F0CF
:10155000D6FC012221463F4809F0D1FC0026002795
:101560000BAB02930AAB0193012509AB0093CDE9C4
:101570000667394B3949049403954FF400623848A3
:1015800006F01EF9374B1860374B38490094CDE907
:101590000667CDE90354CDE901444FF400623448B5
:1015A00006F00EF9334B18600323CDE90243CDE971
:1015B0000667CDE90044304B304904944FF4006293
:1015C0002F4806F0FDF82F4B18600223CDE90243A7
:1015D000CDE90667CDE900442B4B2C4904944FF428
:1015E00000622B4806F0ECF82A4B18604FF0FF33EE
:1015F000CDE90243CDE90667274B284928480494E2
:10160000CDE900444FF4006206F0DAF8254B18608B
:101610006EE700BFAC010020E9B80000C047002021
:10162000ECB80000E0470020F3B800001FB900004C
:1016300039B9000078B50000C112000069B9000096
:1016400005D10020A0B80000B0470020A04700202E
:101650009047002080470020D1130000A0350120D2
:1016600028440020D847002071120000401D0120AE
:10167000A8420020CC4700208D130000802D0120BF
:10168000A8430020D447002041130000602501201A
:1016900028430020D0470020151400002015012009
:1016A00028420020C84700202DE9F04F8DB01F468A
:1016B000029202F00403C2F3C2020193531C04938A
:1016C0008307DDF8588005460E4640F02882041D49
:1016D00030B1072909D86FF01B000DB0BDE8F08FBD
:1016E00001F00706341DC6F108064FF0000A4FF05E
:1016F00004097B1ECDF80CA052465146CB4605B1DD
:1017000027600498002800F32A81BC48874203D34D
:10171000BB488742C0F02381DDF808C0A4EB050E6A
:101720001CF0020F4FEA9E0000F037814FF0000CD2
:101730001EE131B9252816D101214FF00409CB460D
:1017400011E06C2800F29F804B2822D8472800F235
:10175000B18029286AD8202805D0A0F1230CDCF11B
:10176000000141EB0C0113F8010F0028E1D1611BCE
:10177000B1F5806FC0F07381A249A34AA34840F23B
:101780003D2308F086FEA24808F083FE40F23D218A
:10179000FDE0A0F14C0CBCF1200F00F28B800FF2A9
:1017A000080E5EF82CF000BF67170000B5180000A7
:1017B000B5180000B5180000B5180000B5180000F5
:1017C000B5180000B5180000B5180000B5180000E5
:1017D000B5180000B5180000B9180000B5180000D1
:1017E000B5180000B5180000B5180000B5180000C5
:1017F000B5180000B5180000B5180000D518000095
:10180000B5180000B9180000B9180000D51800007C
:10181000D5180000D518000067170000B91800009F
:10182000FD180000B518000067170000A0F12A0C91
:101830004FF0010E5FFA8CFC0EFA0CFC4FF6DA7ECC
:101840001CEA0E0F8FD11CF0625F43D11CF0010126
:1018500089D0013C4C44C9F1000C04EA0C04002D71
:1018600065D0ABEB050CA4446645FFF434AF732898
:101870006FD0BBF1040F4AD158F8040B2060043438
:101880004FF0040B6FE7A0F16E0C5FFA8CFCBCF11B
:101890000C0F0FD84FF0010E0EFA0CFC1CF0250FA8
:1018A0002FD140F2824E1CEA0E0F05D11CF4825C4F
:1018B0007FF443AF002156E713F8011C6C2924D1B3
:1018C00013F8021C6C294FF000011BD14FF00809DE
:1018D000CB46BEE708F1070828F007080734F8E808
:1018E000020124F007043DB1DDF814E0A644B6453A
:1018F0003FF6F1AEC4E90001083400214FF00809B9
:101900001DE700214FF00409E2E70021A1E7BBF148
:10191000080F40F0968008F1070828F00708F8E85B
:1019200002BCC4E900BC08344FF0080B1BE7732865
:101930000FD0BBF1040F02D108F104089FE7BBF1FF
:10194000080F7ED108F1070828F0070808F10808F9
:10195000E9E7049858F8047B01380490CFE6029830
:10196000800746D5A4EB050E4FEA9E004FF0010C10
:10197000BEF5007F1FD32349234A24484FF4F87350
:1019800008F087FD234808F084FD4FF4F8711E48E5
:1019900008F078FD6FF015009FE60F2A0DD8002D96
:1019A0003FD0C0B202F1300CEC440CF8100C03989C
:1019B000013003901CE00F2A0CD91249124A134837
:1019C00040F2F51308F065FD134808F062FD40F29F
:1019D000F511DCE715B3C0B2BCF1000FE2D002F1A3
:1019E000300CEC4460F07F000CF8100C0AF1010A96
:1019F0000132C5F1080004340590B4E604B20000D9
:101A0000ACD40000B1D2000094B90000C2B900000B
:101A10002FBA0000DFB9000000BA0000BCF1000FCF
:101A200001D1019808B10136E2E73846CDE9062137
:101A30000593FFF77FF90236DDE90621059B064491
:101A4000D6E7384A3849394840F2312308F021FDB9
:101A50005946374808F01DFD40F2312197E71DB97E
:101A6000A6F10804601838E6019BC1F3870C9DF8C5
:101A70000C100BB90846194685F800C06870E9706B
:101A800085F802A0BAF1000F06D008A84FF0000CAC
:101A9000C5F1010E624509D10DF1200808EB0209DC
:101AA000C5F1010BC14511D1601B16E610F8011BF1
:101AB0000B0608D504EB0E08464501F07F01FFF444
:101AC0000AAE04F8011B0CF1010CE3E7BAF1000FB8
:101AD00003D098F90020002A1CDB019BEBB998F891
:101AE000002055F8227045F822303846FFF722F9D9
:101AF000421C04EB0B0111448E42FFF4ECAD98F84C
:101B0000001004F8011B39462046029209F036FB0A
:101B1000029A144408F10108C4E70022E9E76FF0D3
:101B20000D00DAE594B90000B1D20000C2B900009E
:101B30001ABA0000436803F00303032B10B50446F0
:101B4000816002D02BB1002000E0006800236360B8
:101B500010BD054A05490648452308F09AFC02488D
:101B6000452108F08FFCEEE746BA0000B1D2000034
:101B7000C2B90000014B1860704700BF0000002090
:101B80002DE9F84F858B2B070446914669D402292D
:101B900005F0070500F0EE81AA46D4F81880A38B63
:101BA000B8F1000F7DDA0022266823F00703C4E9AC
:101BB000002243F00103A383A38B03F007055545DF
:101BC0004FF0000740F0A5814FF0000A002E00F012
:101BD000F28043F0080304F1140BA383584605F088
:101BE000D5FE68B9934A94499448B92308F051FC4A
:101BF0009348594608F04DFC8E48B92108F042FC44
:101C000089F31188BFF36F8FBAF1000F40F088811C
:101C1000002E40F09E8117B18A492046B8474FF008
:101C20002003EFF3118983F31288BFF36F8F5846B7
:101C300005F09EFE68B97F4A834980488E2308F0EC
:101C400028FC8248594608F024FC7A488E2108F086
:101C500019FC584605F0AAFEA38B23F00803A383C2
:101C60005AE001290CBF45F0100545F02005858399
:101C70001434204605F08AFE68B96E4A6E496F48F2
:101C8000B92308F006FC6E48214608F002FC6948BA
:101C9000B92108F0F7FB89F31188BFF36F8FBDE816
:101CA000F88F03F00702511F012920D80021062ACE
:101CB0002668C4E9001116D1324603E0E18B1268B0
:101CC0000131E183002AF9D123F0070343F0020236
:101CD000A283204608F06EFA00283FF46DAF42F070
:101CE0002002A28368E723F007039AB2F0E7042AF0
:101CF0001ED123F007039AB2A283204608F05AFAB5
:101D000010B142F02002A283A38B03F00705002745
:101D100055453E4640F0FD80B4F81CA01AF0100F67
:101D200000F01F812AF01003A3830AF0070A34E7AA
:101D3000474A4849414840F21B1308F0AAFB44486F
:101D400040F21B1108F09EFBDEE75DB142493B48C3
:101D50003F4A4FF4AB7308F09CFB3D484FF4AB7126
:101D600008F090FB23685BB93C493448384A40F29C
:101D7000571308F08EFB364840F2571108F082FBEB
:101D800023691F685FB936492C48314A4FF4AD7357
:101D900008F07FFB2E484FF4AD7108F073FBA38B66
:101DA00023F0070343F006039BB2062DA38340F004
:101DB000AD804FF000084FF0000A5646002F7FF428
:101DC00008AFA9E7022D0BD026491C48204A40F253
:101DD0005D1308F05EFB1E4840F25D1108F052FBF7
:101DE000E38B5BB120491548194A4FF4AF7308F0F3
:101DF00050FB17484FF4AF7108F044FB23695F684C
:101E00005FB917490D48124A40F2611308F041FBCF
:101E10000F4840F2611108F035FBA38B23F0070354
:101E200043F004039BB2042DA383C2D00026B04626
:101E300004256EE00CBB000039BB0000C2B90000F5
:101E400050BB0000B91F000065BB00007ABB00005A
:101E500069BA0000B1D200008BBA000097BA000046
:101E6000BABA0000D1BA0000E7BA0000012D0BD0C9
:101E70004B494C484C4A4FF4B27308F00AFB4A48AD
:101E80004FF4B27108F0FEFA23685BB94749454840
:101E9000454A40F2651308F0FCFA434840F26511E8
:101EA00008F0F0FA23699F685FB941493D483E4A0E
:101EB0004FF4B47308F0EDFA3B484FF4B47108F0F6
:101EC000E1FAA38B23F0070343F005039BB2052D32
:101ED000A3833FF46EAF0026B046052519E0324AD1
:101EE0003449304840F26B1308F0D3FA2E4840F2E0
:101EF0006B1108F0C7FAA38B03F00702AA423FF464
:101F00000BAF002615463746B04602E00026B04625
:101F10000625A268002A3FF457AE4FF0010A58E6A2
:101F2000A16800293FF474AED1F8009000293FF475
:101F30006FAED1F804A043462A462046D047B9F1F7
:101F4000000F04D0D9F8003049469946EEE74B46D9
:101F5000FAE7314643462A462046366808F056F9E5
:101F600056E61AF0200F3FF483AE2AF02003A38335
:101F70000AF00705204608F01DF900283FF478AE66
:101F800001380428ABD801A353F820F0991B0000B6
:101F9000DF1E00004B1D0000C51D00006D1E00006F
:101FA000F6BA0000C2B9000069BA000097BA000092
:101FB000BABA0000B1D20000F8B504460D4600F1EF
:101FC00014064FF02003EFF3118783F31288BFF359
:101FD0006F8F304605F0CCFC68B90C4A0C490D48AF
:101FE0008E2308F056FA0C48314608F052FA07489A
:101FF0008E2108F047FA304605F0D8FCA5613A4634
:1020000020460121BDE8F840FFF7BABD0CBB000037
:1020100065BB0000C2B900007ABB00002DE9F047A3
:1020200004460F4608F0E2F8051E78DB04F11409B7
:102030004FF02003EFF3118A83F31288BFF36F8F01
:10204000484605F095FC68B9394A3A493A488E2322
:1020500008F01FFA3948494608F01BFA34488E2127
:1020600008F010FA484605F0A1FCE38BA68B4FF66A
:10207000FF72934206F0070654D0022E24D101339A
:10208000E38335464FF00108484605F07FFC68B908
:10209000274A2B492848B92308F0FBF92948494623
:1020A00008F0F7F92248B92108F0ECF98AF3118811
:1020B000BFF36F8FB8F1000F31D00023324639469D
:1020C000204608F0A3F82AE0062E0ED8DFE806F036
:1020D00004190D0D042D040000233B606368ABB9A7
:1020E000C4E90077AEB135460DE017491248174AEA
:1020F00040F2C91308F0CDF9144840F2C91108F0B4
:10210000C1F96FF004054FF00008BDE71F6067607C
:10211000E8E7524602212046FFF732FD35462846C1
:10212000BDE8F0876FF00A05EDE76FF08505EAE797
:102130000CBB000065BB0000C2B900007ABB000008
:1021400039BB000050BB0000F6BA000069BA0000BD
:102150002DE9F84301F1FF3919EA010906680F4634
:10216000144611D009F1FF3313EA090F13D17B4252
:102170003B40042B1A464F4628BF04229946E4B937
:1021800000252846BDE8F883042914D8BDE8F843A3
:10219000114608F008B92C4A2C492D484FF4A07379
:1021A00008F077F92B4808F074F927484FF4A0712C
:1021B00008F068F9DBE70422E1E7B368B3EBD40F7A
:1021C000DED904F10B013944891AC908304608F0F8
:1021D00099F880460028D3D009F1040505EBC00525
:1021E0007B1E35441D447F423D40A5EB09052C4430
:1021F0002B1F07349B1B24F00704A41BB0EBD30F49
:102200004FEAD3074FEAE40408D201463A46304683
:1022100008F0AFF84146304608F030F8394630460D
:1022200008F027F83844844207D23046224608F0A6
:10223000A0F82146304608F021F806EBC70673885F
:1022400043F0010373809CE792BB00005EBC00007A
:10225000C2B9000079BC0000B2F5802F2DE9F04131
:1022600004460E4617466CD33D493E4A3E4840F26E
:10227000E31308F00EF93D4808F00BF940F2E311C2
:10228000384808F0FFF8043FF51D3E4425F00705E7
:1022900026F00706761B172E4FEAD6070ED83449CC
:1022A000304A314840F2F31308F0F3F8314808F0AF
:1022B000F0F82C4840F2F31108F0E4F82560B7FA82
:1022C00087F4C4F12008C4F12404A40007340023D7
:1022D000E408EB60631CBB42AF600ED92649214A7B
:1022E00021484FF4017308F0D4F8224808F0D1F8DF
:1022F0001C484FF4017108F0C5F805F10C0303EB1D
:102300008808002243F8042F4345FBD1630043F0C3
:1023100001036B8005EBC4013B1B58002A804880F9
:10232000A91925F834404A80AB5305EBC703214671
:102330005A8842F0010228465A80BDE8F04107F071
:102340009DBF042A9FD80D49064A07484FF4F573EC
:1023500008F09FF8074808F09CF84FF4F5718FE7F4
:1023600096BC000092BB0000C2B90000ACBC0000EB
:10237000FDBC0000E4BC000026BD0000C3BC0000A2
:10238000F0B5094E016802460A2700200B460131CC
:102390001C78355D6D0701D41360F0BD07FB004369
:1023A000A3F13000F2E700BFA9D300002DE9F84FF8
:1023B00015469A46D378224A12F803B06F2B80460E
:1023C0000F460BF0030B29D024D8582B0CBF102636
:1023D0000A26DDF828903246002340463946FEF7AB
:1023E000ADFA092AD4B21ED83034B045E4B277F140
:1023F000000709F8014D01D3D14511D82B789B0670
:1024000005D5082E15D1AB7843F00803AB704846CC
:10241000BDE8F88F03F0F703702BD7E70826D8E75D
:1024200080460F46D7E7BBF1010F0CBF3734573456
:10243000DBE7102EEBD1AB7843F01003E6E700BFEB
:10244000A9D300002DE9F04F9FB0824603911646B4
:102450001C460025307810B9284600F087BD731C53
:102460002528069306D00399D0470028C0F27E8520
:10247000013528E21822002110A808F0A0FE737888
:10248000252B00F0BC800023711C98469E469C467C
:1024900018460F4611F8012B2B2A00F0DF8000F2BE
:1024A000D680202A00F0DD80232A00F0DD802BB1C9
:1024B0009DF8483043F040038DF84830B8F1000FE4
:1024C00005D09DF8483043F020038DF84830BEF128
:1024D000000F05D09DF8483043F010038DF84830C8
:1024E000BCF1000F05D09DF8483043F008038DF88B
:1024F000483028B19DF8483043F004038DF8483047
:102500009DF8483003F04401442903D16FF386134A
:102510008DF848309DF848300E9743F080032A2A02
:102520008DF8483040F0A5809DF8493043F0010314
:102530008DF849307B1C1A782E2A9DF849200CBF53
:102540000121002161F341028DF849200CD15A1C70
:102550000E925A782A2A40F09C809DF8492042F039
:1025600004028DF8492002331A786C2A00F0BD80ED
:1025700000F29F80682A00F0A5806A2A00F0BE80E1
:102580004C2A00F0C38013F8012B0693782A8DF8AB
:102590004B2000F205816D2A00F2C580692A00F205
:1025A000FF80572A00F2DE80412A04D0A2F14503C1
:1025B000022B00F2F5809DF84A3002F0DF02042180
:1025C000A2F1410861F30203D8F100029DF849101D
:1025D0008DF84A3042EB080262F3C7110A068DF803
:1025E0004910CBB200F11B8103F07802182A40F0A9
:1025F00005816FF3C6038DF849300023F4E0B21C67
:1026000006928DF84B309DF84930DF0740F1098183
:1026100054F8042B0492002A08DA9DF8482042F06E
:1026200004028DF84820049A52420492580740F15F
:10263000008154F8047B002F80F2FF809DF8493020
:102640006FF341038DF849304FF0FF37F5E02D2A45
:102650000DD0302A7FF42BAF01231AE74FF0010C85
:1026600017E74FF0010E14E74FF0010811E70120C2
:102670000FE70EA8FFF784FE0E9BBB423FF45BAF53
:102680009DF848201390C00F60F341028DF8482058
:1026900051E70EA8FFF774FE9DF848301490C3F37D
:1026A000400242EAD07262F341038DF848300E9B3B
:1026B0005AE7742A26D07A2A7FF465AF9DF849201C
:1026C00006210CE05A78682A9DF8492006D101219C
:1026D00061F3C6028DF84920023354E7022161F309
:1026E000C6028DF8492001334DE75A786C2A9DF8CF
:1026F000492001D10421EBE70321F0E79DF84920AF
:102700000521ECE79DF849200721E8E7BDF84820BE
:1027100022F4F04222F0020242F4804242F002022D
:10272000ADF84820DFE76E3AD3B201229A4040F27A
:1027300082431A429DF8493039D112F0240F61D1F9
:10274000D1072DD59DF84A2003F07803A3F1400C62
:10275000032161F30202DCF100038DF84A2043EB10
:102760000C0341E0A2F15801C9B2012000FA01F1C5
:1027700011F4624F7FF41FAF40F6010319429DF838
:1027800049301AD111F4043F0AD09DF84A2060F371
:10279000020203F07803402B8DF84A207FF42DAF1E
:1027A0009DF8483043F001038DF8483025E79DF847
:1027B0004A20022161F30202EBE79DF84A10022051
:1027C00003F0780360F30201402B8DF84A1002BF3A
:1027D0009DF8481041F001018DF84810632A7FF4FC
:1027E0000CAF003B18BF01239DF84820C2F3400105
:1027F0000B4363F341028DF8482004E713F0380FD0
:10280000CED1FAE69DF84A20032113F0780F61F348
:1028100002028DF84A2014BF01230023E4E70123BC
:10282000E2E79DF94820002AB4BF139A4FF0FF3227
:10283000FBE699077FF508AF149F9DF84910002328
:10284000CDE913339DF84A3003F00702042A07D17B
:102850008A0705D49DF94920002AACBF06270D2719
:1028600003F00703012BC1F3C30133D1CB1E042BAB
:1028700004D8DFE803F01046461010002368012951
:102880004FEAE372CDE910320BD103F0FF0310934E
:102890000023119307E054F8043BDA17CDE9103216
:1028A00002E0022911D004349DF8483007939B07B9
:1028B00047D0069B03993246504607F0CCFD0028CE
:1028C000C0F254830544069EC4E51AB2109243F345
:1028D000C033DEE7022B24D1CB1E042B04D8DFE863
:1028E00003F0181010181800012954F8043B4FF099
:1028F000000214D00229CDE91032D5D19BB2109339
:10290000D2E7073424F00704F4E80223CDE91023CA
:10291000CAE754F8043B109300231193C4E7DBB2D9
:10292000BCE7042B08D1073424F00704D4E90023C2
:102930000834CDE91023B7E7032BB5D154F8043B95
:10294000DDE79DF84BB0BBF1780FBCD8BBF1570F5A
:1029500049D8BBF1250F00F09180BBF1240FB2D90B
:10296000BBF1410F03D0ABF14502022AABD8DDE940
:102970001012002AC0F23681079B180700F135813A
:10298000C3F300194FEA4919C2F30A50C2F3130204
:10299000002840F02D8151EA020614BF01260026CE
:1029A000D20242EA5152C902BBF1460F40EA010E7F
:1029B00042EAE07C08BF4FF0660B5EEA0C0CCDE902
:1029C0000C1200F09E81002E40F049810D9A42F0D9
:1029D0000042A0F2FE380D920020DDE90C120646FE
:1029E0004FF0050C55E1ABF15802202A3FF66BAFD2
:1029F00001A050F822F000BF832B0000C728000080
:102A0000C7280000C7280000C7280000C72800000A
:102A1000C7280000C7280000C72800006F29000051
:102A2000C7280000072B00001B2B00006F290000A7
:102A30006F2900006F290000C72800001B2B000031
:102A4000C7280000C7280000C7280000C7280000CA
:102A5000BD2B0000832B0000892B0000C72800003D
:102A6000C7280000832A0000C7280000832B00002D
:102A7000C7280000C7280000832B00000399584690
:102A8000F2E4002F109E3ADB3946304608F0A7FBEF
:102A90003718002E3FF417AF4FF000099DF84A3069
:102AA00013F01002059200F05682023013F040033A
:102AB000DDF84C80089318BF149BCDF81C8040446F
:102AC00018BFC018049B002B40F360829DF848207B
:102AD0001B1A50070493C2F3800B00F15782510672
:102AE00040F14782B9F1000F07D003994846D0471B
:102AF0000028C0F23B820135D94630223AE2304606
:102B0000FEF718F9C4E7109B8DF85C304FF0000910
:102B10000DF15D0717AE0120C0E7079B1E0758BFE8
:102B2000C3F30019DDE9102354BF4FEA49194FF0F0
:102B30002B09002B06DA524263EB4303CDE9102345
:102B40004FF02D090DF175030093DDE9100117AB6E
:102B500012AAFFF72BFC0646002F0CDB9DF848203D
:102B60000DF175039B1B6FF386129F428DF8482071
:102B700001D9FB1A1393002E3FF4A5AE0DF1750792
:102B80005BE04FF00009DDE71098002800F0DE81DF
:102B90000DF17503009312AA17AB0021FFF706FC95
:102BA000BDF84A3003F0EF0343F4F04343F0100361
:102BB0000646ADF84A304FF00009CDE7109B0729D3
:102BC0003FF681AEDFE801F00C04060C08080C0C9F
:102BD0001D7078E61D8076E6EA17C3E9005272E6BA
:102BE0001D6070E64FF02D09CEE64FF02B09CBE6C5
:102BF00040F2FF76B0422FD10BF101039E48DBB2C9
:102C00000A43C35C03F003031ED1012B0BBF49230E
:102C100069234E216E210CBF462266228DF85C305E
:102C20009DF848308DF85D106FF386138DF85E20A7
:102C30008DF848300DF15F0717AEB81BB9F1000FE2
:102C40003FF42CAF013029E7012B15BF6E234E2333
:102C5000612141211A46E1E70026A1E60138491821
:102C60005241002AFADACDE90C12AFE6490841EAEE
:102C7000C2715208B2F1333F404608F10108F5D263
:102C80000CFB02FEA1FB0C1200F102087244013E93
:102C9000012018F1020FE9DB08B1CDE90C12B8F1FF
:102CA000000FDDE90C212FDCC8F1040008F11C083D
:102CB000A0F1200CC24021FA00F301FA08F80BF051
:102CC000DF0042EA080221FA0CFC472842EA0C0223
:102CD00008933AD1F31C01DBB7422BDAABF10203C4
:102CE000002F5FFA83FB7FDD9DF84800800607F127
:102CF000FF3779D43B1E18BF0123059307F1010864
:102D00002DE04FF0000867E6023241F100010CA807
:102D1000CDE90C2107F070FBDDE90C2108F1FF384B
:102D2000013692184941002908F1FF38F9DACDE956
:102D30000C21B4E79DF848309906A7EB060751D45B
:102D40003B1E18BF0123059304E00023BBF1660F6F
:102D50000593D3D117EB06084FF0660B46D4B8F1B4
:102D6000100FA8BF4FF0100810200B904FF000611B
:102D70000020CDE90E01DDE90E03B8F1000F38D1D6
:102D80000899121841EB0301B1F1805F3FD2CDE900
:102D90000C21079BBBF1660F03F0200240F0B580C9
:102DA000002E3FDC30218DF85C10002A66D1002F08
:102DB00040F3AF812E228DF85D2086B17242BA4277
:102DC000A8BF3A469DF84A101392002AA7EB0207C3
:102DD000D4BF0022012262F345118DF84A100DF193
:102DE0005E0837E00023AEE7002386E74FF00008D7
:102DF000BAE7400840EAC3705B08CDE90E030EA8AD
:102E0000099208F1FF3807F0F7FA099AB3E7520878
:102E100042EAC1720CA84908CDE90C21013607F03D
:102E2000EBFAB6E70DF15C080B99002909DD0BA957
:102E30000CA8079207F0F8FA013E08F8010B079A70
:102E4000F2D113969AB9002F40F361812E2108F830
:102E5000011B0026002F1ADD0B9A002A17DD0BA993
:102E60000CA807F0E1FA013F08F8010BF2E72E2267
:102E700008F8012BEDE700BFA8D300002E228DF843
:102E80005D20002EABD0002F98DC0DF15E08059B75
:102E9000002B4ED1149747460BF0DF02452A23D171
:102EA000002EBABF76422D232B23632EC8BF642188
:102EB0007B70D1BFBA1CB6FBF1F3FA1C03F13000F2
:102EC000C8BF01FB13664FF00A01C8BFB87087F88E
:102ED00000B0B6FBF1F3174603F1300001FB1363BA
:102EE000303307F8020B5370139B002B2CDC149B20
:102EF000002BD4BF002301239DF84A2063F38612E0
:102F000000238DF84A203B7096E60BA90CA8079287
:102F100007F08AFA079A8DF85C00302818BF06F18E
:102F2000FF3612B9002F40F3F4802E228DF85D2079
:102F300055E7474608F1FF3817F8012C302AF8D03A
:102F40002E2A08BF4746A7E70123D5E7724F8146DF
:102F50007E1F0520A2E51A0748BF0130A6E51046EE
:102F600009920399D0470028099A05DA1FB0BDE8F5
:102F7000F08F2022DDF810B0594600290BF1FF3BFD
:102F8000EDDC049BCDF810B02B445D1AB9F1000FB5
:102F900005D003994846D0470028E7DB0135089B58
:102FA000002B79D09DF94930002B29DBDFF86C919B
:102FB0003346187819F8002052079B4603F10103A5
:102FC0003FD49DF84A30AE1B98065E4407D4424673
:102FD000002A08F1FF383BDC079B33449E1A9BF81C
:102FE00000002E280AD10399D0470028BEDBB8F193
:102FF000000F06F1010631DC0BF1010B5D4638E0F4
:10300000B14699F800007028C84609F1010913D1AA
:10301000AE1B149D46443544AB1B002B34DC039996
:103020003B464246504607F016FA00289EDB3044E5
:10303000049E0546064465E00399D0470028E0DA7F
:1030400094E705930399D0470028059BB1DA8DE7F3
:1030500003993020D0470028B9DA87E70399302058
:10306000D04708F1FF38C0E70399D0470028FFF6A2
:103070007DAF287819F800305907A84605F10105F9
:10308000F2D4A6EB0B06C4E703993020D047002802
:10309000FFF66CAF0136BFE79DF84A30DA0601D47F
:1030A0001B0706D503993020D0470028FFF65EAFF6
:1030B0000135059B3BB103999DF84B00D047002893
:1030C000FFF654AF0135A84406E003993020D047FD
:1030D0000028FFF64BAF0135A8EB0503002BF4DC0D
:1030E00003993B463246504607F0B5F90028FFF6F3
:1030F0003DAF28449CE703992020D0470028FFF6E5
:1031000035AF0135731B002BF5DCFFF7DCBB164632
:10311000BDE60DF15D08BAE656BD0000A9D300007A
:1031200008B54FF02002EFF3118382F31288BFF34A
:103130006F8F01F07BFD034807F02FF800F062FE6F
:10314000FCE700BF57BD0000F8B506460C4629B99C
:103150000E4D0F4B5B1B1F11BC4200DBF8BD6B68B3
:103160005B797BB14EB90B490B480C4A862307F0BB
:1031700090F90A48862107F085F92B6831461B68CB
:103180002846984701341035E6E700BFBCB400007C
:10319000DCB40000B8BD0000C2B9000080BD000072
:1031A000014B53F82000704780B50000054A00230A
:1031B0001370054A1360054B054A1A604FF400402E
:1031C00000F096BA06110120E44700200400002018
:1031D000AFA4000070B5194B194CE41A902C0BD910
:1031E00018491948194A40F2732307F052F9174851
:1031F00040F2732107F046F9BFF35B8F144B53E89D
:10320000006F721C43E800210029F8D1BFF35B8FE7
:103210001EB92511094CAE4200DB70BD237B53B1B2
:1032200023689B690BB1204698476368042219689C
:10323000204600F06FF801361034ECE7BCB4000013
:10324000DCB4000010BE0000C2B90000CBBD00001D
:10325000EC470020F8B50C4F3D784DB90B4C0C4EA7
:10326000FFF7B8FF361B3611B54202DB01233B7076
:10327000F8BD63685B791BB1236820465B6998479A
:1032800001351034F0E700BF06110120BCB4000086
:10329000DCB40000014B01221A70704705110120B7
:1032A0000C4BBFF35B8F53E8001F013143E8001262
:1032B000002AF8D1BFF35B8F58B1BFF35B8F064B89
:1032C00053E8001F013943E80012002AF8D1BFF388
:1032D0005B8F7047E4470020E8470020054B10B59E
:1032E0001B68044698470021A0602046BDE81040B6
:1032F000FFF72ABF04000020044A054B9B1AB1EBDC
:10330000D30F34BF52F831000020704774B400006E
:10331000BCB4000070B5104C0368041B24111B687A
:10332000013405460E46E4B263B90C490C4A0D4817
:10333000BB2307F0AEF80C4807F0ABF80848BB21F8
:1033400007F0A0F86B681C716B6801221E605A714F
:10335000BDE87040FFF79EBFBCB4000090BE000007
:1033600038BE0000C2B90000A6BE00000EB403B50E
:1033700003AB014653F8042B04480193FFF762F8AE
:1033800002B05DF804EB03B0704700BFE1A4000099
:103390002DE9F04F87B01C4601F0010305929DF81E
:1033A0004090BDF948A004930746884601F0020BFF
:1033B00001F0080607F092F80246002840D037498D
:1033C0003846FFF7D3FF0546BBF1000F08D018F0D1
:1033D000440F37D1324922463846FFF7C7FF05442C
:1033E000049B53B12F4B304953F829202F4B3846BB
:1033F000002A08BF1A46FFF7B9FF3EB12C4B2D49F2
:1034000053F829203846FFF7B1FF0646BAF1000FFE
:1034100012DB059B284C23B1284BB9F1040F08BFE0
:103420001C4651469DF84400FFF766FF21460246C0
:103430003846FFF79BFF0644701907B0BDE8F08FD0
:103440000546C1E71E4B18680028C8D01D4B4FF435
:103450007A781B68B4FBF3F44FF46161B4FBF0F3CA
:1034600000FB134408FB04F44FF03C0CB3FBF1F2F7
:1034700001FB1231B4FBF0FEB1FBFCF300FB1E4478
:103480000CFB131108FB04F40091B4FBF0F40E499B
:10349000CDE901E43846FFF769FFA0E7D6BE00009A
:1034A000DABE00008CB50000FFBE0000C8BE000000
:1034B000A0B5000002BF0000D1BE0000CDBE0000DC
:1034C000F4470020F0470020E3BE0000CA0605D400
:1034D0008B064CBF02490349FFF748BF704700BF46
:1034E000FFCF000008BF00002DE9F8430F46089900
:1034F000DFF8B890044616461D46FFF7E7FF4FF089
:103500000008A84528DB76B33A7829492046FFF71A
:103510002DFF01256A0703D124492046FFF726FF26
:10352000B54225D27A5D22492046FFF71FFF0135BB
:10353000102DEFD11F492046FFF718FFEEB91B49A8
:103540002046FFF713FF0125B5422B4617D3174935
:103550002046FFF70BFF1DE049462046FFF706FF18
:1035600008F10108CDE714492046FFF7FFFE0125C9
:1035700011492046FFF7FAFED9E700252B46FA5CF1
:103580000E4B0F499B5C13F0970F08BF2E2220466D
:10359000FFF7ECFE0135102D06D06B07D4D103499F
:1035A0002046FFF7E3FECFE7BDE8F88313BF000036
:1035B0000BBF000015BF000011BF0000A9D3000021
:1035C00017BF000038B5CB0705460C4603D5054AA2
:1035D0000549FFF7CBFE21462846BDE83840FFF7F6
:1035E00075BF00BFC8BE0000FFBE00002DE9FF4749
:1035F0000E46904636F8102B8B6812F4E07F074693
:103600000D46C2F3821923D00A784868C2F3C20279
:10361000D8B13049401A40F3CF00CDE90120CDF8B0
:103620000090002241463846FFF7B2FE2B68C3F3F4
:1036300049238246B3B96C88C4F3CB04F4B94A4633
:1036400041463846FFF7BEFF2EE04FF0FF30E4E77B
:103650000B68C3F349236BBB4C88C4F3CB041CB386
:10366000CA460BE01C481D4933463A4606F053FD56
:10367000002822DB6C88C4F3CB0494B12B68C3F31D
:1036800049231E44102C254628BF10253146CDF86D
:10369000008053462A463846FFF726FF641B2E4417
:1036A000F0D1B9F1000FCAD1384604B0BDE8F047F7
:1036B00006F03EBF0A48CA46D5E70A4A0A490B48FF
:1036C00040F2B72306F0E5FE064840F2B72106F0C7
:1036D000D9FECFE774B40000E1A400004524000047
:1036E000FDA400001ABF000056BF0000C2B90000D0
:1036F000074A00210123904206D8064A01B9012356
:103700001360054B1860704740085B000121F2E729
:1037100040420F00F0470020F44700202DE9F04F11
:1037200085B002AFD7E90E6A0446884693469946AB
:10373000002E4ED0C7F804A0CDF800A07A6B334617
:1037400010210020FDF7B0FF051E09DA22492348A9
:10375000234A672306F09DFE2148672106F092FE6A
:10376000204B3A6B04F007040BF0070BE40044EA2B
:103770008B1403EA45231C431B4B03EAC2431C433F
:10378000134617332B4423F00703ADEB030D0DF164
:10379000080BA6B1CDF800A07A6B334629460BF191
:1037A0001000FDF781FF002809DA0B490B480C4A8D
:1037B000812306F06EFE0A48812106F063FE4B4627
:1037C00022464146584606F0C0FE0C37BD46BDE8CD
:1037D000F08F3546C4E700BFACBF0000C2B900009F
:1037E0007FBF000000FE07000000F87FF8B5074F1C
:1037F0000D4604464618B44201D12846F8BD386843
:1038000014F8011B8368DB699847F4E7104800202F
:10381000014B0020196070470C480020024B034800
:1038200001221A7006F084BE08110120D4B50000F0
:10383000064B10B518680C46FFF7B2FC214603464C
:10384000BDE8104002480F22184700BF0C48002076
:10385000D4B5000008B5094B0948186007F0F7FA1D
:1038600058B908490848094A792306F012FEBDE80C
:1038700008400648792106F005BE08BD1048002022
:10388000DCB20000EBBF0000C2B90000B6BF000010
:10389000014B01221A70704709110120014B0020D1
:1038A0001960704728480020024B034801221A7013
:1038B00006F03EBE0A11012004B60000064B10B50A
:1038C00018680C46FFF76CFC21460346BDE8104023
:1038D00002480F22184700BF2848002004B6000005
:1038E000F8B5194D07460E460424324639460020E5
:1038F00003F016FCC8B101232B70144B1B782BB9B5
:103900003046F8BD5CB92C704FF0FF34002003F056
:103910004FFC0028F4D02B78002BF3D1F0E7013CCA
:1039200041F2883007F011FBF0E72B7813B1013C2E
:1039300004D12C702B78002BD7D1E1E741F28830ED
:1039400007F003FBF6E700BF091101200A1101206F
:103950002DE9F84305464FF02003EFF3118683F37A
:103960001288BFF36F8F214804F002F868B9204A2B
:10397000204921488E2306F08CFD1C491F4806F083
:1039800088FD1B488E2106F07DFD18481C4FDFF88E
:10399000748004F00BF81C4B1C684FF00C09BCB988
:1039A000124803F0F3FF68B9114A18491248B923C5
:1039B00006F06FFD0D49164806F06BFD0C48B92165
:1039C00006F060FD86F31188BFF36F8FBDE8F883C2
:1039D000D4E90123002D18BF13462BB198F8142009
:1039E00009FB02F2B85C98472468D8E72C4800200D
:1039F0000CBB000065BB0000C2B900007ABB000030
:103A000034480020DC4E00204048002039BB000034
:103A100050BB00000A4ABFF35B8F430902EB8302ED
:103A200000F01F0001238340DB4352E8000F1840E1
:103A300042E800010029F8D1BFF35B8F704700BF57
:103A40003048002070B5194B1C7DBFF35B8F04F02C
:103A50001F0301229A40164B610903EB8103D043F7
:103A600053E8001F01EA000543E80056002EF7D195
:103A7000BFF35B8F0A4213D00E4B0F4D8BB10C235B
:103A80006343EA18E85C517806F0CBFD0020FFF7AD
:103A90005FFF0C235C432A1900232B51C2E9013339
:103AA00070BD83F31188BFF36F8FEFE7DC4E00200A
:103AB0004848002023A60000344800202DE9F843A0
:103AC000324B334A1C7DBFF35B8F63094FEA830897
:103AD00052F823302F4EBFF35B8F04F01F0943FAD7
:103AE00009F313F0010F07460AD10146204600F002
:103AF00069F828B107C80C2303FB046383E80700B7
:103B00000C236343F218F55C2DB92046FFF782FFC2
:103B10002846BDE8F8837B1C10D0D2F808C01E4DA3
:103B20001E4A4FF400400021ECFB005100232846C0
:103B3000FCF704FF0121381A05F022FD04F01CFCFB
:103B40000120FFF705FFBFF35B8F154B984401235E
:103B500003FA09F358E8002F1A4348E80021002926
:103B6000F8D1BFF35B8F0F4B33B10C236343F218D3
:103B7000F05C517806F049FDFFF764FF2046FFF73F
:103B800049FF04F06DFC0120C3E700BFDC4E0020BC
:103B900030480020344800203F420F0040420F00D0
:103BA000484800200BA60000054BBFF35B8F53F87D
:103BB0002000BFF35B8F003818BF0120704700BFA3
:103BC0004C4800202DE9F74F884601A900F042F843
:103BD000441E24B204EB4404DFF86C900546A400B4
:103BE00025B92F46384603B0BDE8F08F019B185D1C
:103BF0001F19FFF7D9FF064610BB7868134A4FF428
:103C0000004ACC463146E0FB0AC100236046FCF77F
:103C100095FE8346B8680D4ACC463146E0FB0AC1A2
:103C200000236046FCF78AFE094B1B685A1C01D032
:103C3000834205D9B8F1FF3FD4D058444045D1D98B
:103C4000013DADB20C3CCBE73F420F0040420F00BC
:103C50000800002008B9024B0B600020704700BF2D
:103C600014B60000014806F0C7B800BF14B6000043
:103C700010B5044618B90D4B0D485B68984761684C
:103C800031F004030CD008290AD011F0020108D049
:103C90000848214603F0CCFC002323600023636026
:103CA00010BD2068142207F08AFAF7E74C010020C3
:103CB00032C00000684D002008B508B34368042BEB
:103CC00010D101220368BFF35B8F53E8001F002966
:103CD00003D143E800200028F7D1BFF35B8F0BD15D
:103CE000002008BD53B100684FF0FF324FF0FF33A2
:103CF00003F096FE0028F3D00348F2E70348F0E70C
:103D00006FF4E040EDE700BFE98FFFFFEA8FFFFFB0
:103D100008B5C0B14368042B10D100220368BFF37B
:103D20005B8F53E8001F012903D143E800200028DE
:103D3000F7D1BFF35B8F09D1002008BD43B1006804
:103D400003F068FFF8E76FF4E040F6E70148F4E7B6
:103D50000148F2E7E98FFFFFEA8FFFFF10B5044645
:103D600018B9164B16485B6898476368042B23D034
:103D7000082B21D0CBB92368BBB912484FF0FF32D2
:103D80004FF0FF33214603F0E7FB08B923681BB966
:103D90000A4B0D485B68984720681422002107F001
:103DA0000EFA636843F002036360206807F0A0F82E
:103DB000636843F00103636010BD00BF4C01002045
:103DC00032C00000684D002058C0000008B5064908
:103DD00006484023142207F058F8BDE8084004497B
:103DE000044806F069B800BF68480020684D00200C
:103DF0001CB6000030B60000014910220A6070476E
:103E000010ED00E072B6404080F31188BFF36F8F71
:103E1000BFF34F8F30BF62B6BFF36F8F704700BFE5
:103E200072B6494081F3118820BF80F3118862B6D1
:103E3000704700BF70B5064686B00D46002938D0E1
:103E40008B6805934B6804930B68039300241C4B09
:103E50001C490293012223462046CDE9004406F086
:103E600092FB6B6905932B690493EB680393164BE4
:103E700014490094CDE9014301222346204606F06F
:103E800082FBEB690393114B0E490094CDE901438A
:103E900001222346204606F076FBAB6903930C4BC8
:103EA00008490094CDE9014301222346204606F04B
:103EB0006AFB2946304606B0BDE8704003F0CCB935
:103EC00085C000009CB40000B4C00000E3C0000046
:103ED000F2C0000040B2002807DB044A4109012378
:103EE00000F01F00834042F82130704700E100E0FD
:103EF000054B420900F01F0053F82220012303FA6A
:103F000000F01040704700BF00E100E070B54D1CAC
:103F1000072D04460E460FD9114A1249124857235D
:103F200006F0B7FA114831460723224606F0B1FAE7
:103F30000B48572106F0A6FA60B20028ACBF00F18A
:103F400060400B4B4FEA4515B8BF00F00F00EDB2D3
:103F5000AABF00F561401D5480F8005370BD00BF3A
:103F600020C1000056C10000C2B9000071C10000AC
:103F700014ED00E030BFFFF7FDBF00BF0B4A08B5EE
:103F80000B4B22F07F029A60BFF34F8FBFF36F8F0E
:103F9000D3F8882022F47002C3F8882003F0F0F9E7
:103FA00005F028F900F0E0FB03F02EFA0000000015
:103FB00000ED00E0094A0A499368096899670949D0
:103FC00058674B6843F080534B60002383F311889C
:103FD000BFF36F8F9368986F704700BFDC4E00206F
:103FE0009CB7000000ED00E012498A684FF03000F5
:103FF0001044EFF3098C80E8F01F202080F3128832
:10400000BFF36F8F0C4F4FF00066CA698A603E6045
:10401000506F0023536780F3118804B5104600F0F9
:104020003FFCBDE8044002F1300090E8F01F8CF343
:1040300009887047DC4E002004ED00E01EF0040FFC
:104040000CBFEFF30880EFF30980816911F8021CBF
:104050000229FFD001B506F0A6FA01BD42F8203CC6
:10406000009B42F81C3C0A49019B42F8183C029B09
:1040700042F8143C21F001014FF0807342F8043CF7
:1040800042F8081C0023203A02654367704700BFCE
:104090005FA20000094A0346906870B113F1160F41
:1040A000406E05D0A0F120029A4205D8834203D287
:1040B000814228BF0020704700207047DC4E00205E
:1040C00008B5094B98600D46144600F0E9FB204600
:1040D00085F30988002163B681F31188BFF36F8FE0
:1040E0000022002306F0BBF8DC4E002001B572B6BA
:1040F0000B4A906900281EBF0021916106F0E9FE7D
:1041000062B6EFF30580A0F110004FEAC000054948
:10411000014409C99847BDE8014003490847000028
:10412000DC4E0020F4B200002D410000044B9968E1
:10413000D869884203D003494FF080520A60704723
:10414000DC4E002004ED00E0F0B585B000243B4BD0
:104150000293CDE90044234607460E460122384922
:10416000204606F02FFA374B9B6ADB0409D5364B05
:1041700033490094CDE9014301222346204606F04D
:1041800021FA304B9B6A1D0509D5304B0293002361
:10419000CDE900332A490122184606F013FA294DC9
:1041A000AB6A9C051ED50024294B029301222346AD
:1041B0002046CDE90044224906F004FAAB6BAA6A16
:1041C00010040FD50393234B1D490094CDE90143FF
:1041D00001222346204606F0F5F91FB1AB6A23F40D
:1041E0000043AB62174B9B6A590509D51A4B0293E2
:1041F0000023CDE9003312490122184606F0E2F906
:10420000104A936A13F4807312D0144B0293002364
:10421000CDE900330A490122184606F0D3F9094ACC
:10422000936A002043F47F439362307005B0F0BD81
:10423000926A9204F3D50A4A0292E9E7B1C10000FA
:104240009CB4000000ED00E0C7C10000D8C1000030
:10425000EBC1000004C2000019C2000034C200001B
:104260004CC200001FB50024334B0293CDE900443B
:10427000234632490122204606F0A4F9304B9B6ABE
:104280009B0109D52F4B2D490094CDE90143012213
:104290002346204606F096F9294B9B6ADC0109D596
:1042A000294B02930023CDE900332449012218460B
:1042B00006F088F9224B9B6A180309D5234B029319
:1042C0000023CDE900331D490122184606F07AF992
:1042D0001B4B9B6A590309D51D4B02930023CDE963
:1042E000003316490122184606F06CF9144B9B6AFC
:1042F0009A0309D5174B02930023CDE900330F49E8
:104300000122184606F05EF90D4B9B6ADB0309D5C6
:10431000114B02930023CDE90033084901221846CE
:1043200006F050F9064A936A6FEA03436FEA1343B3
:104330000020936204B010BD7BC200009CB400005A
:1043400000ED00E093C20000A6C20000C0C2000061
:10435000DEC2000003C300001DC300002DE9F043CE
:1043600085B00024524B0293CDE900442346804699
:10437000894616464F490122204606F023F94E4B46
:104380009B6ADF0609D54D4B4A490094CDE90143AC
:1043900001222346204606F015F9474B9B6A1D076C
:1043A00009D5474B02930023CDE90033414901224F
:1043B000184606F007F9404DAB6A9C0741D46FF0F0
:1043C00015073D4B9B6AD90709D53E4B0293002345
:1043D000CDE9003337490122184606F0F3F8364B91
:1043E0009B6A9A0609D5384B02930023CDE9003326
:1043F00030490122184606F0E5F82F4CA36ADB0687
:1044000002D4A36A9D0750D5636818054DD541466F
:104410003846FFF73FFE002835D080F30988022098
:10442000254B9A6A920642BF5A6A22F400525A6297
:104430009A6A42F0FF029A620023337005B0BDE829
:10444000F0830024214B029320462346CDE900440B
:104450001849012206F0B6F86F6BAB6A1806AED5A4
:104460001B4B14490397CDE90143009423460122D5
:10447000204606F0A7F8B9F1000FA2D0AB6A23F0EE
:104480008003AB629DE7A36AD9060ED51149124A93
:10449000124840F2491305F0FCFF114805F0F9FFFE
:1044A0000D4840F2491105F0EDFF0020B8E700BFCC
:1044B00048C300009CB4000000ED00E05EC30000B3
:1044C000D8C10000BFC300004CC2000091C300006F
:1044D000A9C3000018C40000DEC30000C2B9000078
:1044E00062C400002DE9F041834B5F6890B0044640
:1044F000C7F30806002383F31188BFF36F8F02F020
:104500007F40B0F17F4F0CD102F00C0008281AD187
:104510007A4A7B490093CDE901321846012206F020
:1045200051F80025774A7849784840F2FB3305F086
:10453000B0FF774805F0ADFF724840F2FB3105F05F
:10454000A1FF002406E0120746BF0C461D460125C8
:10455000002CE7D04FF00008F31E8DF81F80092BC8
:1045600000F2B080DFE803F005A4A883AEAEAEAEE3
:10457000AEAC684B604F6249CDF80080CDE9018355
:1045800000230122184606F01DF8FE6A8DF81F80F0
:1045900016F002060CD0604BCDF80080CDE9018307
:1045A000002357490122184606F00CF8002228E0A3
:1045B000FB6A002B04DA594B0096CDE90163EFE763
:1045C000FB6A5B0067D5564B4D490096CDE9016308
:1045D00001223346304605F0F5FFA36933F8022C7B
:1045E0004DF602739A422CD1236803934D4B4449F4
:1045F0000096CDE9016301223346304605F0E2FF23
:1046000022689DF81F30CBB908AE04F1200720685E
:104610006168334603C30834BC421E46F7D10F9B82
:10462000002D63D0C3F3080121B96FEA53236FEA69
:1046300043230F9308A91046FFF7FCFB10B0BDE819
:10464000F08197F8283033B10DF11F020121204687
:10465000FFF784FE0DE097F829302BB10DF11F0113
:104660000120FFF771FD04E07B8D9BB21BB1FFF7CA
:10467000F9FD0246C5E72C49224A244840F2CD23E1
:1046800005F007FF294805F004FF40F2CD211D4841
:1046900005F0F8FE8AE724491A4A1C4840F2D12363
:1046A00005F0F7FE224805F0F4FE40F2D121EEE7D6
:1046B0000DF11F020021CAE70DF11F010020D0E714
:1046C0001C4B69E71C4A1D4B0D4917F4F87F18BFB6
:1046D0001346103ECDE90336194B02930023CDE972
:1046E00000330122184605F06DFF5FE723F4FF73E6
:1046F00023F001039DE700BF00ED00E0B3C400001C
:104700009CB40000DEC30000DEC40000C2B900009B
:10471000F1C400002FC5000046C5000067C50000B9
:1047200075C5000094C50000B1D20000B0C50000FE
:10473000D4C5000004C600009AC4000085C400006F
:1047400028C60000024A536943F0100353617047C2
:1047500000ED00E0EFF30880EFF3098101B5724648
:10476000FFF7C0FE01BD00BF044800232021C2188E
:104770000133302B82F80013F9D1704700E100E0DB
:10478000002080F31488BFF36F8F06F035FD002002
:104790000D490860BFF34F8F0C4880F3088800F084
:1047A0002BF8202080F3118809484FF4026140184B
:1047B00080F30988EFF314800221084380F3148802
:1047C000BFF36F8FFFF7DAFB94ED00E0404B012061
:1047D000C03D01200749D1F890200023C2F30722F1
:1047E0001846934200DB7047C1F89830C1F8A0002A
:1047F0000133F6E700ED00E008B572B6002383F35D
:104800001388FFF7E7FF144B4FF0FF32C3F8802007
:10481000C3F88420C3F88820C3F88C20C3F8902004
:10482000C3F89420C3F89820C3F89C20C3F88021D3
:10483000C3F88421C3F88821C3F88C21C3F89021E0
:10484000C3F89421C3F89821C3F89C2162B6BFF342
:104850004F8FBFF36F8F08BD00E100E0084B9B68EE
:1048600083420BD1EFF3058343B1064B5A6842F004
:1048700080525A605A6A22F400425A6204F006BC1E
:10488000DC4E002000ED00E0024B034A034801210A
:1048900000F086B8000004200000002040B60000B0
:1048A000426E054B203A1A60044A2021C3E90112E6
:1048B0001846012100F09CB8884D002000000B151F
:1048C000F0B5284E85B000258D4215DA4468002CDD
:1048D00045D0D3B104F1FF3C14EA0C0F0FD0224BAA
:1048E0000395029300230122CDE900331F491846A6
:1048F00005F078FE6FF01502104605B0F0BD1F2CD4
:10490000EDD907681CEA070FE9D1202C0768D0F819
:1049100008C05FFA82FE10D9B4F1004F0FD8013CF5
:10492000B4FA84F4C4F11F046400BEF1070F4CEA2A
:10493000040C06D90E4B0392D3E70824F5E73E2476
:10494000F3E727F01F04144344F01004C6F898203E
:10495000C6F89C404CF00104C6F8A0400132013575
:104960000C30B1E700ED00E03FC6000094B4000059
:1049700062C60000044B0522C3F89420BFF34F8F9A
:10498000BFF36F8F704700BF00ED00E0BFF35F8F94
:10499000024B0022C3F89420704700BF00ED00E0F6
:1049A00038B50E4D01232A780C46FFF789FF287091
:1049B000163011D140F21113094A0A490A4805F08C
:1049C00068FD2146094805F064FDBDE8384004480B
:1049D00040F2111105F056BD38BD00BF0C11012089
:1049E00088C60000B1D20000C2B90000BFC60000F6
:1049F00010B5134A002312780C46FFF761FF10F13F
:104A0000160F04D00F4B0022072812DD10BD0E4AEE
:104A10000E490F484FF4987305F03BFD21460D48B1
:104A200005F037FDBDE8104007484FF4987105F0D8
:104A300029BDC3F89800C3F8A0200130E4E700BF07
:104A40000C11012000ED00E088C60000B1D200008A
:104A5000C2B90000EBC60000284910B50C68082C4C
:104A600013D94FF4A473264A2649274805F011FDAF
:104A700026480822214605F00CFD21484FF4A47178
:104A800005F000FD4FF0FF3010BDFFF77FFF4868D5
:104A90001F490022944200F10C000BD11D4B1C70E9
:104AA000FFF768FFD1F89030C3F30723082B14D128
:104AB0000020E9E7C1F8982050F80C3C23F01F03D0
:104AC000134343F01003C1F89C3050F8043C43F00A
:104AD0000103C1F8A0300132DCE7094A0E490A4857
:104AE0004FF4D47305F0D5FC0C4805F0D2FC044813
:104AF0004FF4D47105F0C6FCDAE700BF4CB60000F5
:104B000088C60000B1D20000C2B9000018C700007A
:104B100000ED00E00C1101204CC700009CC7000014
:104B200008B50B4BC3F1005303F58023B3F5006FB9
:104B30000CD20849084A0948812305F0AAFC084814
:104B400005F0A7FC0448812105F09CFC002008BD6D
:104B5000E0830220EDC70000BDC70000C2B900001D
:104B600034C80000014B1860704700BF2C000020C3
:104B7000F8B50A4F0D46461EC0F10104A3199D4227
:104B800001DC2846F8BD73780A2B02D13B680D2062
:104B900098473B6816F8010F9847EFE72C00002074
:104BA00008B502480521FFF7E3FFFEE7BBC8000098
:104BB00008B51D210448FFF7DBFF404080F3118852
:104BC0004FF0030002DF00BFC1C8000010B54FF076
:104BD0002003EFF3118083F31288BFF36F8F114A24
:104BE0000123C2F840354FF080424FF08051C2F8A7
:104BF0007835D1F83041082C08D1D1F83411052985
:104C000004D8094C615C09B1C2F838364FF08043D2
:104C10000122C3F8802580F31188BFF36F8F002035
:104C200010BD00BF00E00140EEC800004FF080431F
:104C3000C0B2C3F81C05BFF34F8F0549054BCA68C6
:104C400002F4E0621343CB60BFF34F8F00BFFDE778
:104C500000ED00E00400FA0520B1034B800143F0B1
:104C600001031847704700BF00B5000037B50C4678
:104C70000A490B4A411A402300934911054623462D
:104C8000084805F0E7FC011E05DA2846234603B074
:104C9000BDE83040184703B030BD00BFA84D00202C
:104CA000BFA600007CB2000038B5CCB2012C05468E
:104CB00009D9094909480A4A792305F0EAFB084855
:104CC000792105F0DFFB2B690C2204FB0233986C81
:104CD00000F0070038BD00BF35C90000C2B90000B0
:104CE000F8C80000F8B5CCB2012C06690546174695
:104CF0000BD9194919481A4A40F24D1305F0C9FB5E
:104D0000174840F24D1105F0BDFB4FF02003EFF3C3
:104D1000118283F31288BFF36F8F0C2101FB0463B0
:104D20009B6C13F0C00308D09F4206D082F3118819
:104D3000BFF36F8F4FF0FF30F8BD4C432644012383
:104D4000B36482F31188BFF36F8F6B6823445B6891
:104D500098470020F0E700BF35C90000C2B9000045
:104D6000F8C8000070B50D460649411A04464911BD
:104D700005484022FFF7B6FF2B4601462046BDE816
:104D800070401847A84D00207CB20000002270B58A
:104D9000012104461046FFF7B9F80F4801F092FCD4
:104DA0000E4B984215D101F0B3FC26690C493046F0
:104DB00005F042FA00280BDB246909490125B56496
:104DC00004F1200005F038FA002801DB65650020B9
:104DD00070BD6FF00400FBE7194E00000000AD0B42
:104DE0006CB6000001460C2309484B4370B5C4184B
:104DF000D4E91056002248332264184405F017FC09
:104E00002DB132462B460348BDE87040184770BDAF
:104E1000A84D00207CB20000012808B506D0032868
:104E200008D0A8B9104B9B6C5B071BD1BDE80840AC
:104E3000FFF7D8BF0D490E4A0E4840F25E2305F039
:104E400028FB40F25E21BDE80840094805F01ABB86
:104E50000649074A074840F2622305F01AFB40F270
:104E60006221F0E708BD00BFA84D0020B1D20000CC
:104E7000F8C80000C2B9000008B54FF02003EFF3F6
:104E8000118183F31288BFF36F8F124A136843F0C6
:104E900002001060DA0708D481F31188BFF36F8F26
:104EA0000120BDE8084001F057BC4FF08043D3F823
:104EB0000C24D3F80C34D307EED5074805F0B7FB24
:104EC00081F31188BFF36F8F0020BDE80840FFF722
:104ED00089BF00BF004E0020F04D00201FB500220A
:104EE0000123CDE90223094ACDF800D06B46CDF865
:104EF00004D005F0DDFB002805DB4FF480420023E1
:104F0000684602F089FF05B05DF804FBDDA60000ED
:104F1000094BBFF35B8F53E8002F22F0020143E8F7
:104F200000100028F7D1BFF35B8FD30702D4012014
:104F300001F076BC704700BF004E00202DE9F04123
:104F40004749BFF35B8F0646012251E8003F41E825
:104F500000200028F9D1BFF35B8FA3B94149424833
:104F60004B60CB608A60FDF759F800280BDA3F49A7
:104F70003F48404A4FF4087305F08BFA3D484FF420
:104F8000087105F07FFA76B3731E012B59D8012EF4
:104F900007D14FF08043D3F81C3403F00303012BF7
:104FA00021D005F08EFF0546F8B9334B1B78E3B1ED
:104FB0004FF080430222C3F808230746DFF8BC8085
:104FC0004FF08044D4F81834D4F81824D20316D5FE
:104FD00003F00303012B01D0012E10D15DB387F341
:104FE0001188BFF36F8FBDE8F0814FF02003EFF31E
:104FF000118783F31288BFF36F8F0125DEE7ADB110
:105000003846FEF70DFFD4F81835002BDAD1D4F866
:105010000421002AD6D0C4F80431D4F80431012385
:10502000C4F81835C8F88031A360CBE700212120EF
:1050300003F0D4FFE7E74FF080430222C3F80423D4
:10504000D1E70F490A480B4A40F2322305F021FA12
:10505000BDE8F041074840F2322105F013BA00BF25
:10506000A44D0020944D0020C84D002056BF0000E4
:10507000C2B90000F8C800001D15012000E100E0E1
:10508000B1D2000008B5084B0848186005F0DFFEF3
:1050900038B10748FFF766FD0548FCF76BFD0020B7
:1050A00008BD6FF01200FBE7044E0020DCB20000E8
:1050B000B55000000A2838B5074D044604D12868C9
:1050C00083680D21DB69984728688368E1B2DB6952
:1050D0009847204638BD00BF044E002070B50569D2
:1050E00016460C4661B92249224A2348242305F07A
:1050F000D0F9224805F0CDF91E48242105F0C2F967
:10510000636863B91E491B4A1B48252305F0C1F992
:105110001C4805F0BEF91748252105F0B3F96B6866
:105120004BB1A34213D1AA6823686B60944200D1AB
:10513000AB60002323607EB9002070BD9C4206D185
:1051400023681360AB689C42F3D1AA60F1E71A466A
:105150001B68002BF2D13EB16B682360AB686C60BA
:10516000002BE9D1AC60E7E76FF01500E5E700BF81
:10517000A6C9000079C90000C2B90000AFC900008B
:10518000BEC90000D0C900007FB54068057B01F0B2
:105190001F04B2F5001F44EA451404D1204601F073
:1051A0005BFE00205DE00025B2F5800FCDE90255E1
:1051B00014D1B3F1007F0CBF042305238DF8083010
:1051C0000023194602AA204601F04CFC344B9842B9
:1051D00062D10121204601F0CFFDE2E7B3F1C06FBB
:1051E00041D0B3F1007F14BF012302238DF80830B2
:1051F0008368CB40D807E3D4B2F1A07FE0D1660941
:1052000004F01F0531D0012E04D14FF6FF73EB409F
:10521000D9070ED423492448244A40F2292305F013
:1052200038F9224840F2292105F02CF916B3012E55
:1052300023D11F4B05F5E07553F82530DB07BFD4AC
:105240000DF107052946204601F02EFD194B984225
:1052500020D1284601F08AFD114B98421AD06FF0F8
:105260000B0004B070BD0323C0E74FF0FF33EB40E9
:10527000DA07CFD54FF0A043DCE70C4A0E490A48C5
:1052800040F22E2305F005F9084840F22E2105F0E2
:10529000F9F8EFE7039593E76FF00400E1E700BF4B
:1052A0000000AD0B1ACA0000C2B90000E7C9000037
:1052B000000300500400AD0BB1D2000010B501F0A6
:1052C00045FD044668B901F019FD084B98420AD122
:1052D0000748214601F0E2FC224605210620FEF7A0
:1052E00015FE002010BD6FF00400FBE70000AD0BC1
:1052F000F552000043092DE9F04703D0012B30D0CF
:10530000BDE8F087194F3B695C68002CF8D000F0CD
:105310001F0001262568DFF85880DFF85890DFF875
:1053200058A08640002CEBD0A3681E4214D06368BE
:1053300063B9494645234246504605F0AAF80F484E
:1053400005F0A7F84521404605F09CF8D4E9013264
:1053500021463240384698472DB12B682C461D46D1
:10536000E0E7074FCFE72B46F8E700BFACB20000FD
:1053700079C900003DCA0000C2B90000D0C90000D0
:1053800094B200002DE9F04347683B7B01F01F0514
:1053900085B00E4645EA43151446D2B902A92846FF
:1053A00001F082FC0446284601F080FD464B9842FD
:1053B00004D06FF0040005B0BDE8F083844201D052
:1053C0000020F8E79DF8080001F0CAFCA042F7D0E1
:1053D000EFE74FF000090DF103013046CDE90299E6
:1053E00001F062FC4B46804602AA4946284601F07D
:1053F00039FB354B984202D06FF01500DBE7804552
:1054000003D19DF8030001F0ABFCA3034CD540F29F
:105410000663234040F20622934219D00CD8062B93
:1054200017D004D8ABB1022BE6D1042311E0B3F5B9
:10543000007FE1D101230CE040F20242934227D0E9
:10544000B3F5C06F26D0B3F5806FD5D1022300E04D
:1054500007238DF8043084F48033C3F30043E0065F
:105460008DF8053054BFC4F34013032321038DF896
:10547000063011D57A680123B340C2F808350022FE
:1054800001A9284601F096FB0F4B984298D0B3E74C
:105490000523DEE70323DCE7620341BF01237A68CB
:1054A000B340C2F80C35EAE7E3064FF0000354BFFF
:1054B000C4F3401403241A4601A928468DF8044079
:1054C00001F0D0FAE0E700BF0000AD0B7FB50BABF9
:1054D00005930393054B02930023CDE9003301228A
:1054E0001846FEF71BF907B05DF804FB57CA000029
:1054F0002DE9F3411C46436807690E4605461968C5
:105500004FF02003EFF3118883F31288BFF36F8FFE
:10551000F868C36843B188F31188BFF36F8F6FF0E9
:105520000F0002B0BDE8F0814FF4800CC2608660CD
:10553000C1F804C306F06041B1F1005F10D1C0E9C9
:1055400004623946284605F05CFA88F31188BFF3F7
:105550006F8FFB7A012B01D1631C05D10020E0E79E
:10556000036205F003FAECE70B480C4AFD6824EAF5
:10557000E4744FF4004600210023C4FB0601FBF74E
:10558000DDF9283502460B4600200021CDE9000157
:10559000284604F007FAE1E73F420F0040420F00BF
:1055A000F0B54B79012B26D0032B21D110268B7916
:1055B000032B1DD1CC790CB1012C19D10A7912B170
:1055C000022A15D10E220B684568B3F5164F2D68D7
:1055D00065D02DD8B3F5165F64D016D8B3F5966FA5
:1055E00062D00AD8B3F5967F61D0B3F5167F61D04B
:1055F0006FF0850052E00026D9E7B3F5166F5CD056
:10560000B3F5965FF4D1374B3CE0B3F5E14F57D09B
:1056100007D8B3F5615F55D0B3F5964FE8D1324B5B
:1056200030E047F61227BB42E2D14FF4000329E0F5
:10563000B3F5613F48D013D8B3F5963F47D009D8AA
:105640004DF6C027BB4244D0B3F5614FD0D14FF4E3
:105650006B0317E0B3F5E13FCAD14FF0EB7311E0F4
:10566000B3F5612F38D008D8204FBB4237D0B3F5FF
:10567000E12FBDD14FF0E86304E01D4FBB42B7D12D
:105680004FF080530069C5F82435031D03C9344326
:105690002243C5F86C2583E803000020F0BD4FF4D9
:1056A0001D03EFE7134BEDE74FF49E23EAE74FF4BA
:1056B000A033E7E74FF41C33E4E74FF41D23E1E7A1
:1056C0000D4BDFE70D4BDDE74FF06C73DAE70C4B6A
:1056D000D8E74FF46503D5E74FF07063D2E74FF09A
:1056E0008063CFE700B0130000A04E0090D003000D
:1056F00040420F000050270000C0750000F03A0043
:1057000000903A012DE9F043D0F804900669D9F8E9
:105710000050D9F80C8087B00021C5F80015074665
:10572000306005AA404605F00EFA041E25DB059BF5
:10573000D8F800201979186805F05CFA041E1CDB03
:10574000311D3846FFF72CFF0446B0B9D9F80430B4
:10575000990729D506F1160001F0ACFC494B984297
:105760000FD0494B0094CDE90143204623464749D9
:105770000122FFF7ABFE6FF00404204607B0BDE83E
:10578000F083B07DC30003F1804303F5F83305F1E6
:105790000C0205F59071C3F81015C3F814253C4AA6
:1057A00001238340C2F80435F368002B55D07B6891
:1057B000D7F810801B68D8F80C0036490422C3F8CB
:1057C00004230122C0F8C820C3F804130821C3F839
:1057D0000015D3F84C11A1B15A60D3F844211AB97D
:1057E000D3F82421002AF8D00022C3F84C21D3F8A2
:1057F0004C11C3F81021D3F81011C3F84421D3F889
:10580000443125490022883005F0C5FBD8F80C301A
:10581000D8F80C00C3F8BC8020490022283005F0DD
:10582000BAFBD8F80C30C3F85C80D9F804309A077A
:105830005CBF4FF48072C5F80423DB0644BF4FF40D
:105840008003C5F8043314360023C5F84465C5F851
:1058500048350123AB60EB608FE70823C5F80035BE
:1058600099F80830002BE0D1C5F81031D5F8103187
:1058700006F11503C5F834350123C5F838352B601A
:10588000D3E700BF0000AD0B57CA0000B4B400005E
:1058900000F0014010020A0071AA000035AB0000C0
:1058A000F8B5066905460F4605F00BFBB0B9284B65
:1058B0001B789BB16424686805F093F8002834D104
:1058C000012005F042FA013CF5D10021212003F02E
:1058D00085FBEFE784F31188BFF36F8F4FF0200350
:1058E000EFF3118483F31288BFF36F8F6968084662
:1058F00005F077F80028EDD0F36853B1DA6842B1CB
:10590000D3F8C420002A04DA0A68D2F84C25C3F878
:10591000C4203146012201F8147F284604F017FF05
:1059200084F31188BFF36F8FF8BD4FF02003EFF3BE
:10593000118483F31288BFF36F8F686805F051F804
:105940000028E6D184F31188BFF36F8FBDE700BF55
:105950001D1501202DE9E04FD0F804A0D0F810B0BB
:10596000DAF8008017469AF808200546894692B171
:10597000434A4449444840F27F3304F08AFD434897
:1059800004F087FD3E4840F27F3104F07BFD6FF06C
:105990008500BDE8E08FDBF80C1091F8D220002ADA
:1059A0006BD1B3F5E87FCB67D2BF5C23052293FBB5
:1059B000F2F3C1F880300023C1E91A330B67DAF83B
:1059C0000430DA06C1E9189723D591F8D16006B3FF
:1059D000BE4228BF3E4648463246CC3105F0CEFB9B
:1059E000BF1BB14415D1DBF80C2092F8D1309B1BC2
:1059F00082F8D1303146284604F0D6FEDBF80C1090
:105A00002846603104F0E9FE284604F0FEFE00203E
:105A1000BFE70023C8F83495C8F83875C8F81031C6
:105A2000D8F81021C8F84C31D8F84C31DBF80C30DC
:105A3000012283F8D220DAF80430DB0619D54FF0C2
:105A40002003EFF3118183F31288BFF36F8F2B696B
:105A50006868DB682BB1D3F8C82042F00202C3F8B3
:105A6000C82003680822C3F8002581F31188BFF31A
:105A70006F8F0123C8F80030C9E76FF00F0088E787
:105A800076CA0000B1D20000C2B90000AACA000064
:105A900043682DE9F0411D680369D5F8081188B005
:105AA000044669B10022C5F80821D5F80821DA6852
:105AB000D2F8C0300133C2F8C03008B0BDE8F08180
:105AC000D5F8243113B3C5F82411D5F82431D5F80D
:105AD0008064C5F88064142203A805F070FB0623D7
