:10000000A0470120FD4B00008FB60000D14B00003F
:10001000D14B0000D14B0000D14B0000000000008C
:10002000000000000000000000000000B9440000D3
:10003000D14B00000000000065440000D14B0000DF
:1000400069450000694500006945000069450000F8
:1000500069450000694500006945000069450000E8
:1000600069450000694500006945000069450000D8
:1000700069450000694500006945000069450000C8
:1000800069450000694500006945000069450000B8
:1000900069450000694500006945000069450000A8
:1000A0006945000069450000694500006945000098
:1000B0006945000069450000694500006945000088
:1000C0006945000069450000694500006945000078
:1000D0006945000069450000694500006945000068
:1000E0006945000069450000694500006945000058
:1000F0006945000069450000694500006945000048
:1001000001F0FF01102A2BDB10F0070F08D010F8C8
:10011000013B013A8B422DD010F0070F42B3F6D1CC
:10012000F0B441EA012141EA014122F007047FF0E5
:1001300000070023F0E80256083C85EA010586EA3C
:10014000010685FA47F5A3FA87F586FA47F6A5FA78
:1001500087F68EB9EED1F0BC01F0FF0102F0070284
:1001600032B110F8013B013A83EA010313B1F8D12F
:100170000020704701387047002D06BF3546033810
:10018000073815F0010F07D1013015F4807F02BF49
:10019000013015F4C03F0130F0BC0138704700BF9A
:1001A00081F0004102E000BF83F0004330B54FEA28
:1001B00041044FEA430594EA050F08BF90EA020F95
:1001C0001FBF54EA000C55EA020C7FEA645C7FEA28
:1001D000655C00F0E2804FEA5454D4EB5555B8BF4B
:1001E0006D420CDD2C4480EA020281EA030382EABC
:1001F000000083EA010180EA020281EA0303362D4E
:1002000088BF30BD11F0004F4FEA01314FF4801C20
:100210004CEA113102D0404261EB410113F0004F32
:100220004FEA03334CEA133302D0524263EB4303E9
:1002300094EA050F00F0A780A4F10104D5F1200E87
:100240000DDB02FA0EFC22FA05F2801841F10001E2
:1002500003FA0EF2801843FA05F359410EE0A5F1B6
:1002600020050EF1200E012A03FA0EFC28BF4CF0E7
:10027000020C43FA05F3C01851EBE37101F000459D
:1002800007D54FF0000EDCF1000C7EEB00006EEBAA
:100290000101B1F5801F1BD3B1F5001F0CD3490834
:1002A0005FEA30004FEA3C0C04F101044FEA44528B
:1002B00012F5800F80F09A80BCF1004F08BF5FEA12
:1002C000500C50F1000041EB045141EA050130BDF2
:1002D0005FEA4C0C404141EB0101013C28BFB1F504
:1002E000801FE9D291F0000F04BF01460020B1FA4F
:1002F00081F308BF2033A3F10B03B3F120020CDA22
:100300000C3208DD02F1140CC2F10C0201FA0CF0FF
:1003100021FA02F10CE002F11402D8BFC2F1200C64
:1003200001FA02F120FA0CFCDCBF41EA0C0190401A
:10033000E41AA2BF01EB0451294330BD6FEA040463
:100340001F3C1CDA0C340EDC04F11404C4F120024E
:1003500020FA04F001FA02F340EA030021FA04F360
:1003600045EA030130BDC4F10C04C4F1200220FAB7
:1003700002F001FA04F340EA0300294630BD21FAF5
:1003800004F0294630BD94F0000F83F4801306BFBB
:1003900081F480110134013D4EE77FEA645C18BFAF
:1003A0007FEA655C29D094EA050F08BF90EA020F46
:1003B00005D054EA000C04BF1946104630BD91EA3E
:1003C000030F1EBF0021002030BD5FEA545C05D141
:1003D0004000494128BF41F0004130BD14F5800480
:1003E0003CBF01F5801130BD01F0004545F0FE41F4
:1003F00041F470014FF0000030BD7FEA645C1ABF29
:10040000194610467FEA655C1CBF0B46024650EA5F
:10041000013406BF52EA033591EA030F41F400218B
:1004200030BD00BF90F0000F04BF0021704730B511
:100430004FF4806404F132044FF000054FF00001E6
:1004400050E700BF90F0000F04BF0021704730B5A7
:100450004FF4806404F1320410F0004548BF40427C
:100460004FF000013EE700BF42004FEAE2014FEAD1
:1004700031014FEA02701FBF12F07F4393F07F4FAC
:1004800081F06051704732F07F4208BF704793F0AF
:100490007F4F04BF41F40021704730B54FF46074C2
:1004A00001F0004521F000411CE700BF50EA0102C5
:1004B00008BF704730B54FF000050AE050EA01026E
:1004C00008BF704730B511F0004502D5404261EBDE
:1004D00041014FF4806404F132045FEA915C3FF41F
:1004E000D8AE4FF003025FEADC0C18BF03325FEABC
:1004F000DC0C18BF033202EBDC02C2F1200300FA6D
:1005000003FC20FA02F001FA03FE40EA0E0021FA91
:1005100002F11444BDE600BF70B54FF0FF0C4CF47F
:10052000E06C1CEA11541DBF1CEA135594EA0C0F31
:1005300095EA0C0F00F0DEF82C4481EA030621EA6C
:100540004C5123EA4C5350EA013518BF52EA0335A7
:1005500041F4801143F4801338D0A0FB02CE4FF059
:100560000005E1FB02E506F00042E0FB03E54FF089
:100570000006E1FB03569CF0000F18BF4EF0010E81
:10058000A4F1FF04B6F5007F64F5407404D25FEA7D
:100590004E0E6D4146EB060642EAC62141EA555130
:1005A0004FEAC52040EA5E504FEACE2EB4F1FD0C72
:1005B00088BFBCF5E06F1ED8BEF1004F08BF5FEAF0
:1005C000500E50F1000041EB045170BD06F00046A2
:1005D00046EA010140EA020081EA0301B4EB5C044F
:1005E000C2BFD4EB0C0541EA045170BD41F4801147
:1005F0004FF0000E013C00F3AB8014F1360FDEBF6C
:10060000002001F0004170BDC4F10004203C35DA47
:100610000C341BDC04F11404C4F1200500FA05F3CA
:1006200020FA04F001FA05F240EA020001F000426B
:1006300021F0004110EBD37021FA04F642EB0601E1
:100640005EEA430E08BF20EAD37070BDC4F10C040B
:10065000C4F1200500FA04F320FA05F001FA04F2CF
:1006600040EA020001F0004110EBD37041F10001BB
:100670005EEA430E08BF20EAD37070BDC4F12005C6
:1006800000FA05F24EEA020E20FA04F301FA05F22E
:1006900043EA020321FA04F001F0004121FA04F2D6
:1006A00020EA020000EBD3705EEA430E08BF20EAA6
:1006B000D37070BD94F0000F0FD101F000464000E0
:1006C00041EB010111F4801F08BF013CF7D041EA62
:1006D000060195F0000F18BF704703F00046520066
:1006E00043EB030313F4801F08BF013DF7D043EA37
:1006F0000603704794EA0C0F0CEA135518BF95EAED
:100700000C0F0CD050EA410618BF52EA4306D1D173
:1007100081EA030101F000414FF0000070BD50EA92
:10072000410606BF1046194652EA430619D094EA1C
:100730000C0F02D150EA013613D195EA0C0F05D106
:1007400052EA03361CBF104619460AD181EA03015A
:1007500001F0004141F0FE4141F470014FF0000012
:1007600070BD41F0FE4141F4780170BD70B54FF0AD
:10077000FF0C4CF4E06C1CEA11541DBF1CEA13552D
:1007800094EA0C0F95EA0C0F00F0A7F8A4EB05040F
:1007900081EA030E52EA03354FEA013100F0888006
:1007A0004FEA03334FF0805545EA131343EA1263CF
:1007B0004FEA022245EA111545EA10654FEA002684
:1007C0000EF000419D4208BF964244F1FD0404F53D
:1007D000407402D25B084FEA3202B61A65EB030599
:1007E0005B084FEA32024FF480104FF4002CB6EB56
:1007F000020E75EB030E22BFB61A754640EA0C00D6
:100800005B084FEA3202B6EB020E75EB030E22BF15
:10081000B61A754640EA5C005B084FEA3202B6EB56
:10082000020E75EB030E22BFB61A754640EA9C0015
:100830005B084FEA3202B6EB020E75EB030E22BFE5
:10084000B61A754640EADC0055EA060E18D04FEAA3
:10085000051545EA16754FEA06164FEAC30343EA43
:1008600052734FEAC2025FEA1C1CC0D111F4801F10
:100870000BD141EA00014FF000004FF0004CB6E709
:1008800011F4801F04BF01430020B4F1FD0C88BFA8
:10089000BCF5E06F3FF6AFAEB5EB030C04BFB6EBB3
:1008A000020C5FEA500C50F1000041EB045170BDA6
:1008B0000EF0004E4EEA113114EB5C04C2BFD4EBD3
:1008C0000C0541EA045170BD41F480114FF0000E57
:1008D000013C90E645EA060E8DE60CEA135594EAD3
:1008E0000C0F08BF95EA0C0F3FF43BAF94EA0C0FD6
:1008F0000AD150EA01347FF434AF95EA0C0F7FF44B
:1009000025AF104619462CE795EA0C0F06D152EA9E
:1009100003353FF4FDAE1046194622E750EA410682
:1009200018BF52EA43067FF4C5AE50EA41047FF493
:100930000DAF52EA43057FF4EBAE12E74FEA4102F6
:10094000B2F1E04324BFB3F5001CDCF1FE5C0DD92D
:1009500001F0004C4FEAC0024CEA5070B2F1004F77
:1009600040EB830008BF20F00100704711F0804F7A
:1009700021D113F13872BCBF01F00040704741F43F
:1009800080114FEA5252C2F11802C2F1200C10FA43
:100990000CF320FA02F018BF40F001004FEAC12327
:1009A0004FEAD32303FA0CFC40EA0C0023FA02F3CB
:1009B0004FEA4303CCE77FEA625307D150EA0133A1
:1009C0001EBF4FF0FE4040F44000704701F0004071
:1009D00040F0FE4040F40000704700BF80F000404F
:1009E00002E000BF81F0004142001FBF5FEA410307
:1009F00092EA030F7FEA226C7FEA236C6AD04FEA07
:100A00001262D2EB1363C1BFD2184140484041404B
:100A1000B8BF5B42192B88BF704710F0004F40F4FD
:100A2000000020F07F4018BF404211F0004F41F419
:100A3000000121F07F4118BF494292EA030F3FD0E5
:100A4000A2F1010241FA03FC10EB0C00C3F12003F8
:100A500001FA03F100F0004302D5494260EB400087
:100A6000B0F5000F13D3B0F1807F06D340084FEAF2
:100A7000310102F10102FE2A51D2B1F1004F40EBE7
:100A8000C25008BF20F0010040EA0300704749004F
:100A900040EB0000013A28BFB0F5000FEDD2B0FAEC
:100AA00080FCACF1080CB2EB0C0200FA0CF0AABF0F
:100AB00000EBC25052421843BCBFD04018437047AD
:100AC00092F0000F81F4000106BF80F400000132B3
:100AD000013BB5E74FEA41037FEA226C18BF7FEA8A
:100AE000236C21D092EA030F04D092F0000F08BFCC
:100AF0000846704790EA010F1CBF0020704712F0B3
:100B00007F4F04D1400028BF40F00040704712F1F1
:100B100000723CBF00F50000704700F0004343F056
:100B2000FE4040F4000070477FEA226216BF08468C
:100B30007FEA23630146420206BF5FEA412390EA4F
:100B4000010F40F4800070474FF0000304E000BF45
:100B500010F0004348BF40425FEA000C08BF7047F6
:100B600043F0964301464FF000001CE050EA0102BA
:100B700008BF70474FF000030AE000BF50EA0102CF
:100B800008BF704711F0004302D5404261EB4101BC
:100B90005FEA010C02BF84460146002043F0B643E1
:100BA00008BFA3F18053A3F50003BCFA8CF2083A06
:100BB000A3EBC25310DB01FA02FC634400FA02FC0F
:100BC000C2F12002BCF1004F20FA02F243EB020016
:100BD00008BF20F00100704702F1200201FA02FC78
:100BE000C2F1200250EA4C0021FA02F243EB02006B
:100BF00008BF20EADC70704742000ED2B2F1FE4F0F
:100C00000BD34FF09E03B3EB126209D44FEA0023DB
:100C100043F0004323FA02F070474FF000007047A2
:100C200012F1610F01D1420202D14FF0FF30704743
:100C30004FF00000704700BF53B94AB9002908BF00
:100C400000281CBF4FF0FF314FF0FF3000F00CB810
:100C5000ADF1080C6DE904CE00F090F8DDF804E089
:100C6000DDE9022304B07047704700BF4FF0FF3C3E
:100C700006E000BF4FF0010C02E000BF4FF0010C96
:100C80004DF804CD4FEA410C7FEA6C5C4FEA430C0F
:100C900018BF7FEA6C5C1BD001B050EA410C0CBF5E
:100CA00052EA430C91EA030F02BF90EA020F0020C0
:100CB000704710F1000F91EA030F58BF994208BF27
:100CC00090422CBFD8176FEAE37040F001007047E4
:100CD0004FEA410C7FEA6C5C02D150EA013C07D13B
:100CE0004FEA430C7FEA6C5CD6D152EA033CD3D086
:100CF0005DF8040B704700BF8446104662468C4680
:100D00001946634600E000BF01B5FFF7B7FF0028B2
:100D100048BF10F1000F01BD4DF808EDFFF7F4FFDB
:100D20000CBF012000205DF808FB00BF4DF808ED66
:100D3000FFF7EAFF34BF012000205DF808FB00BF89
:100D40004DF808EDFFF7E0FF94BF012000205DF8AB
:100D500008FB00BF4DF808EDFFF7CEFF94BF012060
:100D600000205DF808FB00BF4DF808EDFFF7C4FF59
:100D700034BF012000205DF808FB00BF2DE9F047DB
:100D800086468C460846089E154674461946002B32
:100D900040F0C2808542B2FA82F245D94AB1C2F12E
:100DA000200300FA02FC2EFA03F3954043EA0C0CF0
:100DB00094404FEA154EA8B2BCFBFEF8230C0EFB84
:100DC00018CC08FB00F943EA0C43994528D9EB18E5
:100DD00008F1FF3704D2994502D9A8F102072B4444
:100DE000A3EB0903A4B2B3FBFEFC0EFB1C330CFB0C
:100DF00000F044EA0344A04214D92C190CF1FF334B
:100E000004D2A04202D9ACF102032C44241A43EAD2
:100E100007401EB1D440002334607360BDE8F08702
:100E20004746DDE76346F1E792BB431B01214FEAEA
:100E3000154EAFB2B3FBFEFC200C0EFB1C330CFBBB
:100E400007F840EA0343984562D9EB180CF1FF30EC
:100E500004D2984502D9ACF102002B44A3EB08035D
:100E6000A4B2B3FBFEFC0EFB1C330CFB07F744EAF9
:100E70000344A7424ED92C190CF1FF3304D2A742E8
:100E800002D9ACF102032C44E41B43EA0040C0E762
:100E9000C2F1200320FA03F1954090402EFA03F3AB
:100EA00003434FEA154EAFB2B1FBFEFC0EFB1C1024
:100EB000190C0CFB07F841EA0041884504FA02F4DA
:100EC00022D969180CF1FF3004D2884502D9ACF15F
:100ED00002002944A1EB08019BB2B1FBFEFC0EFB12
:100EE0001C110CFB07F743EA01439F420ED9EB1894
:100EF0000CF1FF3104D29F4202D9ACF102012B4424
:100F0000DB1B41EA004192E76046E3E76146F7E711
:100F10006046A3E76346B7E7834206D916B90021C6
:100F200008467BE7C6E900E0F9E7B3FA83F78FB933
:100F3000834201D3724508D8BEEB020460EB030381
:100F400001209C461EB9002168E73846FAE7C6E949
:100F5000004CF8E7C7F1200CBB4022FA0CF41C430C
:100F60002EFA0CF120FA0CF3B84001434FEA144971
:100F70000EFA07F5B3FBF9F81FFA84FE09FB1830E7
:100F80000B0C08FB0EFA43EA00439A4502FA07F2FB
:100F900040D9E31808F1FF3004D29A4502D9A8F1EC
:100FA00002002344A3EB0A0389B2B3FBF9F809FB5F
:100FB000183308FB0EFE41EA03418E452CD9611817
:100FC00008F1FF3304D28E4502D9A8F1020321446F
:100FD00043EA0040A0FB0298A1EB0E014145CE463A
:100FE000434602D306D14D4504D2B9EB020E68EB5D
:100FF00004030138002EA6D0B5EB0E0261EB03010D
:1010000001FA0CFC22FA07F34CEA0303F940C6E9A3
:10101000003198E74046C5E74346D9E710F8012B71
:1010200011F8013B012A28BF9A42F7D0D01A704725
:10103000034613F8012B002AFBD1181A0138704718
:10104000F8B500240D46174626462346C25CFF2A03
:101050001ED00133802BF9D100F57D533F330021A1
:1010600013F8012FFF2A15D001318029F8D1A01BD8
:10107000FFF7E8F908A3D3E900230BF000F9FFF725
:101080005DFC642306FB0333DB1138602B80F8BD65
:101090009CB2E1E78EB2EAE70000000000C05F40CA
:1010A0002DE9F84F17469046994623F000427B42BF
:1010B000DFF884A13B4342EAD373534504460D460F
:1010C00009D8464221F00043064343EAD676564506
:1010D0008E46834608D942464B4620462946FFF7AE
:1010E00065F804460D4616E009F1404606F58016FF
:1010F0003E4303D1BDE8F84F00F0A6B84FEAA97609
:1011000006F0020653EA0B0B46EAD17607D1022E0F
:1011100064D0032E66D020462946BDE8F88F1743D9
:1011200006D1BEF1000F68DA37A5D5E90045F2E730
:1011300052450FD1934206F1FF3607D1022E55D802
:101140003E4B03EBC603D3E90045E4E7022E51D83A
:101150003B4BF6E75345E4D09B1AB3F1747F4FEA5B
:10116000235221DAB9F1000F01DA3C3220DB42468A
:101170004B4620462946FFF7F9FA0BF082F800F0BB
:1011800063F804460D46012E15D0022E17D0002E0E
:10119000C1D01FA3D3E9002320462946FFF704F856
:1011A0001DA3D3E9002316E01DA5D5E90045EAE714
:1011B00000240025E7E705F100431D46ABE714A333
:1011C000D3E9002320462946FEF7EEFF02460B46F0
:1011D00011A1D1E90001FEF7E7FF82E70EA5D5E9ED
:1011E000004598E710A5D5E9004594E710A5D5E995
:1011F000004590E7002400258DE709A5D5E90045C5
:1012000089E700BFAFF30080182D4454FB21F9BFDC
:10121000075C143326A6A13C182D4454FB21094039
:10122000182D4454FB21F93F182D4454FB2109C0CB
:10123000182D4454FB21E93F0000F07F90C90000C5
:1012400078C90000000000002DE9F84FBC4B21F0E8
:1012500000469E4204460D468B4618D9B94B9E4225
:1012600001D809D140B122462B4620462946FEF737
:101270009DFF04460D4606E0BBF1000F40F32381BD
:1012800093A5D5E9004520462946BDE8F88FAE4B29
:101290009E4211D8A3F1DE739E420AD88EA3D3E9F1
:1012A0000023FEF783FFA94B0022FFF75DFD002816
:1012B000E9D14FF0FF3A27E00AF0E3FFA44B9E424A
:1012C00004460D4600F2B880A3F550239E4200F27A
:1012D0009C8002460B46FEF769FF9C4B0022FEF7FE
:1012E00063FF002206460F464FF080432046294602
:1012F000FEF75CFF02460B4630463946FFF736FAEA
:101300004FF0000A04460D4622462B462046294649
:10131000FFF702F902460B4680468946FFF7FCF8C4
:101320006FA3D3E9002306460F46FFF7F5F86EA337
:10133000D3E90023FEF73AFF32463B46FFF7ECF8CD
:101340006BA3D3E90023FEF731FF32463B46FFF79C
:10135000E3F869A3D3E90023FEF728FF32463B46B2
:10136000FFF7DAF866A3D3E90023FEF71FFF324642
:101370003B46FFF7D1F864A3D3E90023FEF716FF3D
:1013800042464B46FFF7C8F861A3D3E900238046E5
:10139000894630463946FFF7BFF85FA3D3E90023FB
:1013A000FEF702FF32463B46FFF7B6F85CA3D3E9EF
:1013B0000023FEF7F9FE32463B46FFF7ADF85AA38D
:1013C000D3E90023FEF7F0FE32463B46FFF7A4F8D0
:1013D00057A3D3E90023FEF7E7FE32463B46FFF76B
:1013E0009BF802460B4640464946FEF7DFFE224682
:1013F0002B46FFF791F8BAF1FF3F02460B4644D166
:1014000020462946FEF7D0FE33E7504B0022FEF778
:10141000CBFE4E4B06460F46002220462946FEF7DD
:10142000C5FE02460B4630463946FFF79FF94FF09E
:10143000010A04460D4667E7464B9E421AD2464BC8
:101440000022FEF7B1FE444B06460F46002220461E
:101450002946FFF761F83D4B0022FEF7A7FE024642
:101460000B4630463946FFF781F94FF0020A044631
:101470000D4649E702460B4600203849FFF776F94A
:101480004FF0030A04460D463EE7354B354E03EB5D
:10149000CA03D3E90023FEF787FE22462B46FEF758
:1014A00083FE06EBCA0602460B46D6E90001FEF7AC
:1014B0007BFEBBF1000F04460D46BFF6E4AE01F122
:1014C00000431D46DFE61CA5D5E90045DBE600BF6D
:1014D000182D4454FB21F93F9C7500883CE4377E6D
:1014E00011DA22E33AAD903FEB0D76244B7BA93F16
:1014F000513DD0A0660DB13F6E204CC5CD45B73FE4
:10150000FF8300922449C23F0D5555555555D53F8F
:101510002F6C6A2C44B4A2BF9AFDDE522DDEAD3F83
:101520006D9A74AFF2B0B33F711623FEC671BC3F23
:10153000C4EB98999999C93F182D4454FB21F9BFE0
:10154000FFFF0F440000F07FFFFFDB3F0000F03F94
:10155000FFFFF23F008003400000F83F0000F0BFB3
:10156000A8C90000C8C900002DE9F04FDFF8B4B0E9
:10157000DFF8B4A087B001274FF0FF324FF0FF3300
:101580002A48DFF8AC9006F017FF0AF05DFB8046B2
:10159000DBF800000AF004FE0646DAF800000AF064
:1015A000FFFD0446D9F800000AF0FAFD0546206860
:1015B000FEF75AFF024628880B4631780190606892
:1015C0000391CDE90423FFF717FB80B2DDE9042383
:1015D00003990090174809F04CFEDBF800103046E4
:1015E0000AF0F9FDDAF8001020460AF0F4FDD9F807
:1015F000001028460AF0EFFD0AF026FB0E49A0EB8A
:10160000080047F6FF730022E0FB0132DB0B43EAE0
:1016100042439F4238BF1F463946084808F020FF22
:10162000AAE700BF100800200C080020E8070020EF
:101630000808002010CD000040420F0070CD0000CF
:1016400010B50B78032B11D0052B19D0022B0CD120
:10165000D1E90140CA684FF48043211812480AF0CA
:1016600022FE124A13680133136010BD104B11495A
:1016700018688368BDE810401B694FF48042184722
:101680000B4B186883680C49DC684FF480424FF4B8
:101690007A73A04701460028E7D0084809F0E9FD21
:1016A0004FF0FF3008F01CFE5C11002028080020DD
:1016B0002C0800205C5100205C910020BDCD000072
:1016C0002DE9F743DFF874801D4E1E4F01254FF0C2
:1016D000FF334FF0FF32404606F06EFE0AF0B4FAD8
:1016E0008146306808F0CEFD01AA04460DF10201E2
:1016F0003846FFF7A5FC019B2360BDF80200FFF709
:1017000023FA3168606020460AF02FFD0AF09CFA47
:101710000D49A0EB090047F6FF730022E0FB013200
:10172000DB0B43EA42439D4238BF1D46074829462A
:1017300009F09FFD064806F001FEC8E7D807002023
:101740000C0800205C11002040420F00E5CD000095
:10175000E80700202DE9F843194F1A4E1A4D0124CD
:101760004FF0FF324FF0FF33384606F025FE0AF007
:101770006BFA8146306808F085FD804628460AF0FD
:101780005CFD124BA8F80000196840460AF0EDFC19
:101790000AF05AFA0E49A0EB090047F6FF7300223F
:1017A000E0FB0132DB0B43EA42439C4238BF1C465C
:1017B0000848214609F05DFD074806F0BFFDCFE768
:1017C000C80700200C0800205C1100200808002039
:1017D00040420F002ACE0000E80700202DE9F84320
:1017E000194F1A4D1A4E01244FF0FF324FF0FF33BC
:1017F000384606F0E1FD0AF027FA8146286808F02D
:1018000041FD804630460AF001FD88F80000296855
:1018100040460AF0AAFC0AF017FA0E49A0EB0900AC
:1018200047F6FF730022E0FB0132DB0B43EA424341
:101830009C4238BF1C460848214609F01AFD07485B
:1018400006F07CFDD0E700BFF8070020100800205C
:101850005C11002040420F0075CE0000E807002018
:101860002DE9F341174B184D184E194F01930124E0
:101870002B68002B21DD3046214609F0FAFC0023BD
:1018800038682B6083680422D3F804800DEB0201D2
:101890004FF0FF33C047014628B10E4809F0E9FC7C
:1018A00002B0BDE8F08101340B4806F047FD0B485B
:1018B00006F044FD0A4806F041FD40F2DD2007F045
:1018C00095FED5E741434B0028080020BFCE00001D
:1018D0002C080020EDCE0000F8070020D8070020DB
:1018E000C8070020F0B58FB00023012200240C931C
:1018F0000D9311460DF1210362480B94CDE9094483
:101900008DF82140ADF822400AF001FC5E4B042224
:10191000186002210CAB5D480AF0F9FB5C4B022217
:10192000186001210DF122035A480AF0F0FB5A4BCE
:1019300018605A485A4D05F035FF286020B95749BC
:10194000584809F096FC09E0574809F092FC2868CD
:1019500083685B6A23B9554809F08BFC0FB0F0BD72
:10196000534998475830F6D0286883681B6833B1CC
:10197000504922469847014620B14F48E1E76FF0B1
:101980005701FAE7286883684C49DC684FF48042C5
:101990004FF0FF33A047044610B101464848D0E756
:1019A0000122014647480AF02FFB01222146464802
:1019B0000AF02AFB0122214644480AF025FB0122B5
:1019C000214643480AF020FB002600270BAB029378
:1019D0000AAB0193012509AB0093CDE906673D4BA6
:1019E0003D49049403954FF400623C4806F0B8F971
:1019F0003B4B18603B4B3C490094CDE90667CDE971
:101A00000354CDE901444FF40062384806F0A8F9C8
:101A1000374B18604FF0FF324FF0FF33CDE906230C
:101A20000323CDE90243CDE90044324B324904940B
:101A30004FF40062314806F093F9314B18600223ED
:101A4000CDE90243CDE90667CDE900442D4B2E498F
:101A500004944FF400622D4806F082F92C4B186074
:101A60002C4B2D492D480094CDE90667CDE9035450
:101A7000CDE901444FF4006206F072F9284B18607A
:101A80006CE700BF0ECF00001008002012CF00004E
:101A90000C08002016CF0000080800201BCF000013
:101AA0002C08002022CF00004ECF000068CF00009D
:101AB000E8C900004116000098CF00005C910020AA
:101AC000BDCD0000F8070020E8070020D80700205F
:101AD000C8070020DD17000000F600207004002079
:101AE0002408002069150000A0DD0020F00200207D
:101AF0001808002055170000E0ED0020F00300203A
:101B000020080020C1160000C0E50020700300205E
:101B10001C0800206118000080D500207002002001
:101B2000140800202DE9F04F8DB01F46029202F0FC
:101B30000403C2F3C2020193531C04938307DDF82C
:101B4000588005460E4640F02882041D30B1072912
:101B500009D86FF01B000DB0BDE8F08F01F007064B
:101B6000341DC6F108064FF0000A4FF004097B1E31
:101B7000CDF80CA052465146CB4605B127600498DB
:101B8000002800F32A81BC48874203D3BB48874220
:101B9000C0F02381DDF808C0A4EB050E1CF0020F95
:101BA0004FEA9E0000F037814FF0000C1EE131B982
:101BB000252816D101214FF00409CB4611E06C28ED
:101BC00000F29F804B2822D8472800F2B1802928B4
:101BD0006AD8202805D0A0F1230CDCF1000141EBEC
:101BE0000C0113F8010F0028E1D1611BB1F5806FE2
:101BF000C0F07381A249A34AA34840F23D2309F0F3
:101C0000B4FCA24809F0B1FC40F23D21FDE0A0F196
:101C10004C0CBCF1200F00F28B800FF2080E5EF826
:101C20002CF000BFE31B0000311D0000311D00003F
:101C3000311D0000311D0000311D0000311D00006C
:101C4000311D0000311D0000311D0000311D00005C
:101C5000311D0000351D0000311D0000311D000048
:101C6000311D0000311D0000311D0000311D00003C
:101C7000311D0000311D0000511D0000311D00000C
:101C8000351D0000351D0000511D0000511D0000D4
:101C9000511D0000E31B0000351D0000791D0000F0
:101CA000311D0000E31B0000A0F12A0C4FF0010ED3
:101CB0005FFA8CFC0EFA0CFC4FF6DA7E1CEA0E0F73
:101CC0008FD11CF0625F43D11CF0010189D0013C2F
:101CD0004C44C9F1000C04EA0C04002D65D0ABEBB8
:101CE000050CA4446645FFF434AF73286FD0BBF1F4
:101CF000040F4AD158F8040B206004344FF0040B51
:101D00006FE7A0F16E0C5FFA8CFCBCF10C0F0FD8E2
:101D10004FF0010E0EFA0CFC1CF0250F2FD140F2F3
:101D2000824E1CEA0E0F05D11CF4825C7FF443AF97
:101D3000002156E713F8011C6C2924D113F8021C6A
:101D40006C294FF000011BD14FF00809CB46BEE7CC
:101D500008F1070828F007080734F8E8020124F022
:101D600007043DB1DDF814E0A644B6453FF6F1AEF8
:101D7000C4E90001083400214FF008091DE70021E3
:101D80004FF00409E2E70021A1E7BBF1080F40F0A2
:101D9000968008F1070828F00708F8E802BCC4E9B3
:101DA00000BC08344FF0080B1BE773280FD0BBF1C1
:101DB000040F02D108F104089FE7BBF1080F7ED1A0
:101DC00008F1070828F0070808F10808E9E704986F
:101DD00058F8047B01380490CFE60298800746D576
:101DE000A4EB050E4FEA9E004FF0010CBEF5007FFC
:101DF0001FD32349234A24484FF4F87309F0B5FB55
:101E0000234809F0B2FB4FF4F8711E4809F0A6FB15
:101E10006FF015009FE60F2A0DD8002D3FD0C0B2FD
:101E200002F1300CEC440CF8100C039801300390D4
:101E30001CE00F2A0CD91249124A134840F2F5133C
:101E400009F093FB134809F090FB40F2F511DCE731
:101E500015B3C0B2BCF1000FE2D002F1300CEC447B
:101E600060F07F000CF8100C0AF1010A0132C5F194
:101E7000080004340590B4E674C600006CEB000062
:101E80003FE90000C3CF0000F1CF00005ED00000AA
:101E90000ED000002FD00000BCF1000F01D101983E
:101EA00008B10136E2E73846CDE906210593FFF790
:101EB000BFF80236DDE90621059B0644D6E7384A1D
:101EC0003849394840F2312309F04FFB5946374829
:101ED00009F04BFB40F2312197E71DB9A6F1080448
:101EE000601838E6019BC1F3870C9DF80C100BB904
:101EF0000846194685F800C06870E97085F802A0A8
:101F0000BAF1000F06D008A84FF0000CC5F1010E81
:101F1000624509D10DF1200808EB0209C5F1010B5A
:101F2000C14511D1601B16E610F8011B0B0608D540
:101F300004EB0E08464501F07F01FFF40AAE04F8F9
:101F4000011B0CF1010CE3E7BAF1000F03D098F983
:101F50000020002A1CDB019BEBB998F8002055F803
:101F6000227045F822303846FFF762F8421C04EB35
:101F70000B0111448E42FFF4ECAD98F8001004F808
:101F8000011B3946204602920AF07FF9029A144456
:101F900008F10108C4E70022E9E76FF00D00DAE577
:101FA000C3CF00003FE90000F1CF000049D000009E
:101FB000436803F00303032B10B50446816002D08D
:101FC0002BB1002000E000680023636010BD054ACB
:101FD00005490648452309F0C8FA0248452109F099
:101FE000BDFAEEE775D000003FE90000F1CF000038
:101FF000014B1860704700BF000000202DE9F84F2A
:10200000858B2B070446914669D4022905F0070504
:1020100000F0EE81AA46D4F81880A38BB8F1000F27
:102020007DDA0022266823F00703C4E9002243F08A
:102030000103A383A38B03F0070555454FF0000769
:1020400040F0A5814FF0000A002E00F0F28043F02E
:10205000080304F1140BA383584605F067FF68B921
:10206000934A94499448B92309F07FFA9348594612
:1020700009F07BFA8E48B92109F070FA89F31188CA
:10208000BFF36F8FBAF1000F40F08881002E40F04F
:102090009E8117B18A492046B8474FF02003EFF3DD
:1020A000118983F31288BFF36F8F584605F030FF14
:1020B00068B97F4A834980488E2309F056FA8248DE
:1020C000594609F052FA7A488E2109F047FA5846E3
:1020D00005F03CFFA38B23F00803A3835AE00129FA
:1020E0000CBF45F0100545F02005858314342046CB
:1020F00005F01CFF68B96E4A6E496F48B92309F0B4
:1021000034FA6E48214609F030FA6948B92109F0DD
:1021100025FA89F31188BFF36F8FBDE8F88F03F0BC
:102120000702511F012920D80021062A2668C4E988
:10213000001116D1324603E0E18B12680131E183D0
:10214000002AF9D123F0070343F00202A2832046BC
:1021500009F09CF800283FF46DAF42F02002A28302
:1021600068E723F007039AB2F0E7042A1ED123F0B0
:1021700007039AB2A283204609F088F810B142F012
:102180002002A283A38B03F00705002755453E4696
:1021900040F0FD80B4F81CA01AF0100F00F01F8171
:1021A0002AF01003A3830AF0070A34E7474A484994
:1021B000414840F21B1309F0D8F9444840F21B1182
:1021C00009F0CCF9DEE75DB142493B483F4A4FF4A4
:1021D000AB7309F0CAF93D484FF4AB7109F0BEF991
:1021E00023685BB93C493448384A40F2571309F038
:1021F000BCF9364840F2571109F0B0F923691F685D
:102200005FB936492C48314A4FF4AD7309F0ADF946
:102210002E484FF4AD7109F0A1F9A38B23F0070309
:1022200043F006039BB2062DA38340F0AD804FF030
:1022300000084FF0000A5646002F7FF408AFA9E7C8
:10224000022D0BD026491C48204A40F25D1309F0AC
:102250008CF91E4840F25D1109F080F9E38B5BB107
:1022600020491548194A4FF4AF7309F07EF9174811
:102270004FF4AF7109F072F923695F685FB91749CC
:102280000D48124A40F2611309F06FF90F4840F20D
:10229000611109F063F9A38B23F0070343F00403F2
:1022A0009BB2042DA383C2D00026B04604256EE065
:1022B0003BD1000068D10000F1CF00007FD10000C9
:1022C0003524000094D10000A9D1000098D000006E
:1022D0003FE90000BAD00000C6D00000E9D00000FD
:1022E00000D1000016D10000012D0BD04B494C4805
:1022F0004C4A4FF4B27309F038F94A484FF4B271BE
:1023000009F02CF923685BB947494548454A40F232
:10231000651309F02AF9434840F2651109F01EF9E6
:1023200023699F685FB941493D483E4A4FF4B47301
:1023300009F01BF93B484FF4B47109F00FF9A38B76
:1023400023F0070343F005039BB2052DA3833FF45D
:102350006EAF0026B046052519E0324A34493048B0
:1023600040F26B1309F001F92E4840F26B1109F0AD
:10237000F5F8A38B03F00702AA423FF40BAF002647
:1023800015463746B04602E00026B0460625A2684C
:10239000002A3FF457AE4FF0010A58E6A168002921
:1023A0003FF474AED1F8009000293FF46FAED1F83D
:1023B00004A043462A462046D047B9F1000F04D076
:1023C000D9F8003049469946EEE74B46FAE73146E0
:1023D00043462A462046366808F084FF56E61AF03F
:1023E000200F3FF483AE2AF02003A3830AF00705F1
:1023F000204608F04BFF00283FF478AE013804284F
:10240000ABD801A353F820F0152000005B23000097
:10241000C721000041220000E922000025D1000070
:10242000F1CF000098D00000C6D00000E9D0000035
:102430003FE90000F8B504460D4600F114064FF0E0
:102440002003EFF3118783F31288BFF36F8F3046B9
:1024500005F05EFD68B90C4A0C490D488E2309F061
:1024600084F80C48314609F080F807488E2109F0BD
:1024700075F8304605F06AFDA5613A46204601210F
:10248000BDE8F840FFF7BABD3BD1000094D1000091
:10249000F1CF0000A9D100002DE9F04704460F4616
:1024A00008F010FF051E78DB04F114094FF020033B
:1024B000EFF3118A83F31288BFF36F8F484605F05C
:1024C00027FD68B9394A3A493A488E2309F04DF850
:1024D0003948494609F049F834488E2109F03EF858
:1024E000484605F033FDE38BA68B4FF6FF7293420F
:1024F00006F0070654D0022E24D10133E38335467B
:102500004FF00108484605F011FD68B9274A2B49EC
:102510002848B92309F029F82948494609F025F83F
:102520002248B92109F01AF88AF31188BFF36F8F96
:10253000B8F1000F31D0002332463946204608F06A
:10254000D1FE2AE0062E0ED8DFE806F004190D0DA4
:10255000042D040000233B606368ABB9C4E9007735
:10256000AEB135460DE017491248174A40F2C9137B
:1025700008F0FBFF144840F2C91108F0EFFF6FF0BC
:1025800004054FF00008BDE71F606760E8E75246AA
:1025900002212046FFF732FD35462846BDE8F08788
:1025A0006FF00A05EDE76FF08505EAE73BD1000023
:1025B00094D10000F1CF0000A9D1000068D1000043
:1025C0007FD1000025D1000098D000002DE9F8430C
:1025D00001F1FF3919EA010906680F46144611D0C6
:1025E00009F1FF3313EA090F13D17B423B40042B5F
:1025F0001A464F4628BF04229946E4B900252846CA
:10260000BDE8F883042914D8BDE8F843114608F062
:1026100036BF2C4A2C492D484FF4A07308F0A5FF73
:102620002B4808F0A2FF27484FF4A07108F096FF4E
:10263000DBE70422E1E7B368B3EBD40FDED904F1A2
:102640000B013944891AC908304608F0C7FE804694
:102650000028D3D009F1040505EBC0057B1E3544E5
:102660001D447F423D40A5EB09052C442B1F073438
:102670009B1B24F00704A41BB0EBD30F4FEAD30736
:102680004FEAE40408D201463A46304608F0DDFE3F
:102690004146304608F05EFE3946304608F055FEA9
:1026A0003844844207D23046224608F0CEFE214606
:1026B000304608F04FFE06EBC706738843F001036F
:1026C00073809CE7C1D100008DD20000F1CF0000E3
:1026D000A8D20000B2F5802F2DE9F04104460E4645
:1026E00017466CD33D493E4A3E4840F2E31308F09A
:1026F0003CFF3D4808F039FF40F2E311384808F04C
:102700002DFF043FF51D3E4425F0070526F0070682
:10271000761B172E4FEAD6070ED83449304A314877
:1027200040F2F31308F021FF314808F01EFF2C4857
:1027300040F2F31108F012FF2560B7FA87F4C4F1F4
:102740002008C4F12404A40007340023E408EB604B
:10275000631CBB42AF600ED92649214A21484FF481
:10276000017308F002FF224808F0FFFE1C484FF4F6
:10277000017108F0F3FE05F10C0303EB8808002259
:1027800043F8042F4345FBD1630043F001036B8002
:1027900005EBC4013B1B58002A804880A91925F885
:1027A00034404A80AB5305EBC70321465A8842F0B8
:1027B000010228465A80BDE8F04108F0CBBD042A4A
:1027C0009FD80D49064A07484FF4F57308F0CDFE2F
:1027D000074808F0CAFE4FF4F5718FE7C5D2000034
:1027E000C1D10000F1CF0000DBD200002CD30000EB
:1027F00013D3000055D30000F2D20000F0B5094E0B
:10280000016802460A2700200B4601311C78355D1D
:102810006D0701D41360F0BD07FB0043A3F1300046
:10282000F2E700BF37EA00002DE9F84F15469A4657
:10283000D378224A12F803B06F2B80460F460BF074
:10284000030B29D024D8582B0CBF10260A26DDF8FC
:1028500028903246002340463946FEF7EDF9092A12
:10286000D4B21ED83034B045E4B277F1000709F88D
:10287000014D01D3D14511D82B789B0605D5082EE3
:1028800015D1AB7843F00803AB704846BDE8F88F2C
:1028900003F0F703702BD7E70826D8E780460F46EA
:1028A000D7E7BBF1010F0CBF37345734DBE7102EED
:1028B000EBD1AB7843F01003E6E700BF37EA000046
:1028C0002DE9F04F9FB08246039116461C46002525
:1028D000307810B9284600F087BD731C2528069370
:1028E00006D00399D0470028C0F27E85013528E242
:1028F0001822002110A809F0E9FC7378252B00F0BC
:10290000BC800023711C98469E469C4618460F4684
:1029100011F8012B2B2A00F0DF8000F2D680202A4C
:1029200000F0DD80232A00F0DD802BB19DF84830D7
:1029300043F040038DF84830B8F1000F05D09DF802
:10294000483043F020038DF84830BEF1000F05D029
:102950009DF8483043F010038DF84830BCF1000F6B
:1029600005D09DF8483043F008038DF8483028B171
:102970009DF8483043F004038DF848309DF8483006
:1029800003F04401442903D16FF386138DF84830D6
:102990009DF848300E9743F080032A2A8DF848307E
:1029A00040F0A5809DF8493043F001038DF849308F
:1029B0007B1C1A782E2A9DF849200CBF012100218A
:1029C00061F341028DF849200CD15A1C0E925A78BD
:1029D0002A2A40F09C809DF8492042F004028DF89C
:1029E000492002331A786C2A00F0BD8000F29F80E3
:1029F000682A00F0A5806A2A00F0BE804C2A00F008
:102A0000C38013F8012B0693782A8DF84B2000F22F
:102A100005816D2A00F2C580692A00F2FF80572ADD
:102A200000F2DE80412A04D0A2F14503022B00F21D
:102A3000F5809DF84A3002F0DF020421A2F141083E
:102A400061F30203D8F100029DF849108DF84A3075
:102A500042EB080262F3C7110A068DF84910CBB2A7
:102A600000F11B8103F07802182A40F005816FF312
:102A7000C6038DF849300023F4E0B21C06928DF8AD
:102A80004B309DF84930DF0740F1098154F8042BA1
:102A90000492002A08DA9DF8482042F004028DF8DA
:102AA0004820049A52420492580740F1008154F899
:102AB000047B002F80F2FF809DF849306FF34103C3
:102AC0008DF849304FF0FF37F5E02D2A0DD0302A30
:102AD0007FF42BAF01231AE74FF0010C17E74FF0FB
:102AE000010E14E74FF0010811E701200FE70EA8CF
:102AF000FFF784FE0E9BBB423FF45BAF9DF848207E
:102B00001390C00F60F341028DF8482051E70EA8E2
:102B1000FFF774FE9DF848301490C3F3400242EA78
:102B2000D07262F341038DF848300E9B5AE7742A45
:102B300026D07A2A7FF465AF9DF8492006210CE063
:102B40005A78682A9DF8492006D1012161F3C6020E
:102B50008DF84920023354E7022161F3C6028DF853
:102B6000492001334DE75A786C2A9DF8492001D15C
:102B70000421EBE70321F0E79DF849200521ECE76C
:102B80009DF849200721E8E7BDF8482022F4F042EB
:102B900022F0020242F4804242F00202ADF84820E4
:102BA000DFE76E3AD3B201229A4040F282431A42E2
:102BB0009DF8493039D112F0240F61D1D1072DD5BC
:102BC0009DF84A2003F07803A3F1400C032161F340
:102BD0000202DCF100038DF84A2043EB0C0341E0D4
:102BE000A2F15801C9B2012000FA01F111F4624FBB
:102BF0007FF41FAF40F6010319429DF849301AD106
:102C000011F4043F0AD09DF84A2060F3020203F059
:102C10007803402B8DF84A207FF42DAF9DF8483083
:102C200043F001038DF8483025E79DF84A20022142
:102C300061F30202EBE79DF84A10022003F07803EB
:102C400060F30201402B8DF84A1002BF9DF8481036
:102C500041F001018DF84810632A7FF40CAF003B6E
:102C600018BF01239DF84820C2F340010B4363F3D2
:102C700041028DF8482004E713F0380FCED1FAE670
:102C80009DF84A20032113F0780F61F302028DF8BA
:102C90004A2014BF01230023E4E70123E2E79DF962
:102CA0004820002AB4BF139A4FF0FF32FBE6990781
:102CB0007FF508AF149F9DF849100023CDE9133329
:102CC0009DF84A3003F00702042A07D18A0705D489
:102CD0009DF94920002AACBF06270D2703F0070302
:102CE000012BC1F3C30133D1CB1E042B04D8DFE881
:102CF00003F0104646101000236801294FEAE372E2
:102D0000CDE910320BD103F0FF0310930023119390
:102D100007E054F8043BDA17CDE9103202E002294B
:102D200011D004349DF8483007939B0747D0069B89
:102D300003993246504608F0FAFB0028C0F254834B
:102D40000544069EC4E51AB2109243F3C033DEE791
:102D5000022B24D1CB1E042B04D8DFE803F018107B
:102D600010181800012954F8043B4FF0000214D049
:102D70000229CDE91032D5D19BB21093D2E70734A6
:102D800024F00704F4E80223CDE91023CAE754F83D
:102D9000043B109300231193C4E7DBB2BCE7042B80
:102DA00008D1073424F00704D4E900230834CDE91E
:102DB0001023B7E7032BB5D154F8043BDDE79DF8AA
:102DC0004BB0BBF1780FBCD8BBF1570F49D8BBF162
:102DD000250F00F09180BBF1240FB2D9BBF1410F58
:102DE00003D0ABF14502022AABD8DDE91012002A6C
:102DF000C0F23681079B180700F13581C3F3001933
:102E00004FEA4919C2F30A50C2F31302002840F0F6
:102E10002D8151EA020614BF01260026D20242EAA1
:102E20005152C902BBF1460F40EA010E42EAE07C72
:102E300008BF4FF0660B5EEA0C0CCDE90C1200F0F7
:102E40009E81002E40F049810D9A42F00042A0F28E
:102E5000FE380D920020DDE90C1206464FF0050CFD
:102E600055E1ABF15802202A3FF66BAF01A050F8B4
:102E700022F000BFFF2F0000432D0000432D000073
:102E8000432D0000432D0000432D0000432D000082
:102E9000432D0000432D0000EB2D0000432D0000CA
:102EA000832F0000972F0000EB2D0000EB2D00007A
:102EB000EB2D0000432D0000972F0000432D000054
:102EC000432D0000432D0000432D00003930000049
:102ED000FF2F000005300000432D0000432D0000AF
:102EE000FF2E0000432D0000FF2F0000432D0000A7
:102EF000432D0000FF2F000003995846F2E4002FF5
:102F0000109E3ADB3946304609F0F0F93718002EAA
:102F10003FF417AF4FF000099DF84A3013F010024C
:102F2000059200F05682023013F04003DDF84C8029
:102F3000089318BF149BCDF81C80404418BFC018DC
:102F4000049B002B40F360829DF848201B1A500719
:102F50000493C2F3800B00F15782510640F147827F
:102F6000B9F1000F07D003994846D0470028C0F2B6
:102F70003B820135D94630223AE23046FEF758F816
:102F8000C4E7109B8DF85C304FF000090DF15D0730
:102F900017AE0120C0E7079B1E0758BFC3F30019F7
:102FA000DDE9102354BF4FEA49194FF02B09002BDC
:102FB00006DA524263EB4303CDE910234FF02D09AB
:102FC0000DF175030093DDE9100117AB12AAFFF7AD
:102FD0002BFC0646002F0CDB9DF848200DF17503F5
:102FE0009B1B6FF386129F428DF8482001D9FB1A74
:102FF0001393002E3FF4A5AE0DF175075BE04FF083
:103000000009DDE71098002800F0DE810DF175035E
:10301000009312AA17AB0021FFF706FCBDF84A3057
:1030200003F0EF0343F4F04343F010030646ADF81A
:103030004A304FF00009CDE7109B07293FF681AEDB
:10304000DFE801F00C04060C08080C0C1D7078E693
:103050001D8076E6EA17C3E9005272E61D6070E64D
:103060004FF02D09CEE64FF02B09CBE640F2FF766C
:10307000B0422FD10BF101039E48DBB20A43C35C7F
:1030800003F003031ED1012B0BBF492369234E21FB
:103090006E210CBF462266228DF85C309DF84830C8
:1030A0008DF85D106FF386138DF85E208DF8483033
:1030B0000DF15F0717AEB81BB9F1000F3FF42CAF4D
:1030C000013029E7012B15BF6E234E2361214121D9
:1030D0001A46E1E70026A1E6013849185241002AC4
:1030E000FADACDE90C12AFE6490841EAC27152089A
:1030F000B2F1333F404608F10108F5D20CFB02FE65
:10310000A1FB0C1200F102087244013E012018F1EB
:10311000020FE9DB08B1CDE90C12B8F1000FDDE9CF
:103120000C212FDCC8F1040008F11C08A0F1200CD0
:10313000C24021FA00F301FA08F80BF0DF0042EA7E
:10314000080221FA0CFC472842EA0C0208933AD103
:10315000F31C01DBB7422BDAABF10203002F5FFA5D
:1031600083FB7FDD9DF84800800607F1FF3779D4A7
:103170003B1E18BF0123059307F101082DE04FF016
:10318000000867E6023241F100010CA8CDE90C21EC
:1031900008F09EF9DDE90C2108F1FF38013692189C
:1031A0004941002908F1FF38F9DACDE90C21B4E7EB
:1031B0009DF848309906A7EB060751D43B1E18BF6F
:1031C0000123059304E00023BBF1660F0593D3D1DF
:1031D00017EB06084FF0660B46D4B8F1100FA8BFE6
:1031E0004FF0100810200B904FF000610020CDE947
:1031F0000E01DDE90E03B8F1000F38D1089912185D
:1032000041EB0301B1F1805F3FD2CDE90C21079B77
:10321000BBF1660F03F0200240F0B580002E3FDCCA
:1032200030218DF85C10002A66D1002F40F3AF8169
:103230002E228DF85D2086B17242BA42A8BF3A466E
:103240009DF84A101392002AA7EB0207D4BF002270
:10325000012262F345118DF84A100DF15E0837E046
:103260000023AEE7002386E74FF00008BAE74008E6
:1032700040EAC3705B08CDE90E030EA8099208F17D
:10328000FF3808F025F9099AB3E7520842EAC172FB
:103290000CA84908CDE90C21013608F019F9B6E768
:1032A0000DF15C080B99002909DD0BA90CA8079208
:1032B00008F026F9013E08F8010B079AF2D113969F
:1032C0009AB9002F40F361812E2108F8011B0026D6
:1032D000002F1ADD0B9A002A17DD0BA90CA808F0A5
:1032E0000FF9013F08F8010BF2E72E2208F8012B35
:1032F000EDE700BF36EA00002E228DF85D20002E9B
:10330000ABD0002F98DC0DF15E08059B002B4ED151
:10331000149747460BF0DF02452A23D1002EBABF8F
:1033200076422D232B23632EC8BF64217B70D1BF2F
:10333000BA1CB6FBF1F3FA1C03F13000C8BF01FB65
:1033400013664FF00A01C8BFB87087F800B0B6FB2B
:10335000F1F3174603F1300001FB1363303307F834
:10336000020B5370139B002B2CDC149B002BD4BF3F
:10337000002301239DF84A2063F3861200238DF871
:103380004A203B7096E60BA90CA8079208F0B8F803
:10339000079A8DF85C00302818BF06F1FF3612B985
:1033A000002F40F3F4802E228DF85D2055E747462C
:1033B00008F1FF3817F8012C302AF8D02E2A08BF60
:1033C0004746A7E70123D5E7724F81467E1F0520B8
:1033D000A2E51A0748BF0130A6E5104609920399F5
:1033E000D0470028099A05DA1FB0BDE8F08F2022E7
:1033F000DDF810B0594600290BF1FF3BEDDC049BD2
:10340000CDF810B02B445D1AB9F1000F05D0039927
:103410004846D0470028E7DB0135089B002B79D0D0
:103420009DF94930002B29DBDFF86C913346187881
:1034300019F8002052079B4603F101033FD49DF881
:103440004A30AE1B98065E4407D44246002A08F173
:10345000FF383BDC079B33449E1A9BF800002E2864
:103460000AD10399D0470028BEDBB8F1000F06F15E
:10347000010631DC0BF1010B5D4638E0B14699F8ED
:1034800000007028C84609F1010913D1AE1B149D34
:1034900046443544AB1B002B34DC03993B46424683
:1034A000504608F044F800289EDB3044049E054650
:1034B000064465E00399D0470028E0DA94E70593D5
:1034C0000399D0470028059BB1DA8DE70399302096
:1034D000D0470028B9DA87E703993020D04708F1B0
:1034E000FF38C0E70399D0470028FFF67DAF287862
:1034F00019F800305907A84605F10105F2D4A6EBEA
:103500000B06C4E703993020D0470028FFF66CAFC4
:103510000136BFE79DF84A30DA0601D41B0706D50D
:1035200003993020D0470028FFF65EAF0135059B98
:103530003BB103999DF84B00D0470028FFF654AFEC
:103540000135A84406E003993020D0470028FFF653
:103550004BAF0135A8EB0503002BF4DC03993B4688
:103560003246504607F0E3FF0028FFF63DAF2844FF
:103570009CE703992020D0470028FFF635AF01359E
:10358000731B002BF5DCFFF7DCBB1646BDE60DF127
:103590005D08BAE685D3000037EA000008B54FF0B1
:1035A0002002EFF3118382F31288BFF36F8F01F0D3
:1035B0000DFE034807F05DFE00F062FEFCE700BF71
:1035C00086D30000F8B506460C4629B90E4D0F4BC0
:1035D0005B1B1F11BC4200DBF8BD6B685B797BB1E4
:1035E0004EB90B490B480C4A862307F0BEFF0A4828
:1035F000862107F0B3FF2B6831461B6828469847A1
:1036000001341035E6E700BF2CC900004CC90000AA
:10361000E7D30000F1CF0000AFD30000014B53F817
:1036200020007047F0C90000054A00231370054AC6
:103630001360054B054A1A604FF4004000F096BA3B
:103640005DD10020300800200400002087B5000074
:1036500070B5194B194CE41A902C0BD9184919481C
:10366000194A40F2732307F080FF174840F2732194
:1036700007F074FFBFF35B8F144B53E8006F721CAD
:1036800043E800210029F8D1BFF35B8F1EB9251153
:10369000094CAE4200DB70BD237B53B123689B69AC
:1036A0000BB120469847636804221968204600F051
:1036B0006FF801361034ECE72CC900004CC900004B
:1036C0003FD40000F1CF0000FAD3000038080020FA
:1036D000F8B50C4F3D784DB90B4C0C4EFFF7B8FFC9
:1036E000361B3611B54202DB01233B70F8BD63681F
:1036F0005B791BB1236820465B699847013510341C
:10370000F0E700BF5DD100202CC900004CC90000CB
:10371000014B01221A7070475CD100200C4BBFF3A3
:103720005B8F53E8001F013143E80012002AF8D1F3
:10373000BFF35B8F58B1BFF35B8F064B53E8001F9D
:10374000013943E80012002AF8D1BFF35B8F7047BC
:103750003008002034080020054B10B51B680446D3
:1037600098470021A0602046BDE81040FFF72ABF1F
:1037700004000020044A054B9B1AB1EBD30F34BF61
:1037800052F8310000207047E4C800002CC9000046
:1037900070B5104C0368041B24111B6801340546E6
:1037A0000E46E4B263B90C490C4A0D48BB2307F03E
:1037B000DCFE0C4807F0D9FE0848BB2107F0CEFE1E
:1037C0006B681C716B6801221E605A71BDE8704005
:1037D000FFF79EBF2CC90000BFD4000067D40000D3
:1037E000F1CF0000D5D400000EB403B503AB014601
:1037F00053F8042B04480193FFF762F802B05DF818
:1038000004EB03B0704700BFB9B500002DE9F04FDD
:1038100087B01C4601F0010305929DF84090BDF968
:1038200048A004930746884601F0020B01F0080601
:1038300007F0C0FE0246002840D037493846FFF75F
:10384000D3FF0546BBF1000F08D018F0440F37D165
:10385000324922463846FFF7C7FF0544049B53B15F
:103860002F4B304953F829202F4B3846002A08BFE8
:103870001A46FFF7B9FF3EB12C4B2D4953F82920CA
:103880003846FFF7B1FF0646BAF1000F12DB059B81
:10389000284C23B1284BB9F1040F08BF1C465146F0
:1038A0009DF84400FFF766FF214602463846FFF7C1
:1038B0009BFF0644701907B0BDE8F08F0546C1E7CD
:1038C0001E4B18680028C8D01D4B4FF47A781B682F
:1038D000B4FBF3F44FF46161B4FBF0F300FB134469
:1038E00008FB04F44FF03C0CB3FBF1F201FB123186
:1038F000B4FBF0FEB1FBFCF300FB1E440CFB131108
:1039000008FB04F40091B4FBF0F40E49CDE901E4A6
:103910003846FFF769FFA0E705D5000009D500008C
:10392000FCC900002ED50000F7D4000010CA00002A
:1039300031D5000000D50000FCD400004008002074
:103940003C08002012D50000CA0605D48B064CBFE7
:1039500002490349FFF748BF704700BF8DE60000EA
:1039600037D500002DE9F8430F460899DFF8B890E5
:10397000044616461D46FFF7E7FF4FF00008A8452E
:1039800028DB76B33A7829492046FFF72DFF012539
:103990006A0703D124492046FFF726FFB54225D206
:1039A0007A5D22492046FFF71FFF0135102DEFD128
:1039B0001F492046FFF718FFEEB91B492046FFF7C5
:1039C00013FF0125B5422B4617D317492046FFF7B1
:1039D0000BFF1DE049462046FFF706FF08F10108EE
:1039E000CDE714492046FFF7FFFE01251149204687
:1039F000FFF7FAFED9E700252B46FA5C0E4B0F497C
:103A00009B5C13F0970F08BF2E222046FFF7ECFEB9
:103A10000135102D06D06B07D4D103492046FFF79E
:103A2000E3FECFE7BDE8F88342D500003AD50000B9
:103A300044D5000040D5000037EA000046D500001C
:103A400038B5CB0705460C4603D5054A0549FFF7AF
:103A5000CBFE21462846BDE83840FFF775BF00BFC2
:103A6000F7D400002ED500002DE9FF470E46904602
:103A700036F8102B8B6812F4E07F07460D46C2F330
:103A8000821923D00A784868C2F3C202D8B13049FB
:103A9000401A40F3CF00CDE90120CDF8009000227C
:103AA00041463846FFF7B2FE2B68C3F349238246EE
:103AB000B3B96C88C4F3CB04F4B94A4641463846DE
:103AC000FFF7BEFF2EE04FF0FF30E4E70B68C3F3D3
:103AD00049236BBB4C88C4F3CB041CB3CA460BE030
:103AE0001C481D4933463A4607F081FB002822DB7B
:103AF0006C88C4F3CB0494B12B68C3F349231E44F0
:103B0000102C254628BF10253146CDF8008053469D
:103B10002A463846FFF726FF641B2E44F0D1B9F140
:103B2000000FCAD1384604B0BDE8F04707F06CBDBD
:103B30000A48CA46D5E70A4A0A490B4840F2B72361
:103B400007F013FD064840F2B72107F007FDCFE765
:103B5000E4C80000B9B50000C1280000D5B50000D8
:103B600049D5000085D50000F1CF0000074A0021AB
:103B70000123904206D8064A01B901231360054B80
:103B80001860704740085B000121F2E740420F00D7
:103B90003C080020400800202DE9F04F85B002AF1E
:103BA000D7E90E6A0446884693469946002E4ED0C1
:103BB000C7F804A0CDF800A07A6B3346102100208E
:103BC000FDF7B0FF051E09DA22492348234A67237F
:103BD00007F0CBFC2148672107F0C0FC204B3A6B73
:103BE00004F007040BF0070BE40044EA8B1403EA2B
:103BF00045231C431B4B03EAC2431C4313461733A4
:103C00002B4423F00703ADEB030D0DF1080BA6B118
:103C1000CDF800A07A6B334629460BF11000FDF772
:103C200081FF002809DA0B490B480C4A812307F071
:103C30009CFC0A48812107F091FC4B4622464146F4
:103C4000584607F0EEFC0C37BD46BDE8F08F354610
:103C5000C4E700BFDBD50000F1CF0000AED5000007
:103C600000FE07000000F87FF8B5074F0D46044638
:103C70004618B44201D12846F8BD386814F8011B33
:103C80008368DB699847F4E75C080020014B00205B
:103C90001960704758080020024B034801221A702F
:103CA00007F0B2BC5FD1002044CA0000064B10B53B
:103CB00018680C46FFF7B2FC21460346BDE81040E9
:103CC00002480F22184700BF5808002044CA0000CD
:103CD00008B5094B0948186008F03EF958B9084979
:103CE0000848094A792307F040FCBDE80840064827
:103CF000792107F033BC08BD5C0800204CC70000E8
:103D00001AD60000F1CF0000E5D50000014B0122DA
:103D10001A70704760D10020014B00201960704775
:103D200074080020024B034801221A7007F06CBC93
:103D300061D1002074CA0000064B10B518680C460B
:103D4000FFF76CFC21460346BDE8104002480F22F5
:103D5000184700BF7408002074CA0000F8B5194D58
:103D600007460E46042432463946002003F0A8FCDC
:103D7000C8B101232B70144B1B782BB93046F8BD0A
:103D80005CB92C704FF0FF34002003F0E1FC0028F8
:103D9000F4D02B78002BF3D1F0E7013C41F28830CE
:103DA00008F058F9F0E72B7813B1013C04D12C70DE
:103DB0002B78002BD7D1E1E741F2883008F04AF99F
:103DC000F6E700BF60D1002061D100202DE9F84363
:103DD00005464FF02003EFF3118683F31288BFF3FB
:103DE0006F8F214804F094F868B9204A204921488F
:103DF0008E2307F0BAFB1C491F4807F0B6FB1B488F
:103E00008E2107F0ABFB18481C4FDFF8748004F0DC
:103E10009DF81C4B1C684FF00C09BCB9124804F00B
:103E200085F868B9114A18491248B92307F09DFB73
:103E30000D49164807F099FB0C48B92107F08EFB95
:103E400086F31188BFF36F8FBDE8F883D4E90123AF
:103E5000002D18BF13462BB198F8142009FB02F26D
:103E6000B85C98472468D8E7780800203BD1000068
:103E700094D10000F1CF0000A9D1000080080020FB
:103E80002C0F00208C08002068D100007FD100009A
:103E90000A4ABFF35B8F430902EB830200F01F0065
:103EA00001238340DB4352E8000F184042E8000141
:103EB0000029F8D1BFF35B8F704700BF7C0800205A
:103EC00070B5194B1C7DBFF35B8F04F01F030122FB
:103ED0009A40164B610903EB8103D04353E8001F5E
:103EE00001EA000543E80056002EF7D1BFF35B8FCF
:103EF0000A4213D00E4B0F4D8BB10C236343EA18CB
:103F0000E85C517807F012FC0020FFF75FFF0C23FC
:103F10005C432A1900232B51C2E9013370BD83F39E
:103F20001188BFF36F8FEFE72C0F0020940800205B
:103F30002DB70000800800202DE9F843324B334AAA
:103F40001C7DBFF35B8F63094FEA830852F823306F
:103F50002F4EBFF35B8F04F01F0943FA09F313F0F0
:103F6000010F07460AD10146204600F069F828B142
:103F700007C80C2303FB046383E807000C23634397
:103F8000F218F55C2DB92046FFF782FF2846BDE800
:103F9000F8837B1C10D0D2F808C01E4D1E4A4FF487
:103FA00000400021ECFB005100232846FCF744FEB2
:103FB0000121381A05F0B4FD04F0AEFC0120FFF732
:103FC00005FFBFF35B8F154B9844012303FA09F3F8
:103FD00058E8002F1A4348E800210029F8D1BFF320
:103FE0005B8F0F4B33B10C236343F218F05C5178B5
:103FF00007F090FBFFF764FF2046FFF749FF04F04E
:10400000FFFC0120C3E700BF2C0F00207C0800202C
:10401000800800203F420F0040420F00940800201B
:1040200015B70000054BBFF35B8F53F82000BFF3BB
:104030005B8F003818BF0120704700BF9808002030
:104040002DE9F74F884601A900F042F8441E24B23A
:1040500004EB4404DFF86C900546A40025B92F4614
:10406000384603B0BDE8F08F019B185D1F19FFF7BC
:10407000D9FF064610BB7868134A4FF4004ACC4675
:104080003146E0FB0AC100236046FCF7D5FD8346BC
:10409000B8680D4ACC463146E0FB0AC100236046B1
:1040A000FCF7CAFD094B1B685A1C01D0834205D995
:1040B000B8F1FF3FD4D058444045D1D9013DADB20D
:1040C0000C3CCBE73F420F0040420F0008000020AD
:1040D00008B9024B0B600020704700BF84CA000083
:1040E000014806F0F5BE00BF84CA000010B50446C2
:1040F00018B90D4B0D485B689847616831F00403AF
:104100000CD008290AD011F0020108D00848214635
:1041100003F05EFD002323600023636010BD206870
:10412000142208F0D3F8F7E75401002061D600000C
:10413000B40D002008B508B34368042B10D1012248
:104140000368BFF35B8F53E8001F002903D143E8E6
:1041500000200028F7D1BFF35B8F0BD1002008BDF2
:1041600053B100684FF0FF324FF0FF3303F028FFE8
:104170000028F3D00348F2E70348F0E76FF4E0408B
:10418000EDE700BFE98FFFFFEA8FFFFF08B5C0B181
:104190004368042B10D100220368BFF35B8F53E800
:1041A000001F012903D143E800200028F7D1BFF305
:1041B0005B8F09D1002008BD43B1006803F0FAFF0E
:1041C000F8E76FF4E040F6E70148F4E70148F2E76A
:1041D000E98FFFFFEA8FFFFF10B5044618B9164BB1
:1041E00016485B6898476368042B23D0082B21D0BE
:1041F000CBB92368BBB912484FF0FF324FF0FF3301
:10420000214603F079FC08B923681BB90A4B0D4815
:104210005B68984720681422002108F057F863680B
:1042200043F002036360206807F0E7FE636843F031
:104230000103636010BD00BF5401002061D600007F
:10424000B40D002087D6000008B506490648402373
:10425000142207F09FFEBDE808400449044806F018
:1042600097BE00BFB4080020B40D00208CCA000027
:10427000A0CA0000014910220A60704710ED00E05A
:1042800072B6404080F31188BFF36F8FBFF34F8F3A
:1042900030BF62B6BFF36F8F704700BF72B6494040
:1042A00081F3118820BF80F3118862B6704700BF88
:1042B00070B5064686B00D46002938D08B68059348
:1042C0004B6804930B68039300241C4B1C49029316
:1042D000012223462046CDE9004407F0C0F96B696E
:1042E00005932B690493EB680393164B14490094D0
:1042F000CDE9014301222346204607F0B0F9EB69DE
:104300000393114B0E490094CDE90143012223464A
:10431000204607F0A4F9AB6903930C4B08490094BD
:10432000CDE9014301222346204607F098F92946AA
:10433000304606B0BDE8704003F05EBAB4D6000067
:104340000CC90000E3D6000012D7000021D70000FE
:1043500040B2002807DB044A4109012300F01F0096
:10436000834042F82130704700E100E0054B4209EC
:1043700000F01F0053F82220012303FA00F0104040
:10438000704700BF00E100E070B54D1C072D0446EA
:104390000E460FD9114A12491248572307F0E5F883
:1043A000114831460723224607F0DFF80B48572112
:1043B00007F0D4F860B20028ACBF00F160400B4BAE
:1043C0004FEA4515B8BF00F00F00EDB2AABF00F5E7
:1043D00061401D5480F8005370BD00BF4FD70000EE
:1043E00085D70000F1CF0000A0D7000014ED00E059
:1043F00030BFFFF7FDBF00BF0B4A08B50B4B22F0E3
:104400007F029A60BFF34F8FBFF36F8FD3F888207E
:1044100022F47002C3F8882003F082FA05F0BAF99A
:1044200000F0E0FB03F0C0FA0000000000ED00E047
:10443000094A0A49936809689967094958674B68A6
:1044400043F080534B60002383F31188BFF36F8FD9
:104450009368986F704700BF2C0F00200CCC0000B1
:1044600000ED00E012498A684FF030001044EFF38D
:10447000098C80E8F01F202080F31288BFF36F8F33
:104480000C4F4FF00066CA698A603E60506F00238F
:10449000536780F3118804B5104600F03FFCBDE877
:1044A000044002F1300090E8F01F8CF30988704757
:1044B0002C0F002004ED00E01EF0040F0CBFEFF302
:1044C0000880EFF30980816911F8021C0229FFD0EE
:1044D00001B507F0D4F801BD42F8203C009B42F83A
:1044E0001C3C0A49019B42F8183C029B42F8143CD0
:1044F00021F001014FF0807342F8043C42F8081C9F
:104500000023203A02654367704700BF37B30000BD
:10451000094A0346906870B113F1160F406E05D03A
:10452000A0F120029A4205D8834203D2814228BFDB
:1045300000207047002070472C0F002008B5094B61
:1045400098600D46144600F0E9FB204685F3098883
:10455000002163B681F31188BFF36F8F002200231F
:1045600006F0E9FE2C0F002001B572B60B4A9069E7
:1045700000281EBF0021916107F030FD62B6EFF305
:104580000580A0F110004FEAC0000549014409C9A7
:104590009847BDE801400349084700002C0F002060
:1045A00064C70000A9450000044B9968D869884297
:1045B00003D003494FF080520A6070472C0F00204F
:1045C00004ED00E0F0B585B000243B4B0293CDE94B
:1045D0000044234607460E4601223849204607F08C
:1045E0005DF8374B9B6ADB0409D5364B33490094A1
:1045F000CDE9014301222346204607F04FF8304B16
:104600009B6A1D0509D5304B02930023CDE9003389
:104610002A490122184607F041F8294DAB6A9C054A
:104620001ED50024294B0293012223462046CDE9C2
:104630000044224907F032F8AB6BAA6A10040FD588
:104640000393234B1D490094CDE9014301222346E6
:10465000204607F023F81FB1AB6A23F40043AB6296
:10466000174B9B6A590509D51A4B02930023CDE9D4
:10467000003312490122184607F010F8104A936AD5
:1046800013F4807312D0144B02930023CDE900334E
:104690000A490122184607F001F8094A936A0020E6
:1046A00043F47F439362307005B0F0BD926A920488
:1046B000F3D50A4A0292E9E7E0D700000CC90000EE
:1046C00000ED00E0F6D7000007D800001AD800007F
:1046D00033D8000048D8000063D800007BD8000021
:1046E0001FB50024334B0293CDE9004423463249E1
:1046F0000122204606F0D2FF304B9B6A9B0109D570
:104700002F4B2D490094CDE9014301222346204639
:1047100006F0C4FF294B9B6ADC0109D5294B0293A3
:104720000023CDE9003324490122184606F0B6FFE4
:10473000224B9B6A180309D5234B02930023CDE932
:1047400000331D490122184606F0A8FF1B4B9B6A47
:10475000590309D51D4B02930023CDE900331649B7
:104760000122184606F09AFF144B9B6A9A0309D55A
:10477000174B02930023CDE900330F49012218465D
:1047800006F08CFF0D4B9B6ADB0309D5114B02939E
:104790000023CDE9003308490122184606F07EFFC8
:1047A000064A936A6FEA03436FEA13430020936259
:1047B00004B010BDAAD800000CC9000000ED00E054
:1047C000C2D80000D5D80000EFD800000DD90000F5
:1047D00032D900004CD900002DE9F04385B0002407
:1047E000524B0293CDE90044234680468946164643
:1047F0004F490122204606F051FF4E4B9B6ADF06CF
:1048000009D54D4B4A490094CDE901430122234685
:10481000204606F043FF474B9B6A1D0709D5474BCF
:1048200002930023CDE9003341490122184606F0E6
:1048300035FF404DAB6A9C0741D46FF015073D4BE7
:104840009B6AD90709D53E4B02930023CDE900337B
:1048500037490122184606F021FF364B9B6A9A061B
:1048600009D5384B02930023CDE9003330490122AA
:10487000184606F013FF2F4CA36ADB0602D4A36A86
:104880009D0750D5636818054DD541463846FFF75A
:104890003FFE002835D080F309880220254B9A6A14
:1048A000920642BF5A6A22F400525A629A6A42F051
:1048B000FF029A620023337005B0BDE8F083002444
:1048C000214B029320462346CDE90044184901229A
:1048D00006F0E4FE6F6BAB6A1806AED51B4B1449AD
:1048E0000397CDE90143009423460122204606F0B8
:1048F000D5FEB9F1000FA2D0AB6A23F08003AB6202
:104900009DE7A36AD9060ED51149124A124840F212
:10491000491306F02AFE114806F027FE0D4840F222
:10492000491106F01BFE0020B8E700BF77D9000050
:104930000CC9000000ED00E08DD9000007D8000090
:10494000EED900007BD80000C0D90000D8D9000003
:1049500047DA00000DDA0000F1CF000091DA000024
:104960002DE9F041834B5F6890B00446C7F3080619
:10497000002383F31188BFF36F8F02F07F40B0F103
:104980007F4F0CD102F00C0008281AD17A4A7B49DB
:104990000093CDE901321846012206F07FFE002582
:1049A000774A7849784840F2FB3306F0DEFD7748D5
:1049B00006F0DBFD724840F2FB3106F0CFFD00242B
:1049C00006E0120746BF0C461D460125002CE7D025
:1049D0004FF00008F31E8DF81F80092B00F2B08005
:1049E000DFE803F005A4A883AEAEAEAEAEAC684B74
:1049F000604F6249CDF80080CDE901830023012298
:104A0000184606F04BFEFE6A8DF81F8016F002066F
:104A10000CD0604BCDF80080CDE9018300235749CD
:104A20000122184606F03AFE002228E0FB6A002B1D
:104A300004DA594B0096CDE90163EFE7FB6A5B00AE
:104A400067D5564B4D490096CDE9016301223346A7
:104A5000304606F023FEA36933F8022C4DF60273AC
:104A60009A422CD1236803934D4B44490096CDE9DB
:104A7000016301223346304606F010FE22689DF89D
:104A80001F30CBB908AE04F12007206861683346B7
:104A900003C30834BC421E46F7D10F9B002D63D0E0
:104AA000C3F3080121B96FEA53236FEA43230F933D
:104AB00008A91046FFF7FCFB10B0BDE8F08197F89D
:104AC000283033B10DF11F0201212046FFF784FE8B
:104AD0000DE097F829302BB10DF11F010120FFF7F0
:104AE00071FD04E07B8D9BB21BB1FFF7F9FD02461F
:104AF000C5E72C49224A244840F2CD2306F035FD73
:104B0000294806F032FD40F2CD211D4806F026FD71
:104B10008AE724491A4A1C4840F2D12306F025FDB1
:104B2000224806F022FD40F2D121EEE70DF11F02EE
:104B30000021CAE70DF11F010020D0E71C4B69E7F7
:104B40001C4A1D4B0D4917F4F87F18BF1346103E41
:104B5000CDE90336194B02930023CDE9003301223E
:104B6000184606F09BFD5FE723F4FF7323F0010373
:104B70009DE700BF00ED00E0E2DA00000CC9000094
:104B80000DDA00000DDB0000F1CF000020DB00009B
:104B90005EDB000075DB000096DB0000A4DB00009C
:104BA000C3DB00003FE90000DFDB000003DC0000A6
:104BB00033DC0000C9DA0000B4DA000057DC000082
:104BC000024A536943F010035361704700ED00E05F
:104BD000EFF30880EFF3098101B57246FFF7C0FEDD
:104BE00001BD00BF044800232021C2180133302B2F
:104BF00082F80013F9D1704700E100E0002080F353
:104C00001488BFF36F8F07F02FFD00200D49086057
:104C1000BFF34F8F0C4880F3088800F02BF820205A
:104C200080F3118809484FF40261401880F3098825
:104C3000EFF314800221084380F31488BFF36F8FD1
:104C4000FFF7DAFB94ED00E0A047012020FE0020F2
:104C50000749D1F890200023C2F307221846934257
:104C600000DB7047C1F89830C1F8A0000133F6E7C7
:104C700000ED00E008B572B6002383F31388FFF758
:104C8000E7FF144B4FF0FF32C3F88020C3F88420B5
:104C9000C3F88820C3F88C20C3F89020C3F8942070
:104CA000C3F89820C3F89C20C3F88021C3F884215E
:104CB000C3F88821C3F88C21C3F89021C3F894214C
:104CC000C3F89821C3F89C2162B6BFF34F8FBFF39E
:104CD0006F8F08BD00E100E0084B9B6883420BD159
:104CE000EFF3058343B1064B5A6842F080525A6095
:104CF0005A6A22F400425A6204F098BC2C0F002039
:104D000000ED00E0024B034A0348012100F086B8A1
:104D10000000042000000020B0CA0000426E054BD5
:104D2000203A1A60044A2021C3E9011218460121E1
:104D300000F09CB8D40D002000000B15F0B5284EF3
:104D400085B000258D4215DA4468002C45D0D3B1DA
:104D500004F1FF3C14EA0C0F0FD0224B0395029391
:104D600000230122CDE900331F49184606F0A6FCB6
:104D70006FF01502104605B0F0BD1F2CEDD9076885
:104D80001CEA070FE9D1202C0768D0F808C05FFAA9
:104D900082FE10D9B4F1004F0FD8013CB4FA84F46C
:104DA000C4F11F046400BEF1070F4CEA040C06D9DD
:104DB0000E4B0392D3E70824F5E73E24F3E727F0F0
:104DC0001F04144344F01004C6F89820C6F89C4011
:104DD0004CF00104C6F8A040013201350C30B1E7B7
:104DE00000ED00E06EDC000004C9000091DC000072
:104DF000044B0522C3F89420BFF34F8FBFF36F8F8E
:104E0000704700BF00ED00E0BFF35F8F024B002250
:104E1000C3F89420704700BF00ED00E038B50E4D98
:104E200001232A780C46FFF789FF2870163011D12C
:104E300040F21113094A0A490A4806F096FB214636
:104E4000094806F092FBBDE83840044840F21111D1
:104E500006F084BB38BD00BF63D10020B7DC000082
:104E60003FE90000F1CF0000EEDC000010B5134A6E
:104E7000002312780C46FFF761FF10F1160F04D0E3
:104E80000F4B0022072812DD10BD0E4A0E490F48B5
:104E90004FF4987306F069FB21460D4806F065FB58
:104EA000BDE8104007484FF4987106F057BBC3F8AF
:104EB0009800C3F8A0200130E4E700BF63D10020D0
:104EC00000ED00E0B7DC00003FE90000F1CF00009A
:104ED0001ADD0000284910B50C68082C13D94FF4CE
:104EE000A473264A2649274806F03FFB2648082295
:104EF000214606F03AFB21484FF4A47106F02EFB40
:104F00004FF0FF3010BDFFF77FFF48681F490022B8
:104F1000944200F10C000BD11D4B1C70FFF768FF91
:104F2000D1F89030C3F30723082B14D10020E9E710
:104F3000C1F8982050F80C3C23F01F03134343F0B2
:104F40001003C1F89C3050F8043C43F00103C1F851
:104F5000A0300132DCE7094A0E490A484FF4D47305
:104F600006F003FB0C4806F000FB04484FF4D47134
:104F700006F0F4FADAE700BFBCCA0000B7DC0000B4
:104F80003FE90000F1CF000047DD000000ED00E048
:104F900063D100207BDD0000CBDD000008B50B4BAA
:104FA000C3F1005303F58023B3F5006F0CD2084919
:104FB000084A0948812306F0D8FA084806F0D5FACD
:104FC0000448812106F0CAFA002008BDC0870120EC
:104FD0001CDE0000ECDD0000F1CF000063DE00000D
:104FE000014B1860704700BF30000020F8B5084F33
:104FF00006460D460024AC4208DA3B6898470A286A
:10500000305504F1010401D00D28F4D12046F8BD3B
:105010002C000020F8B50A4F0D46461EC0F10104D1
:10502000A3199D4201DC2846F8BD73780A2B02D1F2
:105030003B680D2098473B6816F8010F9847EFE74B
:105040003000002008B502480521FFF7E3FFFEE726
:10505000EADE000010B5074C2368C2180648C0F10C
:10506000005101F580218A423ABFC01822604FF0FA
:10507000FF3010BDE00D0020C087012010B50446B0
:1050800058B912491248134A40F2771306F06DFAE4
:10509000104840F2771106F061FA142005F034F957
:1050A000206070B90C490B4A094840F27F1306F0A2
:1050B0005CFA0A4806F059FA064840F27F1106F0F9
:1050C0004DFA2068BDE8104006F097BFF1DE000001
:1050D000F1CF0000ECDD0000F0DE00002CDF00006E
:1050E00010B5044658B90A490A480B4A4FF4D2731E
:1050F00006F03BFA08484FF4D27106F02FFA4FF051
:10510000FF3220464FF0FF33BDE8104002F058BF99
:10511000F1DE0000F1CF0000ECDD000010B5044628
:1051200058B908490848094A4FF4E07306F01DFAD7
:1051300006484FF4E07106F011FA2046BDE8104031
:1051400003F038B8F1DE0000F1CF0000ECDD000024
:1051500008B51D210448FFF75DFF404080F311882A
:105160004FF0030002DF00BF4FDF000010B54FF02B
:105170002003EFF3118083F31288BFF36F8F114A7E
:105180000123C2F840354FF080424FF08051C2F801
:105190007835D1F83041082C08D1D1F834110529DF
:1051A00004D8094C615C09B1C2F838364FF080432D
:1051B0000122C3F8802580F31188BFF36F8F002090
:1051C00010BD00BF00E001407CDF00004FF08043D5
:1051D000C0B2C3F81C05BFF34F8F0549054BCA6821
:1051E00002F4E0621343CB60BFF34F8F00BFFDE7D3
:1051F00000ED00E00400FA0520B1034B800143F00C
:1052000001031847704700BF70C9000037B50C464E
:105210000A490B4A411A4023009349110546234687
:10522000084806F09CFA011E05DA2846234603B01A
:10523000BDE83040184703B030BD00BFF80D002076
:10524000C9B70000ECC6000038B5CCB2012C054649
:1052500009D9094909480A4A792306F086F9084814
:10526000792106F07BF92B690C2204FB0233986C40
:1052700000F0070038BD00BFC3DF0000F1CF000021
:1052800086DF0000F8B5CCB2012C0669054617464A
:105290000BD9194919481A4A40F24D1306F065F91D
:1052A000174840F24D1106F059F94FF02003EFF383
:1052B000118283F31288BFF36F8F0C2101FB04630B
:1052C0009B6C13F0C00308D09F4206D082F3118874
:1052D000BFF36F8F4FF0FF30F8BD4C4326440123DE
:1052E000B36482F31188BFF36F8F6B6823445B68EC
:1052F00098470020F0E700BFC3DF0000F1CF0000B7
:1053000086DF000070B50D460649411A0446491172
:1053100005484022FFF7B6FF2B4601462046BDE870
:1053200070401847F80D0020ECC60000002270B550
:10533000012104461046FFF727F80F4801F092FCC0
:105340000E4B984215D101F0B3FC26690C4930464A
:1053500005F0DEFF00280BDB246909490125B5644F
:1053600004F1200005F0D4FF002801DB6565002072
:1053700070BD6FF00400FBE7B95300000000AD0BF7
:10538000DCCA000001460C2309484B4370B5C41821
:10539000D4E91056002248332264184406F0CCF9B0
:1053A0002DB132462B460348BDE87040184770BD0A
:1053B000F80D0020ECC60000012808B506D003282F
:1053C00008D0A8B9104B9B6C5B071BD1BDE8084007
:1053D000FFF7D8BF0D490E4A0E4840F25E2306F093
:1053E000C4F840F25E21BDE80840094806F0B6B8AE
:1053F0000649074A074840F2622306F0B6F840F231
:105400006221F0E708BD00BFF80D00203FE9000071
:1054100086DF0000F1CF000008B54FF02003EFF366
:10542000118183F31288BFF36F8F124A136843F020
:1054300002001060DA0708D481F31188BFF36F8F80
:105440000120BDE8084001F057BC4FF08043D3F87D
:105450000C24D3F80C34D307EED5074806F06CF9CA
:1054600081F31188BFF36F8F0020BDE80840FFF77C
:1054700089BF00BF500E0020400E00201FB5002243
:105480000123CDE90223094ACDF800D06B46CDF8BF
:1054900004D006F092F9002805DB4FF48042002387
:1054A000684602F089FF05B05DF804FBE7B700002D
:1054B000094BBFF35B8F53E8002F22F0020143E852
:1054C00000100028F7D1BFF35B8FD30702D401206F
:1054D00001F076BC704700BF500E00202DE9F0416E
:1054E0004749BFF35B8F0646012251E8003F41E880
:1054F00000200028F9D1BFF35B8FA3B9414942488E
:105500004B60CB608A60FCF7C7FF00280BDA3F498D
:105510003F48404A4FF4087306F027F83D484FF4DF
:10552000087106F01BF876B3731E012B59D8012EB3
:1055300007D14FF08043D3F81C3403F00303012B51
:1055400021D006F043FD0546F8B9334B1B78E3B193
:105550004FF080430222C3F808230746DFF8BC80DF
:105560004FF08044D4F81834D4F81824D20316D558
:1055700003F00303012B01D0012E10D15DB387F39B
:105580001188BFF36F8FBDE8F0814FF02003EFF378
:10559000118783F31288BFF36F8F0125DEE7ADB16A
:1055A0003846FEF77BFED4F81835002BDAD1D4F854
:1055B0000421002AD6D0C4F80431D4F804310123E0
:1055C000C4F81835C8F88031A360CBE7002121204A
:1055D00003F0D4FFE7E74FF080430222C3F804232F
:1055E000D1E70F490A480B4A40F2322305F0BDFFCC
:1055F000BDE8F041074840F2322105F0AFBF00BFDF
:10560000F40D0020E40D0020180E002085D50000C8
:10561000F1CF000086DF000074D5002000E100E03B
:105620003FE9000008B5084B0848186006F094FCF4
:1056300038B10748FFF7D4FC0548FCF7D9FC002037
:1056400008BD6FF01200FBE7540E00204CC70000AD
:10565000555600000A2838B5074D044604D128687D
:1056600083680D21DB69984728688368E1B2DB69AC
:105670009847204638BD00BF540E002070B505691C
:1056800016460C4661B92249224A2348242305F0D4
:105690006CFF224805F069FF1E48242105F05EFFDB
:1056A000636863B91E491B4A1B48252305F05DFF4B
:1056B0001C4805F05AFF1748252105F04FFF6B687D
:1056C0004BB1A34213D1AA6823686B60944200D106
:1056D000AB60002323607EB9002070BD9C4206D1E0
:1056E00023681360AB689C42F3D1AA60F1E71A46C5
:1056F0001B68002BF2D13EB16B682360AB686C6015
:10570000002BE9D1AC60E7E76FF01500E5E700BFDB
:1057100034E0000007E00000F1CF00003DE00000B1
:105720004CE000005EE000007FB54068057B01F0C2
:105730001F04B2F5001F44EA451404D1204601F0CD
:105740005BFE00205DE00025B2F5800FCDE902553B
:1057500014D1B3F1007F0CBF042305238DF808306A
:105760000023194602AA204601F04CFC344B984213
:1057700062D10121204601F0CFFDE2E7B3F1C06F15
:1057800041D0B3F1007F14BF012302238DF808300C
:105790008368CB40D807E3D4B2F1A07FE0D166099B
:1057A00004F01F0531D0012E04D14FF6FF73EB40FA
:1057B000D9070ED423492448244A40F2292305F06E
:1057C000D4FE224840F2292105F0C8FE16B3012E6E
:1057D00023D11F4B05F5E07553F82530DB07BFD407
:1057E0000DF107052946204601F02EFD194B984280
:1057F00020D1284601F08AFD114B98421AD06FF053
:105800000B0004B070BD0323C0E74FF0FF33EB4043
:10581000DA07CFD54FF0A043DCE70C4A0E490A481F
:1058200040F22E2305F0A1FE084840F22E2105F09B
:1058300095FEEFE7039593E76FF00400E1E700BF03
:105840000000AD0BA8E00000F1CF000075E0000003
:10585000000300500400AD0B3FE9000010B501F05B
:1058600045FD044668B901F019FD084B98420AD17C
:105870000748214601F0E2FC224605210620FEF7FA
:1058800083FD002010BD6FF00400FBE70000AD0BAE
:105890009558000043092DE9F04703D0012B30D083
:1058A000BDE8F087194F3B695C68002CF8D000F028
:1058B0001F0001262568DFF85880DFF85890DFF8D0
:1058C00058A08640002CEBD0A3681E4214D0636819
:1058D00063B9494645234246504605F046FE0F4807
:1058E00005F043FE4521404605F038FED4E901327B
:1058F00021463240384698472DB12B682C461D462C
:10590000E0E7074FCFE72B46F8E700BF1CC70000D2
:1059100007E00000CBE00000F1CF00005EE00000F7
:1059200004C700002DE9F04347683B7B01F01F05E9
:1059300085B00E4645EA43151446D2B902A9284659
:1059400001F082FC0446284601F080FD464B984257
:1059500004D06FF0040005B0BDE8F083844201D0AC
:105960000020F8E79DF8080001F0CAFCA042F7D03B
:10597000EFE74FF000090DF103013046CDE9029940
:1059800001F062FC4B46804602AA4946284601F0D7
:1059900039FB354B984202D06FF01500DBE78045AC
:1059A00003D19DF8030001F0ABFCA3034CD540F2FA
:1059B0000663234040F20622934219D00CD8062BEE
:1059C00017D004D8ABB1022BE6D1042311E0B3F514
:1059D000007FE1D101230CE040F20242934227D044
:1059E000B3F5C06F26D0B3F5806FD5D1022300E0A8
:1059F00007238DF8043084F48033C3F30043E006BA
:105A00008DF8053054BFC4F34013032321038DF8F0
:105A1000063011D57A680123B340C2F80835002258
:105A200001A9284601F096FB0F4B984298D0B3E7A6
:105A30000523DEE70323DCE7620341BF01237A6825
:105A4000B340C2F80C35EAE7E3064FF0000354BF59
:105A5000C4F3401403241A4601A928468DF80440D3
:105A600001F0D0FAE0E700BF0000AD0B7FB50BAB53
:105A700005930393054B02930023CDE900330122E4
:105A80001846FEF789F807B05DF804FBE5E0000072
:105A90002DE9F3411C46436807690E46054619681F
:105AA0004FF02003EFF3118883F31288BFF36F8F59
:105AB000F868C36843B188F31188BFF36F8F6FF044
:105AC0000F0002B0BDE8F0814FF4800CC260866028
:105AD000C1F804C306F06041B1F1005F10D1C0E924
