:10000000C02C0020A13900004B920000753900007F
:1000100075390000753900007539000000000000D6
:100020000000000000000000000000006932000035
:10003000753900000000000015320000753900001D
:100040001933000019330000193300001933000080
:100050001933000019330000193300001933000070
:100060001933000019330000193300001933000060
:100070001933000019330000193300001933000050
:100080001933000019330000193300001933000040
:100090001933000019330000193300001933000030
:1000A0001933000019330000193300001933000020
:1000B0001933000019330000193300001933000010
:1000C0001933000019330000193300001933000000
:1000D00019330000193300001933000019330000F0
:1000E00019330000193300001933000019330000E0
:1000F00019330000193300001933000019330000D0
:100100004FF0FF0C1CEAD0521EBF1CEAD15392EAFA
:100110000C0F93EA0C0F6FD01A4480EA010C4002D6
:1001200018BF5FEA41211ED04FF0006343EA501030
:1001300043EA5111A0FB01310CF00040B1F5000F72
:100140003EBF490041EAD3715B0040EA010062F121
:100150007F02FD2A1DD8B3F1004F40EBC25008BF0B
:1001600020F00100704790F0000F0CF0004C08BF29
:1001700049024CEA502040EA51207F3AC2BFD2F1F6
:10018000FF0340EAC250704740F400004FF0000304
:10019000013A5DDC12F1190FDCBF00F0004070473E
:1001A000C2F10002410021FA02F1C2F1200200FA7C
:1001B00002FC5FEA310040F1000053EA4C0308BF43
:1001C00020EADC70704792F0000F00F0004C02BF94
:1001D000400010F4000F013AF9D040EA0C0093F00F
:1001E000000F01F0004C02BF490011F4000F013B69
:1001F000F9D041EA0C018FE70CEAD15392EA0C0FD7
:1002000018BF93EA0C0F0AD030F0004C18BF31F041
:10021000004CD8D180EA010000F00040704790F017
:10022000000F17BF90F0004F084691F0000F91F0BB
:10023000004F14D092EA0C0F01D142020FD193EA81
:100240000C0F03D14B0218BF084608D180EA010009
:1002500000F0004040F0FE4040F40000704740F0E5
:10026000FE4040F44000704780F0004002E000BFD4
:1002700081F0004142001FBF5FEA410392EA030F91
:100280007FEA226C7FEA236C6AD04FEA1262D2EBDB
:100290001363C1BFD218414048404140B8BF5B42E0
:1002A000192B88BF704710F0004F40F4000020F079
:1002B0007F4018BF404211F0004F41F4000121F08F
:1002C0007F4118BF494292EA030F3FD0A2F10102D9
:1002D00041FA03FC10EB0C00C3F1200301FA03F117
:1002E00000F0004302D5494260EB4000B0F5000F3A
:1002F00013D3B0F1807F06D340084FEA310102F1F9
:100300000102FE2A51D2B1F1004F40EBC25008BFAA
:1003100020F0010040EA03007047490040EB000074
:10032000013A28BFB0F5000FEDD2B0FA80FCACF175
:10033000080CB2EB0C0200FA0CF0AABF00EBC250A2
:1003400052421843BCBFD0401843704792F0000F90
:1003500081F4000106BF80F400000132013BB5E7E3
:100360004FEA41037FEA226C18BF7FEA236C21D059
:1003700092EA030F04D092F0000F08BF08467047BE
:1003800090EA010F1CBF0020704712F07F4F04D18C
:10039000400028BF40F00040704712F100723CBF9F
:1003A00000F50000704700F0004343F0FE4040F4C9
:1003B000000070477FEA226216BF08467FEA236387
:1003C0000146420206BF5FEA412390EA010F40F472
:1003D000800070474FF0000304E000BF10F00043BE
:1003E00048BF40425FEA000C08BF704743F09643A5
:1003F00001464FF000001CE050EA010208BF7047C0
:100400004FF000030AE000BF50EA010208BF704746
:1004100011F0004302D5404261EB41015FEA010C5B
:1004200002BF84460146002043F0B64308BFA3F153
:100430008053A3F50003BCFA8CF2083AA3EBC25335
:1004400010DB01FA02FC634400FA02FCC2F1200254
:10045000BCF1004F20FA02F243EB020008BF20F08B
:100460000100704702F1200201FA02FCC2F12002F1
:1004700050EA4C0021FA02F243EB020008BF20EAE6
:10048000DC70704742000ED2B2F1FE4F0BD34FF03A
:100490009E03B3EB126209D44FEA002343F00043FA
:1004A00023FA02F070474FF00000704712F1610F1D
:1004B00001D1420202D14FF0FF3070474FF00000EF
:1004C000704700BF7BB972B90029BEBF00204FF052
:1004D000004106E008BF00281CBF6FF000414FF04C
:1004E000FF3000F057B8ADF1080C6DE904CE0029DB
:1004F00009DB002B1ADB00F04FF8DDF804E0DDE942
:10050000022304B07047404261EB4101002B1BDB2A
:1005100000F042F8DDF804E0DDE9022304B04042D7
:1005200061EB4101524263EB43037047524263EB7C
:10053000430300F031F8DDF804E0DDE9022304B004
:10054000404261EB41017047524263EB430300F0CC
:1005500023F8DDF804E0DDE9022304B0524263EB46
:100560004303704753B94AB9002908BF00281CBF8C
:100570004FF0FF314FF0FF3000F00CB8ADF1080C38
:100580006DE904CE00F008F8DDF804E0DDE90223AF
:1005900004B07047704700BF2DE9F04786468C468F
:1005A0000846089E154674461946002B40F0C28046
:1005B0008542B2FA82F245D94AB1C2F1200300FA6B
:1005C00002FC2EFA03F3954043EA0C0C94404FEAE8
:1005D000154EA8B2BCFBFEF8230C0EFB18CC08FB92
:1005E00000F943EA0C43994528D9EB1808F1FF3785
:1005F00004D2994502D9A8F102072B44A3EB0903C1
:10060000A4B2B3FBFEFC0EFB1C330CFB00F044EA6F
:100610000344A04214D92C190CF1FF3304D2A04298
:1006200002D9ACF102032C44241A43EA07401EB15C
:10063000D440002334607360BDE8F0874746DDE7AF
:100640006346F1E792BB431B01214FEA154EAFB25F
:10065000B3FBFEFC200C0EFB1C330CFB07F840EA3E
:100660000343984562D9EB180CF1FF3004D298454A
:1006700002D9ACF102002B44A3EB0803A4B2B3FBF4
:10068000FEFC0EFB1C330CFB07F744EA0344A742B5
:100690004ED92C190CF1FF3304D2A74202D9ACF188
:1006A00002032C44E41B43EA0040C0E7C2F12003EC
:1006B00020FA03F1954090402EFA03F303434FEAEA
:1006C000154EAFB2B1FBFEFC0EFB1C10190C0CFB5F
:1006D00007F841EA0041884504FA02F422D9691872
:1006E0000CF1FF3004D2884502D9ACF10200294454
:1006F000A1EB08019BB2B1FBFEFC0EFB1C110CFB35
:1007000007F743EA01439F420ED9EB180CF1FF3182
:1007100004D29F4202D9ACF102012B44DB1B41EA17
:10072000004192E76046E3E76146F7E76046A3E7EA
:100730006346B7E7834206D916B9002108467BE72E
:10074000C6E900E0F9E7B3FA83F78FB9834201D332
:10075000724508D8BEEB020460EB030301209C46FF
:100760001EB9002168E73846FAE7C6E9004CF8E709
:10077000C7F1200CBB4022FA0CF41C432EFA0CF1FA
:1007800020FA0CF3B84001434FEA14490EFA07F57A
:10079000B3FBF9F81FFA84FE09FB18300B0C08FBB9
:1007A0000EFA43EA00439A4502FA07F240D9E318E9
:1007B00008F1FF3004D29A4502D9A8F1020023447F
:1007C000A3EB0A0389B2B3FBF9F809FB183308FB62
:1007D0000EFE41EA03418E452CD9611808F1FF3322
:1007E00004D28E4502D9A8F10203214443EA004015
:1007F000A0FB0298A1EB0E014145CE46434602D331
:1008000006D14D4504D2B9EB020E68EB0403013862
:10081000002EA6D0B5EB0E0261EB030101FA0CFC31
:1008200022FA07F34CEA0303F940C6E9003198E7DE
:100830004046C5E74346D9E7014B01221A7070478D
:10084000AE0E00202DE9F14FC488056806790C43EF
:1008500004F03003302BD5E901B92F690ED13D49A1
:100860003D4A3E484FF42E7308F05DFC3C4808F0CA
:100870005AFC39484FF42E7108F04EFC04F0021374
:10088000022B0ED13749344A34484FF42F7308F005
:100890004AFC354808F047FC2F484FF42F7108F008
:1008A0003BFC04F00603042B0BD130492B482A4AA9
:1008B0004FF4307308F037FC27484FF4307108F0DC
:1008C0002BFC14F4402F19D0A00304F480180ED48C
:1008D0002749214A214840F2C32308F024FC254837
:1008E00008F021FC1C4840F2C32108F015FCB8F1C7
:1008F000000F03D0E10748BF84F44024DBF8003048
:100900004FF0010A0AFA06FA1AEA030F24F48018D3
:100910000ED11949104A11484FF4357308F003FC01
:10092000164808F000FC0C484FF4357108F0F4FB51
:100930003B68E2074CBF4AEA030323EA0A033B6031
:10094000D9F8003042463146284601B0BDE8F04FA4
:10095000184700BF59A0000028A0000092A0000086
:10096000AFA00000ECA0000021A1000073A10000D6
:10097000A6A10000ECA1000027A2000065A20000D3
:1009800070B50568037901249C406B681B681C42A4
:100990000ED10B490B4A0C4840F2BC4308F0C3FB94
:1009A0000A4808F0C0FB074840F2BC4108F0B4FB1D
:1009B000AB68214628465B69BDE87040184700BF18
:1009C00027A2000028A0000092A0000065A200005D
:1009D0002DE9F04104680379276901259D4063688A
:1009E0001B681D420E460ED11849194A194840F29B
:1009F000924308F098FB184808F095FB144840F221
:100A0000924108F089FB3B681D4263681B6818BF70
:100A100086F001061D420ED10C490D4A0D484FF4D7
:100A20008D6308F080FB0C4808F07DFB08484FF40C
:100A30008D6108F071FB36B1A368DB68294620465A
:100A4000BDE8F0411847A3681B69F7E727A200003B
:100A500028A0000092A0000065A200002DE9F84F38
:100A6000DFF80491DFF804A1DFF8048148F2A06602
:100A700041F288354FF47A774FF0FF334FF0FF3271
:100A8000484606F0B1F908F002FA84B2504608F080
:100A90004EFAB8F80010374808F049FAB8F80030B4
:100AA0001D2B2DD934480121FFF792FF002859DB77
:100AB00000213248FFF78CFF002853DB002130482B
:100AC000FFF786FF00284DDB00212E48FFF780FF4F
:100AD000002847DB08F0DBF91FFA80FBABEB0403CF
:100AE0009F423DDCB5423CBF641BA6B22648394656
:100AF00008F01DFA2548314608F019FA5D46BBE7B3
:100B0000A3F11402092A07D81B480121FFF760FF4F
:100B1000002827DB0121CCE70A3B092B16484FF0C0
:100B200001010BD8FFF754FF00281BDB13480121FC
:100B3000FFF74EFF002815DB0121C0E7FFF748FF54
:100B400000280FDB0D480121FFF742FF002809DBD9
:100B50000B480121FFF73CFF002803DB0121B4E72C
:100B60009FB2BFE7BDE8F88F5005002077A20000D4
:100B7000980E00208FA20000689D0000609D00007C
:100B8000589D0000509D0000AFA20000B9A20000D7
:100B90002DE9F0413E4E3F4F88B042F21075337858
:100BA000A3B300220023CDE900233B483A4C4FF485
:100BB0002032002307F0C4FE204607F00DFF10B1DD
:100BC00000233370EBE708F062F94FF4FA72002368
:100BD000FFF778FC1A43EFD1304808F0A8F9304805
:100BE000FFF7CEFE00280EDB2E48FFF7C9FE0028D7
:100BF00009DB2D48FFF7C4FE002804DB2B48FFF774
:100C0000BFFE0028D8DA08B0BDE8F08108F03FF94F
:100C10001FFA80F8384608F08AF9254B0122DA607D
:100C2000244B039302230493234B059314220A239A
:100C3000CDE90623214B1868E8B9214808F077F977
:100C40004FF0FF341F48214608F071F91E4806F0A6
:100C50008DF808F01CF980B2A0EB08008542C8BFEF
:100C600085B22946194808F062F900214FF4804006
:100C700007F09CF993E7836803A95B6898470446EB
:100C80000028E3D00146124808F051F9DAE700BF26
:100C9000AE0E0020CFA2000060020020C8A200001B
:100CA000689D0000609D0000589D0000509D000060
:100CB00000700040709D00009A0E00204C0500203E
:100CC000E7A2000036A3000060050020AFA20000EC
:100CD00016A30000F0B58DB00023CDE909330B93C6
:100CE000654C204608F0E3FD28B92168634808F008
:100CF0001EF90DB0F0BD62496248FFF7A3FD002860
:100D0000F7DB6368A5681B6826691B050ED45E497E
:100D10005E4A5F4840F2752308F005FA5D4808F026
:100D200002FA5A4840F2752108F0F6F93368AC69C6
:100D3000514813F4006F14BF4FF000734FF08063FD
:100D40004FF0A0720B21A0470028D2DB5249534B31
:100D50004B604FF400638B60EB6913B1464801228E
:100D6000984700224E48114608F025FE424808F0F8
:100D70009EFD0028BDD0404808F099FD0028B8D05D
:100D80003D4808F094FD0028B3D03B4808F08FFDA3
:100D90000028AED043484FF4D011FFF753FD002890
:100DA000A7DB41484FF4D011FFF74CFD0028A0DB32
:100DB0003E484FF4D011FFF745FD002899DB3C4831
:100DC0004FF4D011FFF73EFD002892DB39483A4C32
:100DD00005F0FEF9206010B9384808F0A8F820683E
:100DE000836837491B689847014610B1354808F0B9
:100DF0009EF801220021344808F0B1FD01220021B3
:100E0000324808F0ACFD002600270BAB02930AAB7A
:100E10000193012509AB00240093CDE90667CDE9D4
:100E200003542B4B2B492C484FF4806205F0B0FC47
:100E30002A4B18602A4B2B490094CDE90667CDE96F
:100E40000354CDE901444FF48062274805F0A0FC2B
:100E5000264B1860264B274927480094CDE90667A2
:100E6000CDE90354CDE901444FF4806205F090FCD4
:100E7000224B18603DE700BFCC9A00005FA3000042
:100E800000010100489D000027A2000028A00000EA
:100E900092A0000065A20000400500203908000073
:100EA00060020020689D0000609D0000589D0000C9
:100EB000509D000085A300004C0500208BA300007E
:100EC00020A00000ACA30000600500205005002019
:100ED000910B0000201B00209803002078050020C3
:100EE000450F0000001700201803002074050020A3
:100EF0005D0A0000E012002098020020700500202A
:100F00002DE9F041DFF83480054600F11407002494
:100F10000A2635F8020F7043FFF760FA4146FFF7E3
:100F2000EFF8FFF7AFFAAF420444A4B2F1D1044B9B
:100F3000B4FBF6F41C80BDE8F08100BF0C30403BF0
:100F4000980E00202DE9F84F42F21076DFF8A090BD
:100F500041F28837B0464FF0FF324FF0FF3325485B
:100F6000DFF894A005F040FF07F091FF84B223481A
:100F700007F0DDFF01253AF8022FB2F5806FAB468E
:100F800005F1010524D31E48294607F0D0FF0022B1
:100F9000AAF800200A2DEED11748FFF7B1FF194833
:100FA00005F0E4FE07F073FF85B22B1B9845C8BF20
:100FB0001FFA83F8B7423CBFE41BA6B21248414671
:100FC00007F0B5FF1148314607F0B1FF2F46C2E7E1
:100FD0000A205043FFF702FA4946FFF791F8FFF75E
:100FE00051FA594682B20A4807F0A1FFD2E700BF82
:100FF0000C30403B600500209A0E0020DBA300006F
:10100000F3A3000050050020AFA20000B9A2000029
:1010100018A400002DE9F04F8DB01F46029202F097
:101020000403C2F3C2020193531C04938307DDF847
:10103000588005460E4640F02882041D30B107292D
:1010400009D86FF01B000DB0BDE8F08F01F0070666
:10105000341DC6F108064FF0000A4FF004097B1E4C
:10106000CDF80CA052465146CB4605B127600498F6
:10107000002800F32A81BC48874203D3BB4887423B
:10108000C0F02381DDF808C0A4EB050E1CF0020FB0
:101090004FEA9E0000F037814FF0000C1EE131B99D
:1010A000252816D101214FF00409CB4611E06C2808
:1010B00000F29F804B2822D8472800F2B1802928CF
:1010C0006AD8202805D0A0F1230CDCF1000141EB07
:1010D0000C0113F8010F0028E1D1611BB1F5806FFD
:1010E000C0F07381A249A34AA34840F23D2308F00F
:1010F0001AF8A24808F017F840F23D21FDE0A0F1EF
:101100004C0CBCF1200F00F28B800FF2080E5EF841
:101110002CF000BFD31000002112000021120000AB
:1011200021120000211200002112000021120000F3
:1011300021120000211200002112000021120000E3
:1011400021120000251200002112000021120000CF
:1011500021120000211200002112000021120000C3
:101160002112000021120000411200002112000093
:10117000251200002512000041120000411200005B
:1011800041120000D3100000251200006912000077
:1011900021120000D3100000A0F12A0C4FF0010E24
:1011A0005FFA8CFC0EFA0CFC4FF6DA7E1CEA0E0F8E
:1011B0008FD11CF0625F43D11CF0010189D0013C4A
:1011C0004C44C9F1000C04EA0C04002D65D0ABEBD3
:1011D000050CA444B4453FF634AF73286FD0BBF17F
:1011E000040F4AD158F8040B206004344FF0040B6C
:1011F0006FE7A0F16E0C5FFA8CFCBCF10C0F0FD8FE
:101200004FF0010E0EFA0CFC1CF0250F2FD140F20E
:10121000824E1CEA0E0F05D11CF4825C7FF443AFB2
:10122000002156E713F8011C6C2924D113F8021C85
:101230006C294FF000011BD14FF00809CB46BEE7E7
:1012400008F1070828F007080734F8E8020124F03D
:1012500007043DB1DDF814E0A644B6453FF6F1AE13
:10126000C4E90001083400214FF008091DE70021FE
:101270004FF00409E2E70021A1E7BBF1080F40F0BD
:10128000968008F1070828F00708F8E802BCC4E9CE
:1012900000BC08344FF0080B1BE773280FD0BBF1DC
:1012A000040F02D108F104089FE7BBF1080F7ED1BB
:1012B00008F1070828F0070808F10808E9E704988A
:1012C00058F8047B01380490CFE60298800746D591
:1012D000A4EB050E4FEA9E004FF0010CBEF5007F17
:1012E0001FD32349234A24484FF4F87307F01BFF08
:1012F000234807F018FF4FF4F8711E4807F00CFF61
:101300006FF015009FE60F2A0DD8002D3FD0C0B218
:1013100002F1300CEC440CF8100C039801300390EF
:101320001CE00F2A0CD91249124A134840F2F51357
:1013300007F0F9FE134807F0F6FE40F2F511DCE77E
:1013400015B3C0B2BCF1000FE2D002F1300CEC4496
:1013500060F07F000CF8100C0AF1010A0132C5F1AF
:10136000080004340590B4E6249A000094BC000000
:10137000EAA100002CA4000092A00000AAA4000092
:101380005AA400007BA40000BCF1000F01D1019819
:1013900008B10136E2E73846CDE90621059307F0AA
:1013A00085FF0236DDE90621059B0644D6E7384A6B
:1013B0003849394840F2312307F0B5FE59463748DD
:1013C00007F0B1FE40F2312197E71DB9A6F10804FC
:1013D000601838E6019BC1F3870C9DF80C100BB91F
:1013E0000846194685F800C06870E97085F802A0C3
:1013F000BAF1000F06D008A84FF0000CC5F1010E9D
:10140000624509D10DF1200808EB0209C5F1010B75
:10141000C14511D1601B16E610F8011B0B0608D55B
:1014200004EB0E08B04501F07F013FF60AAE04F868
:10143000011B0CF1010CE3E7BAF1000F03D098F99E
:101440000020002A1CDB019BEBB998F8002055F81E
:10145000227045F82230384607F028FF421C04EB82
:101460000B011144B1423FF6ECAD98F8001004F8BE
:10147000011B39462046029207F034FF029A1444B9
:1014800008F10108C4E70022E9E76FF00D00DAE592
:101490002CA40000EAA1000092A0000095A4000086
:1014A000436803F00303032B10B50446816002D0A8
:1014B0002BB1002000E000680023636010BD054AE6
:1014C00005490648452307F02EFE0248452107F04E
:1014D00023FEEEE7C1A40000EAA1000092A00000F4
:1014E000014B1860704700BF980000202DE9F84FAD
:1014F000858B2B070446914669D4022905F0070520
:1015000000F0EE81AA46D4F81880A38BB8F1000F42
:101510007DDA0022266823F00703C4E9002243F0A5
:101520000103A383A38B03F0070555454FF0000784
:1015300040F0A5814FF0000A002E00F0F28043F049
:10154000080304F1140BA383584605F007FA68B9A1
:10155000934A94499448B92307F0E5FD93485946C6
:1015600007F0E1FD8E48B92107F0D6FD89F3118817
:10157000BFF36F8FBAF1000F40F08881002E40F06A
:101580009E8117B18A492046B8474FF04003EFF3D8
:10159000118983F31288BFF36F8F584605F0D0F995
:1015A00068B97F4A834980488E2307F0BCFD824892
:1015B000594607F0B8FD7A488E2107F0ADFD584630
:1015C00005F0DCF9A38B23F00803A3835AE001297B
:1015D0000CBF45F0100545F02005858314342046E6
:1015E00005F0BCF968B96E4A6E496F48B92307F037
:1015F0009AFD6E48214607F096FD6948B92107F02B
:101600008BFD89F31188BFF36F8FBDE8F88F03F06E
:101610000702511F012920D80021062A2668C4E9A3
:10162000001116D1324603E0E18B12680131E183EB
:10163000002AF9D123F0070343F00202A2832046D7
:1016400007F082FC00283FF46DAF42F02002A28335
:1016500068E723F007039AB2F0E7042A1ED123F0CB
:1016600007039AB2A283204607F06EFC10B142F045
:101670002002A283A38B03F00705002755453E46B1
:1016800040F0FD80B4F81CA01AF0100F00F01F818C
:101690002AF01003A3830AF0070A34E7474A4849AF
:1016A000414840F21B1307F03EFD444840F21B1135
:1016B00007F032FDDEE75DB142493B483F4A4FF457
:1016C000AB7307F030FD3D484FF4AB7107F024FDDC
:1016D00023685BB93C493448384A40F2571307F055
:1016E00022FD364840F2571107F016FD23691F68A6
:1016F0005FB936492C48314A4FF4AD7307F013FDFA
:101700002E484FF4AD7107F007FDA38B23F00703BC
:1017100043F006039BB2062DA38340F0AD804FF04B
:1017200000084FF0000A5646002F7FF408AFA9E7E3
:10173000022D0BD026491C48204A40F25D1307F0C9
:10174000F2FC1E4840F25D1107F0E6FCE38B5BB152
:1017500020491548194A4FF4AF7307F0E4FC1748C5
:101760004FF4AF7107F0D8FC23695F685FB9174980
:101770000D48124A40F2611307F0D5FC0F4840F2C1
:10178000611107F0C9FCA38B23F0070343F00403A6
:101790009BB2042DA383C2D00026B04604256EE080
:1017A00087A50000B4A5000092A00000CBA5000012
:1017B00025190000E0A50000F5A50000E4A4000044
:1017C000EAA1000006A5000012A5000035A5000052
:1017D0004CA5000062A50000012D0BD04B494C48E0
:1017E0004C4A4FF4B27307F09EFC4A484FF4B27172
:1017F00007F092FC23685BB947494548454A40F2E7
:10180000651307F090FC434840F2651107F084FC33
:1018100023699F685FB941493D483E4A4FF4B4731C
:1018200007F081FC3B484FF4B47107F075FCA38BC3
:1018300023F0070343F005039BB2052DA3833FF478
:101840006EAF0026B046052519E0324A34493048CB
:1018500040F26B1307F067FC2E4840F26B1107F063
:101860005BFCA38B03F00702AA423FF40BAF0026F8
:1018700015463746B04602E00026B0460625A26867
:10188000002A3FF457AE4FF0010A58E6A16800293C
:101890003FF474AED1F8009000293FF46FAED1F858
:1018A00004A043462A462046D047B9F1000F04D091
:1018B000D9F8003049469946EEE74B46FAE73146FB
:1018C00043462A462046366807F06AFB56E61AF079
:1018D000200F3FF483AE2AF02003A3830AF007050C
:1018E000204607F031FB00283FF478AE0138042889
:1018F000ABD801A353F820F0051500004B180000E9
:10190000B716000031170000D917000071A50000BC
:1019100092A00000E4A4000012A5000035A500007C
:10192000EAA10000F8B504460D4600F114064FF098
:101930004003EFF3118783F31288BFF36F8F3046B4
:1019400004F0FEFF68B90C4A0C490D488E2307F0DD
:10195000EAFB0C48314607F0E6FB07488E2107F00A
:10196000DBFB304605F00AF8A5613A462046012126
:10197000BDE8F840FFF7BABD87A50000E0A500006C
:1019800092A00000F5A500002DE9F04704460F469F
:1019900007F0F6FA051E78DB04F114094FF0400356
:1019A000EFF3118A83F31288BFF36F8F484604F078
:1019B000C7FF68B9394A3A493A488E2307F0B3FB62
:1019C0003948494607F0AFFB34488E2107F0A4FBA5
:1019D000484604F0D3FFE38BA68B4FF6FF72934289
:1019E00006F0070654D0022E24D10133E383354696
:1019F0004FF00108484604F0B1FF68B9274A2B4967
:101A00002848B92307F08FFB2948494607F08BFB8C
:101A10002248B92107F080FB8AF31188BFF36F8F4A
:101A2000B8F1000F31D0002332463946204607F086
:101A3000B7FA2AE0062E0ED8DFE806F004190D0DDD
:101A4000042D040000233B606368ABB9C4E9007750
:101A5000AEB135460DE017491248174A40F2C91396
:101A600007F061FB144840F2C91107F055FB6FF015
:101A700004054FF00008BDE71F606760E8E75246C5
:101A800002212046FFF732FD35462846BDE8F087A3
:101A90006FF00A05EDE76FF08505EAE787A500001E
:101AA000E0A5000092A00000F5A50000B4A500008C
:101AB000CBA5000071A50000E4A40000B2F5802FC2
:101AC0002DE9F04104460E4617466CD33D493E4A87
:101AD0003E4840F2E31307F026FB3D4807F023FBA6
:101AE00040F2E311384807F017FB043FF51D3E4470
:101AF00025F0070526F00706761B172E4FEAD607B6
:101B00000ED83449304A314840F2F31307F00BFB4A
:101B1000314807F008FB2C4840F2F31107F0FCFABB
:101B20002560B7FA87F4C4F12008C4F12404A400A6
:101B300007340023E408EB60631CBB42AF600ED99E
:101B40002649214A21484FF4017307F0ECFA224854
:101B500007F0E9FA1C484FF4017107F0DDFA05F1CE
:101B60000C0303EB8808002243F8042F4345FBD104
:101B7000630043F001036B8005EBC4013B1B58007D
:101B80002A804880A91925F834404A80AB5305EBD8
:101B9000C70321465A8842F0010228465A80BDE810
:101BA000F04107F035BA042A9FD80D49064A074884
:101BB0004FF4F57307F0B7FA074807F0B4FA4FF49B
:101BC000F5718FE7D9A600000DA6000092A00000D5
:101BD000EFA6000040A7000027A7000069A70000AB
:101BE00006A700002DE9F04F814695B08B461746B9
:101BF0001C460025387808B9284658E37B1C252860
:101C0000039306D05946C8470028C0F250830135D7
:101C100004E2182200210EA807F06FFB7B78252B29
:101C20007DD00023781C98469E469C461E46014661
:101C300010F8012B2B2A00F0A18000F29880202AB6
:101C400000F09F80232A00F09F802BB19DF8403048
:101C500043F040038DF84030B8F1000F05D09DF8F7
:101C6000403043F020038DF84030BEF1000F05D026
:101C70009DF8403043F010038DF84030BCF1000F68
:101C800005D09DF8403043F008038DF840302EB168
:101C90009DF8403043F004038DF840309DF840300B
:101CA00003F04400442803D16FF386138DF84030CD
:101CB0009DF840302A2A43F080038DF840307FD1D0
:101CC0009DF8412042F001024B1C8DF841201A780A
:101CD0002E2A9DF841200CBF0121002161F3410211
:101CE0008DF8412078D15A782A2A6ED0013300220B
:101CF0004FF00A0C194611F8010BA0F13006092E1D
:101D000040F295809DF840101292C1F3400040EAE5
:101D1000D2700A4660F341028DF840205CE0BA1CA4
:101D200003928DF843309DF84130DA0740F12E815F
:101D300054F8048BB8F1000F07DA9DF8402042F008
:101D400004028DF84020C8F100085E0740F12781A9
:101D500054F804ABBAF1000F80F226819DF84130AF
:101D60006FF341038DF841304FF0FF3A1CE12D2A0B
:101D70000DD0302A7FF469AF012358E74FF0010CF2
:101D800055E74FF0010E52E74FF001084FE70126EB
:101D90004DE70EFB0262303A0346184610F8016B1D
:101DA000A6F1300CBCF1090FF3D999428FD09DF800
:101DB00040101192D20F62F341018DF8401086E776
:101DC0000B4600224FF00A0EE7E79DF8412042F053
:101DD00004028DF8412002331A786C2A47D02BD8A0
:101DE000682A31D06A2A4BD04C2A51D01A4612F8B0
:101DF000013B0392782B9DF841208DF8433000F28F
:101E0000BE806D2B51D8692B00F2B980572B67D853
:101E1000412B03D0453B022B00F2B1809DF84230AC
:101E2000042262F302038DF84230012373E00CFBBD
:101E30000202303A0B465DE7742A25D07A2AD5D1C2
:101E40009DF8412006210CE05A78682A9DF841202F
:101E500006D1012161F3C6028DF841200233C5E7A6
:101E6000022161F3C6028DF841200133BEE75A78A2
:101E70006C2A9DF8412001D10421EBE70321F0E712
:101E80009DF841200521ECE79DF841200721E8E776
:101E9000BDF8402022F4F04222F0020242F48042D7
:101EA00042F00202ADF84020DFE76E3BD9B20123D9
:101EB0008B4040F282410B4237D113F0240F51D1B5
:101EC000D8075CD59DF84230032161F302038DF8F9
:101ED000423002F07803A3F140014B424B411AE03B
:101EE000A3F15801C9B2012000FA01F111F4624FC7
:101EF00094D140F6010631421DD111F4043F3ED089
:101F00009DF8423060F3020302F07802402A8DF817
:101F1000423034D000239DF84020C2F340010B43EF
:101F200063F341028DF84020FDE69DF84230022126
:101F300061F30203E8E79DF84210022002F0780204
:101F400060F30201402A8DF8421002BF9DF8401054
:101F500041F001018DF84010632BDBD1131E18BF37
:101F60000123D8E79DF84230032161F3020312F008
:101F7000780F8DF8423014BF01230023CBE79DF882
:101F8000403043F001038DF84030C3E79DF9402015
:101F9000002AB4BFDDF844804FF0FF38D5E698073B
:101FA0007FF5E2AEDDF848A09DF841100023CDE9B1
:101FB00011339DF8423003F00703012BC1F3C30135
:101FC00033D1CB1E042B04D8DFE803F010464610B3
:101FD0001000236801294FEAE372CDE90E320BD1DC
:101FE00003F0FF030E9300230F9307E054F8043B24
:101FF000DA17CDE90E3202E0022911D004349DF83F
:10200000403013F0030647D0039B3A4659464846F2
:1020100007F06BF80028C0F24A810544039FE9E508
:102020001AB20E9243F3C033DEE7022B24D1CB1E4B
:10203000042B04D8DFE803F0181010181800012949
:1020400054F8043B4FF0000214D00229CDE90E32BF
:10205000D5D19BB20E93D2E7073424F00704F4E8FD
:102060000223CDE90E23CAE754F8043B0E93002364
:102070000F93C4E7DBB2BCE7042B08D1073424F08C
:102080000704D4E900230834CDE90E23B7E7032B76
:10209000B5D154F8043BDDE79DF843007828BDD85E
:1020A00062281CD825283FF4ADAD5828B6D10DF1D3
:1020B00036030093DDE90E0108AB10AA06F0CFFF4E
:1020C000BAF1000F074680F29A80002FA6D00DF1DA
:1020D0003603D81B002E00F0C1800130BEE063380B
:1020E00015289BD801A252F820F000BFC1210000A2
:1020F000D32100001D2000001D2000001D20000035
:102100001D200000D32100001D2000001D20000024
:102110001D2000001D20000061220000F9210000A8
:102120001F2200001D2000001D200000452100008E
:102130001D200000F92100001D2000001D200000CE
:10214000F9210000BAF1000F0E9F35DB51463846E9
:1021500007F0B3F807EB000A002F3FF45FAF00264B
:102160009DF8423013F01002059200F09380023087
:102170005B06119A48BF129B0492104448BFC018D6
:10218000B8F1000F40F3A0809DF84020A8EB0008B4
:10219000C2F380035007069300F19680510640F188
:1021A00089803EB159463046C84700287FDB069BF0
:1021B00001351E4630227EE0384607F077F8C9E741
:1021C0000E9B8DF82030002608AF0DF1210A01206A
:1021D000C6E719075CBFC3F300135E01DDE90E23F8
:1021E00048BF2B26002BBFF662AF524263EB43037E
:1021F000CDE90E232D265AE7002658E700269DF844
:1022000040200DF13603DB1B6FF386129A458DF8E3
:1022100040207FF65AAFAAEB0303119355E70E98BF
:1022200090B30DF13603009310AA08AB002106F01D
:1022300016FFBDF8423003F0EF0343F4F04343F0E0
:102240001003BAF1000F0746ADF84230D6DA002885
:102250003FF4E4AE0DF13603181A00269A467FE7E4
:102260000E9B07293FF6DAAEDFE801F00C04060CFE
:1022700008080C0C1D70D1E61D80CFE6EA17C3E9F3
:102280000052CBE61D60C9E62E4F064607F1050A4F
:10229000052065E71A0748BF013069E70793104634
:1022A00006925946C8470028DDE9062304DA15B02E
:1022B000BDE8F08F202243461946002903F1FF3381
:1022C000ECDC45446D1A98462EB159463046C84755
:1022D0000028ECDB01359DF84230DA0601D41B07FB
:1022E00005D559463020C8470028E0DB0135059B5D
:1022F00033B19DF843005946C8470028D7DB013564
:10230000049E2E4405E059463020C8470028CEDB05
:102310000135731B002BF6DC53463A4659464846B6
:1023200006F0E3FE0028C2DB0544A844A8EB050341
:10233000002B7FF773AE59462020C8470028B6DB34
:102340000135F3E794A7000008B54FF04002EFF322
:10235000118382F31288BFF36F8F01F027FD0348CA
:1023600006F0E5FD00F060FEFCE700BF9AA7000064
:10237000F8B506460C4629B90E4D0F4B5B1B1F11D5
:10238000BC4200DBF8BD6B685B797BB14EB90B4991
:102390000B480C4A862306F0C6FE0A48862106F042
:1023A000BBFE2B6831461B68284698470134103520
:1023B000E6E700BFFC9C00001C9D0000FBA700009E
:1023C00092A00000C3A70000014B53F82000704703
:1023D000809D0000054A00231370054A1360054BD9
:1023E000054A1A604FF4004000F094BAB00E002085
:1023F0007C0500209C0000204391000070B5194B23
:10240000194CE41A902C0BD918491948194A40F272
:10241000732306F088FE174840F2732106F07CFE15
:10242000BFF35B8F144B53E8006F721C43E800212D
:102430000029F8D1BFF35B8F1EB92511094CAE42BC
:1024400000DB70BD237B53B123689B690BB1204631
:102450009847636804221968204600F06FF8013637
:102460001034ECE7FC9C00001C9D000053A8000009
:1024700092A000000EA8000084050020F8B50C4FC3
:102480003D784DB90B4C0C4EFFF7B8FF361B36119B
:10249000B54202DB01233B70F8BD63685B791BB179
:1024A000236820465B69984701351034F0E700BF88
:1024B000B00E0020FC9C00001C9D0000014B01227E
:1024C0001A707047AF0E00200C4BBFF35B8F53E8C0
:1024D000001F013143E80012002AF8D1BFF35B8FDF
:1024E00058B1BFF35B8F064B53E8001F013943E837
:1024F0000012002AF8D1BFF35B8F70477C050020E3
:1025000080050020054B10B51B6804469847002144
:10251000A0602046BDE81040FFF72ABF9C000020C5
:10252000044A054B9B1AB1EBD30F34BF52F831006C
:1025300000207047AC9C0000FC9C000070B5104C63
:102540000368041B24111B68013405460E46E4B2DF
:1025500063B90C490C4A0D48BB2306F0E4FD0C4856
:1025600006F0E1FD0848BB2106F0D6FD6B681C7142
:102570006B6801221E605A71BDE87040FFF79EBF74
:10258000FC9C0000D3A800007BA8000092A00000E3
:10259000E9A800000EB403B503AB014653F8042BC1
:1025A00004480193FFF71EFB02B05DF804EB03B093
:1025B000704700BF759100002DE9F04F87B01C46B1
:1025C00001F0010305929DF84090BDF948A00493E5
:1025D0000746884601F0020B01F0080606F0C8FD28
:1025E0000246002840D037493846FFF7D3FF05465A
:1025F000BBF1000F08D018F0440F37D13249224602
:102600003846FFF7C7FF0544049B53B12F4B3049B1
:1026100053F829202F4B3846002A08BF1A46FFF7E7
:10262000B9FF3EB12C4B2D4953F829203846FFF70E
:10263000B1FF0646BAF1000F12DB059B284C23B10F
:10264000284BB9F1040F08BF1C4651469DF84400C1
:10265000FFF766FF214602463846FFF79BFF064418
:10266000701907B0BDE8F08F0546C1E71E4B18682A
:102670000028C8D01D4B4FF47A781B68B4FBF3F4E4
:102680004FF46161B4FBF0F300FB134408FB04F466
:102690004FF03C0CB3FBF1F201FB1231B4FBF0FE46
:1026A000B1FBFCF300FB1E440CFB131108FB04F40C
:1026B0000091B4FBF0F40E49CDE901E43846FFF790
:1026C00069FFA0E719A900001DA900008C9D00006A
:1026D00042A900000BA90000A09D000045A9000030
:1026E00014A9000010A900008C0500208805002016
:1026F00026A90000CA0605D48B064CBF024903492F
:10270000FFF748BF704700BF2EBA00004BA900007A
:102710002DE9F8430F460899DFF8B89004461646AD
:102720001D46FFF7E7FF4FF00008A84528DB76B30A
:102730003A7829492046FFF72DFF01256A0703D182
:1027400024492046FFF726FFB54225D27A5D22496B
:102750002046FFF71FFF0135102DEFD11F492046FE
:10276000FFF718FFEEB91B492046FFF713FF0125BD
:10277000B5422B4617D317492046FFF70BFF1CE045
:1027800049462046FFF706FF08F10108CDE7144946
:102790002046FFF7FFFE012511492046FFF7FAFE0C
:1027A000D9E700252B46FA5C0E49A2F120035F2BE6
:1027B00028BF2E222046FFF7EDFE0135102D06D052
:1027C0006B07D5D103492046FFF7E4FED0E7BDE80B
:1027D000F88300BF56A900004EA9000058A90000C8
:1027E00054A900005AA9000038B5CB0705460C468D
:1027F00003D5054A0549FFF7CDFE21462846BDE829
:102800003840FFF777BF00BF0BA9000042A90000C6
:102810002DE9FF470E46904636F8102B8B6812F4D0
:10282000E07F07460D46C2F3821923D00A78486834
:10283000C2F3C202D8B13049401A40F3CF00CDE90B
:102840000120CDF80090002241463846FFF7B4FE43
:102850002B68C3F349238246B3B96C88C4F3CB0415
:10286000F4B94A4641463846FFF7BEFF2EE04FF026
:10287000FF30E4E70B68C3F349236BBB4C88C4F318
:10288000CB041CB3CA460BE01C481D4933463A46EC
:1028900006F00BFB002822DB6C88C4F3CB0494B158
:1028A0002B68C3F349231E44102C254628BF10254E
:1028B0003146CDF8008053462A463846FFF728FFB8
:1028C000641B2E44F0D1B9F1000FCAD1384604B0D0
:1028D000BDE8F04706F076BC0A48CA46D5E70A4A82
:1028E0000A490B4840F2B72306F01DFC064840F2A7
:1028F000B72106F011FCCFE7AC9C000075910000F9
:10290000E51B0000919100005DA9000099A900005D
:1029100092A00000074A00210123904206D8064AEF
:1029200001B901231360054B1860704740085B0034
:102930000121F2E740420F00880500208C050020AD
:102940002DE9F04F85B002AFD7E90E6A04468846FC
:1029500093469946002E4ED0C7F804A0CDF800A0AB
:102960007A6B334610210020FEF754FB051E09DA6E
:1029700022492348234A672306F0D5FB21486721D3
:1029800006F0CAFB204B3A6B04F007040BF0070B70
:10299000E40044EA8B1403EA45231C431B4B03EA7F
:1029A000C2431C43134617332B4423F00703ADEBFC
:1029B000030D0DF1080BA6B1CDF800A07A6B3346DC
:1029C00029460BF11000FEF725FB002809DA0B4918
:1029D0000B480C4A812306F0A6FB0A48812106F029
:1029E0009BFB4B4622464146584606F0F8FB0C3707
:1029F000BD46BDE8F08F3546C4E700BFEFA9000033
:102A000092A00000C2A9000000FE07000000F87FAD
:102A1000F8B5074F0D4604464618B44201D1284682
:102A2000F8BD386814F8011B83685B689847F4E7C1
:102A3000A8050020014B002019607047A405002064
:102A4000024B034801221A7006F0BCBBB20E0020F4
:102A5000D49D0000064B10B518680C46FFF7B4FC77
:102A600021460346BDE8104002480F22184700BF28
:102A7000A4050020D49D000008B5094B0948186042
:102A800006F015FF58B908490848094A792306F0A5
:102A90004AFBBDE808400648792106F03DBB08BD69
:102AA000A8050020FC9A00002EAA000092A00000B9
:102AB000F9A90000014B01221A707047B30E0020E3
:102AC000014B002019607047C0050020024B0348ED
:102AD00001221A7006F076BBB40E0020049E00009E
:102AE000064B10B518680C46FFF76EFC21460346EE
:102AF000BDE8104002480F22184700BFC005002063
:102B0000049E0000F8B5194D07460E4604243246CF
:102B10003946002003F0EAFAC8B101232B70144BA8
:102B20001B782BB93046F8BD5CB92C704FF0FF34E0
:102B3000002003F023FB0028F4D02B78002BF3D1E6
:102B4000F0E7013C41F2883006F031FFF0E72B78E6
:102B500013B1013C04D12C702B78002BD7D1E1E7C5
:102B600041F2883006F023FFF6E700BFB30E0020E5
:102B7000B40E00202DE9F84305464FF04003EFF373
:102B8000118683F31288BFF36F8F214803F0D8FEBC
:102B900068B9204A204921488E2306F0C4FA1C490E
:102BA0001F4806F0C0FA1B488E2106F0B5FA1848F7
:102BB0001C4FDFF8748003F0E1FE1C4B1C684FF0E3
:102BC0000C09BCB9124803F0C9FE68B9114A18498A
:102BD0001248B92306F0A7FA0D49164806F0A3FAE1
:102BE0000C48B92106F098FA86F31188BFF36F8F6D
:102BF000BDE8F883D4E90123002D18BF13462BB19B
:102C000098F8142009FB02F2B85C98472468D8E7CA
:102C1000C405002087A50000E0A5000092A00000E8
:102C2000F5A50000CC050020740C0020D80500207C
:102C3000B4A50000CBA500000A4ABFF35B8F43098F
:102C400002EB830200F01F0001238340DB4352E8C4
:102C5000000F184042E800010029F8D1BFF35B8F54
:102C6000704700BFC805002070B5194B1C7DBFF32D
:102C70005B8F04F01F0301229A40164B610903EB9E
:102C80008103D04353E8001F01EA000543E80056E2
:102C9000002EF7D1BFF35B8F0A4213D00E4B0F4DBE
:102CA0008BB10C236343EA18E85C517806F03DFBD6
:102CB0000020FFF75FFF0C235C432A1900232B51F0
:102CC000C2E9013370BD83F31188BFF36F8FEFE763
:102CD000740C0020E00500202B930000CC050020A0
:102CE0002DE9F843324B334A1C7DBFF35B8F6309F8
:102CF0004FEA830852F823302F4EBFF35B8F04F066
:102D00001F0943FA09F313F0010F07460AD10146E0
:102D1000204600F069F828B107C80C2303FB0463C0
:102D200083E807000C236343F218F55C2DB92046B5
:102D3000FFF782FF2846BDE8F8837B1C10D0D2F84D
:102D400008C01E4D1E4A4FF400400021ECFB00510C
:102D500000232846FDF706FC0121381A05F0DEFBAA
:102D600004F0F2FA0120FFF705FFBFF35B8F154B6C
:102D70009844012303FA09F358E8002F1A4348E85E
:102D800000210029F8D1BFF35B8F0F4B33B10C2327
:102D90006343F218F05C517806F0BBFAFFF764FF6A
:102DA0002046FFF749FF04F043FB0120C3E700BFC3
:102DB000740C0020C8050020CC0500203F420F0005
:102DC00040420F00E005002013930000054BBFF3C5
:102DD0005B8F53F82000BFF35B8F003818BF0120D2
:102DE000704700BFE40500202DE9F74F884601A990
:102DF00000F042F8441E24B204EB4404DFF86C9067
:102E00000546A40025B92F46384603B0BDE8F08F2B
:102E1000019B185D1F19FFF7D9FF064610BB7868A4
:102E2000134A4FF4004ACC463146E0FB0AC1002366
:102E30006046FDF797FB8346B8680D4ACC4631469D
:102E4000E0FB0AC100236046FDF78CFB094B1B68C1
:102E50005A1C01D0834205D9B8F1FF3FD4D0584461
:102E60004045D1D9013DADB20C3CCBE73F420F000C
:102E700040420F00A000002008B9024B0B60002068
:102E8000704700BF149E0000014805F071BE00BFEE
:102E9000149E000010B5044618B90D4B0D485B6830
:102EA0009847616831F004030CD008290AD011F06A
:102EB000020108D00848214603F0A2FB002323604A
:102EC0000023636010BD2068142206F016FAF7E7AD
:102ED0007C01002075AA0000000B002008B508B393
:102EE0004368042B10D101220368BFF35B8F53E8C2
:102EF000001F002903D143E800200028F7D1BFF3C9
:102F00005B8F0BD1002008BD53B100684FF0FF323A
:102F10004FF0FF3303F06CFD0028F3D00348F2E7D5
:102F20000348F0E76FF4E040EDE700BFE98FFFFFF3
:102F3000EA8FFFFF08B5C0B14368042B10D100220F
:102F40000368BFF35B8F53E8001F012903D143E8F7
:102F500000200028F7D1BFF35B8F09D1002008BD06
:102F600043B1006803F03EFEF8E76FF4E040F6E797
:102F70000148F4E70148F2E7E98FFFFFEA8FFFFF1E
:102F800010B5044618B9164B16485B689847636835
:102F9000042B23D0082B21D0CBB92368BBB912480E
:102FA0004FF0FF324FF0FF33214603F0BDFA08B96E
:102FB00023681BB90A4B0D485B68984720681422A8
:102FC000002106F09AF9636843F002036360206809
:102FD00006F0BEFC636843F00103636010BD00BFF0
:102FE0007C01002075AA0000000B00209BAA0000B5
:102FF00008B5064906484023142206F076FCBDE8D1
:1030000008400449044805F013BE00BF0006002034
:10301000000B00201C9E0000309E00000149102281
:103020000A60704710ED00E072B6404080F31188EE
:10303000BFF36F8FBFF34F8F30BF62B6BFF36F8F99
:10304000704700BF72B6494081F3118820BF80F3FA
:10305000118862B6704700BF70B5064686B00D464F
:10306000002938D08B6805934B6804930B68039351
:1030700000241C4B1C490293012223462046CDE923
:10308000004406F0CAF86B6905932B690493EB685A
:103090000393164B14490094CDE9014301222346C2
:1030A000204606F0BAF8EB690393114B0E490094E1
:1030B000CDE9014301222346204606F0AEF8AB6974
:1030C00003930C4B08490094CDE9014301222346A8
:1030D000204606F0A2F82946304606B0BDE870400A
:1030E00003F0A0B8C8AA0000DC9C0000F7AA00000A
:1030F00026AB000035AB000040B2002807DB044AD5
:103100004109012300F01F00834042F8213070473D
:1031100000E100E0054B420900F01F0053F82220B7
:10312000012303FA00F01040704700BF00E100E007
:10313000D30770B504460E4625D48D1C072D0FD934
:10314000124A13491348572305F0EDFF1248314640
:103150000623224605F0E7FF0C48572105F0DCFF67
:1031600060B20028ACBF00F160400C4B4FEA45153F
:10317000B8BF00F00F00EDB2AABF00F561401D54CA
:1031800080F8005370BD0025EAE700BF63AB000084
:1031900099AB000092A00000B4AB000014ED00E079
:1031A00030BFFFF7FDBF00BF0B4A08B50B4B22F045
:1031B0007F029A60BFF34F8FBFF36F8FD3F88820E1
:1031C00022F47002C3F8882003F0C0F804F0E0FF96
:1031D00000F0DAFB03F0FEF80000000000ED00E074
:1031E000094A0A49936809689967094958674B6809
:1031F00043F080534B60002383F31188BFF36F8F3C
:103200009368986F704700BF740C0020809F000087
:1032100000ED00E012498A684FF030001044EFF3EF
:10322000098C80E8F01F402080F31288BFF36F8F75
:103230000C4F4FF00066CA698A603E60506F0023F1
:10324000536780F3118804B5104600F039FCBDE8DF
:10325000044002F1300090E8F01F8CF309887047B9
:10326000740C002004ED00E01EF0040F0CBFEFF31F
:103270000880EFF30980816911F8021C0229FFD050
:1032800001B505F0DAFF01BD42F8203C009B42F891
:103290001C3C0A49019B42F8183C029B42F8143C32
:1032A00021F001014FF0807342F8043C42F8081C01
:1032B0000023203A02654367704700BFF38F000088
:1032C000094A0346906870B113F1160F406E05D09D
:1032D000A0F120029A4205D8834203D2814228BF3E
:1032E0000020704700207047740C002008B5094B7F
:1032F00098600D46144600F0E3FB204685F30988EC
:10330000002163B681F31188BFF36F8F0022002381
:1033100005F06FFE740C002001B572B60B4A90697F
:1033200000281EBF0021916106F003FB62B6EFF397
:103330000580A0F110004FEAC0000549014409C909
:103340009847BDE80140034908470000740C00207D
:103350002C9B000059330000044B9968D8698842BF
:1033600003D003494FF080520A607047740C00206C
:1033700004ED00E0F0B585B000243B4B0293CDE9AD
:103380000044234607460E4601223849204605F0F0
:1033900063FF374B9B6ADB0409D5364B33490094F6
:1033A000CDE9014301222346204605F055FF304B6D
:1033B0009B6A1D0509D5304B02930023CDE90033EC
:1033C0002A490122184605F047FF294DAB6A9C05A2
:1033D0001ED50024294B0293012223462046CDE925
:1033E0000044224905F038FFAB6BAA6A10040FD5E0
:1033F0000393234B1D490094CDE901430122234649
:10340000204605F029FF1FB1AB6A23F40043AB62ED
:10341000174B9B6A590509D51A4B02930023CDE936
:10342000003312490122184605F016FF104A936A2C
:1034300013F4807312D0144B02930023CDE90033B0
:103440000A490122184605F007FF094A936A00203D
:1034500043F47F439362307005B0F0BD926A9204EA
:10346000F3D50A4A0292E9E7F4AB0000DC9C0000C5
:1034700000ED00E00AAC00001BAC00002EAC000028
:1034800047AC00005CAC000077AC00008FAC0000E3
:103490001FB50024334B0293CDE900442346324943
:1034A0000122204605F0D8FE304B9B6A9B0109D5CE
:1034B0002F4B2D490094CDE901430122234620469C
:1034C00005F0CAFE294B9B6ADC0109D5294B029302
:1034D0000023CDE9003324490122184605F0BCFE43
:1034E000224B9B6A180309D5234B02930023CDE995
:1034F00000331D490122184605F0AEFE1B4B9B6AA6
:10350000590309D51D4B02930023CDE90033164919
:103510000122184605F0A0FE144B9B6A9A0309D5B8
:10352000174B02930023CDE900330F4901221846BF
:1035300005F092FE0D4B9B6ADB0309D5114B0293FC
:103540000023CDE9003308490122184605F084FE26
:10355000064A936A6FEA03436FEA134300209362BB
:1035600004B010BDBEAC0000DC9C000000ED00E02B
:10357000D6AC0000E9AC000003AD000021AD0000B6
:1035800046AD000060AD00002DE9F04385B0002499
:10359000524B0293CDE900442346804689461646A5
:1035A0004F490122204605F057FE4E4B9B6ADF062D
:1035B00009D54D4B4A490094CDE9014301222346E8
:1035C000204605F049FE474B9B6A1D0709D5474B2E
:1035D00002930023CDE9003341490122184605F04A
:1035E0003BFE404DAB6A9C0741D46FF015073D4B45
:1035F0009B6AD90709D53E4B02930023CDE90033DE
:1036000037490122184605F027FE364B9B6A9A0679
:1036100009D5384B02930023CDE90033304901220C
:10362000184605F019FE2F4CA36ADB0602D4A36AE4
:103630009D0750D5636818054DD541463846FFF7BC
:103640003FFE002835D080F309880220254B9A6A76
:10365000920642BF5A6A22F400525A629A6A42F0B3
:10366000FF029A620023337005B0BDE8F0830024A6
:10367000214B029320462346CDE9004418490122FC
:1036800005F0EAFD6F6BAB6A1806AED51B4B14490B
:103690000397CDE90143009423460122204605F01B
:1036A000DBFDB9F1000FA2D0AB6A23F08003AB625F
:1036B0009DE7A36AD9060ED51149124A124840F275
:1036C000491305F030FD114805F02DFD0D4840F27D
:1036D000491105F021FD0020B8E700BF8BAD0000C7
:1036E000DC9C000000ED00E0A1AD00001BAC000080
:1036F00002AE00008FAC0000D4AD0000ECAD0000C5
:103700005BAE000021AE000092A00000A5AE00005C
:103710002DE9F041804B5F6890B00546C7F308047F
:10372000002383F31188BFF36F8F02F07F40B0F165
:103730007F4F0CD102F00C0008281AD1774A784943
:103740000093CDE901321846012205F085FD0026DF
:10375000744A7549754840F2FB3305F0E4FC74483F
:1037600005F0E1FC6F4840F2FB3105F0D5FC002587
:1037700006E0120746BF0D461E460126002DE7D083
:103780004FF00008E31E8DF81F80092B00F2AB807C
:10379000DFE803F0059FA37EA9A9A9A9A9A7654B06
:1037A0005D4F5F49CDF80080CDE901830023012200
:1037B000184605F051FDFC6A8DF81F8014F00204D4
:1037C0000CD05D4BCDF80080CDE901830023544936
:1037D0000122184605F040FD002428E0FB6A002B7A
:1037E00004DA564B0094CDE90143EFE7FB6A5B0036
:1037F00062D5534B4A490094CDE901430122234647
:10380000204605F029FDAB6933F8022C4DF6027312
:103810009A4227D12B6803934A4B0094CDE9014388
:10382000204623463E49012205F016FD2C689DF8EE
:103830001F30A3B9202229460DEB020005F052FDEE
:103840000F9B002E63D0C3F3080222B96FEA532303
:103850006FEA43230F9308A92046FFF7FDFB10B042
:10386000BDE8F08197F8283033B10DF11F02012136
:103870002846FFF789FE0DE097F829302BB10DF1AE
:103880001F010120FFF776FD04E07B8D9BB21BB189
:10389000FFF7FEFD0446CAE72B49224A234840F2BF
:1038A000CD2305F040FC294805F03DFC40F2CD2138
:1038B0001C4805F031FC8FE723491A4A1B4840F2A7
:1038C000D12305F030FC224805F02DFC40F2D12137
:1038D000EEE70DF11F020021CAE70DF11F010020E4
:1038E000D0E71C4B6EE71C4A1C4B0D4917F4F87FC0
:1038F00018BF1346103CCDE90334194B0293002343
:10390000CDE900330122184605F0A6FC64E723F454
:10391000FF7323F001039DE700ED00E0F6AE000029
:10392000DC9C000021AE000021AF000092A000004E
:1039300034AF000072AF000089AF0000AAAF0000F2
:10394000B8AF0000D7AF0000EAA10000F3AF00005D
:1039500017B0000047B00000DDAE0000C8AE0000A8
:103960006BB00000024A536943F010035361704783
:1039700000ED00E0EFF30880EFF3098101B5724636
:10398000FFF7C6FE01BD00BF044800234021C21856
:103990000133302B82F80013F9D1704700E100E0C9
:1039A000002080F31488BFF36F8F06F035F80020F5
:1039B0000D490860BFF34F8F0C4880F3088800F072
:1039C0002BF8402080F3118809484FF40261401819
:1039D00080F30988EFF314800221084380F31488F0
:1039E000BFF36F8FFFF7E0FB94ED00E0C02C0020E9
:1039F000401F00200749D1F890200023C2F307227E
:103A00001846934200DB7047C1F89830C1F8A00017
:103A10000133F6E700ED00E008B572B6002383F34A
:103A20001388FFF7E7FF144B4FF0FF32C3F88020F5
:103A3000C3F88420C3F88820C3F88C20C3F89020F2
:103A4000C3F89420C3F89820C3F89C20C3F88021C1
:103A5000C3F88421C3F88821C3F88C21C3F89021CE
:103A6000C3F89421C3F89821C3F89C2162B6BFF330
:103A70004F8FBFF36F8F08BD00E100E0084B9B68DC
:103A800083420BD1EFF3058343B1064B5A6842F0F2
:103A900080525A605A6A22F400425A6204F0C4BA50
:103AA000740C002000ED00E0024B034A03480121A2
:103AB00000F086B80000042000000020409E0000B6
:103AC000426E054B203A1A60044A2021C3E90112D4
:103AD0001846012100F09CB8200B002000000B15B7
:103AE000F0B5284E85B000258D4215DA4468002CCB
:103AF00045D0D3B104F1FF3C14EA0C0F0FD0224B98
:103B00000395029300230122CDE900331F49184693
:103B100005F0B2FB6FF01502104605B0F0BD1F2C8A
:103B2000EDD907681CEA070FE9D1202C0768D0F807
:103B300008C05FFA82FE10D9B4F1004F0FD8013CE3
:103B4000B4FA84F4C4F11F046400BEF1070F4CEA18
:103B5000040C06D90E4B0392D3E70824F5E73E2464
:103B6000F3E727F01F04144344F01004C6F898202C
:103B7000C6F89C404CF00104C6F8A0400132013563
:103B80000C30B1E700ED00E082B00000D49C0000F2
:103B9000A5B00000044B0522C3F89420BFF34F8F5B
:103BA000BFF36F8F704700BF00ED00E0BFF35F8F82
:103BB000024B0022C3F89420704700BF00ED00E0E4
:103BC00038B50E4D01232A780C46FFF789FF28707F
:103BD000163011D140F21113094A0A490A4805F07A
:103BE000A2FA2146094805F09EFABDE8384004488B
:103BF00040F2111105F090BA38BD00BFB60E00209A
:103C0000CBB00000EAA1000092A0000002B10000C9
:103C100010B5134A002312780C46FFF761FF10F12C
:103C2000160F04D00F4B0022072812DD10BD0E4ADC
:103C30000E490F484FF4987305F075FA21460D4868
:103C400005F071FABDE8104007484FF4987105F08F
:103C500063BAC3F89800C3F8A0200130E4E700BFBE
:103C6000B60E002000ED00E0CBB00000EAA100009D
:103C700092A000002EB10000284910B50C68082C55
:103C800013D94FF4A473264A2649274805F04BFA66
:103C900026480822214605F046FA21484FF4A4712F
:103CA00005F03AFA4FF0FF3010BDFFF77FFF48688C
:103CB0001F490022944200F10C000BD11D4B1C70D7
:103CC000FFF768FFD1F89030C3F30723082B14D116
:103CD0000020E9E7C1F8982050F80C3C23F01F03BE
:103CE000134343F01003C1F89C3050F8043C43F0F8
:103CF0000103C1F8A0300132DCE7094A0E490A4845
:103D00004FF4D47305F00FFA0C4805F00CFA044890
:103D10004FF4D47105F000FADAE700BF4C9E0000C2
:103D2000CBB00000EAA1000092A000005BB100004F
:103D300000ED00E0B60E00208FB10000DFB1000002
:103D4000014B1860704700BFC400002010B54FF051
:103D50004003EFF3118083F31288BFF36F8F114A92
:103D60000123C2F840354FF080424FF08051C2F835
:103D70007835D1F83041082C08D1D1F83411052913
:103D800004D8094C615C09B1C2F838364FF0804361
:103D90000122C3F8802580F31188BFF36F8F0020C4
:103DA00010BD00BF00E001400FB200004FF08043A3
:103DB000C0B2C3F81C05BFF34F8F0549054BCA6855
:103DC00002F4E0621343CB60BFF34F8F00BFFDE707
:103DD00000ED00E00400FA0520B1034B800143F040
:103DE00001031847704700BF409D00007FB50D7963
:103DF00005F01F04072C22D80A78092A15D8DFE815
:103E000002F00606060606140510141205224B7869
:103E1000032B18D0042B4FF0000315D02F4A029229
:103E200006E00622F3E70722F1E72D4B0293002379
:103E3000CDE900332B490122184605F07CFA6FF0DA
:103E4000150004B070BD0123488844F20A06B04250
:103E50003DD00AD844F20306B04214D044F205061D
:103E6000B04232D098B3204BE0E744F21406B0429F
:103E70002FD044F22806B0422DD044F20F06B042B3
:103E8000F1D1032000E00020C5F34015120242EA00
:103E9000055242EA0332230103F1804303F5E04374
:103EA00042EA0042C3F81825230103F1804303F5D9
:103EB000E0438A79C3F814250020C3F810050B4BA2
:103EC0004A79234483F89020BBE70120DCE70220F5
:103ED000DAE70420D8E70520D6E700BF38B20000B3
:103EE00019B20000AC9C00005CB200000000002091
:103EF000044B0122C3F8002508B1DA6070471A604C
:103F00005A60704700700040F0B50C4687B04FF023
:103F1000FF3370484FF0FF3202F066FF6668731E91
:103F2000FE2B4FF0000309D96B4A0292CDE9003312
:103F30006A490122184605F0FEF914E0684D694F00
:103F40001A46184626FA02F313F0010339D0BB5C77
:103F50008BB90392644A0292CDE900335F49012292
:103F6000184605F0E8F96FF015045A4802F0FEFE15
:103F7000204607B0F0BD05EB021E94F811C0DEF834
:103F80001815BCF1000C18BF4FF0010C21F0807126
:103F900041EA0C61CEF8181502F151010901013016
:103FA0006B50C0B20132082ACCD1227CA2F10801A8
:103FB0000023062918D8DFE801F01E17201709177B
:103FC000150002F1510109016B50EBE70223444A4D
:103FD0000128C2F8F035637C11D993B1434B0293A9
:103FE0000023A3E70323F2E70392414A0093CDE9BC
:103FF00001320023B2E70023E9E70123E7E7082BBA
:1040000016D8C2F8F43522684300B2B9E2689A4281
:1040100017D2CDE90323374B02930023CDE90033B8
:104020002E490122184605F086F96FF00B049CE733
:104030000393314B029300238EE7928902FB0333F3
:10404000E4E7274BA268C3F82C262646C3F83006BF
:104050000FCE2A4F07F164050FC533682B60236824
:1040600000253D663E4683B30FCB07F1780484E814
:104070000F007C66A7F8885038B3BFF35B8F56E813
:10408000003F46E80052002AF9D1BFF35B8F1C497C
:10409000BC6F1C4A4FF400400E462946E4FB006109
:1040A00000233046FCF75EFA0022CDE90001002330
:1040B00007F1080004F044FC13484FF0FF324FF0C2
:1040C000FF3302F091FE3C6E4FE797F87600FFF762
:1040D0000FFFF1E74000002087B20000AC9C000019
:1040E0000070004090000020A5B20000E4B2000083
:1040F000BFB2000039B3000016B30000000000207A
:104100003F420F0040420F00500000200E4B10B500
:104110000024C3F80441D3F80421C3F81041D3F8B4
:1041200010211222C3F804230720FEF7E5FF2246E0
:1041300001210720FEF7FCFF0448836C13B94030CF
:1041400002F014FE002010BD0070004000000020AE
:1041500038B52E4BD3F80421002A4AD00022C3F8E8
:1041600004212B4CD3F8041101219960C3F80025D8
:10417000636E2546C3B3E36FB4F8882033B104F10E
:1041800064019847012814D0022828D0B4F8883058
:10419000B4F884209A4222D90133A4F888301B4B0A
:1041A000D3F82C26D3F8341689B202EB4102C3F8B7
:1041B0002C26A36F2BB994F87600BDE83840FFF7A2
:1041C00097BEBFF35B8F55E8003F5A1E45E80021BC
:1041D0000029F8D1BFF35B8F012BECDC38BDA36F56
:1041E00013B10C4805F0F3FB0B48BDE8384002F072
:1041F000BDBDD3F810110029F0D0C3F81021D3F8B9
:10420000102101229A601A605A60E7E700700040AE
:1042100000000020080000205000002037B50C46A8
:104220000A490B4A411A4023009349110546234687
:10423000084805F0BCF8011E05DA2846234603B0FD
:10424000BDE83040184703B030BD00BF400B002030
:10425000199400009C9A000038B5CCB2012C054698
:1042600009D9094909480A4A792304F05CFF08483A
:10427000792104F051FF2B690C2204FB0233986C66
:1042800000F0070038BD00BFAAB3000092A00000F4
:104290006DB30000F8B5CCB2012C0669054617468F
:1042A0000BD9194919481A4A40F24D1304F03BFF43
:1042B000174840F24D1104F02FFF4FF04003EFF389
:1042C000118283F31288BFF36F8F0C2101FB04630B
:1042D0009B6C13F0C00308D09F4206D082F3118874
:1042E000BFF36F8F4FF0FF30F8BD4C4326440123DE
:1042F000B36482F31188BFF36F8F6B6823445B68EC
:1043000098470020F0E700BFAAB3000092A0000089
:104310006DB3000070B50D460649411A04464911B7
:1043200005484022FFF7B6FF2B4601462046BDE870
:1043300070401847400B00209C9A0000002270B586
:10434000012104461046FEF7F3FE0F4801F0A0F9E4
:104350000E4B984215D101F0C1F926690C4930463F
:1043600004F034FE00280BDB246909490125B564FB
:1043700004F1200004F02AFE002801DB656500201E
:1043800070BD6FF00400FBE7C94300000000AD0BF7
:10439000789E000001460C2309484B4370B5C418B1
:1043A000D4E91056002248332264184404F0ECFF8C
:1043B0002DB132462B460348BDE87040184770BD0A
:1043C000400B00209C9A0000012808B506D0032865
:1043D00008D0A8B9104B9B6C5B071BD1BDE8084007
:1043E000FFF7D8BF0D490E4A0E4840F25E2304F095
:1043F0009AFE40F25E21BDE80840094804F08CBEF8
:104400000649074A074840F2622304F08CFE40F256
:104410006221F0E708BD00BF400B0020EAA10000C8
:104420006DB3000092A0000008B54FF04003EFF319
:10443000118183F31288BFF36F8F124A136843F020
:1044400002001060DA0708D481F31188BFF36F8F80
:104450000120BDE8084001F065B94FF08043D3F872
:104460000C24D3F80C34D307EED5074804F08CFFA6
:1044700081F31188BFF36F8F0020BDE80840FFF77C
:1044800089BF00BF980B0020880B00201FB50022B9
:104490000123CDE90223094ACDF800D06B46CDF8BF
:1044A00004D004F0B2FF002805DB4FF48042002363
:1044B000684602F099FC05B05DF804FB37940000F3
:1044C000094BBFF35B8F53E8002F22F0020143E852
:1044D00000100028F7D1BFF35B8FD30702D401206F
:1044E00001F084B9704700BF980B00202DE9F0411E
:1044F0004749BFF35B8F0646012251E8003F41E880
:1045000000200028F9D1BFF35B8FA3B9414942488D
:104510004B60CB608A60FDF737FA00280BDA3F4921
:104520003F48404A4FF4087304F0FDFD3D484FF406
:10453000087104F0F1FD76B3731E012B59D8012EDA
:1045400007D14FF08043D3F81C3403F00303012B51
:1045500021D005F0E6F90546F8B9334B1B78E3B1F5
:104560004FF080430222C3F808230746DFF8BC80DF
:104570004FF08044D4F81834D4F81824D20316D558
:1045800003F00303012B01D0012E10D15DB387F39B
:104590001188BFF36F8FBDE8F0814FF04003EFF358
:1045A000118783F31288BFF36F8F0125DEE7ADB16A
:1045B0003846FEF747FDD4F81835002BDAD1D4F889
:1045C0000421002AD6D0C4F80431D4F804310123E0
:1045D000C4F81835C8F88031A360CBE7002121204A
:1045E00003F0E4FCE7E74FF080430222C3F8042322
:1045F000D1E70F490A480B4A40F2322304F093FDF9
:10460000BDE8F041074840F2322104F085BD00BF0B
:104610003C0B00202C0B0020600B002099A900000F
:1046200092A000006DB30000C712002000E100E07E
:10463000EAA1000008B5084B0848186005F037F9F2
:1046400038B10748FFF77CFB0548FCF749FF00201D
:1046500008BD6FF01200FBE79C0B0020FC9A0000E5
:10466000654600000A2838B5074D044604D128687D
:1046700083680D215B68984728688368E1B25B68AE
:104680009847204638BD00BF9C0B002070B50569D7
:1046900016460C4661B92249224A2348242304F0D5
:1046A00042FD224804F03FFD1E48242104F034FD61
:1046B000636863B91E491B4A1B48252304F033FD78
:1046C0001C4804F030FD1748252104F025FD6B68D7
:1046D0004BB1A34213D1AA6823686B60944200D106
:1046E000AB60002323607EB9002070BD9C4206D1E0
:1046F00023681360AB689C42F3D1AA60F1E71A46C5
:104700001B68002BF2D13EB16B682360AB686C6014
:10471000002BE9D1AC60E7E76FF01500E5E700BFDB
:104720001BB40000EEB3000092A0000024B400000F
:1047300033B4000045B400007FB54068057B01F04C
:104740001F04B2F5001F44EA451404D1204601F0CD
:1047500069FB00205DE00025B2F5800FCDE9025530
:1047600014D1B3F1007F0CBF042305238DF808306A
:104770000023194602AA204601F05AF9344B984208
:1047800062D10121204601F0DDFAE2E7B3F1C06F0A
:1047900041D0B3F1007F14BF012302238DF808300C
:1047A0008368CB40D807E3D4B2F1A07FE0D166099B
:1047B00004F01F0531D0012E04D14FF6FF73EB40FA
:1047C000D9070ED423492448244A40F2292304F06F
:1047D000AAFC224840F2292104F09EFC16B3012EC7
:1047E00023D11F4B05F5E07553F82530DB07BFD407
:1047F0000DF107052946204601F03CFA194B984275
:1048000020D1284601F098FA114B98421AD06FF047
:104810000B0004B070BD0323C0E74FF0FF33EB4043
:10482000DA07CFD54FF0A043DCE70C4A0E490A481F
:1048300040F22E2304F077FC084840F22E2104F0C9
:104840006BFCEFE7039593E76FF00400E1E700BF2F
:104850000000AD0B8FB4000092A000005CB400001B
:10486000000300500400AD0BEAA1000010B501F0F8
:1048700053FA044668B901F027FA084B98420AD166
:104880000748214601F0F0F9224605210620FEF7EF
:104890004FFC002010BD6FF00400FBE70000AD0BE3
:1048A000A548000043092DE9F04703D0012B30D083
:1048B000BDE8F087194F3B695C68002CF8D000F028
:1048C0001F0001262568DFF85880DFF85890DFF8D0
:1048D00058A08640002CEBD0A3681E4214D0636819
:1048E00063B9494645234246504604F01CFC0F4834
:1048F00004F019FC4521404604F00EFCD4E90132D5
:1049000021463240384698472DB12B682C461D462B
:10491000E0E7074FCFE72B46F8E700BFCC9A00004F
:10492000EEB30000B2B4000092A0000045B4000055
:10493000B49A00002DE9F04347683B7B01F01F0566
:1049400085B00E4645EA43151446D2B902A9284659
:1049500001F090F90446284601F08EFA464B984241
:1049600004D06FF0040005B0BDE8F083844201D0AC
:104970000020F8E79DF8080001F0D8F9A042F7D030
:10498000EFE74FF000090DF103013046CDE9029940
:1049900001F070F94B46804602AA4946284601F0CC
:1049A00047F8354B984202D06FF01500DBE78045A1
:1049B00003D19DF8030001F0B9F9A3034CD540F2EF
:1049C0000663234040F20622934219D00CD8062BEE
:1049D00017D004D8ABB1022BE6D1042311E0B3F514
:1049E000007FE1D101230CE040F20242934227D044
:1049F000B3F5C06F26D0B3F5806FD5D1022300E0A8
:104A000007238DF8043084F48033C3F30043E006B9
:104A10008DF8053054BFC4F34013032321038DF8F0
:104A2000063011D57A680123B340C2F80835002258
:104A300001A9284601F0A4F80F4B984298D0B3E79B
:104A40000523DEE70323DCE7620341BF01237A6825
:104A5000B340C2F80C35EAE7E3064FF0000354BF59
:104A6000C4F3401403241A4601A928468DF80440D3
:104A700000F0DEFFE0E700BF0000AD0B7FB50BAB41
:104A800005930393054B02930023CDE900330122E4
:104A90001846FDF755FF07B05DF804FBCCB40000E5
:104AA000F0B54B79012B26D0032B21D110268B7921
:104AB000032B1DD1CC790CB1012C19D10A7912B17B
:104AC000022A15D10E220B684568B3F5164F2D68E2
:104AD00065D02DD8B3F5165F64D016D8B3F5966FB0
:104AE00062D00AD8B3F5967F61D0B3F5167F61D056
:104AF0006FF0850052E00026D9E7B3F5166F5CD061
:104B0000B3F5965FF4D1374B3CE0B3F5E14F57D0A6
:104B100007D8B3F5615F55D0B3F5964FE8D1324B66
:104B200030E047F61227BB42E2D14FF4000329E000
:104B3000B3F5613F48D013D8B3F5963F47D009D8B5
:104B40004DF6C027BB4244D0B3F5614FD0D14FF4EE
:104B50006B0317E0B3F5E13FCAD14FF0EB7311E0FF
:104B6000B3F5612F38D008D8204FBB4237D0B3F50A
:104B7000E12FBDD14FF0E86304E01D4FBB42B7D138
:104B80004FF080530069C5F82435031D03C9344331
:104B90002243C5F86C2583E803000020F0BD4FF4E4
:104BA0001D03EFE7134BEDE74FF49E23EAE74FF4C5
:104BB000A033E7E74FF41C33E4E74FF41D23E1E7AC
:104BC0000D4BDFE70D4BDDE74FF06C73DAE70C4B75
:104BD000D8E74FF46503D5E74FF07063D2E74FF0A5
:104BE0008063CFE700B0130000A04E0090D0030018
:104BF00040420F000050270000C0750000F03A004E
:104C000000903A012DE9F043D0F804800669D8F805
:104C10000050D8F80C9087B00021C5F80015074661
:104C2000306005AA484604F0BEFC041E25DB059B47
:104C3000D9F800201979186804F00CFD041E1CDB5B
:104C4000311D3846FFF72CFF0446B0B9D8F80430C0
:104C5000990729D506F1120001F012FA274B984264
:104C60000FD0274B0094CDE9014320462346254928
:104C70000122FFF703FF6FF00404204607B0BDE8F0
:104C8000F083B07CC30003F1804303F5F83305F1F2
:104C90000C0205F59071C3F81015C3F814251A4AD3
:104CA00001238340C2F804350823C5F8003598F87D
:104CB00008305BB9C5F81031D5F8103106F1110391
:104CC000C5F834350123C5F838352B60D8F80430E1
:104CD0009A075CBF4FF48072C5F80423DB0644BF1B
:104CE0004FF48003C5F8043310360023C5F844653B
:104CF000C5F848350123AB60EB60BEE70000AD0BA3
:104D0000CCB40000F49C000000F00140F8B5066946
:104D100005460F4604F005FEB0B92C4B1B789BB13D
:104D20006424686804F0D3FBF8B9012004F03DFD69
:104D3000013CF6D10021212003F038F9F0E784F39B
:104D40001188BFF36F8FF5E74FF04003EFF3118445
:104D500083F31288BFF36F8F686804F0B8FB88B9DB
:104D600084F31188BFF36F8FEEE74FF04003EFF34A
:104D7000118483F31288BFF36F8F686804F0A7FB78
:104D80000028DCD006F8107F69680B680122C3F8A0
:104D90004465C3F848250022C3F82021D3F8200138
:104DA000C3F85821D3F858214A68D20641BF0822D7
:104DB000C3F800254FF48002C3F8042301229A604F
:104DC00084F31188BFF36F8FF8BD00BFC7120020B6
:104DD00070B5012383400E4ABFF35B8FDC4352E87A
:104DE000001F01EA040542E80056002EF7D1BFF388
:104DF0005B8F4FF4803282400648C0F80823BFF32F
:104E00005F8FBFF36F8F0B4214BF0120002070BD76
:104E1000BC0B0020001001401B49F8B5044622F0ED
:104E20007F450868C1E90023A5F50013101AB3F502
:104E3000400F0FD303F0C4FBA30003F1804303F53D
:104E40008833D3F8402595421DD14FF40002C3F8B2
:104E5000402512E00D4B1B681A0A1B065E190C4B0D
:104E600042F10007C3E9006703F0AAFB094A04F511
:104E7000A87352F823309D4205D1064A4FF480337F
:104E8000A340C2F84433F8BD28040020C00B002022
:104E9000300400200010014011B3BFF35B8F0123E9
:104EA000104A834052E800CF4CEA030C42E800C1AC
:104EB0000029F7D1BFF35B8F0B4A4FF48033834057
:104EC000C2F80433094BBFF35B8F1B68BFF35B8FE2
:104ED000C340DB0742BF064B4FF40032C3F800214A
:104EE000704700BFBC0B002000100140B80B002031
:104EF00000E100E00D4B1868010A0006BFF35F8F68
:104F00000B4BD3F80435181841F10001B3F5801F9D
:104F10000AD2084BD3E90023904271EB030303D27A
:104F200010F1807041F10001704700BFC00B0020FC
:104F300000100140300400202DE9F74F14461D46B3
:104F40000746FFF745FF0090FFF7D4FFA04271EB43
:104F500005037AD2464B201A65EB0101984271F1A4
:104F6000000180F08180434B03EB0713D3E9022358
:104F70009D4208BF944253D04FEA870A0AF1804A03
:104F800007F150090AF5883A4FEA89091FFA89F9A9
:104F900024F07F4809F180494FF48033DAF8400566
:104FA000354A09F58839BB404646D2F804B5A0EB2E
:104FB0000B0020F07F402BF07F410128CAF84015FC
:104FC00005D10193132004F0F2FC2B4A019B0BF155
:104FD000020CA6EB0C0020F07F40B0F5000F88BF5C
:104FE00066460020C9F80000D9F80000C2F8443332
:104FF00026F07F40CAF84005D2F80405834506D064
:10500000301A023820F07F40B0F5000F1BD8A6EB15
:10501000080626F07F46361945F1000334461D4642
:1050200014490C983B0101EB0712C8500D9B5360CB
:10503000C2E90245002438460099FFF72DFF2046BB
:1050400003B0BDE8F08F3046AFE701230B4ABFF352
:105050005B8FBB4052E8000F184342E80001002973
:10506000F8D1BFF35B8FDBE76FF01504E3E700BF18
:10507000010000011804002000100140B80B0020BE
:1050800073B5194B194D00244FF0FF304FF0FF312D
:10509000C5F80845C3E902014FF48033C5F804336D
:1050A000134B02264FF400320121C5F8046311208E
:1050B000C3F880212246FEF73BF81120FEF71CF8CA
:1050C0000C4A0123AB602B6013600B4B0B4A00931F
:1050D000019400232046FFF72FFF3046FFF706FA22
:1050E000204602B070BD00BF18040020001001402F
:1050F00000E100E0BC0B0020194E0000FFFF7F0024
:105100002DE9F7432B4CD4F804339A070BD5D4F888
:10511000043143B1284A0023C4F80431D4F80431DF
:10512000136801331360EFF3108272B6D4F80433BE
:10513000DB0322D5BFF35B8F204B53E8001F21F028
:10514000010043E80005002DF7D1BFF35B8F11B9D3
:10515000D4F840318BB10025C4F84051D4F8403127
:1051600082F31088FFF7C6FEEFF3108272B6144B7D
:10517000D3E90267B042B94104D282F3108803B088
:10518000BDE8F0834FF0FF384FF0FF39D3E900104E
:10519000C3E902891D604FF48033C4F8483382F3B9
:1051A00010880029EBD0009032463B4628468847BD
:1051B000E5E700BF00100140C00B0020B80B002045
:1051C00018040020431C13B521D0012821DDB0F5BF
:1051D000000F20DA441EFFF78DFE104BD3E90013B9
:1051E000421AB2F5000F0E4828BF002401322244B3
:1051F000824228BF024652184FF000000949019030
:10520000009143F10003FFF797FE02B010BD044880
:10521000E0E70024DFE7024CDDE700BF28040020C0
:10522000FFFF7F00194E000008B5FFF763FE024B39
:105230001B68C01A08BD00BF2804002003685A0973
:1052400010B504461DD0012A06D14FF6FF7203F0B7
:105250001F03DA40D3070BD414491548154A40F20E
:10526000292303F060FF134840F2292103F054FF83
:10527000236803F01F025B09226005D14FF0A040B4
:1052800010BD4FF0FF32E2E7012B0CD0094A0A496A
:10529000074840F22E2303F046FF064840F22E2135
:1052A00003F03AFFEAE70548EAE700BF8FB40000E1
:1052B00092A000005CB40000EAA1000000030050CE
:1052C0007FB50BAB05930393054B02930023CDE908
:1052D000003301221846FDF733FB07B05DF804FBED
:1052E00009B500001FB5FDF7C9F80024064B02936D
:1052F0002046CDE90044054923460122FFF7E0FF9F
:105300002046FEF753FD00BF09B50000BC9C00001D
:105310004FF08053D3F83021082A06D1D3F8343126
:10532000052B02D8024AD05C70470020704700BFAE
:105330002CB50000024AD2F80034002BFBD0704795
:1053400000E001404FF0805310B5D3F83021082A17
:105350004ED14FF080420021C2F80C11C2F810115A
:10536000C2F8381502F54042D3F80414C2F82015EB
:10537000D3F80814C2F82415D3F80C14C2F8281571
:10538000D3F81014C2F82C15D3F81414C2F8301541
:10539000D3F81814C2F83415D3F81C14C2F8401509
:1053A000D3F82014C2F84415D3F82414C2F84815D1
:1053B000D3F82814C2F84C15D3F82C14C2F85015A1
:1053C000D3F83014C2F85415D3F83414C2F8601569
:1053D000D3F83814C2F86415D3F83C14C2F8681531
:1053E000D3F84014C2F86C15D3F84434C2F87035C1
:1053F000FFF78EFF18B13B4B3B4AC3F88C26FFF7F3
:1054000087FF18B1394BFB22C3F81825FFF780FF3F
:1054100070B14FF080414FF08053D1F8E42ED3F8B3
:10542000583222F00F0203F00F031343C1F8E43E99
:10543000FFF76EFF20B12E4B4FF40072C3F84026E9
:105440004FF08053D3F83031082B1AD14FF08043FE
:10545000D3F80024D20744BF6FF00102C3F8002440
:105460004FF08053D3F83431052B02D8214AD35C56
:105470003BB14FF01023D3F808224FF08043C3F81C
:1054800058254FF01023D3F80022002A03DBD3F86D
:105490000432002B22DA184901234FF01020C1F802
:1054A00004351224FFF746FFC0F80042FFF742FF21
:1054B000C0F80442FFF73EFF0023C1F80435FFF7B0
:1054C00039FFBFF34F8F0D490D4BCA6802F4E062FC
:1054D0001343CB60BFF34F8F00BFFDE7094B0A4A70
:1054E0001A6010BD005000404881030000F00040E9
:1054F0000090024026B5000000E0014000ED00E011
:105500000400FA05F00000200090D00370B50125DA
:105510000268BFF35B8FB2FA82F3C3F11F03DBB201
:1055200005FA03F422EA040450E8006F964204D11D
:1055300040E8004CBCF1000FF6D1BFF35B8FE7D120
:1055400001480B7070BD00BF0000AD0B0368CB407D
:10555000DB0710B514D401238B400268BFF35B8FC7
:1055600043EA020150E8004F944204D140E8001C95
:10557000BCF1000FF6D1BFF35B8FEED1014810BD37
:105580000148FCE70000AD0B0400AD0BF7B5044685
:1055900070B101282DD0394939483A4AD82303F04F
:1055A000C2FD3848D82103B0BDE8F04003F0B4BDD7
:1055B0004FF080430222C3F80823C3F80401D3F854
:1055C00004210122DA60074601238DF8073042F2F8
:1055D00010754FF08046CCB1012C37D027492848B0
:1055E000294A4FF44F7303F09EFD27484FF44F7143
:1055F000D9E74FF080430022C3F80803C3F8002125
:10560000D3F8002158600DF10707DDE79FB1D6F808
:10561000183403F003033B60D6F81834D80313D5CD
:105620009DF80700012803D104F0BFF8013DD2D155
:10563000012C15D008E0D6F81834D90304D5012080
:1056400004F0B3F8013DF6D103B0F0BD67B1D6F870
:105650000C3403F001033B70D6F80C34DA03DFD4CA
:105660000A4B00225A71EFE7D6F80C34DB03F7D56A
:10567000012004F09AF8013DF6D1F1E7EAA100001B
:1056800092A0000032B500006FB50000C40B0020EE
:1056900010B5044658B90B490B480C4A40F2151393
:1056A00003F041FD094840F2151103F035FD084BA8
:1056B0001A7922B9012207481C609A8010BD064859
:1056C000FCE700BFA3B5000092A0000032B50000C7
:1056D000C40B00200000AD0B0C00AD0B08B50D4B4A
:1056E0001B795BB90C490D480D4A4FF4977303F0D1
:1056F0001AFD0B484FF4977103F00EFD0020FDF7E3
:1057000009FD08B9FDF7F8FC4FF080430022C3F80B
:10571000182508BDC40B0020B1B5000092A0000000
:1057200032B500002C4B1B7910B504465BB92B49F0
:105730002B482C4A4FF4B47303F0F5FC29484FF47E
:10574000B47103F0E9FC7CB1012C3AD0264924481D
:10575000244A4FF4D37303F0E6FCBDE8104021481F
:105760004FF4D37103F0D8BC4FF08042D2F8183414
:10577000D2F81814C80312D503F00303012B1AD171
:105780004FF08042C2F818350023C2F80431D2F835
:1057900004310223C2F80433012393600AE0D2F8F3
:1057A0001434D9070BD5D2F81C349B0704D4022338
:1057B000C2F8043310BD13B10020FFF7E7FE002349
:1057C000DEE74FF080430022C3F80021D3F8002128
:1057D000C3F804431C60EDE7C40B0020B1B5000022
:1057E00092A0000032B50000EAA100000A4B1B792C
:1057F00010B504465BB9094909480A4A40F2AD139D
:1058000003F091FC074840F2AD1103F085FC2046FF
:10581000BDE81040FFF7BABEC40B0020B1B50000D0
:1058200092A0000032B500004FF0804310B5D3F8CD
:1058300000216AB10022C3F80021D3F8002101221F
:10584000C3F80823114B587910B95A711B6898474F
:105850004FF08043D3F8042172B10022C3F8042131
:10586000D3F80421D3F81824D3F81814920704D1DC
:105870000122C3F818259A6010BD0222C3F808233C
:10588000024BBDE810401B6801201847C40B0020E4
:10589000034B083033F81000C0F34010704700BFCE
:1058A000F4000020044B083033F8100010F01C0006
:1058B00018BF0120704700BFF4000020034B0830E0
:1058C00033F81000C0F34000704700BFF400002020
:1058D00070B500F108030C4C34F81330DA050546B6
:1058E0000E4607D5C3F3432304EBC30254F8333009
:1058F00052689847A3682BB1E26831462846BDE854
:105900007040184770BD00BFF400002010B5044679
:10591000006803F04CFF58B912491348134A40F28B
:10592000292303F000FC114840F2292103F0F4FB85
:10593000236803F01F025B09226002D14FF0A040F0
:1059400010BD012B0CD0094A0949074840F22E230B
:1059500003F0E9FB054840F22E2103F0DDFBEDE703
:105960000448EDE78FB4000092A000005CB4000092
:10597000EAA1000000030050194A083010B532F8BF
:105980001030D9051DD5C3F3432123F4F85322F871
:10599000103002F10E04002034F8023F13F4807F2F
:1059A00003D0C3F3432399420BD001303028F3D105
:1059B000002342F831300B48FFF7C8FD0A4B9842EC
:1059C00000D110BD09490A480A4A4FF4997303F0FF
:1059D000AAFBBDE8104007484FF4997103F09CBB47
:1059E000F4000020680100200000AD0B33B6000079
:1059F00092A00000CFB5000038B50246FFF748FF7F
:105A0000094C02F1080540B134F8153007495B0B29
:105A100003F5A273002041F823001046FFF7ACFF06
:105A2000002324F8153038BDF40000200060004049
:105A3000F0B5044685B017461D46D9B103F0C8FE3F
:105A400000BB0B46CDE900008DF80E008DF80F006D
:105A50000DF10F020DF10E01204603F0C4FE434A82
:105A600004F1080132F8113023F0020343F001037E
:105A700022F8113047B320463E787A68FFF71EFFC0
:105A800010B1B2B13A4821E0384F04F1080C37F8B0
:105A90001C1021F02001C904C90C27F81C1042B1C8
:105AA000032EEFD813789EB9324A03F5A27342F859
:105AB00023602E4A04F1080132F8113023F01C0350
:105AC00043EA860322F811303DBB2B4805B0F0BDF8
:105AD0009A0002F1804202F5C04241EA4331D2F815
