:1000000000230020093300009D8D0000DD32000038
:10001000DD320000DD320000DD32000000000000B3
:10002000000000000000000000000000B92B0000EC
:10003000DD32000000000000652B0000DD32000012
:10004000692C0000692C0000692C0000692C00005C
:10005000692C0000692C0000692C0000692C00004C
:10006000692C0000692C0000692C0000692C00003C
:10007000692C0000692C0000692C0000692C00002C
:10008000692C0000692C0000692C0000692C00001C
:10009000692C0000692C0000692C0000692C00000C
:1000A000692C0000692C0000692C0000692C0000FC
:1000B000692C0000692C0000692C0000692C0000EC
:1000C000692C0000692C0000692C0000692C0000DC
:1000D000692C0000692C0000692C0000692C0000CC
:1000E000692C0000692C0000692C0000692C0000BC
:1000F000692C0000692C0000692C0000692C0000AC
:100100004FF0FF0C1CEAD0521EBF1CEAD15392EAFA
:100110000C0F93EA0C0F6FD01A4480EA010C4002D6
:1001200018BF5FEA41211ED04FF0006343EA501030
:1001300043EA5111A0FB01310CF00040B1F5000F72
:100140003EBF490041EAD3715B0040EA010062F121
:100150007F02FD2A1DD8B3F1004F40EBC25008BF0B
:1001600020F00100704790F0000F0CF0004C08BF29
:1001700049024CEA502040EA51207F3AC2BFD2F1F6
:10018000FF0340EAC250704740F400004FF0000304
:10019000013A5DDC12F1190FDCBF00F0004070473E
:1001A000C2F10002410021FA02F1C2F1200200FA7C
:1001B00002FC5FEA310040F1000053EA4C0308BF43
:1001C00020EADC70704792F0000F00F0004C02BF94
:1001D000400010F4000F013AF9D040EA0C0093F00F
:1001E000000F01F0004C02BF490011F4000F013B69
:1001F000F9D041EA0C018FE70CEAD15392EA0C0FD7
:1002000018BF93EA0C0F0AD030F0004C18BF31F041
:10021000004CD8D180EA010000F00040704790F017
:10022000000F17BF90F0004F084691F0000F91F0BB
:10023000004F14D092EA0C0F01D142020FD193EA81
:100240000C0F03D14B0218BF084608D180EA010009
:1002500000F0004040F0FE4040F40000704740F0E5
:10026000FE4040F44000704780F0004002E000BFD4
:1002700081F0004142001FBF5FEA410392EA030F91
:100280007FEA226C7FEA236C6AD04FEA1262D2EBDB
:100290001363C1BFD218414048404140B8BF5B42E0
:1002A000192B88BF704710F0004F40F4000020F079
:1002B0007F4018BF404211F0004F41F4000121F08F
:1002C0007F4118BF494292EA030F3FD0A2F10102D9
:1002D00041FA03FC10EB0C00C3F1200301FA03F117
:1002E00000F0004302D5494260EB4000B0F5000F3A
:1002F00013D3B0F1807F06D340084FEA310102F1F9
:100300000102FE2A51D2B1F1004F40EBC25008BFAA
:1003100020F0010040EA03007047490040EB000074
:10032000013A28BFB0F5000FEDD2B0FA80FCACF175
:10033000080CB2EB0C0200FA0CF0AABF00EBC250A2
:1003400052421843BCBFD0401843704792F0000F90
:1003500081F4000106BF80F400000132013BB5E7E3
:100360004FEA41037FEA226C18BF7FEA236C21D059
:1003700092EA030F04D092F0000F08BF08467047BE
:1003800090EA010F1CBF0020704712F07F4F04D18C
:10039000400028BF40F00040704712F100723CBF9F
:1003A00000F50000704700F0004343F0FE4040F4C9
:1003B000000070477FEA226216BF08467FEA236387
:1003C0000146420206BF5FEA412390EA010F40F472
:1003D000800070474FF0000304E000BF10F00043BE
:1003E00048BF40425FEA000C08BF704743F09643A5
:1003F00001464FF000001CE050EA010208BF7047C0
:100400004FF000030AE000BF50EA010208BF704746
:1004100011F0004302D5404261EB41015FEA010C5B
:1004200002BF84460146002043F0B64308BFA3F153
:100430008053A3F50003BCFA8CF2083AA3EBC25335
:1004400010DB01FA02FC634400FA02FCC2F1200254
:10045000BCF1004F20FA02F243EB020008BF20F08B
:100460000100704702F1200201FA02FCC2F12002F1
:1004700050EA4C0021FA02F243EB020008BF20EAE6
:10048000DC70704742000ED2B2F1FE4F0BD34FF03A
:100490009E03B3EB126209D44FEA002343F00043FA
:1004A00023FA02F070474FF00000704712F1610F1D
:1004B00001D1420202D14FF0FF3070474FF00000EF
:1004C000704700BF53B94AB9002908BF00281CBFB4
:1004D0004FF0FF314FF0FF3000F00CB8ADF1080CD9
:1004E0006DE904CE07F04EFFDDF804E0DDE90223FC
:1004F00004B07047704700BF2DE9F04104680379EC
:10050000276901259D4063681B681D420E460ED178
:100510001849194A194840F2924308F0AAFB1848B2
:1005200008F0A7FB144840F2924108F09BFB3B689F
:100530001D4263681B6818BF86F001061D420ED17C
:100540000C490D4A0D484FF48D6308F092FB0C489E
:1005500008F08FFB08484FF48D6108F083FB36B13B
:10056000A368DB6829462046BDE8F0411847A36828
:100570001B69F7E7B19B0000809B0000EF9B000028
:100580000C9C00002DE9F14F05680679C48804F041
:100590003003302BD5E901B92F690ED12749284AFC
:1005A00028484FF42E7308F064FB274808F061FBDD
:1005B00023484FF42E7108F055FB04F00603042B7A
:1005C0000BD122491F481E4A4FF4307308F051FBEB
:1005D0001B484FF4307108F045FBDBF800304FF05A
:1005E000010AE1070AFA06FA54BF44F4D01484F46D
:1005F000B0141AEA030F24F480180ED11449104ADB
:1006000010484FF4357308F034FB124808F031FB02
:100610000B484FF4357108F025FB3B68E2074CBFEF
:100620004AEA030323EA0A033B60D9F80030424652
:100630003146284601B0BDE8F04F18471E9C000027
:10064000809B0000EF9B0000579C0000949C0000E2
:10065000B19B00000C9C000070B52E4D2E4E2F4C0F
:100660004FF0FF334FF0FF32284606F061F8304676
:1006700008F005FA21882A4808F001FA23881D2B82
:1006800018D928480121FFF737FF002811DB002186
:100690002548FFF731FF00280BDB00212348FFF737
:1006A0002BFF002805DB00212148FFF725FF00284C
:1006B000D6DA70BDA3F11402092A07D8194801211E
:1006C000FFF71AFF0028F4DB0121E1E70A3B092BC1
:1006D00014484FF001010BD8FFF70EFF0028E8DBAC
:1006E00011480121FFF708FF0028E2DB0121D5E7CF
:1006F000FFF702FF0028DCDB0B480121FFF7FCFEBF
:100700000028D6DB09480121FFF7F6FE0028D0DBE0
:100710000121C9E70C050020C79C0000680E0020DD
:10072000DF9C0000A8980000B0980000B898000076
:10073000C0980000F0B5194F194D1A4E87B03846D1
:1007400008F09DF90123EB6002230293164B0393FB
:1007500014220A23CDE90423144B0196186888B9A2
:10076000134808F08CF94FF0FF341248214608F086
:1007700086F9114805F09EFF00214FF4C03007F0C4
:10078000B5F8DCE7836801A95B6898470446002850
:10079000EFD00146094808F072F9E6E7FF9C000037
:1007A00000700040C8980000540E0020080500208A
:1007B000179D0000669D00001C050020469D00005E
:1007C000F0B58DB00023CDE909330B933E4808F016
:1007D00026FE002876D03C4808F021FE002871D083
:1007E000394808F01CFE00286CD0374808F017FE86
:1007F000002867D03548FFF7C5FE002862DB344883
:10080000FFF7C0FE00285DDB3248FFF7BBFE002883
:1008100058DB3148FFF7B6FE002853DB2F48304C39
:1008200005F07AF9206010B92E4808F028F9206800
:1008300083682D491B689847014610B12B4808F082
:100840001EF9012200212A4808F041FE0122002160
:10085000284808F03CFE002600270BAB02930AABA9
:100860000193012509AB00240093CDE90667CDE98A
:100870000354214B214922484FF4806205F02CFC9F
:10088000204B1860204B21490094CDE90667CDE943
:100890000354CDE901444FF480621D4805F01CFC6F
:1008A0001C4B18601C4B1D491D480094CDE9066780
:1008B000CDE90354CDE901444FF4806205F00CFC0E
:1008C000184B18600DB0F0BD2C960000A8980000E1
:1008D000B0980000B8980000C09800008F9D0000FC
:1008E00008050020959D0000789B0000B69D000043
:1008F0001C0500200C05002035070000A012002078
:10090000600300203405002071090000C01600209B
:10091000600200202C05002059060000E01A00208B
:10092000E0020020300500202DE9F0410E4F861E28
:1009300000F1120500244FF0640836F8020F08FB9E
:1009400000F0FFF74BFD3946FFF7DAFBFFF79AFDA2
:10095000B5420444A4B2F0D10A23B4FBF3F4034B30
:100960001C80BDE8F08100BF0C30403B680E0020C9
:100970002DE9F0471B4FDFF870801C4E4FF0FF321F
:100980004FF0FF33384605F0D3FE404608F077F8C5
:10099000174DDFF86090DFF860A0002435F8023BC7
:1009A000B3F5806F04F101040FD3002325F8023C56
:1009B0002146504608F063F80A2CEFD10C48FFF7A7
:1009C000B3FF0E4805F076FED8E764205843FFF7E2
:1009D00005FD3146FFF794FBFFF754FD81B2484611
:1009E000E8E700BF1C050020E59D00000C30403BFF
:1009F000540E00201E9E0000FD9D00000C050020EE
:100A00002DE9F04F8DB01F46029202F00403C2F3AD
:100A1000C2020193531C8207DDF8589004930546E7
:100A20000E4640F01782041D002840F0168201F0A7
:100A30000706341DC6F108064FF0000A4FF00408FF
:100A40007B1ECDF80CA052465146CDF8008005B172
:100A500027600498002807DCBE488742C0F01A814E
:100A6000BD48874280F01681029810F0020E00F017
:100A700036814FF0010C601BBEF1000F00F01081B9
:100A8000B0F5007FC0F00C81B449B54AB5484FF4C9
:100A9000F87308F0EEF8B44808F0EBF84FF4F8718A
:100AA000AF4808F0DFF86FF01500E2E039B925280B
:100AB00015D101214FF00408CDF800800FE07A280D
:100AC00000F266814B2820D8472800F2618129284E
:100AD00000F28480202802D0232818BF002113F8B8
:100AE000010F0028E2D1611BB1F5806FC0F0528187
:100AF0009A499B4A9B4840F23D2308F0BAF89B482C
:100B000008F0B7F840F23D21CAE7A0F14C0CBCF167
:100B10002E0F00F23D810FF2080E5EF82CF000BFA0
:100B2000DF0A0000910D0000910D0000910D000002
:100B3000910D0000910D0000910D0000910D00003D
:100B4000910D0000910D0000910D0000910D00002D
:100B5000330C0000910D0000910D0000910D00007C
:100B6000910D0000910D0000910D0000910D00000D
:100B7000910D0000510C0000910D0000330C00009D
:100B8000330C0000510C0000510C0000510C00000F
:100B9000DF0A0000330C0000810C0000910D000002
:100BA000DF0A0000910D0000870C0000330C0000EC
:100BB000870C0000910D0000910D0000870C0000D3
:100BC000B50A0000330C0000910D0000910D0000EB
:100BD000330C0000910D0000B50A0000A0F12A0CB2
:100BE0004FF0010E5FFA8CFC0EFA0CFC4FF6DA7E29
:100BF0001CEA0E0F7FF473AF1CF0625F28D11CF06B
:100C000001013FF46CAF013C4444C8F1000C04EA1C
:100C10000C0435B1DDF800C0ACEB050CA444B445C0
:100C200025D8732879D1049859F8047B01380490A9
:100C30000DE713F8011C6C2927D113F8021C6C294D
:100C40004FF0000123D04FF00408CDF80080DAE720
:100C500009F1070929F007090734F9E8020124F02E
:100C600007045DB1DDF814E0A644B64504D96FF081
:100C70001B000DB0BDE8F08FC4E90001083400216D
:100C80004FF0080818E70021DDE70021BBE74FF02F
:100C90000808DAE702984FF0000C00F0020EEAE6CE
:100CA0000F2A0CD92D492E4A2E4840F2F51307F091
:100CB000E0FF2F4807F0DDFF40F2F511F0E6CDB17F
:100CC00002F1300EC0F38700EE44BCF1000F0BD0F0
:100CD00060F07F000EF8100C0AF1010A0132C5F134
:100CE000080004340590FAE60EF8100C0398013061
:100CF0000390F3E7BCF1000F01D1019808B1013670
:100D0000ECE73846CDE90632059108F078F802366E
:100D1000DDE9063205990644E0E70098042809D188
:100D200009F104001DB1D9F800C0C4F800C00434B2
:100D30008146D4E6009808281CD109F1070020F06C
:100D4000070000F108091DB1D0E900BCC4E900BCEE
:100D50000834C4E68495000098B60000C59C0000E5
:100D60002F9E0000EF9B00005D9E0000AD9E0000E6
:100D70007E9E00003B4A3C493C4840F2312307F04C
:100D800078FF00993A4807F074FF40F2312187E676
:100D90000021A4E61DB9A6F10804601869E7019BCB
:100DA000C1F3870C9DF80C100BB90846194685F85D
:100DB00000C06870E97085F802A0BAF1000F06D093
:100DC00008A84FF0000CC5F1010E624506D10DF1E7
:100DD000200808EB0209C5F1010B35E010F8011BF2
:100DE0000B0608D504EB0E08B04501F07F013FF675
:100DF0003EAF04F8011B0CF1010CE6E7BAF1000F5D
:100E000003D098F90020002A1CDB019B03BB98F853
:100E1000002055F8227045F82230384607F0EFFFE1
:100E2000421C04EB0B011144B1423FF620AF98F88D
:100E3000001004F8011B39462046009207F0FBFF22
:100E4000009A144408F10108C845D7D1601B10E787
:100E50000022E6E76FF00D000BE707293FF6ECAD47
:100E600005E700BF2F9E0000C59C0000EF9B00001F
:100E7000989E000038B54468816004F00304032C98
:100E8000054602D02CB1002000E0006800236B6012
:100E900038BD054A05490648452307F0EAFE0248E1
:100EA000452107F0DFFEEEE7C49E0000C59C000070
:100EB000EF9B0000014B1860704700BF98000020B6
:100EC0002DE9F74FB0F81C90009219F0080F044676
:100ED00022D001290CBF49F0100949F02009A0F8DF
:100EE0001C901434204605F0DDF968B99C4A9D49F0
:100EF0009D48B92307F0BDFE9C48214607F0B9FE86
:100F00009748B92107F0AEFE009B83F31188BFF329
:100F10006F8F03B0BDE8F08F954FDFF84C8209F07A
:100F2000070902290FD1204607F0B6FD0028D8D0C6
:100F30000138042800F20481DFE810F00500020106
:100F400069009E00D000D4F818B0A28BBBF1000F4E
:100F500019DA0026256822F00702C4E9006642F08B
:100F60000102A283A38B03F007024A45019203D03A
:100F7000A268002A40F00C8115B9002E00F05181C2
:100F80004FF0000A06E102F00703591F01291FD89C
:100F9000002122F00702062B256892B2C4E9001155
:100FA0000AD13DB1E38B2946096801339BB2002980
:100FB000FAD1E38342F00202A283204607F06CFDDF
:100FC00006460028CED042F02002A2830026C9E7C0
:100FD000042B0DD122F0070292B2A283204607F023
:100FE0005BFD054688B142F02002A2830025EDE7B3
:100FF000604940F21B133A46404607F03AFE40F281
:101000001B11384607F02EFE00252E46AAE7B9F13F
:10101000000F0BD0584940464FF4AB733A4607F0E7
:1010200028FE4FF4AB71384607F01CFE23685BB90D
:101030005249404640F257133A4607F01AFE40F232
:101040005711384607F00EFE23691E685EB94C49F9
:1010500040464FF4AD733A4607F00BFE4FF4AD71C6
:10106000384607F0FFFDA38B23F0070343F0060388
:10107000A3830025AB4675E7B9F1020F0BD04149B8
:10108000404640F25D133A4607F0F3FD40F25D1131
:10109000384607F0E7FDE38B5BB13B4940464FF430
:1010A000AF733A4607F0E5FD4FF4AF71384607F0ED
:1010B000D9FD23695E685EB93149404640F261134B
:1010C0003A4607F0D6FD40F26111384607F0CAFDF6
:1010D000A38B23F0070343F00403C9E7B9F1010F21
:1010E0000BD02A4940464FF4B2733A4607F0C1FD8F
:1010F0004FF4B271384607F0B5FD23685BB91F495C
:10110000404640F265133A4607F0B3FD40F26511E0
:10111000384607F0A7FD23699E685EB91849404626
:101120004FF4B4733A4607F0A4FD4FF4B471384657
:1011300007F098FDA38B23F0070343F0050397E71F
:101140000C4940F26B133A46404607F092FD0025E9
:1011500040F26B11384607F085FD2E468AE700BF46
:101160008A9F0000B79F0000EF9B0000CE9F000009
:10117000E79E0000C59C0000099F0000159F00002D
:10118000389F00004F9F0000659F0000749F000083
:101190004FF0010A43F0080304F11409A383484601
:1011A00005F080F868B9374A3749B923404607F057
:1011B00060FD3648494607F05CFD3248B92107F02A
:1011C00051FD009B83F31188BFF36F8FBAF1000FBD
:1011D00036D1002D46D116B12D492046B0474FF0EB
:1011E0004002EFF3118382F31288BFF36F8F4846FA
:1011F000009305F049F868B9224A26498E234046F3
:1012000007F037FD2448494607F033FD1D488E217D
:1012100007F028FD484605F055F8A38B23F0080396
:10122000A383A38BDA0625D523F01003A383012122
:10123000B4F81C9009F0070900297FF472AE50E65B
:10124000A1680029C5D0D1F800A04B68019A9C463E
:1012500020465B46E047BAF1000FBAD05146DAF8B3
:1012600000A0F2E72946019A2D685B46204607F068
:101270002FFCAEE713F020011EBF23F02003A38351
:101280000221D5E78A9F0000B79F0000CE9F000093
:101290009D120000E39F0000F89F0000F8B504468F
:1012A0000D4600F114064FF04003EFF3118783F36E
:1012B0001288BFF36F8F304604F0E6FF68B90C4A1E
:1012C0000C490D488E2307F0D4FC0C48314607F03A
:1012D000D0FC07488E2107F0C5FC304604F0F2FF31
:1012E000A5613A4620460121BDE8F840FFF7E8BD78
:1012F0008A9F0000E39F0000EF9B0000F89F000022
:101300002DE9F04704460F4607F0F8FB051E61DBA8
:1013100004F114094FF04003EFF3118A83F31288AC
:10132000BFF36F8F484604F0AFFF68B9384A3949B8
:1013300039488E2307F09DFC3848494607F099FC50
:1013400033488E2107F08EFC484604F0BBFFE38B48
:10135000A68B4FF6FF72934206F0070651D0022E7D
:10136000354623D10133E3834FF00108484604F0AA
:1013700099FF68B9264A2A492748B92307F079FC1A
:101380002848494607F075FC2148B92107F06AFC56
:101390008AF31188BFF36F8FB8F1000F1AD00023C2
:1013A00032463946204607F093FB13E0062E14D848
:1013B000DFE806F0041F1313042A040000233B6037
:1013C0006368DBB9C4E90077AEB952460221204612
:1013D000FFF776FD2846BDE8F08713490E48134A0B
:1013E00040F2C91307F045FC104840F2C91107F05C
:1013F00039FC6FF004054FF00008B7E71F60676025
:10140000E2E76FF00A05F6E76FF08505F3E700BF46
:101410008A9F0000E39F0000EF9B0000F89F000000
:10142000B79F0000CE9F0000749F0000E79E000061
:10143000B2F5802F2DE9F04104460E4617466CD3D5
:101440003D493E4A3E4840F2E31307F012FC3D4856
:1014500007F00FFC40F2E311384807F003FC043FAB
:10146000F51D3E4425F0070526F00706761B172ECE
:101470004FEAD6070ED83449304A314840F2F313C8
:1014800007F0F7FB314807F0F4FB2C4840F2F3116A
:1014900007F0E8FB2560B7FA87F4C4F12008C4F12F
:1014A0002404A40007340023E408EB60631CBB425F
:1014B000AF600ED92649214A21484FF4017307F045
:1014C000D8FB224807F0D5FB1C484FF4017107F008
:1014D000C9FB05F10C0303EB8808002243F8042F35
:1014E0004345FBD1630043F001036B8005EBC4016E
:1014F0003B1B58002A804880A91925F834404A80AF
:10150000AB5305EBC70321465A8842F00102284637
:101510005A80BDE8F04107F022BB042A9FD80D494C
:10152000064A07484FF4F57307F0A3FB074807F096
:10153000A0FB4FF4F5718FE7DCA0000010A00000C5
:10154000EF9B0000F2A0000043A100002AA10000D0
:101550006CA1000009A100002DE9F04F91B08B466D
:10156000029092461C4600259AF8000008B92846C9
:1015700038E325280AF1010707D0029B594698470E
:101580000028C0F22F83013500E2182200210AA8AA
:1015900007F05CFC9AF80130252B78D000229646A3
:1015A000944616461046394617F8013B2B2B00F09F
:1015B0009D8000F29480202B00F09A80232B00F075
:1015C0009A802AB19DF8302042F040028DF83020F8
:1015D000BEF1000F05D09DF8302042F020028DF8BA
:1015E0003020BCF1000F05D09DF8302042F01002F1
:1015F0008DF830202EB19DF8302042F008028DF891
:10160000302028B19DF8302042F004028DF83020BF
:101610009DF8302002F04400442803D16FF3861275
:101620008DF830209DF830202A2B42F080028DF872
:1016300030207BD19DF8312042F001024B1C8DF807
:1016400031201A782E2A9DF831200CBF012100216B
:1016500061F341028DF8312074D15A782A2A6AD078
:10166000013300210A26184610F8012BA2F1300799
:10167000092F40F293809DF830200E91C2F3400074
:1016800040EAD17161F341028DF830205AE00AF14D
:1016900002078DF833309DF83130D90740F12281AF
:1016A00054F8049BB9F1000F07DA9DF8302042F09E
:1016B00004028DF83020C9F100095A0740F11B815E
:1016C00054F8048BB8F1000F80F21A819DF8313084
:1016D0006FF341038DF831304FF0FF3810E12D2BBF
:1016E0000CD0302B7FF46DAF01225CE701265AE766
:1016F0004FF0010C57E74FF0010E54E7012052E77D
:101700000CFB0262303A0346184610F8016BA6F152
:101710003007092FF4D9994293D09DF830100D92DB
:10172000D20F62F341018DF830108AE70B46002298
:101730004FF00A0CE8E79DF8312042F004028DF8E2
:10174000312002331F4617F8012B6C2A47D02BD8C3
:10175000682A31D06A2A4CD04C2A52D01F4617F83A
:10176000012B9DF831308DF83320782A00F2B280B9
:101770006D2A53D8692A00F2AD80572A6AD8412AC7
:1017800003D0453A022A00F2A5809DF832300422A7
:1017900062F302038DF83230012382E006FB01225E
:1017A000A2F1300103465EE7742A26D07A2AD5D109
:1017B0009DF8313006220DE05A78682A9DF83120D4
:1017C00006D1012161F3C6028DF831209F1CC6E7C6
:1017D0001346022262F3C6038DF83130BFE75A7810
:1017E0006C2A9DF8312001D10421EBE71346032236
:1017F000F0E79DF831300522ECE79DF83130072203
:10180000E8E7BDF8303023F4F04323F0020343F45B
:10181000804343F00203ADF83030A0E7A2F16E0040
:10182000C0B20121814040F28240014222D111F038
:10183000240F42D1CE074DD59DF8322003F0780316
:10184000A3F14000032161F3020243428DF83220EC
:10185000434126E0A2F15801C9B2012000FA01F18A
:1018600011F4624F91D111F4043F24D140F60100EC
:1018700001422FD002219DF8320003F07803402B63
:1018800061F3020008BF9DF830108DF8320004BFEC
:1018900041F001018DF83010632A21D1003B18BFBF
:1018A00001239DF83020C2F340010B4363F3410252
:1018B0008DF83020EFE60146DDE79DF83220032168
:1018C00013F0780F61F302028DF8322014BF012368
:1018D0000023E6E79DF8303043F001038DF8303007
:1018E0000023DEE79DF93020002AB4BFDDF83490F4
:1018F0004FF0FF39E1E69B077FF5EEAEDDF838806B
:101900009DF831100023CDE90D339DF8323003F0FE
:101910000703012BC1F3C3013AD1CB1E042B12D80C
:10192000DFE803F003090911110054F8043BDA174A
:10193000CDE90A321BE0E21D22F00702144652688C
:1019400054F8083BF4E754F8043B01294FEAE372EA
:10195000CDE90A3204D103F0FF030A93002305E026
:10196000022904D11AB20A9243F3C0330B939DF8B3
:10197000303013F0030641D002983B465246594698
:1019800007F05AF90028C0F22D810544BA46EBE56C
:10199000022B21D1CB1E042B13D8DFE803F0030A5E
:1019A0000A1212002068231D0022CDE90A021C46FB
:1019B000DDE7073424F007042346626853F8080B78
:1019C000F3E754F8043B00220129CDE90A32C2D0E2
:1019D0000229CCD19BB2C0E7042B09D1E31D23F02F
:1019E000070303F10804D3E90023CDE90A23BEE786
:1019F000032B04BF54F8043B0A93B8E79DF8330067
:101A00007828C3D8622822D825283FF4B6AD5828B4
:101A1000BCD10DF126030093DDE90A0104AB0CAA49
:101A200007F0C4F88246B8F1000F0DF126030CDB75
:101A30009DF83010A3EB0A026FF3861190458DF8E4
:101A4000301002D9A8EB02020D9298463EE06338AE
:101A500015289BD801A252F820F000BFDD1A000023
:101A6000411B00008D1900008D1900008D19000028
:101A70008D190000411B00008D1900008D19000018
:101A80008D1900008D190000991B0000671B0000D4
:101A90006B1B00008D1900008D190000B51A0000A5
:101AA0008D190000671B00008D1900008D190000C2
:101AB000671B0000B8F1000FDDF828A00ADB4146E3
:101AC000504607F0A3F90AEB00080026BAF1000F10
:101AD0000CD15BE7504607F092F9F4E70A9B8DF8CA
:101AE000103000260DF1100A0DF11108A8EB0A03C1
:101AF00006B101339DF83220D00667D50233520675
:101B00000D9948BF0E9A0B4448BF9B18B9F1000FBE
:101B100075DD9DF83020A9EB0309C2F38003039320
:101B200053076CD4500660D546B1029B59463046E7
:101B30009847002856DB039B01351E46302355E0AD
:101B40001E075CBFC3F300135E01DDE90A2348BF33
:101B50002B26002BBFF65DAF524263EB4303CDE96A
:101B60000A232D2655E7002653E70A9840B30DF1C6
:101B7000260300930CAA04AB002107F017F8BDF868
:101B8000323003F0EF0343F4F04343F01003824696
:101B9000ADF83230002646E70A9B07293FF6F6AE3D
:101BA000DFE801F00C04060C08080C0C1D70EDE6D3
:101BB0001D80EBE6EA17C3E90052E7E61D60E5E6A3
:101BC000DFF8C4A006460AF105088FE7110748BFF1
:101BD000013394E7184603935946029B984700281F
:101BE000039B04DA11B0BDE8F08F20234D444A4630
:101BF000002AA5EB090109F1FF39EBDC0D4636B1EE
:101C0000029B5946304698470028EBDB01359DF88A
:101C10003230D90601D41A0706D5029B5946302026
:101C200098470028DEDB01359DF83230DB0607D50A
:101C30009DF83300029B594698470028D2DB0135B6
:101C40000D9E2E44731B002B16DC02984346524611
:101C5000594606F0F1FF0028C4DB0544A944A9EB6E
:101C60000503002B7FF792AE029B59462020984730
:101C70000028B7DB0135F2E7029B59463020984730
:101C80000028AFDB0135DDE797A1000008B54FF074
:101C90004002EFF3118382F31288BFF36F8F01F0DC
:101CA00035FD034806F0EBFE00F066FEFCE700BFE2
:101CB0009DA100002DE9F04706460C4659B9124D8A
:101CC000124B134FDFF84C90DFF84CA05B1B4FEA30
:101CD0002318444501DBBDE8F087284606F0D7FF0E
:101CE00078B14EB94946504686233A4606F0C1FFC0
:101CF0008621384606F0B6FF2B6831461B68284619
:101D0000984701341035E4E75C9800007C980000A7
:101D1000C6A10000FEA10000EF9B0000014B53F89C
:101D200020007047D8980000054A00231370054A28
:101D30001360054B054A1A604FF4004000F08CBA5E
:101D40006B0E00203C0500209C000020958C0000BC
:101D500070B5194B194CE41A902C0BD91849194835
:101D6000194A40F2732306F084FF174840F27321AA
:101D700006F078FFBFF35B8F144B53E8006F721CC3
:101D800043E800210029F8D1BFF35B8F1EB925116C
:101D9000094CAE4200DB70BD237B53B123689B69C5
:101DA0000BB120469847636804221968204600F06A
:101DB0006FF801361034ECE75C9800007C98000066
:101DC00056A20000EF9B000011A200004005002079
:101DD000F8B50C4F3D784DB90B4C0C4EFFF7B8FFE2
:101DE000361B3611B54202DB01233B70F8BD20469D
:101DF00006F04DFF18B1236820465B69984701350E
:101E00001034EFE76B0E00205C9800007C98000017
:101E1000014B01221A7070476A0E00200C4BBFF371
:101E20005B8F53E8001F013143E80012002AF8D10C
:101E3000BFF35B8F58B1BFF35B8F064B53E8001FB6
:101E4000013943E80012002AF8D1BFF35B8F7047D5
:101E50003C05002038050020054B10B51B680446E2
:101E600098470021A0602046BDE81040FFF722BF40
:101E70009C000020044A054B9B1AB1EBD30F34BFE2
:101E800052F83100002070470C9800005C98000068
:101E900070B503680E4C1B68041B241105460E46E2
:101EA000013463B90B490C4A0C48BB2306F0E1FE30
:101EB0000B4806F0DEFE0848BB2106F0D3FE6B6837
:101EC00001221C711E605A71BDE87040FFF7A0BF6F
:101ED0005C980000D6A200007EA20000EF9B0000EC
:101EE000ECA200000EB403B503AB014653F8042B7B
:101EF00004480193FFF730FB02B05DF804EB03B038
:101F0000704700BFC78C00002DE9F04F87B01C461A
:101F100001F0010305929DF84090BDF948A004939B
:101F20000746884601F0020B01F0080606F0C9FEDC
:101F30000246002844D03A493846FFF7D3FF054609
:101F4000BBF1000F08D018F0440F3BD135492246B1
:101F50003846FFF7C7FF0544049B53B1324B334962
:101F600053F82920324B3846002A08BF1A46FFF79B
:101F7000B9FF3EB12F4B304953F829203846FFF7BF
:101F8000B1FF0646BAF1000F16DB059B002B45D0CA
:101F9000012303FA09F313F0100F284B284C18BF44
:101FA0001C4651469DF84400FFF764FF2146024657
:101FB0003846FFF797FF0644701907B0BDE8F08F69
:101FC0000546BDE71F4B18680028C4D01E4B4FF4D0
:101FD0007A781B68B4FBF3F44FF46161B4FBF0F35F
:101FE00000FB134408FB04F44FF03C0CB3FBF1F28C
:101FF00001FB1231B4FBF0FEB1FBFCF300FB1E440D
:102000000CFB131108FB04F40091B4FBF0F40F492E
:10201000CDE901E43846FFF765FF9CE7084CC0E7CF
:102020001CA3000020A30000E498000045A30000CA
:102030000EA30000F898000048A3000013A30000BE
:1020400017A30000440500204805002029A3000034
:102050002DE9F0471D46089B1746DA0604460E4652
:1020600005D499064CBF2A492A49FFF73BFFDFF800
:10207000A8904FF00008A8452ADBDFF8A080DFF821
:10208000A090DFF894A00025BD422FD2725D494692
:102090002046FFF727FF0135102D20D12149DFF819
:1020A0007880DFF884902046FFF71CFF0025AF42C0
:1020B00028D9725DA2F120035F2B28BF2E2249464A
:1020C0002046FFF70FFF0135102D14D1BDE8F08732
:1020D00049462046FFF706FF08F10108CBE76A07EB
:1020E000D2D151462046FFF7FDFECDE741462046BE
:1020F000FFF7F8FECFE76B07D9D141462046FFF73F
:10210000F1FED4E741462046FFF7ECFEDBE700BFD7
:1021100031B400004EA3000059A3000057A30000F3
:1021200051A300005BA300005DA3000038B50C467E
:10213000E107054603D5084A0849FFF7D3FEE20642
:1021400008D4A30628464CBF05490649BDE83840D7
:10215000FFF7C8BE38BD00BF0EA3000045A30000B6
:1021600031B400004EA300002DE9FF470B8813F4A3
:10217000E07F06460C469046C3F382195BD00A788E
:102180004B68C2F3C202002B52D02C495B1A43F3B6
:10219000CF03CDE90123CDF80090A368002241468A
:1021A0003046FFF7B1FE8246254655F8103BC3F393
:1021B0004923C3B1224F23482349B9F1000F08BF77
:1021C00038462B46324606F018FC00280BDA1F4929
:1021D0001F48204A40F2B72306F04BFD1D4840F24D
:1021E000B72106F03FFD6788C7F3CB0797B1236897
:1021F000C3F349231D44102F3C4628BF1024294611
:10220000CDF80080534622463046FFF721FF3F1BA2
:102210002544F0D1B9F1000F04D04A46414630467A
:10222000FFF784FF304604B0BDE8F04706F073BD09
:102230004FF0FF33ADE7CA46B6E700BF0C98000089
:10224000E38C0000C78C0000591500009CA300001F
:10225000EF9B000060A30000084A10B50123084C62
:1022600013600021A04204D801B11360054B18602F
:1022700010BD40085B000121F4E700BF48050020C5
:1022800040420F00440500202DE9F04F85B002AF19
:10229000D7E90DA60446884693469946002E4DD0B0
:1022A000FB6B7B6000935246334610210020FEF703
:1022B000A7FB051E09DA22492248234A672306F0B4
:1022C000D8FC2148672106F0CDFC204B3A6B04F086
:1022D00007040BF0070BE40044EA8B1403EA4523E0
:1022E0001C431B4B03EAC2431C43134617332B44C6
:1022F00023F00703ADEB030D0DF1080BA6B1FB6B4B
:1023000000935246334629460BF11000FEF778FB46
:10231000002809DA0A490B480B4A812306F0A9FC78
:102320000948812106F09EFC4B462246414658460C
:1023300006F0FEFC0C37BD46BDE8F08F3546C4E71D
:10234000F2A30000EF9B0000C5A3000000FE070001
:102350000000F87FF8B5074F0D4604464618B44212
:1023600001D12846F8BD386814F8011B83685B6802
:102370009847F4E764050020014B0020196070477E
:1023800054050020024B034801221A7006F0C3BC1A
:102390006C0E00202C990000064B10B518680C46F6
:1023A000FFF7BCFC21460346BDE8104002480F225F
:1023B000184700BF540500202C99000008B5094BB0
:1023C0000948186007F02BF858B908490848094A25
:1023D000792306F04EFCBDE808400648792106F056
:1023E00041BC08BD640500205C96000031A40000DB
:1023F000EF9B0000FCA30000014B01221A70704704
:102400006F0E0020014B00201960704770050020FE
:10241000024B034801221A7006F07DBC700E0020AA
:102420005C990000064B10B518680C46FFF776FC67
:1024300021460346BDE8104002480F22184700BF5E
:10244000700500205C990000F8B5194D07460E464E
:10245000042432463946002003F0E6FAC8B10123CD
:102460002B70144B1B782BB93046F8BD5CB92C701F
:102470004FF0FF34002003F025FB0028F4D02B7828
:10248000002BF3D1F0E7013C41F2883007F04BF824
:10249000F0E72B7813B1013C04D12C702B78002B82
:1024A000D7D1E1E741F2883007F03DF8F6E700BF09
:1024B0006F0E0020700E00202DE9F84305464FF006
:1024C0004003EFF3118683F31288BFF36F8F224826
:1024D00003F0DAFE68B9214A214922488E2306F02A
:1024E000C8FB1D49204806F0C4FB1C488E2106F09D
:1024F000B9FB194803F0E6FE1C4B1C689CB11C4F4D
:10250000DFF870804FF00C09D4E90132002D08BFCC
:1025100013462BB198F8142009FB02F2B85C9847D7
:102520002468002CF0D10C4803F0BCFE68B90B4ABB
:1025300011490C48B92306F09CFB07490F4806F0E7
:1025400098FB0648B92106F08DFB86F31188BFF38E
:102550006F8FBDE8F88300BF800500208A9F0000D0
:10256000E39F0000EF9B0000F89F0000840500201F
:102570008C050020300C0020B79F0000CE9F00008B
:1025800041090A4ABFF35B8F00F01F00012383401B
:10259000DB4302EB810252E8000F184042E80001E1
:1025A0000029F8D1BFF35B8F704700BF980500206A
:1025B00070B5194B1C7DBFF35B8F04F01F03012224
:1025C0009A40164B6109D04303EB810353E8001F87
:1025D00001EA000543E80056002EF7D1BFF35B8FF8
:1025E000114213D00E4B0F4D8BB10C236343EA18ED
:1025F000E85C517806F042FC0020FFF75DFF0C23F9
:102600005C432A1900232B51C2E9013370BD83F3C7
:102610001188BFF36F8FEFE7300C00209C0500207E
:102620007D8E00008C0500202DE9F843314B324AA5
:102630001C7DBFF35B8F63094FEA830952F8233097
:102640002E4EBFF35B8F04F01F0843FA08F313F01C
:10265000010F07460AD10146204600F067F828B16D
:1026600007C80C2303FB046383E807000C236343C0
:10267000F218F55C2DB92046FFF782FF2846BDE829
:10268000F8837B1C0FD0D2F808C01D481D4A4FF4B8
:10269000004500210023ECFB0501FDF713FF01219C
:1026A000381A05F0D7FB04F0D3F90120FFF704FF37
:1026B000BFF35B8F144B012202FA08F24B4453E83C
:1026C000000F104343E800010029F8D1BFF35B8FEE
:1026D0000E4B33B10C236343F218F05C517806F0D3
:1026E000C1FBFFF765FF2046FFF74AFF04F094FEA9
:1026F0000120C4E7300C0020980500208C05002044
:102700003F420F0040420F009C050020658E0000F4
:10271000054BBFF35B8F53F82000BFF35B8F00388E
:1027200018BF0120704700BFA00500202DE9F04F21
:1027300085B00F4603A900F047F8DFF88080DFF886
:1027400080A0441E24B24FF0000B631C04D100266D
:10275000304605B0BDE8F08F039A04EB440302EB6A
:10276000830612F82300FFF7D3FF054610BB7068FD
:102770004FF40049C4462946E0FB09C152465B4676
:102780006046FDF79FFE0190B068C4462946E0FB15
:1027900009C15B4652466046FDF794FE094B1B6833
:1027A000591C01D0834205D97A1CD1D0019B184411
:1027B000B842CDD9013C24B2C7E700BF3F420F0069
:1027C00040420F00A000002008B9024B0B6000201F
:1027D000704700BF6C990000014805F07FBF00BF43
:1027E0006C99000010B5044618B90D4B0D485B6894
:1027F0009847616808290DD031F004030AD011F020
:10280000020108D00848214603F09EFB0023236004
:102810000023636010BD2068142206F017FBF7E761
:102820007C01002078A40000BC05002008B508B396
:102830004368042B10D101220368BFF35B8F53E878
:10284000001F002903D143E800200028F7D1BFF37F
:102850005B8F0BD1002008BD53B100684FF0FF32F1
:102860004FF0FF3303F068FD0028F3D00348F2E790
:102870000348F0E76FF4E040EDE700BFE98FFFFFAA
:10288000EA8FFFFF08B5D0B14368042B11D10022B5
:102890000368BFF35B8F53E8001F012903D143E8AE
:1028A00000200028F7D1BFF35B8F074808BF104610
:1028B00008BD3BB1006803F039FE0020F8E76FF473
:1028C000E040F5E70148F3E7E98FFFFFEA8FFFFFFC
:1028D00010B5044618B9164B16485B6898476368EC
:1028E000042B23D0082B21D0CBB92368BBB91248C5
:1028F0004FF0FF324FF0FF33214603F0B9FA08B929
:1029000023681BB90A4B0D485B689847206814225E
:10291000002106F09BFA636843F0020363602068BD
:1029200006F0CEFD636843F00103636010BD00BF95
:102930007C01002078A40000BC0500209EA40000BB
:1029400008B5064906484023142206F086FDBDE876
:1029500008400449044805F021BF00BFDC05002001
:10296000BC050020849900007499000001491022E0
:102970000A60704710ED00E072B6404080F31188A5
:10298000BFF36F8FBFF34F8F30BF62B6BFF36F8F50
:10299000704700BF72B6494081F3118820BF80F3B1
:1029A000118862B6704700BF70B5064686B00D4606
:1029B000002938D08B6805934B6804930B68039308
:1029C00000241C4B1C490293012223462046CDE9DA
:1029D000004406F0CBF96B6905932B690493EB680F
:1029E0000393164B14490094CDE901430122234679
:1029F000204606F0BBF9EB690393114B0E49009496
:102A0000CDE9014301222346204606F0AFF9AB6928
:102A100003930C4B08490094CDE90143012223465E
:102A2000204606F0A3F92946304606B0BDE87040BE
:102A300003F09CB8CBA400003C980000FAA400006E
:102A400029A5000038A5000043B2002B07DB04498C
:102A50005B0900F01F000122824041F823207047EB
:102A600000E100E0054B420900F01F0053F822206E
:102A7000012303FA00F01040704700BF00E100E0BE
:102A8000D30770B505460E4625D48C1C072C0FD9EC
:102A9000124A13491348572306F0EBF812483146FF
:102AA00006232A4606F0E5F80C48572106F0DAF826
:102AB0006BB2002BACBF03F160430C4B4FEA4414E4
:102AC000B8BF05F00F05E4B2AABF03F561435C553A
:102AD00083F8004370BD0024EAE700BF66A500004C
:102AE0009CA50000EF9B0000B7A5000014ED00E0DE
:102AF00030BFFFF7FDBF00BF0B4A08B50B4B22F0FC
:102B00007F029A60BFF34F8FBFF36F8FD3F8882097
:102B100022F47002C3F8882003F0BCF804F0D8FF58
:102B200000F0E6FB03F0FAF80000000000ED00E022
:102B3000094A0A49936809689967094958674B68BF
:102B400043F080534B60002383F31188BFF36F8FF2
:102B50009368986F704700BF300C0020D89A00002F
:102B600000ED00E012498A684FF030001044EFF3A6
:102B7000098C80E8F01F402080F31288BFF36F8F2C
:102B80000C4F4FF00066CA698A603E60506F0023A8
:102B9000536780F3118804B5104600F045FCBDE88A
:102BA000044002F1300090E8F01F8CF30988704770
:102BB000300C002004ED00E01EF0040F0CBFEFF31A
:102BC0000880EFF30980816911F8021C0229FFD007
:102BD00001B506F0DBF801BD42F8203C009B42F84D
:102BE0001C3C0A49019B42F8183C029B42F8143CE9
:102BF00021F001014FF0807342F8043C42F8081CB8
:102C00000023203A02654367704700BF418B0000F4
:102C1000094A0346906870B113F1160F406E05D053
:102C2000A0F120029A4205D8834203D2814228BFF4
:102C30000020704700207047300C002008B5094B79
:102C400098600D46144600F0EFFB204685F3098896
:102C5000002163B681F31188BFF36F8F0022002338
:102C600005F06EFF300C002001B572B60B4A90697A
:102C700000281EBF0021916106F013FC62B6EFF33D
:102C80000580A0F110004FEAC0000549014409C9C0
:102C90009847BDE80140034908470000300C002078
:102CA0008C960000A92C0000044B9968D8698842D2
:102CB00003D003494FF080520A607047300C002067
:102CC00004ED00E0F0B585B000243B4B0293CDE964
:102CD0000044234607460E4601223849204606F0A6
:102CE00064F8374B9B6ADB0409D5364B33490094B3
:102CF000CDE9014301222346204606F056F8304B29
:102D00009B6A1D0509D5304B02930023CDE90033A2
:102D10002A490122184606F048F8294DAB6A9C055D
:102D20001ED50024294B0293012223462046CDE9DB
:102D30000044224906F039F8AB6BAA6A10040FD59B
:102D40000393234B1D490094CDE9014301222346FF
:102D5000204606F02AF81FB1AB6A23F40043AB62A9
:102D6000174B9B6A590509D51A4B02930023CDE9ED
:102D7000003312490122184606F017F8104A936AE8
:102D800013F4807312D0144B02930023CDE9003367
:102D90000A490122184606F008F8094A936A0020F9
:102DA00043F47F439362307005B0F0BD926A9204A1
:102DB000F3D50A4A0292E9E7F7A500003C98000023
:102DC00000ED00E00DA600001EA6000031A60000E8
:102DD0004AA600005FA600007AA6000092A60000A6
:102DE0001FB50024334B0293CDE9004423463249FA
:102DF0000122204605F0D9FF304B9B6A9B0109D583
:102E00002F4B2D490094CDE9014301222346204652
:102E100005F0CBFF294B9B6ADC0109D5294B0293B6
:102E20000023CDE9003324490122184605F0BDFFF7
:102E3000224B9B6A180309D5234B02930023CDE94B
:102E400000331D490122184605F0AFFF1B4B9B6A5A
:102E5000590309D51D4B02930023CDE900331649D0
:102E60000122184605F0A1FF144B9B6A9A0309D56D
:102E7000174B02930023CDE900330F490122184676
:102E800005F093FF0D4B9B6ADB0309D5114B0293B1
:102E90000023CDE9003308490122184605F085FFDB
:102EA000064A936A6FEA03436FEA13430020936272
:102EB00004B010BDC1A600003C98000000ED00E089
:102EC000D9A60000ECA6000006A7000024A7000079
:102ED00049A7000063A700002DE9F04385B0002456
:102EE000534B0293CDE9004423468046894616465B
:102EF00050490122204605F058FF4F4B9B6ADF06E0
:102F000009D54E4B4B490094CDE90143012223469C
:102F1000204605F04AFF484B9B6A1D0709D5484BE0
:102F200002930023CDE9003342490122184605F0FF
:102F30003CFF414DAB6A9C0737D46FF015073E4B01
:102F40009B6AD90709D53F4B02930023CDE9003393
:102F500038490122184605F028FF374B9B6A9A062C
:102F600009D5394B02930023CDE9003331490122C1
:102F7000184605F01AFF304DAB6ADB0637D4AB6A52
:102F80009C0734D400242C4B9A6A920642BF5A6A9A
:102F900022F400525A629A6A42F0FF029A62204674
:102FA0000023337005B0BDE8F0830024274B029363
:102FB00020462346CDE900441E49012205F0F5FED6
:102FC0006F6BAB6A1806B8D5214B1A490397CDE948
:102FD0000143009423460122204605F0E6FEB9F1A4
:102FE000000FACD0AB6A23F08003AB62A7E76B683D
:102FF0001805C7D541463846FFF70AFE044618B102
:1030000080F309880224BEE7AB6AD906BAD5114A13
:103010001149124840F2491305F02BFE104805F003
:1030200028FE0C4840F2491105F01CFEABE700BF3A
:103030008EA700003C98000000ED00E0A4A700006F
:103040001EA6000005A8000092A60000D7A7000059
:10305000EFA7000024A800005EA80000EF9B00007E
:10306000A8A800002DE9F043854BD3F8049091B057
:103070008046C9F30806002787F31188BFF36F8FD6
:1030800002F07F43B3F17F4F0DD102F00C03082B08
:103090001BD17C4B7C490097CDE9017301223B4653
:1030A000384605F082FE794A79497A4840F2FB3386
:1030B00005F0DFFD784805F0DCFD744840F2FB3197
:1030C00005F0D0FD4FF0000806E012074CBF88461F
:1030D0000127B8F1000FE6D00025F31E8DF81F5030
:1030E000092B00F2B380DFE803F005A7AB87B1B18D
:1030F000B1B1B1AF694B624E63490095CDE901535F
:1031000000230122184605F050FEF46A8DF81F5086
:1031100014F002040BD0624B5B490095CDE90153DA
:1031200000230122184605F040FE00240CE0F36A5B
:10313000002B25DA5B4B54490094CDE90143012271
:103140002346204605F031FE9DF81F30ABB9202202
:1031500041460DEB020005F06EFE0F9B002F00F0C4
:103160008A80C3F3080222B96FEA53236FEA43232C
:103170000F9308A92046FFF717FC11B0BDE8F083B4
:10318000F36A5B004BD5484B3F490094CDE90143BE
:1031900001222346204605F008FED8F8183033F8FF
:1031A000022C4DF602739A420FD1D8F800300393E7
:1031B0003E4B0094CDE9014320462346324901228B
:1031C00005F0F3FDD8F80040BEE796F828303BB193
:1031D0000DF11F0201214046FFF77EFE0446B3E7D2
:1031E00096F829302BB10DF11F010120FFF76AFD80
:1031F000F4E7738D9BB213B1FFF7F2FDEEE72C49B4
:10320000224A244840F2CD2305F033FD294805F039
:1032100030FD40F2CD211D4805F024FD94E72449FE
:103220001A4A1C4840F2D12305F023FD224805F03C
:1032300020FD40F2D121EEE70DF11F020021CAE787
:103240000DF11F010020D1E71C4B65E71C4A1D4B07
:103250000D4919F4F87F18BF1346103E0024CDE93C
:103260000336194B0293CDE9004423460122204640
:1032700005F09BFD68E723F4FF7323F0010377E774
:1032800000ED00E0F9A800003C98000024A8000030
:1032900024A90000EF9B000037A9000075A90000D9
:1032A0008CA90000ADA90000BBA90000DAA90000AC
:1032B000C59C0000F6A900001AAA00004AAA000056
:1032C000E0A80000CBA800006EAA0000024A5369E3
:1032D00043F010035361704700ED00E0EFF3088006
:1032E000EFF3098101B57246FFF7BCFE01BD00BFD7
:1032F000044800234021C2180133302B82F8001308
:10330000F9D1704700E100E0002080F31488BFF39A
:103310006F8F06F031F900200D490860BFF34F8F21
:103320000C4880F3088800F02BF8402080F31188C7
:1033300009484FF40261401880F30988EFF31480C4
:103340000221084380F31488BFF36F8FFFF7D4FB8B
:1033500094ED00E000230020802400200749D1F8EC
:1033600090200023C2F307221846934200D17047F1
:10337000C1F89830C1F8A0000133F6E700ED00E095
:1033800008B572B6002383F31388FFF7E7FF144BE9
:103390004FF0FF32C3F88020C3F88420C3F88820A0
:1033A000C3F88C20C3F89020C3F89420C3F8982069
:1033B000C3F89C20C3F88021C3F88421C3F8882176
:1033C000C3F88C21C3F89021C3F89421C3F8982145
:1033D000C3F89C2162B6BFF34F8FBFF36F8F08BD58
:1033E00000E100E0084B9B6883420BD1EFF30583BB
:1033F00043B1064B5A6842F080525A605A6A22F42E
:1034000000425A6204F0B0BA300C002000ED00E037
:10341000024B034A0348012100F084B80000042055
:103420000000002098990000426E054B203A1A6077
:10343000044A2021C3E901121846012100F09AB87C
:10344000DC0A002000000B15F0B5274E85B00025E2
:103450008D4215DA4468002C43D0D3B104F1FF3C0F
:1034600014EA0C0F0FD0214B039502930023012285
:10347000CDE900331E49184605F0A7FC6FF0150290
:10348000104605B0F0BD1F2CEDD907681CEA070FE8
:10349000E9D1202C0768D0F808C0D2B20FD9B4F116
:1034A000004F0ED8013CB4FA84F4C4F11F04640048
:1034B000072A4CEA040C06D90E4B0392D5E70824E0
:1034C000F6E73E24F4E727F01F04144344F0100409
:1034D000C6F89820C6F89C404CF00104C6F8A040FD
:1034E000013201350C30B3E700ED00E085AA0000A1
:1034F00034980000A8AA0000044B0522C3F89420C9
:10350000BFF34F8FBFF36F8F704700BF00ED00E038
:10351000BFF35F8F024B0022C3F89420704700BFB7
:1035200000ED00E038B50E4D01232A780C46FFF778
:103530008BFF2870163011D140F21113094A0A4945
:103540000A4805F096FB2146094805F092FBBDE8C4
:103550003840044840F2111105F084BB38BD00BF6B
:10356000710E0020CEAA0000C59C0000EF9B000059
:1035700005AB000010B5134A002312780C46FFF784
:1035800063FF10F1160F0AD00F4B0022072800DD51
:1035900010BDC3F89800C3F8A0200130F6E70B4A2D
:1035A0000B490C484FF4987305F063FB21460A4819
:1035B00005F05FFBBDE8104004484FF4987105F03A
:1035C00051BB00BF710E002000ED00E0CEAA00004C
:1035D000C59C0000EF9B000031AB0000274910B5EF
:1035E0000C68082C13D94FF4A473254A25492648A2
:1035F00005F03FFB25480822214605F03AFB20480C
:103600004FF4A47105F02EFB4FF0FF3010BDFFF713
:103610007FFF48681E490022944200F10C001AD135
:103620001C4B1C70FFF768FFD1F89030C3F30723E1
:10363000082B0ED01849124A13484FF4D47305F0E2
:1036400018FB164805F015FB0D484FF4D47105F032
:1036500009FB0020DAE7C1F8982050F80C3C23F071
:103660001F03134343F01003C1F89C3050F8043C8F
:1036700043F00103C1F8A0300132CDE7A499000066
:10368000CEAA0000C59C0000EF9B00005EAB0000CE
:1036900000ED00E0710E002092AB0000E2AB0000F4
:1036A000014B1860704700BFC400002010B54FF0F8
:1036B0004003EFF3118083F31288BFF36F8F114A39
:1036C0000123C2F840354FF080424FF08051C2F8DC
:1036D0007835D1F83041082C08D1D1F834110529BA
:1036E00004D8094C615C09B1C2F838364FF0804308
:1036F0000122C3F8802580F31188BFF36F8F00206B
:1037000010BD00BF00E0014016AC00004FF0804348
:10371000C0B2C3F81C05BFF34F8F0549054BCA68FB
:1037200002F4E0621343CB60BFF34F8F00BFFDE7AD
:1037300000ED00E00400FA0520B1034B800143F0E6
:1037400001031847704700BFA09800007FB50D79AE
:1037500005F01F04072C1AD80A78092A1ED8DFE8BA
:1037600002F006060606061D05191D1B05224B78EC
:10377000032B17D0042B4FF0000314D02F4A0292D2
:10378000CDE900332E490122184605F07DFB6FF08C
:10379000150048E00622EAE70722E8E7294B0293F2
:1037A0000023EDE70123488844F20A06B0423ED0E8
:1037B0000AD844F20306B04214D044F20506B042DF
:1037C00033D0A0B3204BEAE744F21406B04230D025
:1037D00044F22806B0422ED044F20F06B042F1D196
:1037E000032000E00020C5F34015120242EA055212
:1037F00042EA0332230103F1804303F5E04342EA46
:103800000042C3F81825230103F1804303F5E04388
:103810008A79C3F814250020C3F810050B4B4A79A8
:10382000234483F8902004B070BD0120DBE7022020
:10383000D9E70420D7E70520D5E700BF3BAC00005F
:103840000C9800001CAC00005FAC000000000020E1
:10385000044B0122C3F8002508B1DA6070471A60F2
:103860005A60704700700040F0B50D4687B0704850
:103870004FF0FF324FF0FF3302F05AFF6C6814B183
:1038800034F0FF020AD06B4B02930023CDE90033E2
:1038900069490122184605F0F7FA53E0674E684F70
:1038A000114624FA02F313F001032FD0BB1893F84A
:1038B00090302BB90392634A0292CDE900333CE089
:1038C00006EB021E95F811C0DEF81805BCF1000CDD
:1038D00018BF4FF0010C20F0807040EA0C60CEF869
:1038E000180502F15100000101313350C9B2013213
:1038F000082AD6D12A7CA2F108000023062816D86F
:10390000DFE800F0281509152A15130002F151000F
:1039100000013350EBE70123484A0129C2F8F03592
:103920006B7C1BD9E3B1484BAEE70323F4E703926A
:10393000464A0093CDE9013200233F49012218464F
:1039400005F0A2FA6FF01504394802F0B3FE2046E4
:1039500007B0F0BD0023DFE70223DDE7082B16D810
:10396000C2F8F4352A684B00B2B9EA689A4217D215
:10397000CDE90323364B02930023CDE900332E49D2
:103980000122184605F080FA6FF00B04DCE7039380
:10399000304B0293002390E7928902FB0333E4E764
:1039A000264BAA68C3F82C262F46C3F830160FCF33
:1039B000234C04F164060FC63B6833602B68002675
:1039C0002666274673B30FCB04F1780585E80F0010
:1039D0006566A4F8886028B3BFF35B8F57E8003FA3
:1039E00047E80062002AF9D1BFF35B8F1A48A76F3E
:1039F0001A4A4FF4004531460023E7FB0501FCF766
:103A000061FD0022CDE90001002304F1080004F06B
:103A100031FC13484FF0FF324FF0FF3302F088FEC5
:103A2000246E91E794F87600FFF712FFF1E700BFEC
:103A3000400000208AAC00000C980000007000409C
:103A400000000020A8AC0000E7AC0000C2AC000001
:103A50003CAD000019AD00003F420F0040420F0096
:103A6000500000200E4B10B50024C3F80441D3F8D9
:103A70000421C3F81041D3F810211222C3F8042303
:103A80000720FEF7E1FF224601210720FEF7F8FF9D
:103A90000448836C13B9403002F00CFE002010BDC6
:103AA000007000400000002038B52E4BD3F80421F0
:103AB000002A4AD00022C3F804212B4CD3F8041169
:103AC00001219960C3F80025636E2546C3B3E36FF7
:103AD000B4F8882033B104F164019847012814D068
:103AE000022828D0B4F88830B4F884209A4222D929
:103AF0000133A4F888301B4BD3F82C26D3F83416A6
:103B000089B202EB4102C3F82C26A36F2BB994F8BB
:103B10007600BDE83840FFF79BBEBFF35B8F55E8EA
:103B2000003F5A1E45E800210029F8D1BFF35B8F02
:103B3000012BECDC38BDA36F13B10C4805F0F7FC8A
:103B40000B48BDE8384002F0B5BDD3F8101100298C
:103B5000F0D0C3F81021D3F8102101229A601A6026
:103B60005A60E7E7007000400000002008000020D5
:103B70005000002037B50C460A490B4A411A402331
:103B80000093491105462346084805F0B9F9011E7E
:103B900005DA2846234603B0BDE83040184703B095
:103BA00030BD00BFF80A00206F8F0000FC950000B8
:103BB00038B5CCB2012C054609D9094909480A4A49
:103BC000792305F056F80848792105F04BF82B6960
:103BD0000C2204FB0233986C00F0070038BD00BFD4
:103BE000ADAD0000EF9B000070AD0000F8B5CCB2A9
:103BF000012C0669054617460BD9194919481A4A76
:103C000040F24D1305F035F8174840F24D1105F01C
:103C100029F84FF04003EFF3118183F31288BFF3CB
:103C20006F8F0C2202FB04639B6C13F0C00301D066
:103C30009F4211D102FB04660123B364002081F38B
:103C40001188BFF36F8F30B96B680C2202FB04330D
:103C50005B6898470020F8BD4FF0FF30EFE700BFEA
:103C6000ADAD0000EF9B000070AD000070B50D46DB
:103C70000649411A0446491105484022FFF7B6FF9C
:103C80002B4601462046BDE870401847F80A002040
:103C9000FC950000002270B5012104461046FEF795
:103CA000EFFE0F4801F090F90E4B984215D101F04C
:103CB000B1F926690C49304604F02FFF00280BDBD0
:103CC000246909490125B56404F1200004F025FFA9
:103CD000002801DB6565002070BD6FF00400FBE784
:103CE000213D00000000AD0B009A000001460C23AE
:103CF00009484B4370B5C418D4E910560022483324
:103D00002264184405F0E9F82DB132462B460348E9
:103D1000BDE87040184770BDF80A0020FC9500000F
:103D2000012808B506D0032808D0A8B9104B9B6C11
:103D30005B071BD1BDE80840FFF7D8BF0D490E4A0D
:103D40000E4840F25E2304F094FF40F25E21BDE88D
:103D50000840094804F086BF0649074A074840F270
:103D6000622304F086FF40F26221F0E708BD00BF45
:103D7000F80A0020C59C000070AD0000EF9B000019
:103D800008B54FF04003EFF3118183F31288BFF3BE
:103D90006F8F124A136843F0020013F001031060A2
:103DA0000CD04FF08042D2F80C34D2F80C2413F02F
:103DB000010303D00A4805F090F8012381F311882C
:103DC000BFF36F8F23B1BDE808400020FFF78EBF1F
:103DD000BDE80840012001F041B900BF500B0020B0
:103DE000400B00201FB500220123CDE90223094A20
:103DF000CDF800D06B46CDF804D005F0B1F800281E
:103E000005DB4FF480420023684602F091FC05B0C8
:103E10005DF804FB8D8F0000094BBFF35B8F53E807
:103E2000002F22F0020143E800100028F7D1BFF371
:103E30005B8FD30702D4012001F074B9704700BF33
:103E4000500B00202DE9F0414749BFF35B8F064638
:103E5000012251E8003F41E800200028F9D1BFF3DA
:103E60005B8FA3B9414942484B60CB608A60FDF744
:103E700047FA00280BDA3F493F48404A4FF408739D
:103E800004F0F7FE3D484FF4087104F0EBFE96B3E2
:103E9000731E012B53D8012E07D14FF08043D3F866
:103EA0001C3403F00303012B25D005F0F2FA04467D
:103EB00018B9334B1B78002B4FD14FF04003EFF371
:103EC000118783F31288BFF36F8F0124DFF8B4806A
:103ED0004FF08045D5F81834D5F81824D2030CD506
:103EE00003F00303012B01D0012E06D10CB387F39D
:103EF0001188BFF36F8FBDE8F081ACB13846FEF793
:103F000049FDD5F81835002BE4D1D5F80421002A55
:103F1000E0D0C5F80431D5F804310123C5F81835CF
:103F2000C8F88031AB60D5E70021212003F0DEFC2A
:103F3000E7E74FF080430222C3F80423DBE712498E
:103F40000D480E4A40F2322304F093FEBDE8F041E2
:103F50000A4840F2322104F085BE4FF0804302222D
:103F6000C3F808230746B1E7540B0020E80A0020F5
:103F7000180B00209CA30000EF9B000070AD000018
:103F80008212002000E100E0C59C000008B5084B4B
:103F90000848186005F043FA38B10748FFF780FB7E
:103FA0000548FCF787FF002008BD6FF01200FBE713
:103FB000580B00205C960000BD3F00000A2838B571
:103FC000074D044604D1286883680D215B68984733
:103FD00028688368E1B25B689847204638BD00BF17
:103FE000580B002070B5056916460C4661B9224988
:103FF000224A2348242304F03CFE224804F039FEE0
:104000001E48242104F02EFE636863B91E491B4A32
:104010001B48252304F02DFE1C4804F02AFE1748F7
:10402000252104F01FFE6B685BB100229C4212D177
:104030002368A96852B9A1426B6000D1AB6000232C
:1040400023606EB9002070BD0B46EFE7A1421360FC
:1040500008BFAA60F3E719681A460029F4D13EB1F7
:10406000A8686B6823606C600028EBD1AC60EAE75D
:104070006FF01500E7E700BF1EAE0000F1AD0000D5
:10408000EF9B000027AE000036AE000048AE0000F7
:104090007FB50E464168087B06F01F04B2F5001F8D
:1040A00044EA40144FF0000504D1204601F060FBC3
:1040B000002053E0B2F5800FCDE9025550D1B3F1A5
:1040C000007F0CBF0423052389688DF80830F14078
:1040D00011F0010155D1B2F1A07F52D166094AD049
:1040E0004FF6FF73012E08BF194604F01F05E94083
:1040F000CA070BD42B492C482C4A40F2292304F040
:10410000B8FD2A4840F2292104F0ACFD6EB1012E21
:1041100034D027492448254A40F22E2304F0A9FD33
:10412000224840F22E2104F09DFD4FF0A04305F5FA
:10413000E07553F82530DB0723D40DF10705294638
:10414000204601F039FA1B4B984219D1284601F05C
:1041500095FA194B984213D06FF00B0004B070BD64
:10416000B3F1C06F05D0B3F1007F0CBF0223012370
:10417000AAE70323A8E74FF0FF31B6E70F4BD6E7D6
:1041800003950023194602AA204601F0EDF80A4BD8
:10419000984204D10121204601F076FA88E76FF0B9
:1041A0000400DBE792AE0000EF9B00005FAE000072
:1041B000C59C00000400AD0B0000AD0B00030050D7
:1041C00010B501F04BFA044668B901F01FFA084B2C
:1041D00098420AD10748214601F0E8F92246052114
:1041E0000620FEF74DFC002010BD6FF00400FBE739
:1041F0000000AD0BF941000043092DE9F04703D061
:10420000012B2ED0BDE8F087174F3B695C68002C6E
:10421000F8D000F01F0001262568DFF85080DFF895
:104220005090DFF850A08640A3681E4214D0636807
:1042300063B9494645234246504604F01AFD0E48EC
:1042400004F017FD4521404604F00CFDD4E901328D
:104250002146324038469847002DD3D02C462D6851
:10426000E2E7064FD1E700BF2C960000F1AD000059
:10427000B5AE0000EF9B000048AE000014960000B1
:104280002DE9F04347683B7B01F01F0585B00E46E2
:1042900045EA43151446CAB902A9284601F08CF92B
:1042A0000446284601F08EFA494B984204D06FF03C
:1042B000040005B0BDE8F083844205D19DF80800F4
:1042C00001F0D6F9A042F2D10020F2E74FF0000948
:1042D0000DF103013046CDE9029901F06DF94B462D
:1042E000804602AA4946284601F03EF8384B9842DB
:1042F00002D06FF01500DCE7804503D19DF8030084
:1043000001F0B6F9A3034FD540F20663234040F213
:10431000062293423AD00CD8062B15D004D89BB174
:10432000022BE6D104230FE0B3F5007FE1D1012396
:104330000AE040F2024293422AD0B3F5C06F29D07E
:10434000B3F5806FD5D102238DF8043084F4803327
:10435000C3F30043E0068DF8053054BFC4F34013A7
:10436000032321038DF8063016D57A680123B34064
:10437000C2F80835002201A9284601F0A3F8144B21
:10438000984214BF6FF01500002092E70723DBE787
:104390000523D9E70323D7E7620341BF01237A68E6
:1043A000B340C2F80C35E5E7E3064FF0000354BF15
:1043B000C4F3401403241A4601A928468DF804408A
:1043C00000F0D2FF024B98423FF47EAF91E700BF6E
:1043D0000000AD0B7FB50BAB05930393054B029328
:1043E0000023CDE9003301221846FDF74DFF07B049
:1043F0005DF804FBCFAE0000F0B54B79012B26D061
:10440000032B21D110268B79032B1DD1CC790CB134
:10441000012C19D10A7912B1022A15D10E220B688A
:104420004568B3F5164F2D6865D02DD8B3F5165FE6
:1044300064D016D8B3F5966F62D00AD8B3F5967FDC
:1044400061D0B3F5167F61D06FF0850052E0002691
:10445000D9E7B3F5166F5CD0B3F5965FF4D1374B5F
:104460003CE0B3F5E14F57D007D8B3F5615F55D0C5
:10447000B3F5964FE8D1324B30E047F61227BB42F6
:10448000E2D14FF4000329E0B3F5613F48D013D8DF
:10449000B3F5963F47D009D84DF6C027BB4244D06C
:1044A000B3F5614FD0D14FF46B0317E0B3F5E13FA3
:1044B000CAD14FF0EB7311E0B3F5612F38D008D8B3
:1044C000204FBB4237D0B3F5E12FBDD14FF0E863A9
:1044D00004E01D4FBB42B7D14FF080530069C5F8CF
:1044E0002435031D03C934432243C5F86C2583E8F2
:1044F00003000020F0BD4FF41D03EFE7134BEDE781
:104500004FF49E23EAE74FF4A033E7E74FF41C3360
:10451000E4E74FF41D23E1E70D4BDFE70D4BDDE74B
:104520004FF06C73DAE70C4BD8E74FF46503D5E72F
:104530004FF07063D2E74FF08063CFE700B0130015
:1045400000A04E0090D0030040420F000050270012
:1045500000C0750000F03A0000903A012DE9F043E8
:10456000D0F804800669D8F80050D8F80C9087B0CD
:104570000021C5F800150746306005AA484604F03A
:10458000BDFD041E25DB059BD9F8002019791868AC
:1045900004F00BFE041E1CDB311D3846FFF72CFF18
:1045A0000446B0B9D8F80430990729D506F11200AD
:1045B00001F004FA274B98420FD0274B0094CDE925
:1045C00001432046234625490122FFF703FF6FF0F0
:1045D0000404204607B0BDE8F083B07CC30003F1BB
:1045E000804303F5F83305F10C0205F59071C3F82B
:1045F0001015C3F814251A4A01238340C2F8043564
:104600000823C5F8003598F808305BB9C5F81031B3
:10461000D5F8103106F11103C5F834350123C5F87A
:1046200038352B60D8F804309A075CBF4FF480729D
:10463000C5F80423DB0644BF4FF48003C5F80433F8
:1046400010360023C5F84465C5F848350123AB6032
:10465000EB60BEE70000AD0BCFAE00005498000049
:1046600000F00140F8B5066905460F4604F011FF59
:1046700010B92C4B1B7883B94FF04003EFF3118432
:1046800083F31288BFF36F8F686804F0CBFC28BBFC
:1046900084F31188BFF36F8FEEE76424686804F039
:1046A000C1FC70B9012004F034FE013CF6D10021B8
:1046B000212003F01BF9F0E784F31188BFF36F8F1B
:1046C000F5E74FF04003EFF3118483F31288BFF353
:1046D0006F8F686804F0A6FC0028EDD006F8107F04
:1046E00069680B680122C3F84465C3F848250022B5
:1046F000C3F82021D3F82001C3F85821D3F858215A
:104700004A68D20641BF0822C3F800254FF4800250
:10471000C3F8042301229A6084F31188BFF36F8FDA
:10472000F8BD00BF8212002070B5012383400E4AFD
:10473000BFF35B8FDC4352E8001F01EA040542E847
:104740000056002EF7D1BFF35B8F4FF480328240CA
:104750000648C0F80823BFF35F8FBFF36F8F0B428B
:1047600014BF0120002070BD780B00200010014014
:104770001849F8B5044622F07F450868C1E90023CE
:10478000A5F50013101AB3F5400F21D2124B1B6888
:104790001A0A1B065E19114B42F10007C3E90067B4
:1047A000012603F0A7FBA30003F1804303F5883340
:1047B000D3F84025AA420AD11EB94FF40002C3F82B
:1047C0004025074A4FF48033A340C2F84433F8BD74
:1047D0000026E6E7F80300207C0B0020E003002021
:1047E0000010014011B3BFF35B8F0123104A8340D7
:1047F00052E800CF4CEA030C42E800C10029F7D18F
:10480000BFF35B8F0B4A4FF480338340C2F804330D
:10481000094BBFF35B8F1B68BFF35B8FC340DB07A4
:1048200042BF064B4FF40032C3F80021704700BF6F
:10483000780B002000100140740B002000E100E024
:104840000D4B1868010A0006BFF35F8F0B4BD3F8BE
:104850000435181841F10001B3F5801F0AD2084B46
:10486000D3E90023904271EB030303D210F180706F
:1048700041F10001704700BF7C0B00200010014097
:10488000E00300202DE9F04F85B016469846054616
:10489000FFF74AFF0090FFF7D3FFB04271EB080328
:1048A00076D2454B301A68EB0101984271F1000154
:1048B0007FD2424B03EB0513D3E902ABD84508BFC7
:1048C000564550D04FEA850909F1804905F1500756
:1048D00009F58839BF004FF48033AB40BFB226F0F2
:1048E0007F4207F180470193D9F84005344B07F523
:1048F00088371446D3F80415401A20F07F4021F081
:104900007F4C0128C9F840C507D1CDE90221132009
:1049100004F009FEDDE90221294B01F1020CA4EBB0
:104920000C0020F07F40B0F5000F88BF64460020E7
:10493000386038680198C3F8440324F07F40C9F810
:104940004005D3F80405814206D0201A023820F031
:104950007F40B0F5000F19D8A41A24F07F4414EB5F
:10496000060A48F1000B15490E982B0101EB0512C0
:10497000C2E902ABC8500F9B53600024284600993F
:10498000FFF730FF204605B0BDE8F08F2046B1E7C5
:1049900001230C4ABFF35B8FAB4052E8000F184372
:1049A00042E800010029F8D1BFF35B8FB246C3464D
:1049B000D9E76FF01504E1E701000001E8030020EA
:1049C00000100140740B002073B5194B194D0024E1
:1049D0004FF0FF304FF0FF31C5F80845C3E9020141
:1049E0004FF48033C5F80433134B02264FF40032E2
:1049F0000121C5F804631120C3F880212246FEF787
:104A00003FF81120FEF720F80C4A0123AB602B6021
:104A100013600B4B0B4A0093019400232046FFF7D1
:104A200031FF3046FFF70EFA204602B070BD00BFDE
:104A3000E80300200010014000E100E0780B0020B6
:104A400071470000FFFF7F002DE9F34D2C4CD4F897
:104A5000043399070BD5D4F8043143B1294A002314
:104A6000C4F80431D4F80431136801331360EFF350
:104A7000108372B6D4F80423D2032DD5BFF35B8F15
:104A8000214A52E8001F21F0010042E80005002DF4
:104A9000F7D1BFF35B8F11B9D4F84021E2B1002503
:104AA000C4F84051D4F8402183F31088FFF7C8FEC2
:104AB000EFF3108272B6154BD3E90267B042B941E9
:104AC0000FD2294682F3108841B1CDF800803246DA
:104AD0003B460020884701E083F3108802B0BDE820
:104AE000F08D4FF0FF3A4FF0FF3BD3E90018C3E9D8
:104AF00002AB1D604FF48033C4F84833E2E700BFD7
:104B0000001001407C0B0020740B0020E803002003
:104B1000431C13B521D0012821DDB0F5000F20DAA8
:104B2000441EFFF78DFE104BD3E90013421AB2F575
:104B3000000F0E4828BF002401322244824228BFC1
:104B4000024652184FF0000009490190009143F1CC
:104B50000003FFF797FE02B010BD0448E0E7002411
:104B6000DFE7024CDDE700BFF8030020FFFF7F0016
:104B70007147000008B5FFF763FE024B1B68C01ABF
:104B800008BD00BFF80300200268530910B50446B1
:104B90002CD0012B4FF6FF7318BF002302F01F0229
:104BA000D340DB070BD414491448154A40F229239B
:104BB00004F05FF8124840F2292104F053F823680A
:104BC00003F01F025B0922600DD0012B11D00D49AB
:104BD0000A480B4A40F22E2304F04BF8084840F2F2
:104BE0002E2104F03FF84FF0A04010BD4FF0FF33EE
:104BF000D4E70548F9E700BF92AE0000EF9B000044
:104C00005FAE0000C59C0000000300507FB50BABF9
:104C100005930393054B02930023CDE90033012252
:104C20001846FDF731FB07B05DF804FB0CAF000040
:104C30001FB5FDF7CDF80024064B02932046CDE9C1
:104C40000044054923460122FFF7E0FF2046FEF716
:104C50005DFD00BF0CAF00001C9800004FF08053BA
:104C6000D3F83021082A06D1D3F83431052B02D8E5
:104C7000024AD05C70470020704700BF2FAF000091
:104C8000024AD2F80034002BFBD0704700E001400C
:104C900010B504F034FB40B14FF080430022C3F85C
:104CA0000C21C3F81021C3F8382504F028FB002894
:104CB00046D04FF08052604BD2F80414C3F8201550
:104CC000D2F80814C3F82415D2F80C14C3F8281528
:104CD000D2F81014C3F82C15D2F81414C3F83015F8
:104CE000D2F81814C3F83415D2F81C14C3F84015C0
:104CF000D2F82014C3F84415D2F82414C3F8481588
:104D0000D2F82814C3F84C15D2F82C14C3F8501557
:104D1000D2F83014C3F85415D2F83414C3F860151F
:104D2000D2F83814C3F86415D2F83C14C3F86815E7
:104D3000D2F84014C3F86C15D2F84424C3F8702597
:104D4000FFF78CFF18B13D4B3D4AC3F88C26FFF7A7
:104D500085FF18B13B4BFB22C3F81825FFF77EFFF8
:104D600070B14FF080414FF08053D1F8E42ED3F86A
:104D7000583222F00F0203F00F031343C1F8E43E50
:104D8000FFF76CFF20B1304B4FF40072C3F84026A0
:104D900004F0B5FA48B14FF08043D3F80024D207AD
:104DA00044BF6FF00102C3F800244FF08053D3F8E2
:104DB0003021082A0ED1D3F83431052B02D8234AEA
:104DC000D35C3BB14FF01023D3F808224FF080435F
:104DD000C3F858254FF01023D3F80022002A03DB34
:104DE000D3F80432002B22DA194901234FF01020A6
:104DF000C1F804351224FFF743FFC0F80042FFF763
:104E00003FFFC0F80442FFF73BFF0023C1F8043521
:104E1000FFF736FFBFF34F8F0E490F4BCA6802F4FE
:104E2000E0621343CB60BFF34F8F00BFFDE70B4B36
:104E30000B4A1A6010BD00BF00C000400050004087
:104E40004881030000F000400090024029AF0000BC
:104E500000E0014000ED00E00400FA05F000002051
:104E60000090D00370B501250268BFF35B8FB2FAE2
:104E700082F3C3F11F03DBB205FA03F422EA040450
:104E800050E8006F964204D140E8004CBCF1000F9E
:104E9000F6D1BFF35B8FE7D101480B7070BD00BF47
:104EA0000000AD0B0368CB40DB0710B514D4012321
:104EB0008B400268BFF35B8F43EA020150E8004F6A
:104EC000944204D140E8001CBCF1000FF6D1BFF3BE
:104ED0005B8FEED1014810BD0148FCE70000AD0B2F
:104EE0000400AD0BF7B5044670B1012831D031494B
:104EF0003148324AD82303F0BCFE3048D82103B0F1
:104F0000BDE8F04003F0AEBE4FF080430222C3F88C
:104F10000823C3F80401D3F804210122DA60012335
:104F20009C428DF8073014BF00250DF1070542F2B1
:104F300010774FF08046BCB1012C2CD01D491E4883
:104F40001F4A4FF44F7303F094FE1D484FF44F7106
:104F5000D5E74FF080430022C3F80803C3F80021CF
:104F6000D3F800215860DAE725B1D6F8183403F0F9
:104F700003032B60D6F81834DA0319D51DB19DF858
:104F80000730012B04D1012004F0C3F9013FD2D135
:104F9000012C0AD00CE025B1D6F80C3403F0010343
:104FA0002B70D6F80C34DB03E8D4064B00225A7180
:104FB00003B0F0BDC59C0000EF9B000035AF0000C2
:104FC00072AF0000800B002010B5044658B90B49A1
:104FD0000B480C4A40F2151303F04BFE094840F20F
:104FE000151103F03FFE084B1A7922B90122074838
:104FF0001C609A8010BD0648FCE700BFA6AF000009
:10500000EF9B000035AF0000800B00200000AD0BCF
:105010000C00AD0B08B50D4B1B795BB90C490D4865
:105020000D4A4FF4977303F024FE0B484FF4977129
:1050300003F018FE0020FDF715FD08B9FDF704FD8B
:105040004FF080430022C3F8182508BD800B0020D4
:10505000B4AF0000EF9B000035AF00002C4B1B7974
:1050600010B504465BB92B492B482C4A4FF4B47356
:1050700003F0FFFD29484FF4B47103F0F3FD7CB158
:10508000012C3AD026492448244A4FF4D37303F024
:10509000F0FDBDE8104021484FF4D37103F0E2BDAC
:1050A0004FF08042D2F81814D2F8183413F4803339
:1050B0000BD1D2F81414C90710D5D2F81C349B07B1
:1050C00008D40223C2F8043316E001F00303012BD5
:1050D00004D01BB10020FFF705FF00234FF08042F2
:1050E000C2F818350023C2F80431D2F80431022383
:1050F000C2F804330123936010BD4FF080430022B7
:10510000C3F80021D3F80021C3F804431C60F3E77F
:10511000800B0020B4AF0000EF9B000035AF000013
:10512000C59C00000A4B1B7910B504465BB90949C0
:1051300009480A4A40F2AD1303F09BFD074840F2CC
:10514000AD1103F08FFD2046BDE81040FFF7CABE49
:10515000800B0020B4AF0000EF9B000035AF0000D3
:105160004FF0804310B5D3F800216AB10022C3F894
:105170000021D3F800210122C3F80823114B5879EC
:1051800010B95A711B6898474FF08043D3F8042137
:1051900072B10022C3F80421D3F80421D3F81824F3
:1051A000D3F81814920704D10122C3F818259A6085
:1051B00010BD0222C3F80823024BBDE810401B6853
:1051C00001201847800B0020034B083033F81000F3
:1051D000C0F34010704700BFF4000020044B0830BB
:1051E00033F8100010F01C0018BF0120704700BFFA
:1051F000F4000020034B083033F81000C0F34000E7
:10520000704700BFF400002070B500F108030C4C9B
:1052100034F81330DA0505460E4607D5C3F34323A9
:1052200004EBC30254F8333052689847A3682BB19B
:10523000E26831462846BDE87040184770BD00BF9F
:10524000F4000020194A083010B532F81030D905A2
:105250001DD5C3F3432123F4F85322F8103002F193
:105260000E04002034F8023F13F4807F03D0C3F310
:10527000432399420BD001303028F3D1002342F868
:1052800031300B48FFF70EFE0A4B984200D110BD9B
:1052900009490A480A4A4FF4997303F0EAFCBDE849
:1052A000104007484FF4997103F0DCBCF400002073
:1052B000680100200000AD0B36B00000EF9B00003D
:1052C000D2AF000038B50246FFF77EFF094C02F16D
:1052D000080540B134F8153007495B0B03F5A2739C
:1052E000002041F823001046FFF7ACFF002324F80C
:1052F000153038BDF40000200060004010B50446B1
:10530000006804F008F858B912491348134A40F2EB
:10531000292303F0AEFC114840F2292103F0A2FC3E
:10532000236803F01F025B0922600DD0012B0ED011
:105330000B490948094A40F22E2303F09AFC07481A
:1053400040F22E2103F08EFC4FF0A04010BD054826
:10535000FCE700BF92AE0000EF9B00005FAE0000D4
:10536000C59C000000030050F0B5044685B0174608
:105370001D46F1B103F0E0FF10B14D4805B0F0BD9E
:105380000B46CDE900008DF80E008DF80F000DF1F1
:105390000F020DF10E01204603F0DDFF454A04F136
:1053A000080132F8113023F0020343F0010322F820
:1053B000113097B120463E787A68FFF71BFF80B125
:1053C000002ADAD13B4A04F1080132F8113023F007
:1053D0001C0343EA860322F81130002D3DD13648E4
:1053E000CCE7344F04F1080C37F81C1021F02001F1
:1053F000C904C90C27F81C10002AE3D0032EBCD81E
:1054000013782EB92D4A03F5A27342F82360D9E729
:105410009A0002F1804202F5C04241EA4331D2F8DB
:10542000100520F00300C2F81005D2F8100520F492
:105430004F3020F44070C2F81005D2F810E5200279
:1054400000F47C504EEA064E40EA0E0041F0200186
:1054500027F81C10C2F81005B4E7D5E9006720460C
:10546000FFF7F0FE002EBAD0124D2B689E4204D1F9
:105470006B689F4201D100220AE011480DF10F0133
:10548000FFF7F0FC0C4B98427FF478AF9DF80F20AB
:1054900045F8326005EBC20308345F6035F814301C
:1054A00043EA422343F4807325F8143097E700BFA2
:1054B0000400AD0BF40000200000AD0B00600040C4
:1054C00068010020F0B5044685B0154621B3FFF70A
:1054D00091FE20B92046FFF777FE00285ED12046D6
:1054E000FFF77CFE10B14B78012B57D001238DF8CC
:1054F0000F300023CDE900134A1C8B1C20460DF110
:105500000F0103F028FF264A04F1080132F8113098
:1055100043F0030322F8113015B9224805B0F0BD5D
:105520002046FFF767FEC8B31D4E95F800C004F192
:105530000807614636F81700890020F0200001F1C5
:105540008041C00401F5C041C00C26F817000023BB
:10555000C1F810356A78002ADFD0D1F81035AD785F
:1055600023F4991323F4F853C1F81035D1F810E55A
:10557000230203F47C53120402F4403243EA0E0384
:1055800013432A0502F4801240EA4C30134340F0E2
:10559000200026F81700C1F81035BEE70248BDE725
:1055A000F40000200000AD0B0400AD0B014BC3E97B
:1055B00002017047F400002038B504460D4659B981
:1055C0000C490D480D4A40F2352303F052FB0B48BD
:1055D00040F2352103F046FB2046FFF7F5FD38B1D8
:1055E000074B0848083433F814305B0B2B7038BD78
:1055F0000548FCE74AB00000EF9B0000D2AF000076
:10560000F40000200000AD0B0400AD0B38B50F4CCA
:1056100094F87850BDB96022294604F1100003F0D7
:1056200015FC0620FDF710FA094B0A48C3F87C5117
:10563000D3F87C214FF00042C3F80423012384F8FF
:105640007830636738BD0448FCE700BFF4000020F1
:10565000006000400000AD0B0500AD0B034B93F85C
:105660007800003818BF0120704700BFF400002008
:1056700001460148FFF716BC6401002001460148BD
:10568000FFF7F0BB64010020F7B504460D46FFF7B5
:10569000A5FD58B930493148314A40F2DF3303F0B3
:1056A000E8FA2F4840F2DF3103F0DCFA2046FFF73A
:1056B0008BFD2C4E04F1080718B32046FFF79AFD26
:1056C0000246F0B936F81700410B084603F03FFEDA
:1056D00000F1804303F5C0431A601B688B0003F19F
:1056E000804303F5C043D3F8102542F00102C3F80C
:1056F000102525B11C4A01238B40C2F8043303B0A6
:10570000F0BD5DB919491548154A40F2EE3303F072
:10571000B0FA134840F2EE3103F0A4FA36F817302D
:10572000C3F38203042B12D0052B12D001A80194DD
:10573000FFF7E4FD019BD0F81015D94001F00101FD
:105740000231204603B0BDE8F04003F051BE032112
:10575000F7E70221F5E700BF54B00000EF9B00001F
:10576000D2AF0000F40000200060004069B00000EB
:1057700008B50246FFF728FDC8B11046FFF73AFD0D
:10578000A8B908320D4B0E4933F8123001225B0BD9
:105790009A409B0003F1804303F5C043C1F80823FE
:1057A000D3F8102522F00302C3F8102508BDBDE888
:1057B00008400021104603F01BBE00BFF40000208B
:1057C000006000400E4B00F1080213B533F81230B0
:1057D000DB07044611D5FFF7CBFF2046FFF772FD2C
:1057E00001A80194FFF78AFD019B03F5E0730222F3
:1057F00040F82320034802B010BD0348FBE700BF78
:10580000F40000200000AD0B0400AD0B2DE9F04FBB
:10581000654B66486649002687B0012234461D68FC
:1058200035B1D0F8045315421EBF1C601D681643E5
:1058300004338B424FEA4202F1D1DFF87081D8F88D
:105840007C31002B00F093804FF0A043D3F820254B
:105850000492C3F82025D3F820280592C3F8202805
:1058600000270DF110097B0100934FF0010A4BE076
:10587000009B504A94FAA4F4B4FA84F41C44E0085F
:1058800004F1080304F0070C32F8133019F8002073
:1058900003940AFA0CFC22EA0C02990809F8002089
:1058A00003A8C3F382050191FFF728FD039A01992C
:1058B00002F5E0724B0750F82220AB46C2F30142DA
:1058C00029D559462046D5B2FFF79EFC03A803947C
:1058D000FFF714FD039B03F5E07350F82330C3F387
:1058E00001439D4207D10021204603F081FD294656
:1058F000204603F07DFD03A80394FFF7FFFC039B04
:105900000AFA03F3C0F8203559F82740002CAFD12C
:10591000CFB90127A7E7022A0CBF032102212046A5
:10592000019203F065FD032D04D0019A022A06D1ED
:10593000012DE0D159462046FFF766FCDBE7032A3C
:10594000D9D1022DF5E74FF0A042C8F87C41D8F834
:105950007C311949D2F820350493C2F82035D1F8AA
:10596000202505921343C1F820257FF479AF012447
:1059700016B907B0BDE8F08F96FAA6F3B3FA83F331
:1059800004FA03F29B0003F1804303F5C04326EAC7
:105990000206D3F81005D3F81015C0F30520C1F3A3
:1059A0000141FFF731FCE3E7006100400060004087
:1059B00020610040F400002000030050014601482F
:1059C000FFF750BA7001002010B5114C114A12496E
:1059D000032323616361114BA261E3614FF4806390
:1059E00023620023A3626362E36222660C4A62665A
:1059F000E01D1022A2662367E366636703F0F5F9F2
:105A00000849204603F0F1F92023A37110BD00BF1F
:105A1000880B002074B000007DB00000820E0020D2
:105A2000720E002081B000002DE9F84F244F4FF096
:105A3000180B14460BFB00720646936A556AAB427C
:105A4000884636D8D2F820A0AAEB050909F1FF3222
:105A5000944212D84FF0180906FB09933B4409FB06
:105A6000067958682246414628442C4403F0E3F95D
:105A7000C9F824400120BDE8F88F13449C421CD88B
:105A800000FB0BBBBB444A46DBF804002C44284413
:105A900003F0D1F9B4EB0A0406D0DBF80400224687
:105AA00008EB090103F0C7F9182303FB06735C62D6
:105AB000E0E7013B5B1BA342CCD20020DBE700BF49
:105AC000880B0020034B182202FB00339A6A586AA5
:105AD000801A7047880B00200E4B70B553F8204099
