:10000000808B00202541000077AA0000F940000005
:10001000F9400000F9400000F94000000000000035
:10002000000000000000000000000000E1390000B6
:10003000F9400000000000008D390000F940000088
:10004000913A0000913A0000913A0000913A000084
:10005000913A0000913A0000913A0000913A000074
:10006000913A0000913A0000913A0000913A000064
:10007000913A0000913A0000913A0000913A000054
:10008000913A0000913A0000913A0000913A000044
:10009000913A0000913A0000913A0000913A000034
:1000A000913A0000913A0000913A0000913A000024
:1000B000913A0000913A0000913A0000913A000014
:1000C000913A0000913A0000913A0000913A000004
:1000D000913A0000913A0000913A0000913A0000F4
:1000E000913A0000913A0000913A0000913A0000E4
:1000F000913A0000913A0000913A0000913A0000D4
:1001000001F0FF01102A2BDB10F0070F08D010F8C8
:10011000013B013A8B422DD010F0070F42B3F6D1CC
:10012000F0B441EA012141EA014122F007047FF0E5
:1001300000070023F0E80256083C85EA010586EA3C
:10014000010685FA47F5A3FA87F586FA47F6A5FA78
:1001500087F68EB9EED1F0BC01F0FF0102F0070284
:1001600032B110F8013B013A83EA010313B1F8D12F
:100170000020704701387047002D06BF3546033810
:10018000073815F0010F07D1013015F4807F02BF49
:10019000013015F4C03F0130F0BC0138704700BF9A
:1001A00081F0004102E000BF83F0004330B54FEA28
:1001B00041044FEA430594EA050F08BF90EA020F95
:1001C0001FBF54EA000C55EA020C7FEA645C7FEA28
:1001D000655C00F0E2804FEA5454D4EB5555B8BF4B
:1001E0006D420CDD2C4480EA020281EA030382EABC
:1001F000000083EA010180EA020281EA0303362D4E
:1002000088BF30BD11F0004F4FEA01314FF4801C20
:100210004CEA113102D0404261EB410113F0004F32
:100220004FEA03334CEA133302D0524263EB4303E9
:1002300094EA050F00F0A780A4F10104D5F1200E87
:100240000DDB02FA0EFC22FA05F2801841F10001E2
:1002500003FA0EF2801843FA05F359410EE0A5F1B6
:1002600020050EF1200E012A03FA0EFC28BF4CF0E7
:10027000020C43FA05F3C01851EBE37101F000459D
:1002800007D54FF0000EDCF1000C7EEB00006EEBAA
:100290000101B1F5801F1BD3B1F5001F0CD3490834
:1002A0005FEA30004FEA3C0C04F101044FEA44528B
:1002B00012F5800F80F09A80BCF1004F08BF5FEA12
:1002C000500C50F1000041EB045141EA050130BDF2
:1002D0005FEA4C0C404141EB0101013C28BFB1F504
:1002E000801FE9D291F0000F04BF01460020B1FA4F
:1002F00081F308BF2033A3F10B03B3F120020CDA22
:100300000C3208DD02F1140CC2F10C0201FA0CF0FF
:1003100021FA02F10CE002F11402D8BFC2F1200C64
:1003200001FA02F120FA0CFCDCBF41EA0C0190401A
:10033000E41AA2BF01EB0451294330BD6FEA040463
:100340001F3C1CDA0C340EDC04F11404C4F120024E
:1003500020FA04F001FA02F340EA030021FA04F360
:1003600045EA030130BDC4F10C04C4F1200220FAB7
:1003700002F001FA04F340EA0300294630BD21FAF5
:1003800004F0294630BD94F0000F83F4801306BFBB
:1003900081F480110134013D4EE77FEA645C18BFAF
:1003A0007FEA655C29D094EA050F08BF90EA020F46
:1003B00005D054EA000C04BF1946104630BD91EA3E
:1003C000030F1EBF0021002030BD5FEA545C05D141
:1003D0004000494128BF41F0004130BD14F5800480
:1003E0003CBF01F5801130BD01F0004545F0FE41F4
:1003F00041F470014FF0000030BD7FEA645C1ABF29
:10040000194610467FEA655C1CBF0B46024650EA5F
:10041000013406BF52EA033591EA030F41F400218B
:1004200030BD00BF90F0000F04BF0021704730B511
:100430004FF4806404F132044FF000054FF00001E6
:1004400050E700BF90F0000F04BF0021704730B5A7
:100450004FF4806404F1320410F0004548BF40427C
:100460004FF000013EE700BF42004FEAE2014FEAD1
:1004700031014FEA02701FBF12F07F4393F07F4FAC
:1004800081F06051704732F07F4208BF704793F0AF
:100490007F4F04BF41F40021704730B54FF46074C2
:1004A00001F0004521F000411CE700BF50EA0102C5
:1004B00008BF704730B54FF000050AE050EA01026E
:1004C00008BF704730B511F0004502D5404261EBDE
:1004D00041014FF4806404F132045FEA915C3FF41F
:1004E000D8AE4FF003025FEADC0C18BF03325FEABC
:1004F000DC0C18BF033202EBDC02C2F1200300FA6D
:1005000003FC20FA02F001FA03FE40EA0E0021FA91
:1005100002F11444BDE600BF70B54FF0FF0C4CF47F
:10052000E06C1CEA11541DBF1CEA135594EA0C0F31
:1005300095EA0C0F00F0DEF82C4481EA030621EA6C
:100540004C5123EA4C5350EA013518BF52EA0335A7
:1005500041F4801143F4801338D0A0FB02CE4FF059
:100560000005E1FB02E506F00042E0FB03E54FF089
:100570000006E1FB03569CF0000F18BF4EF0010E81
:10058000A4F1FF04B6F5007F64F5407404D25FEA7D
:100590004E0E6D4146EB060642EAC62141EA555130
:1005A0004FEAC52040EA5E504FEACE2EB4F1FD0C72
:1005B00088BFBCF5E06F1ED8BEF1004F08BF5FEAF0
:1005C000500E50F1000041EB045170BD06F00046A2
:1005D00046EA010140EA020081EA0301B4EB5C044F
:1005E000C2BFD4EB0C0541EA045170BD41F4801147
:1005F0004FF0000E013C00F3AB8014F1360FDEBF6C
:10060000002001F0004170BDC4F10004203C35DA47
:100610000C341BDC04F11404C4F1200500FA05F3CA
:1006200020FA04F001FA05F240EA020001F000426B
:1006300021F0004110EBD37021FA04F642EB0601E1
:100640005EEA430E08BF20EAD37070BDC4F10C040B
:10065000C4F1200500FA04F320FA05F001FA04F2CF
:1006600040EA020001F0004110EBD37041F10001BB
:100670005EEA430E08BF20EAD37070BDC4F12005C6
:1006800000FA05F24EEA020E20FA04F301FA05F22E
:1006900043EA020321FA04F001F0004121FA04F2D6
:1006A00020EA020000EBD3705EEA430E08BF20EAA6
:1006B000D37070BD94F0000F0FD101F000464000E0
:1006C00041EB010111F4801F08BF013CF7D041EA62
:1006D000060195F0000F18BF704703F00046520066
:1006E00043EB030313F4801F08BF013DF7D043EA37
:1006F0000603704794EA0C0F0CEA135518BF95EAED
:100700000C0F0CD050EA410618BF52EA4306D1D173
:1007100081EA030101F000414FF0000070BD50EA92
:10072000410606BF1046194652EA430619D094EA1C
:100730000C0F02D150EA013613D195EA0C0F05D106
:1007400052EA03361CBF104619460AD181EA03015A
:1007500001F0004141F0FE4141F470014FF0000012
:1007600070BD41F0FE4141F4780170BD70B54FF0AD
:10077000FF0C4CF4E06C1CEA11541DBF1CEA13552D
:1007800094EA0C0F95EA0C0F00F0A7F8A4EB05040F
:1007900081EA030E52EA03354FEA013100F0888006
:1007A0004FEA03334FF0805545EA131343EA1263CF
:1007B0004FEA022245EA111545EA10654FEA002684
:1007C0000EF000419D4208BF964244F1FD0404F53D
:1007D000407402D25B084FEA3202B61A65EB030599
:1007E0005B084FEA32024FF480104FF4002CB6EB56
:1007F000020E75EB030E22BFB61A754640EA0C00D6
:100800005B084FEA3202B6EB020E75EB030E22BF15
:10081000B61A754640EA5C005B084FEA3202B6EB56
:10082000020E75EB030E22BFB61A754640EA9C0015
:100830005B084FEA3202B6EB020E75EB030E22BFE5
:10084000B61A754640EADC0055EA060E18D04FEAA3
:10085000051545EA16754FEA06164FEAC30343EA43
:1008600052734FEAC2025FEA1C1CC0D111F4801F10
:100870000BD141EA00014FF000004FF0004CB6E709
:1008800011F4801F04BF01430020B4F1FD0C88BFA8
:10089000BCF5E06F3FF6AFAEB5EB030C04BFB6EBB3
:1008A000020C5FEA500C50F1000041EB045170BDA6
:1008B0000EF0004E4EEA113114EB5C04C2BFD4EBD3
:1008C0000C0541EA045170BD41F480114FF0000E57
:1008D000013C90E645EA060E8DE60CEA135594EAD3
:1008E0000C0F08BF95EA0C0F3FF43BAF94EA0C0FD6
:1008F0000AD150EA01347FF434AF95EA0C0F7FF44B
:1009000025AF104619462CE795EA0C0F06D152EA9E
:1009100003353FF4FDAE1046194622E750EA410682
:1009200018BF52EA43067FF4C5AE50EA41047FF493
:100930000DAF52EA43057FF4EBAE12E74FEA4102F6
:10094000B2F1E04324BFB3F5001CDCF1FE5C0DD92D
:1009500001F0004C4FEAC0024CEA5070B2F1004F77
:1009600040EB830008BF20F00100704711F0804F7A
:1009700021D113F13872BCBF01F00040704741F43F
:1009800080114FEA5252C2F11802C2F1200C10FA43
:100990000CF320FA02F018BF40F001004FEAC12327
:1009A0004FEAD32303FA0CFC40EA0C0023FA02F3CB
:1009B0004FEA4303CCE77FEA625307D150EA0133A1
:1009C0001EBF4FF0FE4040F44000704701F0004071
:1009D00040F0FE4040F40000704700BF53B94AB9F0
:1009E000002908BF00281CBF4FF0FF314FF0FF3037
:1009F00000F00CB8ADF1080C6DE904CE00F090F8F1
:100A0000DDF804E0DDE9022304B07047704700BF61
:100A10004FF0FF3C06E000BF4FF0010C02E000BFCA
:100A20004FF0010C4DF804CD4FEA410C7FEA6C5CAD
:100A30004FEA430C18BF7FEA6C5C1BD001B050EA50
:100A4000410C0CBF52EA430C91EA030F02BF90EA3B
:100A5000020F0020704710F1000F91EA030F58BFFA
:100A6000994208BF90422CBFD8176FEAE37040F05C
:100A7000010070474FEA410C7FEA6C5C02D150EAFA
:100A8000013C07D14FEA430C7FEA6C5CD6D152EAB5
:100A9000033CD3D05DF8040B704700BF844610467A
:100AA00062468C461946634600E000BF01B5FFF779
:100AB000B7FF002848BF10F1000F01BD4DF808ED49
:100AC000FFF7F4FF0CBF012000205DF808FB00BF1A
:100AD0004DF808EDFFF7EAFF34BF012000205DF874
:100AE00008FB00BF4DF808EDFFF7E0FF94BF0120C1
:100AF00000205DF808FB00BF4DF808EDFFF7CEFFC2
:100B000094BF012000205DF808FB00BF4DF808ED00
:100B1000FFF7C4FF34BF012000205DF808FB00BFD1
:100B20002DE9F04786468C460846089E15467446D1
:100B30001946002B40F0C2808542B2FA82F245D9B4
:100B40004AB1C2F1200300FA02FC2EFA03F39540E9
:100B500043EA0C0C94404FEA154EA8B2BCFBFEF8D9
:100B6000230C0EFB18CC08FB00F943EA0C43994513
:100B700028D9EB1808F1FF3704D2994502D9A8F11A
:100B800002072B44A3EB0903A4B2B3FBFEFC0EFB4C
:100B90001C330CFB00F044EA0344A04214D92C1986
:100BA0000CF1FF3304D2A04202D9ACF102032C4471
:100BB000241A43EA07401EB1D44000233460736016
:100BC000BDE8F0874746DDE76346F1E792BB431B8C
:100BD00001214FEA154EAFB2B3FBFEFC200C0EFB19
:100BE0001C330CFB07F840EA0343984562D9EB1825
:100BF0000CF1FF3004D2984502D9ACF102002B442D
:100C0000A3EB0803A4B2B3FBFEFC0EFB1C330CFBEE
:100C100007F744EA0344A7424ED92C190CF1FF33DD
:100C200004D2A74202D9ACF102032C44E41B43EAEC
:100C30000040C0E7C2F1200320FA03F19540904044
:100C40002EFA03F303434FEA154EAFB2B1FBFEFC9D
:100C50000EFB1C10190C0CFB07F841EA00418845FB
:100C600004FA02F422D969180CF1FF3004D2884545
:100C700002D9ACF102002944A1EB08019BB2B1FBFF
:100C8000FEFC0EFB1C110CFB07F743EA01439F42DD
:100C90000ED9EB180CF1FF3104D29F4202D9ACF10E
:100CA00002012B44DB1B41EA004192E76046E3E787
:100CB0006146F7E76046A3E76346B7E7834206D994
:100CC00016B9002108467BE7C6E900E0F9E7B3FA68
:100CD00083F78FB9834201D3724508D8BEEB020473
:100CE00060EB030301209C461EB9002168E73846EB
:100CF000FAE7C6E9004CF8E7C7F1200CBB4022FA3E
:100D00000CF41C432EFA0CF120FA0CF3B84001430A
:100D10004FEA14490EFA07F5B3FBF9F81FFA84FEFF
:100D200009FB18300B0C08FB0EFA43EA00439A4506
:100D300002FA07F240D9E31808F1FF3004D29A45CD
:100D400002D9A8F102002344A3EB0A0389B2B3FB42
:100D5000F9F809FB183308FB0EFE41EA03418E4502
:100D60002CD9611808F1FF3304D28E4502D9A8F1BD
:100D70000203214443EA0040A0FB0298A1EB0E01CC
:100D80004145CE46434602D306D14D4504D2B9EB88
:100D9000020E68EB04030138002EA6D0B5EB0E025C
:100DA00061EB030101FA0CFC22FA07F34CEA03039E
:100DB000F940C6E9003198E74046C5E74346D9E720
:100DC00010F8012B11F8013B012A28BF9A42F7D0F5
:100DD000D01A7047034613F8012B002AFBD1181ACA
:100DE0000138704700000000F8B500240D46174692
:100DF00026462346C25CFF2A1ED00133802BF9D140
:100E000000F57D533F33002113F8012FFF2A15D041
:100E100001318029F8D1A01BFFF714FB08A3D3E907
:100E200000230AF0C8FBFFF789FD642306FB0333A8
:100E3000DB1138602B80F8BD9CB2E1E78EB2EAE7A7
:100E40000000000000C05F402DE9F84F17469046B3
:100E5000994623F000427B42DFF884A13B4342EAFB
:100E6000D373534504460D4609D8464221F000434A
:100E7000064343EAD67656458E46834608D942460F
:100E80004B4620462946FFF791F904460D4616E0E9
:100E900009F1404606F580163E4303D1BDE8F84F00
:100EA00000F0A6B84FEAA97606F0020653EA0B0B4B
:100EB00046EAD17607D1022E64D0032E66D02046B2
:100EC0002946BDE8F88F174306D1BEF1000F68DA56
:100ED00037A5D5E90045F2E752450FD1934206F117
:100EE000FF3607D1022E55D83E4B03EBC603D3E99C
:100EF0000045E4E7022E51D83B4BF6E75345E4D0DA
:100F00009B1AB3F1747F4FEA235221DAB9F1000F33
:100F100001DA3C3220DB42464B4620462946FFF7A9
:100F200025FC0AF04AFB00F063F804460D46012E4A
:100F300015D0022E17D0002EC1D01FA3D3E9002355
:100F400020462946FFF730F91DA3D3E9002316E018
:100F50001DA5D5E90045EAE700240025E7E705F1EE
:100F600000431D46ABE714A3D3E9002320462946DE
:100F7000FFF71AF902460B4611A1D1E90001FFF76C
:100F800013F982E70EA5D5E9004598E710A5D5E944
:100F9000004594E710A5D5E9004590E70024002519
:100FA0008DE709A5D5E9004589E700BFAFF30080CB
:100FB000182D4454FB21F9BF075C143326A6A13C2D
:100FC000182D4454FB210940182D4454FB21F93FAE
:100FD000182D4454FB2109C0182D4454FB21E93F2E
:100FE0000000F07FA0BC000088BC000000000000F2
:100FF0002DE9F84FBC4B21F000469E4204460D46B9
:101000008B4618D9B94B9E4201D809D140B122462E
:101010002B4620462946FFF7C9F804460D4606E050
:10102000BBF1000F40F3238193A5D5E9004520468D
:101030002946BDE8F88FAE4B9E4211D8A3F1DE736E
:101040009E420AD88EA3D3E90023FFF7AFF8A94B3D
:101050000022FFF75BFD0028E9D14FF0FF3A27E0BF
:101060000AF0ABFAA44B9E4204460D4600F2B8804B
:10107000A3F550239E4200F29C8002460B46FFF7E8
:1010800095F89C4B0022FFF78FF8002206460F468A
:101090004FF0804320462946FFF788F802460B466A
:1010A00030463946FFF762FB4FF0000A04460D4612
:1010B00022462B4620462946FFF72EFA02460B46CB
:1010C00080468946FFF728FA6FA3D3E90023064636
:1010D0000F46FFF721FA6EA3D3E90023FFF766F866
:1010E00032463B46FFF718FA6BA3D3E90023FFF71C
:1010F0005DF832463B46FFF70FFA69A3D3E90023B8
:10110000FFF754F832463B46FFF706FA66A3D3E9E9
:101110000023FFF74BF832463B46FFF7FDF964A387
:10112000D3E90023FFF742F842464B46FFF7F4F9B4
:1011300061A3D3E900238046894630463946FFF74C
:10114000EBF95FA3D3E90023FFF72EF832463B46C5
:10115000FFF7E2F95CA3D3E90023FFF725F8324655
:101160003B46FFF7D9F95AA3D3E90023FFF71CF850
:1011700032463B46FFF7D0F957A3D3E90023FFF7E8
:1011800013F832463B46FFF7C7F902460B46404686
:101190004946FFF70BF822462B46FFF7BDF9BAF197
:1011A000FF3F02460B4644D120462946FEF7FCFF8E
:1011B00033E7504B0022FEF7F7FF4E4B06460F4633
:1011C000002220462946FEF7F1FF02460B46304634
:1011D0003946FFF7CBFA4FF0010A04460D4667E7A0
:1011E000464B9E421AD2464B0022FEF7DDFF444B8F
:1011F00006460F46002220462946FFF78DF93D4B53
:101200000022FEF7D3FF02460B4630463946FFF771
:10121000ADFA4FF0020A04460D4649E702460B4676
:1012200000203849FFF7A2FA4FF0030A04460D46A2
:101230003EE7354B354E03EBCA03D3E90023FEF7F7
:10124000B3FF22462B46FEF7AFFF06EBCA06024667
:101250000B46D6E90001FEF7A7FFBBF1000F0446DD
:101260000D46BFF6E4AE01F100431D46DFE61CA5C6
:10127000D5E90045DBE600BF182D4454FB21F93FBA
:101280009C7500883CE4377E11DA22E33AAD903F4A
:10129000EB0D76244B7BA93F513DD0A0660DB13FAD
:1012A0006E204CC5CD45B73FFF8300922449C23F15
:1012B0000D5555555555D53F2F6C6A2C44B4A2BFDA
:1012C0009AFDDE522DDEAD3F6D9A74AFF2B0B33FA2
:1012D000711623FEC671BC3FC4EB98999999C93F1A
:1012E000182D4454FB21F9BFFFFF0F440000F07F8D
:1012F000FFFFDB3F0000F03FFFFFF23F00800340B5
:101300000000F83F0000F0BFB8BC0000D8BC0000EF
:101310002DE9F041114E124F124D01244FF0FF32D2
:101320004FF0FF33304606F0C5FA09F081FE8046E3
:1013300038460AF008F909F07BFEA0EB0800A0424D
:1013400007D947F6FF740023E0FB0543E40B44EAAA
:1013500043440548214609F0AFF9DFE7D8470020AC
:10136000B401002040420F0020C000002DE9F041F0
:10137000104F114D114E012409F05AFE8046384697
:101380000AF0F7F809F054FEA0EB0800A04207D9D4
:1013900047F6FF740023E0FB0543E40B44EA4344B3
:1013A0002146304609F088F900214FF4004007F04B
:1013B00063FBE1E7B401002040420F004FC0000092
:1013C00038B5064D064C4FF0FF324FF0FF3328463C
:1013D00006F070FA204609F06FF9F4E7C8470020DC
:1013E00086C000002DE9F341124F134D134E012426
:1013F00009F01EFE01AA80460DF102013846FFF7F2
:10140000F3FC09F015FEA0EB0800A04207D947F64F
:10141000FF740023E0FB0543E40B44EA4344214608
:10142000304609F049F900214FF4004007F024FB51
:10143000DEE700BFB401002040420F00C0C0000042
:10144000F0B58DB00023CDE909330B930523ADF83A
:10145000223002220DF12203012143480AF049F80B
:10146000424B18604248434C05F01AFC206028B9F2
:101470003F49414809F020F90DB0F0BD3F4809F05F
:101480001BF9206883685B6A1BB93D4808F00AFABB
:10149000F2E73C49984704460028F6D1012201466C
:1014A000394809F0A5FF01222146384809F0A0FF7C
:1014B000002600270BAB02930AAB01934FF0FF35D8
:1014C00009AB0093CDE90667314B3249049403958B
:1014D0004FF40062304805F0C1FE304B1860304BCD
:1014E00030490094CDE90667CDE90354CDE90144C4
:1014F0004FF400622C4805F0B1FE2C4B186003231A
:10150000CDE90243CDE90667CDE90044284B2949DE
:1015100004944FF40062284805F0A0FE274B1860A1
:101520000223CDE90243CDE90667CDE90044244B0F
:10153000244904944FF40062234805F08FFE234BA6
:1015400018600123CDE90243CDE90667204B21490C
:1015500021480494CDE900444FF4006205F07EFE7A
:101560001E4B186088E700BFF3C00000E84700206A
:10157000F7C0000000480020FEC000002AC10000A3
:1015800044C10000F8BC0000D8470020C847002034
:1015900011130000E075002070440020FC4700207B
:1015A000C1130000805D0020F0420020F0470020C1
:1015B0006D130000C06D0020F0430020F8470020AC
:1015C000E5130000A065002070430020F4470020D0
:1015D00033A600006055002070420020EC47002038
:1015E0002DE9F04F8DB01F46029202F00403C2F3C2
:1015F000C2020193531C04938307DDF8588005460B
:101600000E4640F02882041D30B1072909D86FF03A
:101610001B000DB0BDE8F08F01F00706341DC6F1C8
:1016200008064FF0000A4FF004097B1ECDF80CA00D
:1016300052465146CB4605B127600498002800F376
:101640002A81BC48874203D3BB488742C0F023812C
:10165000DDF808C0A4EB050E1CF0020F4FEA9E0057
:1016600000F037814FF0000C1EE131B9252816D16A
:1016700001214FF00409CB4611E06C2800F29F8055
:101680004B2822D8472800F2B18029286AD8202880
:1016900005D0A0F1230CDCF1000141EB0C0113F8A3
:1016A000010F0028E1D1611BB1F5806FC0F073819B
:1016B000A249A34AA34840F23D2309F04AF9A248AF
:1016C00009F047F940F23D21FDE0A0F14C0CBCF1DE
:1016D000200F00F28B800FF2080E5EF82CF000BF96
:1016E0009F160000ED170000ED170000ED17000039
:1016F000ED170000ED170000ED170000ED170000DA
:10170000ED170000ED170000ED170000ED170000C9
:10171000F1170000ED170000ED170000ED170000B5
:10172000ED170000ED170000ED170000ED170000A9
:10173000ED1700000D180000ED170000F117000074
:10174000F11700000D1800000D1800000D18000022
:101750009F160000F117000035180000ED1700007B
:101760009F160000A0F12A0C4FF0010E5FFA8CFCCE
:101770000EFA0CFC4FF6DA7E1CEA0E0F8FD11CF02D
:10178000625F43D11CF0010189D0013C4C44C9F196
:10179000000C04EA0C04002D65D0ABEB050CA4444E
:1017A0006645FFF434AF73286FD0BBF1040F4AD104
:1017B00058F8040B206004344FF0040B6FE7A0F1DD
:1017C0006E0C5FFA8CFCBCF10C0F0FD84FF0010EC1
:1017D0000EFA0CFC1CF0250F2FD140F2824E1CEAB1
:1017E0000E0F05D11CF4825C7FF443AF002156E755
:1017F00013F8011C6C2924D113F8021C6C294FF03A
:1018000000011BD14FF00809CB46BEE708F10708DD
:1018100028F007080734F8E8020124F007043DB176
:10182000DDF814E0A644B6453FF6F1AEC4E9000188
:10183000083400214FF008091DE700214FF004098A
:10184000E2E70021A1E7BBF1080F40F0968008F124
:10185000070828F00708F8E802BCC4E900BC08340F
:101860004FF0080B1BE773280FD0BBF1040F02D118
:1018700008F104089FE7BBF1080F7ED108F10708C3
:1018800028F0070808F10808E9E7049858F8047BED
:1018900001380490CFE60298800746D5A4EB050EE8
:1018A0004FEA9E004FF0010CBEF5007F1FD3234985
:1018B000234A24484FF4F87309F04BF8234809F001
:1018C00048F84FF4F8711E4809F03CF86FF0150025
:1018D0009FE60F2A0DD8002D3FD0C0B202F1300C88
:1018E000EC440CF8100C0398013003901CE00F2A14
:1018F0000CD91249124A134840F2F51309F029F89D
:10190000134809F026F840F2F511DCE715B3C0B230
:10191000BCF1000FE2D002F1300CEC4460F07F002B
:101920000CF8100C0AF1010A0132C5F10800043468
:101930000590B4E688B90000CCDC0000B4DA000001
:101940005CC100008AC10000F7C10000A7C100000F
:10195000C8C10000BCF1000F01D1019808B10136E7
:10196000E2E73846CDE906210593FFF733FA023660
:10197000DDE90621059B0644D6E7384A384939484F
:1019800040F2312308F0E5FF5946374808F0E1FFFF
:1019900040F2312197E71DB9A6F10804601838E636
:1019A000019BC1F3870C9DF80C100BB90846194632
:1019B00085F800C06870E97085F802A0BAF1000FE0
:1019C00006D008A84FF0000CC5F1010E624509D100
:1019D0000DF1200808EB0209C5F1010BC14511D139
:1019E000601B16E610F8011B0B0608D504EB0E0869
:1019F000464501F07F01FFF40AAE04F8011B0CF12B
:101A0000010CE3E7BAF1000F03D098F90020002A97
:101A10001CDB019BEBB998F8002055F8227045F8C3
:101A200022303846FFF7D6F9421C04EB0B01114473
:101A30008E42FFF4ECAD98F8001004F8011B394613
:101A40002046029209F0BDFD029A144408F10108F3
:101A5000C4E70022E9E76FF00D00DAE55CC10000A1
:101A6000B4DA00008AC10000E2C10000436803F05C
:101A70000303032B10B50446816002D02BB1002074
:101A800000E000680023636010BD054A0549064870
:101A9000452308F05EFF0248452108F053FFEEE7BA
:101AA0000EC20000B4DA00008AC10000014B1860C9
:101AB000704700BF000000202DE9F84F858B2B07F1
:101AC0000446914669D4022905F0070500F0EE812D
:101AD000AA46D4F81880A38BB8F1000F7DDA002253
:101AE000266823F00703C4E9002243F00103A3831F
:101AF000A38B03F0070555454FF0000740F0A58183
:101B00004FF0000A002E00F0F28043F0080304F1C9
:101B1000140BA383584605F087FC68B9934A94498F
:101B20009448B92308F015FF9348594608F011FF6F
:101B30008E48B92108F006FF89F31188BFF36F8F33
:101B4000BAF1000F40F08881002E40F09E8117B15D
:101B50008A492046B8474FF02003EFF3118983F3F9
:101B60001288BFF36F8F584605F050FC68B97F4A62
:101B7000834980488E2308F0ECFE8248594608F0DD
:101B8000E8FE7A488E2108F0DDFE584605F05CFC40
:101B9000A38B23F00803A3835AE001290CBF45F06F
:101BA000100545F0200585831434204605F03CFCE3
:101BB00068B96E4A6E496F48B92308F0CAFE6E488C
:101BC000214608F0C6FE6948B92108F0BBFE89F33A
:101BD0001188BFF36F8FBDE8F88F03F00702511F24
:101BE000012920D80021062A2668C4E9001116D14F
:101BF000324603E0E18B12680131E183002AF9D11A
:101C000023F0070343F00202A283204608F061FD9F
:101C100000283FF46DAF42F02002A28368E723F072
:101C200007039AB2F0E7042A1ED123F007039AB201
:101C3000A283204608F04DFD10B142F02002A2839D
:101C4000A38B03F00705002755453E4640F0FD8075
:101C5000B4F81CA01AF0100F00F01F812AF0100336
:101C6000A3830AF0070A34E7474A4849414840F24B
:101C70001B1308F06EFE444840F21B1108F062FE90
:101C8000DEE75DB142493B483F4A4FF4AB7308F091
:101C900060FE3D484FF4AB7108F054FE23685BB919
:101CA0003C493448384A40F2571308F052FE36484F
:101CB00040F2571108F046FE23691F685FB93649A4
:101CC0002C48314A4FF4AD7308F043FE2E484FF4D0
:101CD000AD7108F037FEA38B23F0070343F0060332
:101CE0009BB2062DA38340F0AD804FF000084FF06B
:101CF000000A5646002F7FF408AFA9E7022D0BD04B
:101D000026491C48204A40F25D1308F022FE1E4876
:101D100040F25D1108F016FEE38B5BB120491548D7
:101D2000194A4FF4AF7308F014FE17484FF4AF711F
:101D300008F008FE23695F685FB917490D48124A29
:101D400040F2611308F005FE0F4840F2611108F0FF
:101D5000F9FDA38B23F0070343F004039BB2042D8A
:101D6000A383C2D00026B04604256EE0D4C2000092
:101D700001C300008AC1000018C30000F11E00006A
:101D80002DC3000042C3000031C20000B4DA0000DD
:101D900053C200005FC2000082C2000099C200006E
:101DA000AFC20000012D0BD04B494C484C4A4FF4B8
:101DB000B27308F0CEFD4A484FF4B27108F0C2FD8C
:101DC00023685BB947494548454A40F2651308F026
:101DD000C0FD434840F2651108F0B4FD23699F68D7
:101DE0005FB941493D483E4A4FF4B47308F0B1FD34
:101DF0003B484FF4B47108F0A5FDA38B23F0070313
:101E000043F005039BB2052DA3833FF46EAF00267C
:101E1000B046052519E0324A3449304840F26B1388
:101E200008F097FD2E4840F26B1108F08BFDA38B54
:101E300003F00702AA423FF40BAF002615463746CF
:101E4000B04602E00026B0460625A268002A3FF40C
:101E500057AE4FF0010A58E6A16800293FF474AE6E
:101E6000D1F8009000293FF46FAED1F804A04346AA
:101E70002A462046D047B9F1000F04D0D9F80030E7
:101E800049469946EEE74B46FAE7314643462A462D
:101E90002046366808F049FC56E61AF0200F3FF459
:101EA00083AE2AF02003A3830AF00705204608F03A
:101EB00010FC00283FF478AE01380428ABD801A309
:101EC00053F820F0D11A0000171E0000831C0000F8
:101ED000FD1C0000A51D0000BEC200008AC100005C
:101EE00031C200005FC2000082C20000B4DA00000C
:101EF000F8B504460D4600F114064FF02003EFF349
:101F0000118783F31288BFF36F8F304605F07EFA96
:101F100068B90C4A0C490D488E2308F01AFD0C488C
:101F2000314608F016FD07488E2108F00BFD3046BB
:101F300005F08AFAA5613A4620460121BDE8F8403D
:101F4000FFF7BABDD4C200002DC300008AC1000053
:101F500042C300002DE9F04704460F4608F0D5FBC8
:101F6000051E78DB04F114094FF02003EFF3118A0A
:101F700083F31288BFF36F8F484605F047FA68B9BC
:101F8000394A3A493A488E2308F0E3FC3948494631
:101F900008F0DFFC34488E2108F0D4FC484605F0F8
:101FA00053FAE38BA68B4FF6FF72934206F00706B7
:101FB00054D0022E24D10133E38335464FF001087B
:101FC000484605F031FA68B9274A2B492848B92311
:101FD00008F0BFFC2948494608F0BBFC2248B9215B
:101FE00008F0B0FC8AF31188BFF36F8FB8F1000FCF
:101FF00031D0002332463946204608F096FB2AE0CD
:10200000062E0ED8DFE806F004190D0D042D04008D
:1020100000233B606368ABB9C4E90077AEB13546D5
:102020000DE017491248174A40F2C91308F091FC15
:10203000144840F2C91108F085FC6FF004054FF018
:102040000008BDE71F606760E8E7524602212046AE
:10205000FFF732FD35462846BDE8F0876FF00A05E8
:10206000EDE76FF08505EAE7D4C200002DC300005C
:102070008AC1000042C3000001C3000018C3000071
:10208000BEC2000031C200002DE9F84301F1FF3962
:1020900019EA010906680F46144611D009F1FF3309
:1020A00013EA090F13D17B423B40042B1A464F46DB
:1020B00028BF04229946E4B900252846BDE8F883E4
:1020C000042914D8BDE8F843114608F0FBBB2C4A9C
:1020D0002C492D484FF4A07308F03BFC2B4808F026
:1020E00038FC27484FF4A07108F02CFCDBE70422F1
:1020F000E1E7B368B3EBD40FDED904F10B01394447
:10210000891AC908304608F08CFB80460028D3D0D5
:1021100009F1040505EBC0057B1E35441D447F42D3
:102120003D40A5EB09052C442B1F07349B1B24F0D5
:102130000704A41BB0EBD30F4FEAD3074FEAE40424
:1021400008D201463A46304608F0A2FB41463046E6
:1021500008F023FB3946304608F01AFB3844844225
:1021600007D23046224608F093FB2146304608F05D
:1021700014FB06EBC706738843F0010373809CE7EA
:102180005AC3000026C400008AC1000041C40000F8
:10219000B2F5802F2DE9F04104460E4617466CD368
:1021A0003D493E4A3E4840F2E31308F0D2FB3D4829
:1021B00008F0CFFB40F2E311384808F0C3FB043FBE
:1021C000F51D3E4425F0070526F00706761B172E61
:1021D0004FEAD6070ED83449304A314840F2F3135B
:1021E00008F0B7FB314808F0B4FB2C4840F2F3117B
:1021F00008F0A8FB2560B7FA87F4C4F12008C4F101
:102200002404A40007340023E408EB60631CBB42F1
:10221000AF600ED92649214A21484FF4017308F0D6
:1022200098FB224808F095FB1C484FF4017108F018
:1022300089FB05F10C0303EB8808002243F8042F07
:102240004345FBD1630043F001036B8005EBC40100
:102250003B1B58002A804880A91925F834404A8041
:10226000AB5305EBC70321465A8842F001022846CA
:102270005A80BDE8F04108F090BA042A9FD80D4971
:10228000064A07484FF4F57308F063FB074808F067
:1022900060FB4FF4F5718FE75EC400005AC3000085
:1022A0008AC1000074C40000C5C40000ACC40000B2
:1022B000EEC400008BC40000F0B5094E0168024670
:1022C0000A2700200B4601311C78355D6D0701D4CB
:1022D0001360F0BD07FB0043A3F13000F2E700BF3D
:1022E00096DB00002DE9F84F15469A46D378224A2E
:1022F00012F803B06F2B80460F460BF0030B29D06A
:1023000024D8582B0CBF10260A26DDF82890324618
:10231000002340463946FEF761FB092AD4B21ED895
:102320003034B045E4B277F1000709F8014D01D32C
:10233000D14511D82B789B0605D5082E15D1AB7841
:1023400043F00803AB704846BDE8F88F03F0F7038D
:10235000702BD7E70826D8E780460F46D7E7BBF1B2
:10236000010F0CBF37345734DBE7102EEBD1AB78BD
:1023700043F01003E6E700BF96DB00002DE9F04FC5
:1023800097B08246039117461C460025387808B955
:1023900028464AE37B1C2528049306D00399D0479E
:1023A0000028C0F242830135F9E11822002110A86B
:1023B00009F015F97B78252B00F0A3800023791C08
:1023C00098469E469C4618460E4611F8012B2B2A2D
:1023D00000F0C68000F2BD80202A00F0C480232ACD
:1023E00000F0C4802BB19DF8483043F040038DF8D5
:1023F0004830B8F1000F05D09DF8483043F0200375
:102400008DF84830BEF1000F05D09DF8483043F0FC
:1024100010038DF84830BCF1000F05D09DF848300E
:1024200043F008038DF8483028B19DF8483043F058
:1024300004038DF848309DF8483003F044014429E6
:1024400003D16FF386138DF848309DF84830099614
:1024500043F080032A2A8DF8483040F08C809DF8A4
:10246000493043F001038DF84930731C1A782E2A45
:102470009DF849200CBF0121002161F341028DF834
:1024800049200CD15A1C09925A782A2A40F083809C
:102490009DF8492042F004028DF8492002331A7851
:1024A0006C2A00F0A48000F28680682A00F08C80FC
:1024B0006A2A00F0A5804C2A00F0AA801A4612F879
:1024C000013B0492782B9DF849208DF84B3000F2A7
:1024D00017816D2B00F2A980692B00F21181572B17
:1024E00000F2BE80412B03D0453B022B00F2088155
:1024F0009DF84A30042262F302038DF84A3001232A
:10250000CAE0BA1C04928DF84B309DF84930DA07C6
:1025100040F1FD8054F8049BB9F1000F07DA9DF8F3
:10252000482042F004028DF84820C9F100095E07F6
:1025300040F1F68054F804BBBBF1000F80F2F58047
:102540009DF849306FF341038DF849304FF0FF3B60
:10255000EBE02D2A0DD0302A7FF444AF012333E77E
:102560004FF0010C30E74FF0010E2DE74FF001085E
:102570002AE7012028E709A8FFF79EFE099BB3423E
:102580003FF474AF9DF848201390C00F60F34102F0
:102590008DF848206AE709A8FFF78EFE9DF84830BD
:1025A0001490C3F3400242EAD07262F341038DF803
:1025B0004830099B73E7742A26D07A2A7FF47EAFCD
:1025C0009DF8492006210CE05A78682A9DF8492098
:1025D00006D1012161F3C6028DF8492002336DE76F
:1025E000022161F3C6028DF84920013366E75A786B
:1025F0006C2A9DF8492001D10421EBE70321F0E783
:102600009DF849200521ECE79DF849200721E8E7DE
:10261000BDF8482022F4F04222F0020242F4804247
:1026200042F00202ADF84820DFE76E3BD9B2012349
:102630008B4040F282410B4238D113F0240F52D12B
:10264000D8075DD59DF84A30032161F302038DF868
:102650004A3002F07803A3F140014B424B411BE0AA
:10266000A3F15801C9B2012000FA01F111F4624F3F
:102670007FF43EAF40F6010631421DD111F4043F14
:102680003ED09DF84A3060F3020302F07802402AFF
:102690008DF84A3034D000239DF84820C2F3400121
:1026A0000B4363F341028DF848202EE79DF84A3032
:1026B000022161F30203E8E79DF84A10022002F0CC
:1026C000780260F30201402A8DF84A1002BF9DF89B
:1026D000481041F001018DF84810632BDBD1131E27
:1026E00018BF0123D8E79DF84A30032161F30203A4
:1026F00012F0780F8DF84A3014BF01230023CBE786
:102700009DF8483043F001038DF84830C3E79DF948
:102710004820002AB4BFDDF84C904FF0FF3906E79F
:1027200098077FF513AFDDF850B09DF849100023EE
:10273000CDE913339DF84A3003F00703012BC1F3B1
:10274000C30133D1CB1E042B04D8DFE803F01046BD
:1027500046101000236801294FEAE372CDE91032D8
:102760000BD103F0FF0310930023119307E054F8FB
:10277000043BDA17CDE9103202E0022911D004340B
:102780009DF8483013F0030647D0049B03993A465E
:10279000504608F0C0F80028C0F247810544049F65
:1027A000F4E51AB2109243F3C033DEE7022B24D1D2
:1027B000CB1E042B04D8DFE803F018101018180003
:1027C000012954F8043B4FF0000214D00229CDE94E
:1027D0001032D5D19BB21093D2E7073424F007040E
:1027E000F4E80223CDE91023CAE754F8043B109320
:1027F00000231193C4E7DBB2BCE7042B08D10734F4
:1028000024F00704D4E900230834CDE91023B7E706
:10281000032BB5D154F8043BDDE79DF84B00782835
:10282000BDD862281CD825283FF4B8AD5828B6D1A9
:102830000DF13E030093DDE910010AAB12AAFFF788
:1028400051FDBBF1000F074680F29880002FA6D003
:102850000DF13E08A8EB0700002E4ED001304CE0F1
:10286000633815289BD801A252F820F0EB2800000D
:10287000512900009F2700009F2700009F2700008C
:102880009F270000512900009F2700009F2700007C
:102890009F2700009F270000DB2900007729000008
:1028A0009D2900009F2700009F270000C5280000E9
:1028B0009F270000772900009F2700009F27000026
:1028C00077290000BBF1000F109F0ADB59463846FC
:1028D00008F095FE07EB0008002F3FF460AF0026DC
:1028E0000BE03846FEF776FAF4E7109B8DF82830B7
:1028F00000260DF129080AAF01209DF84A3013F097
:102900001002059200F0848002305B06DDF84CB0C6
:1029100048BF149B584448BFC018B9F1000F40F39A
:1029200091809DF84820A9EB0009C2F3800350076D
:10293000069300F1878051067AD53EB1039930465F
:10294000D047002871DB069B01351E46302270E01F
:1029500019075CBFC3F300135E01DDE9102348BF14
:102960002B26002BBFF664AF524263EB4303CDE945
:1029700010232D265CE700265AE700269DF8482004
:102980000DF13E03DB1B6FF386129B458DF848204B
:102990007FF65CAFABEB0303139357E7109880B35C
:1029A0000DF13E080AABCDF8008012AA0021FFF716
:1029B00099FCBDF84A3003F0EF0343F4F04343F0D1
:1029C0001003BBF1000F0746ADF84A30D5DA0028F6
:1029D0003FF4E5AEA8EB000081E7109B07293FF626
:1029E000DEAEDFE801F00C04060C08080C0C1D70CC
:1029F000D5E61D80D3E6EA17C3E90052CFE61D6095
:102A0000CDE6DFF8BC800646A8F10507052074E78F
:102A10001A0748BF013078E70793104606920399DA
:102A2000D0470028DDE9062304DA17B0BDE8F08FAF
:102A300020224B461946002903F1FF33ECDC4D44BC
:102A40006D1A99462EB103993046D0470028ECDB29
:102A500001359DF84A30DA0601D41B0705D50399E4
:102A60003020D0470028E0DB0135059B33B10399C6
:102A70009DF84B00D0470028D7DB0135AB4405E07B
:102A800003993020D0470028CFDB0135ABEB05039D
:102A9000002BF5DC039943463A46504607F03BFFCE
:102AA0000028C2DB0544A944A9EB0503002B7FF7EE
:102AB00076AE03992020D0470028B6DB0135F3E736
:102AC0001EC5000008B54FF02002EFF3118382F31A
:102AD0001288BFF36F8F01F0F7FD034807F0ECFD9C
:102AE00000F062FEFCE700BF1FC50000F8B5064617
:102AF0000C4629B90E4D0F4B5B1B1F11BC4200DB6E
:102B0000F8BD6B685B797BB14EB90B490B480C4A39
:102B1000862307F01EFF0A48862107F013FF2B6863
:102B200031461B682846984701341035E6E700BF58
:102B300040BC000060BC000080C500008AC10000ED
:102B400048C50000014B53F82000704700BD00004D
:102B5000054A00231370054A1360054B054A1A60A5
:102B60004FF4004000F096BA315100200448002094
:102B7000040000206FA9000070B5194B194CE41A2D
:102B8000902C0BD918491948194A40F2732307F0C1
:102B9000E0FE174840F2732107F0D4FEBFF35B8FCD
:102BA000144B53E8006F721C43E800210029F8D150
:102BB000BFF35B8F1EB92511094CAE4200DB70BD1F
:102BC000237B53B123689B690BB120469847636808
:102BD00004221968204600F06FF801361034ECE743
:102BE00040BC000060BC0000D8C500008AC10000E5
:102BF00093C500000C480020F8B50C4F3D784DB946
:102C00000B4C0C4EFFF7B8FF361B3611B54202DBFA
:102C100001233B70F8BD63685B791BB123682046D4
:102C20005B69984701351034F0E700BF315100204F
:102C300040BC000060BC0000014B01221A707047CC
:102C4000305100200C4BBFF35B8F53E8001F013164
:102C500043E80012002AF8D1BFF35B8F58B1BFF3ED
:102C60005B8F064B53E8001F013943E80012002A2E
:102C7000F8D1BFF35B8F704704480020084800205C
:102C8000054B10B51B68044698470021A0602046FC
:102C9000BDE81040FFF72ABF04000020044A054B9E
:102CA0009B1AB1EBD30F34BF52F8310000207047AC
:102CB000F8BB000040BC000070B5104C0368041B5A
:102CC00024111B68013405460E46E4B263B90C4971
:102CD0000C4A0D48BB2307F03CFE0C4807F039FEB8
:102CE0000848BB2107F02EFE6B681C716B6801223F
:102CF0001E605A71BDE87040FFF79EBF40BC0000E7
:102D000058C6000000C600008AC100006EC6000060
:102D10000EB403B503AB014653F8042B04480193EA
:102D2000FFF72CFB02B05DF804EB03B0704700BF67
:102D3000A1A900002DE9F04F87B01C4601F0010366
:102D400005929DF84090BDF948A004930746884637
:102D500001F0020B01F0080607F020FE02460028F1
:102D600040D037493846FFF7D3FF0546BBF1000F87
:102D700008D018F0440F37D1324922463846FFF7C1
:102D8000C7FF0544049B53B12F4B304953F829200A
:102D90002F4B3846002A08BF1A46FFF7B9FF3EB14D
:102DA0002C4B2D4953F829203846FFF7B1FF064632
:102DB000BAF1000F12DB059B284C23B1284BB9F167
:102DC000040F08BF1C4651469DF84400FFF766FFFC
:102DD000214602463846FFF79BFF0644701907B0AC
:102DE000BDE8F08F0546C1E71E4B18680028C8D023
:102DF0001D4B4FF47A781B68B4FBF3F44FF4616118
:102E0000B4FBF0F300FB134408FB04F44FF03C0C5C
:102E1000B3FBF1F201FB1231B4FBF0FEB1FBFCF3AA
:102E200000FB1E440CFB131108FB04F40091B4FBDF
:102E3000F0F40E49CDE901E43846FFF769FFA0E759
:102E40009EC60000A2C600000CBD0000C7C6000060
:102E500090C6000020BD0000CAC6000099C6000050
:102E600095C600001448002010480020ABC60000A2
:102E7000CA0605D48B064CBF02490349FFF748BF79
:102E8000704700BF02D80000D0C600002DE9F8430B
:102E90000F460899DFF8B890044616461D46FFF71E
:102EA000E7FF4FF00008A84528DB76B33A782949B8
:102EB0002046FFF72DFF01256A0703D1244920464C
:102EC000FFF726FFB54225D27A5D22492046FFF75B
:102ED0001FFF0135102DEFD11F492046FFF718FFC6
:102EE000EEB91B492046FFF713FF0125B5422B46DB
:102EF00017D317492046FFF70BFF1DE04946204630
:102F0000FFF706FF08F10108CDE714492046FFF757
:102F1000FFFE012511492046FFF7FAFED9E70025FB
:102F20002B46FA5C0E4B0F499B5C13F0970F08BFC2
:102F30002E222046FFF7ECFE0135102D06D06B0740
:102F4000D4D103492046FFF7E3FECFE7BDE8F8837D
:102F5000DBC60000D3C60000DDC60000D9C60000F5
:102F600096DB0000DFC6000038B5CB0705460C46EF
:102F700003D5054A0549FFF7CBFE21462846BDE8A3
:102F80003840FFF775BF00BF90C60000C7C60000FD
:102F90002DE9FF470E46904636F8102B8B6812F449
:102FA000E07F07460D46C2F3821923D00A784868AD
:102FB000C2F3C202D8B13049401A40F3CF00CDE984
:102FC0000120CDF80090002241463846FFF7B2FEBE
:102FD0002B68C3F349238246B3B96C88C4F3CB048E
:102FE000F4B94A4641463846FFF7BEFF2EE04FF09F
:102FF000FF30E4E70B68C3F349236BBB4C88C4F391
:10300000CB041CB3CA460BE01C481D4933463A4664
:1030100007F010FB002822DB6C88C4F3CB0494B1CA
:103020002B68C3F349231E44102C254628BF1025C6
:103030003146CDF8008053462A463846FFF726FF32
:10304000641B2E44F0D1B9F1000FCAD1384604B048
:10305000BDE8F04707F0CCBC0A48CA46D5E70A4AA3
:103060000A490B4840F2B72307F073FC064840F2C8
:10307000B72107F067FCCFE7F8BB0000A1A900006B
:103080007D230000BDA90000E2C600001EC70000AD
:103090008AC10000074A00210123904206D8064A4F
:1030A00001B901231360054B1860704740085B00AD
:1030B0000121F2E740420F00104800201448002090
:1030C0002DE9F04F85B002AFD7E90E6A0446884675
:1030D00093469946002E4ED0C7F804A0CDF800A024
:1030E0007A6B334610210020FEF77AFA051E09DAC2
:1030F00022492348234A672307F02BFC21486721F4
:1031000007F020FC204B3A6B04F007040BF0070B90
:10311000E40044EA8B1403EA45231C431B4B03EAF7
:10312000C2431C43134617332B4423F00703ADEB74
:10313000030D0DF1080BA6B1CDF800A07A6B334654
:1031400029460BF11000FEF74BFA002809DA0B496B
:103150000B480C4A812307F0FCFB0A48812107F049
:10316000F1FB4B4622464146584607F04EFC0C37D1
:10317000BD46BDE8F08F3546C4E700BF74C7000008
:103180008AC1000047C7000000FE07000000F87F6A
:10319000F8B5074F0D4604464618B44201D12846FB
:1031A000F8BD386814F8011B8368DB699847F4E7B9
:1031B00030480020014B0020196070472C48002047
:1031C000024B034801221A7007F012BC3351002051
:1031D00054BD0000064B10B518680C46FFF7B2FC52
:1031E00021460346BDE8104002480F22184700BFA1
:1031F0002C48002054BD000008B5094B0948186050
:1032000008F09EF858B908490848094A792307F098
:10321000A0FBBDE808400648792107F093BB08BD34
:103220003048002060BA0000B3C700008AC1000027
:103230007EC70000014B01221A70704734510020F4
:10324000014B00201960704748480020024B03489A
:1032500001221A7007F0CCBB3551002084BD00005C
:10326000064B10B518680C46FFF76CFC2146034668
:10327000BDE8104002480F22184700BF4848002010
:1032800084BD0000F8B5194D07460E4604243246A9
:103290003946002003F092FCC8B101232B70144B77
:1032A0001B782BB93046F8BD5CB92C704FF0FF3459
:1032B000002003F0CBFC0028F4D02B78002BF3D1B6
:1032C000F0E7013C41F2883008F0B8F8F0E72B78DD
:1032D00013B1013C04D12C702B78002BD7D1E1E73E
:1032E00041F2883008F0AAF8F6E700BF3451002018
:1032F000355100202DE9F84305464FF02003EFF348
:10330000118683F31288BFF36F8F214804F07EF893
:1033100068B9204A204921488E2307F01AFB1C492E
:103320001F4807F016FB1B488E2107F00BFB1848BF
:103330001C4FDFF8748004F087F81C4B1C684FF0BA
:103340000C09BCB9124804F06FF868B9114A184961
:103350001248B92307F0FDFA0D49164807F0F9FAAB
:103360000C48B92107F0EEFA86F31188BFF36F8F8E
:10337000BDE8F883D4E90123002D18BF13462BB113
:1033800098F8142009FB02F2B85C98472468D8E743
:103390004C480020D4C200002DC300008AC10000A8
:1033A00042C3000054480020004F00206048002025
:1033B00001C3000018C300000A4ABFF35B8F430932
:1033C00002EB830200F01F0001238340DB4352E83D
:1033D000000F184042E800010029F8D1BFF35B8FCD
:1033E000704700BF5048002070B5194B1C7DBFF3DB
:1033F0005B8F04F01F0301229A40164B610903EB17
:103400008103D04353E8001F01EA000543E800565A
:10341000002EF7D1BFF35B8F0A4213D00E4B0F4D36
:103420008BB10C236343EA18E85C517807F072FB18
:103430000020FFF75FFF0C235C432A1900232B5168
:10344000C2E9013370BD83F31188BFF36F8FEFE7DB
:10345000004F00206848002015AB000054480020B1
:103460002DE9F843324B334A1C7DBFF35B8F630970
:103470004FEA830852F823302F4EBFF35B8F04F0DE
:103480001F0943FA09F313F0010F07460AD1014659
:10349000204600F069F828B107C80C2303FB046339
:1034A00083E807000C236343F218F55C2DB920462E
:1034B000FFF782FF2846BDE8F8837B1C10D0D2F8C6
:1034C00008C01E4D1E4A4FF400400021ECFB005185
:1034D00000232846FDF782FA0121381A05F084FD01
:1034E00004F098FC0120FFF705FFBFF35B8F154B3D
:1034F0009844012303FA09F358E8002F1A4348E8D7
:1035000000210029F8D1BFF35B8F0F4B33B10C239F
:103510006343F218F05C517807F0F0FAFFF764FFAC
:103520002046FFF749FF04F0E9FC0120C3E700BF94
:10353000004F002050480020544800203F420F0018
:1035400040420F0068480020FDAA0000054BBFF371
:103550005B8F53F82000BFF35B8F003818BF01204A
:10356000704700BF6C4800202DE9F74F884601A93D
:1035700000F042F8441E24B204EB4404DFF86C90DF
:103580000546A40025B92F46384603B0BDE8F08FA4
:10359000019B185D1F19FFF7D9FF064610BB78681D
:1035A000134A4FF4004ACC463146E0FB0AC10023DF
:1035B0006046FDF713FA8346B8680D4ACC4631469B
:1035C000E0FB0AC100236046FDF708FA094B1B68BF
:1035D0005A1C01D0834205D9B8F1FF3FD4D05844DA
:1035E0004045D1D9013DADB20C3CCBE73F420F0085
:1035F00040420F000800002008B9024B0B60002079
:10360000704700BF94BD0000014806F083BE00BFB4
:1036100094BD000010B5044618B90D4B0D485B6809
:103620009847616831F004030CD008290AD011F0E2
:10363000020108D00848214603F048FD002323601A
:103640000023636010BD2068142207F0C8FFF7E76D
:1036500054010020FAC70000884D002008B508B3C7
:103660004368042B10D101220368BFF35B8F53E83A
:10367000001F002903D143E800200028F7D1BFF341
:103680005B8F0BD1002008BD53B100684FF0FF32B3
:103690004FF0FF3303F012FF0028F3D00348F2E7A6
:1036A0000348F0E76FF4E040EDE700BFE98FFFFF6C
:1036B000EA8FFFFF08B5C0B14368042B10D1002288
:1036C0000368BFF35B8F53E8001F012903D143E870
:1036D00000200028F7D1BFF35B8F09D1002008BD7F
:1036E00043B1006803F0E4FFF8E76FF4E040F6E769
:1036F0000148F4E70148F2E7E98FFFFFEA8FFFFF97
:1037000010B5044618B9164B16485B6898476368AD
:10371000042B23D0082B21D0CBB92368BBB9124886
:103720004FF0FF324FF0FF33214603F063FC08B93E
:1037300023681BB90A4B0D485B6898472068142220
:10374000002107F04CFF636843F0020363602068C8
:1037500007F047FE636843F00103636010BD00BFDC
:1037600054010020FAC70000884D002020C8000046
:1037700008B5064906484023142207F0FFFDBDE8BE
:1037800008400449044806F025BE00BF88480020D0
:10379000884D00209CBD0000B0BD000001491022F2
:1037A0000A60704710ED00E072B6404080F3118867
:1037B000BFF36F8FBFF34F8F30BF62B6BFF36F8F12
:1037C000704700BF72B6494081F3118820BF80F373
:1037D000118862B6704700BF70B5064686B00D46C8
:1037E000002938D08B6805934B6804930B680393CA
:1037F00000241C4B1C490293012223462046CDE99C
:10380000004407F020F96B6905932B690493EB687A
:103810000393164B14490094CDE90143012223463A
:10382000204607F010F9EB690393114B0E49009401
:10383000CDE9014301222346204607F004F9AB6994
:1038400003930C4B08490094CDE901430122234620
:10385000204607F0F8F82946304606B0BDE870402B
:1038600003F048BA4DC8000020BC00007CC800002E
:10387000ABC80000BAC8000040B2002807DB044A09
:103880004109012300F01F00834042F821307047B6
:1038900000E100E0054B420900F01F0053F8222030
:1038A000012303FA00F01040704700BF00E100E080
:1038B00070B54D1C072D04460E460FD9114A12490A
:1038C0001248572307F045F811483146072322468E
:1038D00007F03FF80B48572107F034F860B2002892
:1038E000ACBF00F160400B4B4FEA4515B8BF00F08C
:1038F0000F00EDB2AABF00F561401D5480F80053DF
:1039000070BD00BFE8C800001EC900008AC10000E9
:1039100039C9000014ED00E030BFFFF7FDBF00BF64
:103920000B4A08B50B4B22F07F029A60BFF34F8F12
:10393000BFF36F8FD3F8882022F47002C3F8882079
:1039400003F06CFA05F08AF900F0E0FB03F0AAFA44
:103950000000000000ED00E0094A0A499368096888
:103960009967094958674B6843F080534B600023BF
:1039700083F31188BFF36F8F9368986F704700BF10
:10398000004F00201CBF000000ED00E012498A68D3
:103990004FF030001044EFF3098C80E8F01F202036
:1039A00080F31288BFF36F8F0C4F4FF00066CA6927
:1039B0008A603E60506F0023536780F3118804B51E
:1039C000104600F03FFCBDE8044002F1300090E8F2
:1039D000F01F8CF309887047004F002004ED00E0D1
:1039E0001EF0040F0CBFEFF30880EFF3098081692C
:1039F00011F8021C0229FFD001B507F034F801BD0F
:103A000042F8203C009B42F81C3C0A49019B42F8CA
:103A1000183C029B42F8143C21F001014FF08073E6
:103A200042F8043C42F8081C0023203A0265436730
:103A3000704700BF7DA70000094A0346906870B137
:103A400013F1160F406E05D0A0F120029A4205D85E
:103A5000834203D2814228BF002070470020704774
:103A6000004F002008B5094B98600D46144600F041
:103A7000E9FB204685F30988002163B681F31188AC
:103A8000BFF36F8F0022002306F078FE004F002066
:103A900001B572B60B4A906900281EBF00219161E2
:103AA00007F090FC62B6EFF30580A0F110004FEA3A
:103AB000C0000549014409C99847BDE801400349D0
:103AC00008470000004F002078BA0000D13A0000FB
:103AD000044B9968D869884203D003494FF080525B
:103AE0000A607047004F002004ED00E0F0B585B09B
:103AF00000243B4B0293CDE90044234607460E4683
:103B000001223849204606F0BDFF374B9B6ADB0493
:103B100009D5364B33490094CDE9014301222346B0
:103B2000204606F0AFFF304B9B6A1D0509D5304B90
:103B300002930023CDE900332A490122184606F0FA
:103B4000A1FF294DAB6A9C051ED50024294B029389
:103B5000012223462046CDE90044224906F092FF87
:103B6000AB6BAA6A10040FD50393234B1D49009435
:103B7000CDE9014301222346204606F083FF1FB111
:103B8000AB6A23F40043AB62174B9B6A590509D516
:103B90001A4B02930023CDE9003312490122184643
:103BA00006F070FF104A936A13F4807312D0144B1E
:103BB00002930023CDE900330A490122184606F09A
:103BC00061FF094A936A002043F47F439362307097
:103BD00005B0F0BD926A9204F3D50A4A0292E9E771
:103BE00079C9000020BC000000ED00E08FC9000092
:103BF000A0C90000B3C90000CCC90000E1C90000A1
:103C0000FCC9000014CA00001FB50024334B029306
:103C1000CDE90044234632490122204606F032FF16
:103C2000304B9B6A9B0109D52F4B2D490094CDE960
:103C3000014301222346204606F024FF294B9B6ABC
:103C4000DC0109D5294B02930023CDE90033244937
:103C50000122184606F016FF224B9B6A180309D56D
:103C6000234B02930023CDE900331D49012218465E
:103C700006F008FF1B4B9B6A590309D51D4B0293A5
:103C80000023CDE9003316490122184606F0FAFE5A
:103C9000144B9B6A9A0309D5174B02930023CDE975
:103CA00000330F490122184606F0ECFE0D4B9B6ACB
:103CB000DB0309D5114B02930023CDE900330849FA
:103CC0000122184606F0DEFE064A936A6FEA0343B5
:103CD0006FEA13430020936204B010BD43CA000092
:103CE00020BC000000ED00E05BCA00006ECA0000CE
:103CF00088CA0000A6CA0000CBCA0000E5CA0000BE
:103D00002DE9F04385B00024524B0293CDE90044E5
:103D100023468046894616464F490122204606F032
:103D2000B1FE4E4B9B6ADF0609D54D4B4A490094C4
:103D3000CDE9014301222346204606F0A3FE474B6E
:103D40009B6A1D0709D5474B02930023CDE9003339
:103D500041490122184606F095FE404DAB6A9C078A
:103D600041D46FF015073D4B9B6AD90709D53E4BEF
:103D700002930023CDE9003337490122184606F0AB
:103D800081FE364B9B6A9A0609D5384B0293002375
:103D9000CDE9003330490122184606F073FE2F4C5E
:103DA000A36ADB0602D4A36A9D0750D56368180591
:103DB0004DD541463846FFF73FFE002835D080F309
:103DC00009880220254B9A6A920642BF5A6A22F459
:103DD00000525A629A6A42F0FF029A6200233370DC
:103DE00005B0BDE8F0830024214B02932046234612
:103DF000CDE900441849012206F044FE6F6BAB6A1E
:103E00001806AED51B4B14490397CDE90143009426
:103E100023460122204606F035FEB9F1000FA2D05C
:103E2000AB6A23F08003AB629DE7A36AD9060ED587
:103E30001149124A124840F2491306F08AFD11480E
:103E400006F087FD0D4840F2491106F07BFD002089
:103E5000B8E700BF10CB000020BC000000ED00E080
:103E600026CB0000A0C9000087CB000014CA0000C8
:103E700059CB000071CB0000E0CB0000A6CB0000C6
:103E80008AC100002ACC00002DE9F041834B5F6815
:103E900090B00446C7F30806002383F31188BFF3EC
:103EA0006F8F02F07F40B0F17F4F0CD102F00C0019
:103EB00008281AD17A4A7B490093CDE90132184685
:103EC000012206F0DFFD0025774A7849784840F264
:103ED000FB3306F03EFD774806F03BFD724840F2AA
:103EE000FB3106F02FFD002406E0120746BF0C460A
:103EF0001D460125002CE7D04FF00008F31E8DF879
:103F00001F80092B00F2B080DFE803F005A4A8832E
:103F1000AEAEAEAEAEAC684B604F6249CDF800803D
:103F2000CDE9018300230122184606F0ABFDFE6AAD
:103F30008DF81F8016F002060CD0604BCDF8008083
:103F4000CDE90183002357490122184606F09AFD66
:103F5000002228E0FB6A002B04DA594B0096CDE9D9
:103F60000163EFE7FB6A5B0067D5564B4D4900964E
:103F7000CDE9016301223346304606F083FDA36993
:103F800033F8022C4DF602739A422CD12368039326
:103F90004D4B44490096CDE901630122334630463A
:103FA00006F070FD22689DF81F30CBB908AE04F111
:103FB000200720686168334603C30834BC421E46AC
:103FC000F7D10F9B002D63D0C3F3080121B96FEA2D
:103FD00053236FEA43230F9308A91046FFF7FCFB16
:103FE00010B0BDE8F08197F8283033B10DF11F0211
:103FF00001212046FFF784FE0DE097F829302BB110
:104000000DF11F010120FFF771FD04E07B8D9BB2D4
:104010001BB1FFF7F9FD0246C5E72C49224A2448A7
:1040200040F2CD2306F095FC294806F092FC40F2C0
:10403000CD211D4806F086FC8AE724491A4A1C480F
:1040400040F2D12306F085FC224806F082FC40F2C3
:10405000D121EEE70DF11F020021CAE70DF11F018A
:104060000020D0E71C4B69E71C4A1D4B0D4917F493
:10407000F87F18BF1346103ECDE90336194B029363
:104080000023CDE900330122184606F0FBFC5FE770
:1040900023F4FF7323F001039DE700BF00ED00E070
:1040A0007BCC000020BC0000A6CB0000A6CC00000A
:1040B0008AC10000B9CC0000F7CC00000ECD000092
:1040C0002FCD00003DCD00005CCD0000B4DA000033
:1040D00078CD00009CCD0000CCCD000062CC00006B
:1040E0004DCC0000F0CD0000024A536943F01003AC
:1040F0005361704700ED00E0EFF30880EFF30981B2
:1041000001B57246FFF7C0FE01BD00BF04480023A1
:104110002021C2180133302B82F80013F9D17047E7
:1041200000E100E0002080F31488BFF36F8F07F0F8
:1041300025FC00200D490860BFF34F8F0C4880F329
:10414000088800F02BF8202080F3118809484FF4EC
:104150000261401880F30988EFF3148002210843BC
:1041600080F31488BFF36F8FFFF7DAFB94ED00E064
:10417000808B0020007E00200749D1F8902000238A
:10418000C2F307221846934200DB7047C1F898300B
:10419000C1F8A0000133F6E700ED00E008B572B603
:1041A000002383F31388FFF7E7FF144B4FF0FF3230
:1041B000C3F88020C3F88420C3F88820C3F88C207B
:1041C000C3F89020C3F89420C3F89820C3F89C202B
:1041D000C3F88021C3F88421C3F88821C3F88C2157
:1041E000C3F89021C3F89421C3F89821C3F89C2107
:1041F00062B6BFF34F8FBFF36F8F08BD00E100E0E1
:10420000084B9B6883420BD1EFF3058343B1064B08
:104210005A6842F080525A605A6A22F400425A6246
:1042200004F068BC004F002000ED00E0024B034AA0
:104230000348012100F086B800000420000000209F
:10424000C0BD0000426E054B203A1A60044A20218E
:10425000C3E901121846012100F09CB8A84D0020C6
:1042600000000B15F0B5284E85B000258D4215DAFB
:104270004468002C45D0D3B104F1FF3C14EA0C0F84
:104280000FD0224B0395029300230122CDE9003386
:104290001F49184606F006FC6FF01502104605B0DF
:1042A000F0BD1F2CEDD907681CEA070FE9D1202CBF
:1042B0000768D0F808C05FFA82FE10D9B4F1004F49
:1042C0000FD8013CB4FA84F4C4F11F046400BEF1B9
:1042D000070F4CEA040C06D90E4B0392D3E70824CF
:1042E000F5E73E24F3E727F01F04144344F01004DD
:1042F000C6F89820C6F89C404CF00104C6F8A040CF
:10430000013201350C30B1E700ED00E007CE0000CE
:1043100018BC00002ACE0000044B0522C3F89420EC
:10432000BFF34F8FBFF36F8F704700BF00ED00E00A
:10433000BFF35F8F024B0022C3F89420704700BF89
:1043400000ED00E038B50E4D01232A780C46FFF74A
:1043500089FF2870163011D140F21113094A0A4919
:104360000A4806F0F6FA2146094806F0F2FABDE8D6
:104370003840044840F2111106F0E4BA38BD00BFDD
:104380003751002050CE0000B4DA00008AC100008E
:1043900087CE000010B5134A002312780C46FFF7B1
:1043A00061FF10F1160F04D00F4B0022072812DD19
:1043B00010BD0E4A0E490F484FF4987306F0C9FA23
:1043C00021460D4806F0C5FABDE8104007484FF4F5
:1043D000987106F0B7BAC3F89800C3F8A02001306E
:1043E000E4E700BF3751002000ED00E050CE0000B0
:1043F000B4DA00008AC10000B3CE0000284910B52D
:104400000C68082C13D94FF4A473264A2649274870
:1044100006F09FFA26480822214606F09AFA21481B
:104420004FF4A47106F08EFA4FF0FF3010BDFFF785
:104430007FFF48681F490022944200F10C000BD115
:104440001D4B1C70FFF768FFD1F89030C3F30723B2
:10445000082B14D10020E9E7C1F8982050F80C3C53
:1044600023F01F03134343F01003C1F89C3050F8AE
:10447000043C43F00103C1F8A0300132DCE7094AF3
:104480000E490A484FF4D47306F063FA0C4806F05C
:1044900060FA04484FF4D47106F054FADAE700BF2A
:1044A000CCBD000050CE0000B4DA00008AC100008C
:1044B000E0CE000000ED00E03751002014CF0000F6
:1044C00064CF000008B50B4BC3F1005303F5802304
:1044D000B3F5006F0CD20849084A0948812306F059
:1044E00038FA084806F035FA0448812106F02AFA1D
:1044F000002008BDA08C0020B5CF000085CF0000B3
:104500008AC10000FCCF0000014B1860704700BF5B
:1045100030000020F8B5084F06460D460024AC4296
:1045200008DA3B6898470A28305504F1010401D0A5
:104530000D28F4D12046F8BD2C000020F8B50A4F14
:104540000D46461EC0F10104A3199D4201DC284618
:10455000F8BD73780A2B02D13B680D2098473B6861
:1045600016F8010F9847EFE73000002010B5074C10
:104570002368C2180648C0F1005101F580218A4223
:104580003ABFC01822604FF0FF3010BDB44D00207C
:10459000A08C002010B5044658B912491248134A9D
:1045A00040F2771306F0D5F9104840F2771106F083
:1045B000C9F9142005F0CAF8206070B90C490B4AFB
:1045C000094840F27F1306F0C4F90A4806F0C1F921
:1045D000064840F27F1106F0B5F92068BDE81040AA
:1045E00006F0FFBE84D000008AC1000085CF000025
:1045F00083D00000BFD0000010B5044658B90A4966
:104600000A480B4A4FF4D27306F0A3F908484FF456
:10461000D27106F097F94FF0FF3220464FF0FF338A
:10462000BDE8104002F04ABF84D000008AC10000FB
:1046300085CF000010B5044658B908490848094A12
:104640004FF4E07306F085F906484FF4E07106F088
:1046500079F92046BDE8104003F02AB884D0000064
:104660008AC1000085CF000010B54FF02003EFF3A2
:10467000118083F31288BFF36F8F114A0123C2F8B0
:1046800040354FF080424FF08051C2F87835D1F874
:104690003041082C08D1D1F83411052904D8094C2F
:1046A000615C09B1C2F838364FF080430122C3F88B
:1046B000802580F31188BFF36F8F002010BD00BFED
:1046C00000E00140F1D000004FF08043C0B2C3F8D9
:1046D0001C05BFF34F8F0549054BCA6802F4E06221
:1046E0001343CB60BFF34F8F00BFFDE700ED00E049
:1046F0000400FA0520B1034B800143F00103184781
:10470000704700BF80BC000037B50C460A490B4A11
:10471000411A40230093491105462346084806F0F4
:1047200012FA011E05DA2846234603B0BDE83040E0
:10473000184703B030BD00BFCC4D0020B1AB000026
:1047400000BA000038B5CCB2012C054609D9094998
:1047500009480A4A792306F0FCF80848792106F04E
:10476000F1F82B690C2204FB0233986C00F007006F
:1047700038BD00BF38D100008AC10000FBD0000066
:10478000F8B5CCB2012C0669054617460BD9194974
:1047900019481A4A40F24D1306F0DBF8174840F268
:1047A0004D1106F0CFF84FF02003EFF3118283F3A1
:1047B0001288BFF36F8F0C2101FB04639B6C13F015
:1047C000C00308D09F4206D082F31188BFF36F8FD9
:1047D0004FF0FF30F8BD4C4326440123B36482F30D
:1047E0001188BFF36F8F6B6823445B689847002084
:1047F000F0E700BF38D100008AC10000FBD0000004
:1048000070B50D460649411A044649110548402233
:10481000FFF7B6FF2B4601462046BDE8704018471B
:10482000CC4D002000BA0000002270B501210446E2
:104830001046FFF73DF80F4801F092FC0E4B9842EE
:1048400015D101F0B3FC26690C49304605F083FF11
:1048500000280BDB246909490125B56404F1200017
:1048600005F079FF002801DB6565002070BD6FF061
:104870000400FBE7B54800000000AD0BECBD0000F4
:1048800001460C2309484B4370B5C418D4E91056AF
:10489000002248332264184406F042F92DB1324612
:1048A0002B460348BDE87040184770BDCC4D002032
:1048B00000BA0000012808B506D0032808D0A8B91E
:1048C000104B9B6C5B071BD1BDE80840FFF7D8BFBE
:1048D0000D490E4A0E4840F25E2306F03AF840F2C7
:1048E0005E21BDE80840094806F02CB80649074A91
:1048F000074840F2622306F02CF840F26221F0E70C
:1049000008BD00BFCC4D0020B4DA0000FBD0000091
:104910008AC1000008B54FF02003EFF3118183F343
:104920001288BFF36F8F124A136843F002001060C1
:10493000DA0708D481F31188BFF36F8F0120BDE837
:10494000084001F057BC4FF08043D3F80C24D3F853
:104950000C34D307EED5074806F0E2F881F311884E
:10496000BFF36F8F0020BDE80840FFF789BF00BF8D
:10497000244E0020144E00201FB500220123CDE953
:104980000223094ACDF800D06B46CDF804D006F0DA
:1049900008F9002805DB4FF480420023684602F046
:1049A00089FF05B05DF804FBCFAB0000094BBFF3F6
:1049B0005B8F53E8002F22F0020143E8001000282B
:1049C000F7D1BFF35B8FD30702D4012001F076BC8F
:1049D000704700BF244E00202DE9F0414749BFF346
:1049E0005B8F0646012251E8003F41E80020002885
:1049F000F9D1BFF35B8FA3B9414942484B60CB600B
:104A00008A60FDF7A7FA00280BDA3F493F48404A81
:104A10004FF4087305F09DFF3D484FF4087105F011
:104A200091FF76B3731E012B59D8012E07D14FF099
:104A30008043D3F81C3403F00303012B21D006F08C
:104A4000B9FC0546F8B9334B1B78E3B14FF080430E
:104A50000222C3F808230746DFF8BC804FF08044E9
:104A6000D4F81834D4F81824D20316D503F003036D
:104A7000012B01D0012E10D15DB387F31188BFF354
:104A80006F8FBDE8F0814FF02003EFF3118783F3C0
:104A90001288BFF36F8F0125DEE7ADB13846FEF710
:104AA00091FED4F81835002BDAD1D4F80421002A6D
:104AB000D6D0C4F80431D4F804310123C4F8183531
:104AC000C8F88031A360CBE70021212003F0D4FF98
:104AD000E7E74FF080430222C3F80423D1E70F49F0
:104AE0000A480B4A40F2322305F033FFBDE8F0419B
:104AF000074840F2322105F025BF00BFC84D002015
:104B0000B84D0020EC4D00201EC700008AC10000F7
:104B1000FBD000004855002000E100E0B4DA0000BE
:104B200008B5084B0848186006F00AFC38B1074879
:104B3000FFF7EAFC0548FCF7B9FF002008BD6FF05D
:104B40001200FBE7284E002060BA0000514B000025
:104B50000A2838B5074D044604D1286883680D211A
:104B6000DB69984728688368E1B2DB69984720468B
:104B700038BD00BF284E002070B5056916460C46AA
:104B800061B92249224A2348242305F0E2FE224843
:104B900005F0DFFE1E48242105F0D4FE636863B9EA
:104BA0001E491B4A1B48252305F0D3FE1C4805F06F
:104BB000D0FE1748252105F0C5FE6B684BB1A34216
:104BC00013D1AA6823686B60944200D1AB600023C4
:104BD00023607EB9002070BD9C4206D1236813601B
:104BE000AB689C42F3D1AA60F1E71A461B68002B20
:104BF000F2D13EB16B682360AB686C60002BE9D1E9
:104C0000AC60E7E76FF01500E5E700BFA9D1000051
:104C10007CD100008AC10000B2D10000C1D10000E7
:104C2000D3D100007FB54068057B01F01F04B2F5C9
:104C3000001F44EA451404D1204601F05BFE002029
:104C40005DE00025B2F5800FCDE9025514D1B3F136
:104C5000007F0CBF042305238DF80830002319467C
:104C600002AA204601F04CFC344B984262D101214B
:104C7000204601F0CFFDE2E7B3F1C06F41D0B3F1C0
:104C8000007F14BF012302238DF808308368CB40D6
:104C9000D807E3D4B2F1A07FE0D1660904F01F0584
:104CA00031D0012E04D14FF6FF73EB40D9070ED45B
:104CB00023492448244A40F2292305F04AFE224889
:104CC00040F2292105F03EFE16B3012E23D11F4BE1
:104CD00005F5E07553F82530DB07BFD40DF1070566
:104CE0002946204601F02EFD194B984220D1284636
:104CF00001F08AFD114B98421AD06FF00B0004B0FE
:104D000070BD0323C0E74FF0FF33EB40DA07CFD588
:104D10004FF0A043DCE70C4A0E490A4840F22E232C
:104D200005F017FE084840F22E2105F00BFEEFE7D4
:104D3000039593E76FF00400E1E700BF0000AD0BBF
:104D40001DD200008AC10000EAD10000000300501B
:104D50000400AD0BB4DA000010B501F045FD0446C7
:104D600068B901F019FD084B98420AD1074821465D
:104D700001F0E2FC224605210620FEF799FD002005
:104D800010BD6FF00400FBE70000AD0B914D00007B
:104D900043092DE9F04703D0012B30D0BDE8F0875F
:104DA000194F3B695C68002CF8D000F01F00012609
:104DB0002568DFF85880DFF85890DFF858A0864063
:104DC000002CEBD0A3681E4214D0636863B9494637
:104DD00045234246504605F0BCFD0F4805F0B9FD9D
:104DE0004521404605F0AEFDD4E90132214632406E
:104DF000384698472DB12B682C461D46E0E7074FF3
:104E0000CFE72B46F8E700BF30BA00007CD10000A6
:104E100040D200008AC10000D3D1000018BA0000BF
:104E20002DE9F04347683B7B01F01F0585B00E4636
:104E300045EA43151446D2B902A9284601F082FC7E
:104E40000446284601F080FD464B984204D06FF09E
:104E5000040005B0BDE8F083844201D00020F8E7EB
:104E60009DF8080001F0CAFCA042F7D0EFE74FF030
:104E700000090DF103013046CDE9029901F062FC11
:104E80004B46804602AA4946284601F039FB354B7D
:104E9000984202D06FF01500DBE7804503D19DF802
:104EA000030001F0ABFCA3034CD540F206632340A2
:104EB00040F20622934219D00CD8062B17D004D802
:104EC000ABB1022BE6D1042311E0B3F5007FE1D1B1
:104ED00001230CE040F20242934227D0B3F5C06FA9
:104EE00026D0B3F5806FD5D1022300E007238DF8DB
:104EF000043084F48033C3F30043E0068DF80530BA
:104F000054BFC4F34013032321038DF8063011D599
:104F10007A680123B340C2F80835002201A9284667
:104F200001F096FB0F4B984298D0B3E70523DEE7DC
:104F30000323DCE7620341BF01237A68B340C2F870
:104F40000C35EAE7E3064FF0000354BFC4F3401406
:104F500003241A4601A928468DF8044001F0D0FA2E
:104F6000E0E700BF0000AD0B7FB50BAB05930393EB
:104F7000054B02930023CDE9003301221846FEF7CA
:104F80009FF807B05DF804FB5AD200002DE9F34109
:104F90001C46436807690E46054619684FF0200312
:104FA000EFF3118883F31288BFF36F8FF868C3683B
:104FB00043B188F31188BFF36F8F6FF00F0002B019
:104FC000BDE8F0814FF4800CC2608660C1F804C374
:104FD00006F06041B1F1005F10D1C0E904623946CA
:104FE000284605F087FF88F31188BFF36F8FFB7A9F
:104FF000012B01D1631C05D10020E0E7036205F01D
:105000002EFFECE70B480C4AFD6824EAE4744FF4E9
:10501000004600210023C4FB0601FBF7DFFC283516
:1050200002460B4600200021CDE90001284604F08D
:10503000EDF9E1E73F420F0040420F00F0B54B7938
:10504000012B26D0032B21D110268B79032B1DD1C8
:10505000CC790CB1012C19D10A7912B1022A15D1DF
:105060000E220B684568B3F5164F2D6865D02DD814
:10507000B3F5165F64D016D8B3F5966F62D00AD830
:10508000B3F5967F61D0B3F5167F61D06FF08500E0
:1050900052E00026D9E7B3F5166F5CD0B3F5965F02
:1050A000F4D1374B3CE0B3F5E14F57D007D8B3F517
:1050B000615F55D0B3F5964FE8D1324B30E047F6FB
:1050C0001227BB42E2D14FF4000329E0B3F5613F60
:1050D00048D013D8B3F5963F47D009D84DF6C0272E
:1050E000BB4244D0B3F5614FD0D14FF46B0317E00E
:1050F000B3F5E13FCAD14FF0EB7311E0B3F5612F87
:1051000038D008D8204FBB4237D0B3F5E12FBDD1FE
:105110004FF0E86304E01D4FBB42B7D14FF080531E
:105120000069C5F82435031D03C934432243C5F87B
:105130006C2583E803000020F0BD4FF41D03EFE76A
:10514000134BEDE74FF49E23EAE74FF4A033E7E774
:105150004FF41C33E4E74FF41D23E1E70D4BDFE789
:105160000D4BDDE74FF06C73DAE70C4BD8E74FF4EB
:105170006503D5E74FF07063D2E74FF08063CFE768
:1051800000B0130000A04E0090D0030040420F007A
:105190000050270000C0750000F03A0000903A016E
:1051A0002DE9F043D0F804900669D9F80050D9F8F9
:1051B0000C8087B00021C5F800150746306005AAAD
:1051C000404605F039FF041E25DB059BD8F800207A
:1051D0001979186805F087FF041E1CDB311D38465D
:1051E000FFF72CFF0446B0B9D9F80430990729D548
:1051F00006F1160001F0ACFC494B98420FD0494B28
:105200000094CDE901432046234647490122FFF798
:10521000ABFE6FF00404204607B0BDE8F083B07D1C
:10522000C30003F1804303F5F83305F10C0205F5E3
:105230009071C3F81015C3F814253C4A012383402C
:10524000C2F80435F368002B55D07B68D7F810807E
:105250001B68D8F80C0036490422C3F80423012245
:10526000C0F8C820C3F804130821C3F80015D3F808
:105270004C11A1B15A60D3F844211AB9D3F82421B2
:10528000002AF8D00022C3F84C21D3F84C11C3F8FF
:105290001021D3F81011C3F84421D3F84431254923
:1052A0000022883006F0F0F8D8F80C30D8F80C005E
:1052B000C3F8BC8020490022283006F0E5F8D8F871
:1052C0000C30C3F85C80D9F804309A075CBF4FF407
:1052D0008072C5F80423DB0644BF4FF48003C5F891
:1052E000043314360023C5F84465C5F84835012356
:1052F000AB60EB608FE70823C5F8003599F80830FC
:10530000002BE0D1C5F81031D5F8103106F11503A6
:10531000C5F834350123C5F838352B60D3E700BF15
:105320000000AD0B5AD2000038BC000000F0014074
:1053300010020A0063AF000027B00000F8B506694C
:1053400005460F4606F036F8B0B9284B1B789BB1DE
:105350006424686805F0BEFD002834D1012005F002
:105360006DFF013CF5D10021212003F085FBEFE723
:1053700084F31188BFF36F8F4FF02003EFF3118494
:1053800083F31288BFF36F8F6968084605F0A2FDAA
:105390000028EDD0F36853B1DA6842B1D3F8C420E5
:1053A000002A04DA0A68D2F84C25C3F8C420314632
:1053B000012201F8147F284605F042FC84F311888D
:1053C000BFF36F8FF8BD4FF02003EFF3118483F329
:1053D0001288BFF36F8F686805F07CFD0028E6D166
:1053E00084F31188BFF36F8FBDE700BF48550020DD
:1053F0002DE9E04FD0F804A0D0F810B0DAF8008022
:1054000017469AF808200546894692B1434A44490E
:10541000444840F27F3305F09CFA434805F099FA7E
:105420003E4840F27F3105F08DFA6FF08500BDE80F
:10543000E08FDBF80C1091F8D220002A6BD1B3F585
:10544000E87FCB67D2BF5C23052293FBF2F3C1F860
:1054500080300023C1E91A330B67DAF80430DA062A
:10546000C1E9189723D591F8D16006B3BE4228BF91
:105470003E4648463246CC3106F0A3F8BF1BB14445
:1054800015D1DBF80C2092F8D1309B1B82F8D1307B
:105490003146284605F001FCDBF80C102846603147
:1054A00005F014FC284605F029FC0020BFE7002386
:1054B000C8F83495C8F83875C8F81031D8F81021F4
:1054C000C8F84C31D8F84C31DBF80C30012283F8A5
:1054D000D220DAF80430DB0619D54FF02003EFF3C1
:1054E000118183F31288BFF36F8F2B696868DB68C3
:1054F0002BB1D3F8C82042F00202C3F8C8200368D9
:105500000822C3F8002581F31188BFF36F8F0123B0
:10551000C8F80030C9E76FF00F0088E779D20000C3
:10552000B4DA00008AC10000ADD2000043682DE962
:10553000F0411D680369D5F8081188B0044669B1C7
:105540000022C5F80821D5F80821DA68D2F8C03061
:105550000133C2F8C03008B0BDE8F081D5F824317D
:1055600013B3C5F82411D5F82431D5F88064C5F8F3
:105570008064142203A806F032F806238DF80C305C
:10558000F30700F10281B70700F10181700700F114
:10559000008106F00806204603A98DF8106005F08A
:1055A00075FB204605F005FCD5F810317BB3D5F826
:1055B0000433D9062BD54FF000082769C5F81081B0
:1055C000D5F810316368F8681E68012380F8D5307B
:1055D000883005F065FFFA68D6F83C1592F8D130AE
:1055E000906E82F8D1801B1A0B44906F23EAE3710E
:1055F00008444345906702DD204605F04EFBF968FC
:1056000091F8D230002B40F0C68081F8D530D5F823
:105610004C318BB3D5F8106176BB14222769C5F8DD
:105620004C61314603A8D5F84C3105F0D8FF03236F
:1056300003A920468DF80C3005F028FBFF68FB6FAE
:105640005A1C19D0D7F880008B49C7F8843020EA5B
:10565000E07C8E464FF400403146CCFB00E1874AA7
:1056600000237046FBF7BAF902460B46CDE900016C
:1056700007F1880003F0CAFED5F8443133B3D5F8FA
:1056800010611EBB2769C5F84461F968D5F844313B
:10569000D4F804806031204605F018FBF9682046F4
:1056A0006C3105F013FBFB6893F8D220002A00F060
:1056B0009F8083F8D260D8F80430D80603D5022141
:1056C000204605F0E0FB204605F018FBD5F8203118
:1056D000DBB1D5F80433D90517D563681B684FF0E3
:1056E0002001EFF3118281F31288BFF36F8FD3F89B
:1056F000201131B10021C3F82011D3F8201101216C
:10570000D96082F31188BFF36F8FD5F85831002B21
:105710003FF421AFD5F804335A027FF51CAF63681C
:105720002569D3E90073DB0667D4EB689B68002B1F
:105730003FF411AF4FF02003EFF3118283F312888F
:10574000BFF36F8FEB68D3F8C4100029ACBFD3F858
:10575000C460D7F84C6582F31188BFF36F8FE86897
:1057600090F8D430002B55D04FF02003EFF3118682
:1057700083F31288BFF36F8F2946204605F0BAFBEA
:1057800086F31188BFF36F8FE5E6012603E7022653
:1057900001E70426FFE66031204605F097FA4FF056
:1057A0002003EFF3118183F31288BFF36F8FFB683F
:1057B000DA6ED2B11A661A6F5A660022C3E91B224A
:1057C0009A66D6F84C310BB901233360D6F8003213
:1057D00023F02003C6F8003281F31188BFF36F8FE6
:1057E000FB68002283F8D52011E701237360F3E7FB
:1057F0006068114605F0FEFA5DE74FF48003C7F8D4
:1058000008330121204605F03EFBEB68DB68002BE6
:105810008BD1A0E6826803699A420BD04269036A81
:10582000B242334425D1036205F019FB00289BD115
:10583000EB681E6AE868283005F032FE1422002169
:1058400003A805F0CCFEEB689A68CDE90426DA6877
:1058500096421CBF01228DF80C204FF48002C7F83D
:10586000082300229A60DA6003A9204605F00EFAA8
:1058700071E61E46DEE700BF3F420F0040420F00C8
:1058800070B5012383400E4ABFF35B8FDC4352E8BF
:10589000001F01EA040542E80056002EF7D1BFF3CD
:1058A0005B8F4FF4803282400648C0F80823BFF374
:1058B0005F8FBFF36F8F0B4214BF0120002070BDBC
:1058C000484E0020001001401B49F8B5044622F064
:1058D0007F450868C1E90023A5F50013101AB3F548
:1058E000400F0FD303F0D2FBA30003F1804303F575
:1058F0008833D3F8402595421DD14FF40002C3F8F8
:10590000402512E00D4B1B681A0A1B065E190C4B52
:1059100042F10007C3E9006703F0B8FB094A04F548
:10592000A87352F823309D4205D1064A4FF48033C4
:10593000A340C2F84433F8BDB04600204C4E0020CE
:10594000B84600200010014011B3BFF35B8F012364
:10595000104A834052E800CF4CEA030C42E800C1F1
:105960000029F7D1BFF35B8F0B4A4FF4803383409C
:10597000C2F80433094BBFF35B8F1B68BFF35B8F27
:10598000C340DB0742BF064B4FF40032C3F800218F
:10599000704700BF484E002000100140444E0020D8
:1059A00000E100E00D4B1868010A0006BFF35F8FAD
:1059B0000B4BD3F80435181841F10001B3F5801FE3
:1059C0000AD2084BD3E90023904271EB030303D2C0
:1059D00010F1807041F10001704700BF4C4E002073
:1059E00000100140B84600202DE9F74F14461D462F
:1059F0000746FFF745FF0090FFF7D4FFA04271EB89
:105A000005037AD2464B201A65EB0101984271F1E9
:105A1000000180F08180434B03EB0713D3E902239D
:105A20009D4208BF944253D04FEA870A0AF1804A48
:105A300007F150090AF5883A4FEA89091FFA89F9EE
:105A400024F07F4809F180494FF48033DAF84005AB
:105A5000354A09F58839BB404646D2F804B5A0EB73
:105A60000B0020F07F402BF07F410128CAF8401541
:105A700005D10193132005F0E1FC2B4A019B0BF1AA
:105A8000020CA6EB0C0020F07F40B0F5000F88BFA1
:105A900066460020C9F80000D9F80000C2F8443377
:105AA00026F07F40CAF84005D2F80405834506D0A9
:105AB000301A023820F07F40B0F5000F1BD8A6EB5B
:105AC000080626F07F46361945F1000334461D4688
:105AD00014490C983B0101EB0712C8500D9B536011
