:1000000040310020794300006D9400004D43000012
:100010004D4300004D4300004D4300000000000030
:10002000000000000000000000000000353C00005F
:100030004D43000000000000E13B00004D43000084
:10004000E53C0000E53C0000E53C0000E53C00002C
:10005000E53C0000E53C0000E53C0000E53C00001C
:10006000E53C0000E53C0000E53C0000E53C00000C
:10007000E53C0000E53C0000E53C0000E53C0000FC
:10008000E53C0000E53C0000E53C0000E53C0000EC
:10009000E53C0000E53C0000E53C0000E53C0000DC
:1000A000E53C0000E53C0000E53C0000E53C0000CC
:1000B000E53C0000E53C0000E53C0000E53C0000BC
:1000C000E53C0000E53C0000E53C0000E53C0000AC
:1000D000E53C0000E53C0000E53C0000E53C00009C
:1000E000E53C0000E53C0000E53C0000E53C00008C
:1000F000E53C0000E53C0000E53C0000E53C00007C
:1001000081F0004102E000BF83F0004330B54FEAC8
:1001100041044FEA430594EA050F08BF90EA020F35
:100120001FBF54EA000C55EA020C7FEA645C7FEAC8
:10013000655C00F0E2804FEA5454D4EB5555B8BFEB
:100140006D420CDD2C4480EA020281EA030382EA5C
:10015000000083EA010180EA020281EA0303362DEE
:1001600088BF30BD11F0004F4FEA01314FF4801CC1
:100170004CEA113102D0404261EB410113F0004FD3
:100180004FEA03334CEA133302D0524263EB43038A
:1001900094EA050F00F0A780A4F10104D5F1200E28
:1001A0000DDB02FA0EFC22FA05F2801841F1000183
:1001B00003FA0EF2801843FA05F359410EE0A5F157
:1001C00020050EF1200E012A03FA0EFC28BF4CF088
:1001D000020C43FA05F3C01851EBE37101F000453E
:1001E00007D54FF0000EDCF1000C7EEB00006EEB4B
:1001F0000101B1F5801F1BD3B1F5001F0CD34908D5
:100200005FEA30004FEA3C0C04F101044FEA44522B
:1002100012F5800F80F09A80BCF1004F08BF5FEAB2
:10022000500C50F1000041EB045141EA050130BD92
:100230005FEA4C0C404141EB0101013C28BFB1F5A4
:10024000801FE9D291F0000F04BF01460020B1FAEF
:1002500081F308BF2033A3F10B03B3F120020CDAC2
:100260000C3208DD02F1140CC2F10C0201FA0CF0A0
:1002700021FA02F10CE002F11402D8BFC2F1200C05
:1002800001FA02F120FA0CFCDCBF41EA0C019040BB
:10029000E41AA2BF01EB0451294330BD6FEA040404
:1002A0001F3C1CDA0C340EDC04F11404C4F12002EF
:1002B00020FA04F001FA02F340EA030021FA04F301
:1002C00045EA030130BDC4F10C04C4F1200220FA58
:1002D00002F001FA04F340EA0300294630BD21FA96
:1002E00004F0294630BD94F0000F83F4801306BF5C
:1002F00081F480110134013D4EE77FEA645C18BF50
:100300007FEA655C29D094EA050F08BF90EA020FE6
:1003100005D054EA000C04BF1946104630BD91EADE
:10032000030F1EBF0021002030BD5FEA545C05D1E1
:100330004000494128BF41F0004130BD14F5800420
:100340003CBF01F5801130BD01F0004545F0FE4194
:1003500041F470014FF0000030BD7FEA645C1ABFC9
:10036000194610467FEA655C1CBF0B46024650EA00
:10037000013406BF52EA033591EA030F41F400212C
:1003800030BD00BF90F0000F04BF0021704730B5B2
:100390004FF4806404F132044FF000054FF0000187
:1003A00050E700BF90F0000F04BF0021704730B548
:1003B0004FF4806404F1320410F0004548BF40421D
:1003C0004FF000013EE700BF42004FEAE2014FEA72
:1003D00031014FEA02701FBF12F07F4393F07F4F4D
:1003E00081F06051704732F07F4208BF704793F050
:1003F0007F4F04BF41F40021704730B54FF4607463
:1004000001F0004521F000411CE700BF50EA010265
:1004100008BF704730B54FF000050AE050EA01020E
:1004200008BF704730B511F0004502D5404261EB7E
:1004300041014FF4806404F132045FEA915C3FF4BF
:10044000D8AE4FF003025FEADC0C18BF03325FEA5C
:10045000DC0C18BF033202EBDC02C2F1200300FA0D
:1004600003FC20FA02F001FA03FE40EA0E0021FA32
:1004700002F11444BDE600BF70B54FF0FF0C4CF420
:10048000E06C1CEA11541DBF1CEA135594EA0C0FD2
:1004900095EA0C0F00F0DEF82C4481EA030621EA0D
:1004A0004C5123EA4C5350EA013518BF52EA033548
:1004B00041F4801143F4801338D0A0FB02CE4FF0FA
:1004C0000005E1FB02E506F00042E0FB03E54FF02A
:1004D0000006E1FB03569CF0000F18BF4EF0010E22
:1004E000A4F1FF04B6F5007F64F5407404D25FEA1E
:1004F0004E0E6D4146EB060642EAC62141EA5551D1
:100500004FEAC52040EA5E504FEACE2EB4F1FD0C12
:1005100088BFBCF5E06F1ED8BEF1004F08BF5FEA90
:10052000500E50F1000041EB045170BD06F0004642
:1005300046EA010140EA020081EA0301B4EB5C04EF
:10054000C2BFD4EB0C0541EA045170BD41F48011E7
:100550004FF0000E013C00F3AB8014F1360FDEBF0C
:10056000002001F0004170BDC4F10004203C35DAE8
:100570000C341BDC04F11404C4F1200500FA05F36B
:1005800020FA04F001FA05F240EA020001F000420C
:1005900021F0004110EBD37021FA04F642EB060182
:1005A0005EEA430E08BF20EAD37070BDC4F10C04AC
:1005B000C4F1200500FA04F320FA05F001FA04F270
:1005C00040EA020001F0004110EBD37041F100015C
:1005D0005EEA430E08BF20EAD37070BDC4F1200567
:1005E00000FA05F24EEA020E20FA04F301FA05F2CF
:1005F00043EA020321FA04F001F0004121FA04F277
:1006000020EA020000EBD3705EEA430E08BF20EA46
:10061000D37070BD94F0000F0FD101F00046400080
:1006200041EB010111F4801F08BF013CF7D041EA02
:10063000060195F0000F18BF704703F00046520006
:1006400043EB030313F4801F08BF013DF7D043EAD7
:100650000603704794EA0C0F0CEA135518BF95EA8D
:100660000C0F0CD050EA410618BF52EA4306D1D114
:1006700081EA030101F000414FF0000070BD50EA33
:10068000410606BF1046194652EA430619D094EABD
:100690000C0F02D150EA013613D195EA0C0F05D1A7
:1006A00052EA03361CBF104619460AD181EA0301FB
:1006B00001F0004141F0FE4141F470014FF00000B3
:1006C00070BD41F0FE4141F4780170BD70B54FF04E
:1006D000FF0C4CF4E06C1CEA11541DBF1CEA1355CE
:1006E00094EA0C0F95EA0C0F00F0A7F8A4EB0504B0
:1006F00081EA030E52EA03354FEA013100F08880A7
:100700004FEA03334FF0805545EA131343EA12636F
:100710004FEA022245EA111545EA10654FEA002624
:100720000EF000419D4208BF964244F1FD0404F5DD
:10073000407402D25B084FEA3202B61A65EB030539
:100740005B084FEA32024FF480104FF4002CB6EBF6
:10075000020E75EB030E22BFB61A754640EA0C0076
:100760005B084FEA3202B6EB020E75EB030E22BFB6
:10077000B61A754640EA5C005B084FEA3202B6EBF7
:10078000020E75EB030E22BFB61A754640EA9C00B6
:100790005B084FEA3202B6EB020E75EB030E22BF86
:1007A000B61A754640EADC0055EA060E18D04FEA44
:1007B000051545EA16754FEA06164FEAC30343EAE4
:1007C00052734FEAC2025FEA1C1CC0D111F4801FB1
:1007D0000BD141EA00014FF000004FF0004CB6E7AA
:1007E00011F4801F04BF01430020B4F1FD0C88BF49
:1007F000BCF5E06F3FF6AFAEB5EB030C04BFB6EB54
:10080000020C5FEA500C50F1000041EB045170BD46
:100810000EF0004E4EEA113114EB5C04C2BFD4EB73
:100820000C0541EA045170BD41F480114FF0000EF7
:10083000013C90E645EA060E8DE60CEA135594EA73
:100840000C0F08BF95EA0C0F3FF43BAF94EA0C0F76
:100850000AD150EA01347FF434AF95EA0C0F7FF4EB
:1008600025AF104619462CE795EA0C0F06D152EA3F
:1008700003353FF4FDAE1046194622E750EA410623
:1008800018BF52EA43067FF4C5AE50EA41047FF434
:100890000DAF52EA43057FF4EBAE12E74FEA410297
:1008A000B2F1E04324BFB3F5001CDCF1FE5C0DD9CE
:1008B00001F0004C4FEAC0024CEA5070B2F1004F18
:1008C00040EB830008BF20F00100704711F0804F1B
:1008D00021D113F13872BCBF01F00040704741F4E0
:1008E00080114FEA5252C2F11802C2F1200C10FAE4
:1008F0000CF320FA02F018BF40F001004FEAC123C8
:100900004FEAD32303FA0CFC40EA0C0023FA02F36B
:100910004FEA4303CCE77FEA625307D150EA013341
:100920001EBF4FF0FE4040F44000704701F0004011
:1009300040F0FE4040F40000704700BF53B94AB990
:10094000002908BF00281CBF4FF0FF314FF0FF30D7
:1009500000F00CB8ADF1080C6DE904CE00F090F891
:10096000DDF804E0DDE9022304B07047704700BF02
:100970004FF0FF3C06E000BF4FF0010C02E000BF6B
:100980004FF0010C4DF804CD4FEA410C7FEA6C5C4E
:100990004FEA430C18BF7FEA6C5C1BD001B050EAF1
:1009A000410C0CBF52EA430C91EA030F02BF90EADC
:1009B000020F0020704710F1000F91EA030F58BF9B
:1009C000994208BF90422CBFD8176FEAE37040F0FD
:1009D000010070474FEA410C7FEA6C5C02D150EA9B
:1009E000013C07D14FEA430C7FEA6C5CD6D152EA56
:1009F000033CD3D05DF8040B704700BF844610461B
:100A000062468C461946634600E000BF01B5FFF719
:100A1000B7FF002848BF10F1000F01BD4DF808EDE9
:100A2000FFF7F4FF0CBF012000205DF808FB00BFBA
:100A30004DF808EDFFF7EAFF34BF012000205DF814
:100A400008FB00BF4DF808EDFFF7E0FF94BF012061
:100A500000205DF808FB00BF4DF808EDFFF7CEFF62
:100A600094BF012000205DF808FB00BF4DF808EDA1
:100A7000FFF7C4FF34BF012000205DF808FB00BF72
:100A80002DE9F04786468C460846089E1546744672
:100A90001946002B40F0C2808542B2FA82F245D955
:100AA0004AB1C2F1200300FA02FC2EFA03F395408A
:100AB00043EA0C0C94404FEA154EA8B2BCFBFEF87A
:100AC000230C0EFB18CC08FB00F943EA0C439945B4
:100AD00028D9EB1808F1FF3704D2994502D9A8F1BB
:100AE00002072B44A3EB0903A4B2B3FBFEFC0EFBED
:100AF0001C330CFB00F044EA0344A04214D92C1927
:100B00000CF1FF3304D2A04202D9ACF102032C4411
:100B1000241A43EA07401EB1D440002334607360B6
:100B2000BDE8F0874746DDE76346F1E792BB431B2C
:100B300001214FEA154EAFB2B3FBFEFC200C0EFBB9
:100B40001C330CFB07F840EA0343984562D9EB18C5
:100B50000CF1FF3004D2984502D9ACF102002B44CD
:100B6000A3EB0803A4B2B3FBFEFC0EFB1C330CFB8F
:100B700007F744EA0344A7424ED92C190CF1FF337E
:100B800004D2A74202D9ACF102032C44E41B43EA8D
:100B90000040C0E7C2F1200320FA03F195409040E5
:100BA0002EFA03F303434FEA154EAFB2B1FBFEFC3E
:100BB0000EFB1C10190C0CFB07F841EA004188459C
:100BC00004FA02F422D969180CF1FF3004D28845E6
:100BD00002D9ACF102002944A1EB08019BB2B1FBA0
:100BE000FEFC0EFB1C110CFB07F743EA01439F427E
:100BF0000ED9EB180CF1FF3104D29F4202D9ACF1AF
:100C000002012B44DB1B41EA004192E76046E3E727
:100C10006146F7E76046A3E76346B7E7834206D934
:100C200016B9002108467BE7C6E900E0F9E7B3FA08
:100C300083F78FB9834201D3724508D8BEEB020413
:100C400060EB030301209C461EB9002168E738468B
:100C5000FAE7C6E9004CF8E7C7F1200CBB4022FADE
:100C60000CF41C432EFA0CF120FA0CF3B8400143AB
:100C70004FEA14490EFA07F5B3FBF9F81FFA84FEA0
:100C800009FB18300B0C08FB0EFA43EA00439A45A7
:100C900002FA07F240D9E31808F1FF3004D29A456E
:100CA00002D9A8F102002344A3EB0A0389B2B3FBE3
:100CB000F9F809FB183308FB0EFE41EA03418E45A3
:100CC0002CD9611808F1FF3304D28E4502D9A8F15E
:100CD0000203214443EA0040A0FB0298A1EB0E016D
:100CE0004145CE46434602D306D14D4504D2B9EB29
:100CF000020E68EB04030138002EA6D0B5EB0E02FD
:100D000061EB030101FA0CFC22FA07F34CEA03033E
:100D1000F940C6E9003198E74046C5E74346D9E7C0
:100D2000034613F8012B002AFBD1181A013870472B
:100D30002DE9F84F17469046994623F000427B4232
:100D4000DFF884A13B4342EAD373534504460D4682
:100D500009D8464221F00043064343EAD676564579
:100D60008E46834608D942464B4620462946FFF721
:100D7000CDF904460D4616E009F1404606F5801609
:100D80003E4303D1BDE8F84F00F0A6B84FEAA9767C
:100D900006F0020653EA0B0B46EAD17607D1022E83
:100DA00064D0032E66D020462946BDE8F88F17434D
:100DB00006D1BEF1000F68DA37A5D5E90045F2E7A4
:100DC00052450FD1934206F1FF3607D1022E55D876
:100DD0003E4B03EBC603D3E90045E4E7022E51D8AE
:100DE0003B4BF6E75345E4D09B1AB3F1747F4FEACF
:100DF000235221DAB9F1000F01DA3C3220DB4246FE
:100E00004B4620462946FFF761FC08F094FE00F0AF
:100E100063F804460D46012E15D0022E17D0002E81
:100E2000C1D01FA3D3E9002320462946FFF76CF960
:100E30001DA3D3E9002316E01DA5D5E90045EAE787
:100E400000240025E7E705F100431D46ABE714A3A6
:100E5000D3E9002320462946FFF756F902460B4600
:100E600011A1D1E90001FFF74FF982E70EA5D5E9FD
:100E7000004598E710A5D5E9004594E710A5D5E908
:100E8000004590E7002400258DE709A5D5E9004538
:100E900089E700BFAFF30080182D4454FB21F9BF50
:100EA000075C143326A6A13C182D4454FB210940AD
:100EB000182D4454FB21F93F182D4454FB2109C03F
:100EC000182D4454FB21E93F0000F07FB09E000044
:100ED000989E0000000000002DE9F84FBC4B21F067
:100EE00000469E4204460D468B4618D9B94B9E4299
:100EF00001D809D140B122462B4620462946FFF7AA
:100F000005F904460D4606E0BBF1000F40F32381CE
:100F100093A5D5E9004520462946BDE8F88FAE4B9C
:100F20009E4211D8A3F1DE739E420AD88EA3D3E964
:100F30000023FFF7EBF8A94B0022FFF797FD0028ED
:100F4000E9D14FF0FF3A27E008F0F5FDA44B9E42AF
:100F500004460D4600F2B880A3F550239E4200F2ED
:100F60009C8002460B46FFF7D1F89C4B0022FFF70E
:100F7000CBF8002206460F464FF080432046294614
:100F8000FFF7C4F802460B4630463946FFF79EFB92
:100F90004FF0000A04460D4622462B4620462946BD
:100FA000FFF76AFA02460B4680468946FFF764FA65
:100FB0006FA3D3E9002306460F46FFF75DFA6EA341
:100FC000D3E90023FFF7A2F832463B46FFF754FA75
:100FD0006BA3D3E90023FFF799F832463B46FFF7AE
:100FE0004BFA69A3D3E90023FFF790F832463B465A
:100FF000FFF742FA66A3D3E90023FFF787F83246EA
:101000003B46FFF739FA64A3D3E90023FFF77EF8E4
:1010100042464B46FFF730FA61A3D3E900238046EE
:10102000894630463946FFF727FA5FA3D3E9002304
:10103000FFF76AF832463B46FFF71EFA5CA3D3E996
:101040000023FFF761F832463B46FFF715FA5AA333
:10105000D3E90023FFF758F832463B46FFF70CFA76
:1010600057A3D3E90023FFF74FF832463B46FFF77B
:1010700003FA02460B4640464946FFF747F8224628
:101080002B46FFF7F9F9BAF1FF3F02460B4644D170
:1010900020462946FFF738F833E7504B0022FFF788
:1010A00033F84E4B06460F46002220462946FFF7EE
:1010B0002DF802460B4630463946FFF707FB4FF046
:1010C000010A04460D4667E7464B9E421AD2464B3C
:1010D0000022FFF719F8444B06460F46002220462F
:1010E0002946FFF7C9F93D4B0022FFF70FF80246EA
:1010F0000B4630463946FFF7E9FA4FF0020A04463C
:101100000D4649E702460B4600203849FFF7DEFA54
:101110004FF0030A04460D463EE7354B354E03EBD0
:10112000CA03D3E90023FEF7EFFF22462B46FEF762
:10113000EBFF06EBCA0602460B46D6E90001FEF7B6
:10114000E3FFBBF1000F04460D46BFF6E4AE01F12C
:1011500000431D46DFE61CA5D5E90045DBE600BFE0
:10116000182D4454FB21F93F9C7500883CE4377EE0
:1011700011DA22E33AAD903FEB0D76244B7BA93F89
:10118000513DD0A0660DB13F6E204CC5CD45B73F57
:10119000FF8300922449C23F0D5555555555D53F03
:1011A0002F6C6A2C44B4A2BF9AFDDE522DDEAD3FF7
:1011B0006D9A74AFF2B0B33F711623FEC671BC3F97
:1011C000C4EB98999999C93F182D4454FB21F9BF54
:1011D000FFFF0F440000F07FFFFFDB3F0000F03F08
:1011E000FFFFF23F008003400000F83F0000F0BF27
:1011F000C89E0000E89E00002DE9F341174FDFF87C
:101200006080184E42F2107407F068FF85B23846CD
:1012100007F0B5FF01AA0DF10201404607F05AFDA3
:1012200007F05CFF80B2401B8442C8BF84B20198C3
:10123000FFF7CAF802460B46304607F0A0FFBDF89C
:101240000210094807F09BFF0848214607F097FF66
:1012500000214FF4203007F0EDF8D5E79CA1000005
:1012600044010020B1A10000C6A100000DA20000B1
:101270002DE9F843114FDFF84880124E42F2107505
:1012800007F02CFF1FFA80F9384607F078FF404638
:1012900008F03BFC044607F021FF83B2A3EB0903EF
:1012A0009D42C8BF9DB22A462146304607F067FFDF
:1012B00000214FF4004007F0BDF8E1E7E3A1000092
:1012C00044010020F8A10000F0B58DB00024CDE964
:1012D00009440B9400260027022303930BAB0293CF
:1012E0000AAB019309AB0093CDE906671E4B1F497A
:1012F00004944FF480621E4805F024FD1D4B1860D5
:101300000125CDE90667CDE90245CDE900441A4B38
:101310001A4904944FF48062194805F013FD194BE3
:101320001860194B19490094CDE90667CDE90354BB
:10133000CDE901444FF48062154805F003FD154BDB
:101340001860154B15490094CDE90667CDE90354A3
:10135000CDE901444FF48062114805F0F3FC114BD4
:1013600018600DB0F0BD00BF71120000A01F00207A
:1013700040040020F4050020DB900000801B0020CA
:10138000C0030020F0050020F911000060170020C4
:1013900040030020EC050020F990000040130020DD
:1013A000C0020020E80500202DE9F04F8DB01F4657
:1013B000029202F00403C2F3C2020193531C04938D
:1013C0008307DDF8588005460E4640F02882041D4C
:1013D00030B1072909D86FF01B000DB0BDE8F08FC0
:1013E00001F00706341DC6F108064FF0000A4FF061
:1013F00004097B1ECDF80CA052465146CB4605B1E0
:1014000027600498002800F32A81BC48874203D350
:10141000BB488742C0F02381DDF808C0A4EB050E6D
:101420001CF0020F4FEA9E0000F037814FF0000CD5
:101430001EE131B9252816D101214FF00409CB4610
:1014400011E06C2800F29F804B2822D8472800F238
:10145000B18029286AD8202805D0A0F1230CDCF11E
:10146000000141EB0C0113F8010F0028E1D1611BD1
:10147000B1F5806FC0F07381A249A34AA34840F23E
:101480003D2307F061FFA24807F05EFF40F23D21D7
:10149000FDE0A0F14C0CBCF1200F00F28B800FF2AC
:1014A000080E5EF82CF000BF67140000B5150000B0
:1014B000B5150000B5150000B5150000B515000004
:1014C000B5150000B5150000B5150000B5150000F4
:1014D000B5150000B5150000B9150000B5150000E0
:1014E000B5150000B5150000B5150000B5150000D4
:1014F000B5150000B5150000B5150000D5150000A4
:10150000B5150000B9150000B9150000D51500008B
:10151000D5150000D515000067140000B9150000AE
:10152000FD150000B515000067140000A0F12A0C9D
:101530004FF0010E5FFA8CFC0EFA0CFC4FF6DA7ECF
:101540001CEA0E0F8FD11CF0625F43D11CF0010129
:1015500089D0013C4C44C9F1000C04EA0C04002D74
:1015600065D0ABEB050CA4446645FFF434AF73289B
:101570006FD0BBF1040F4AD158F8040B206004343B
:101580004FF0040B6FE7A0F16E0C5FFA8CFCBCF11E
:101590000C0F0FD84FF0010E0EFA0CFC1CF0250FAB
:1015A0002FD140F2824E1CEA0E0F05D11CF4825C52
:1015B0007FF443AF002156E713F8011C6C2924D1B6
:1015C00013F8021C6C294FF000011BD14FF00809E1
:1015D000CB46BEE708F1070828F007080734F8E80B
:1015E000020124F007043DB1DDF814E0A644B6453D
:1015F0003FF6F1AEC4E90001083400214FF00809BC
:101600001DE700214FF00409E2E70021A1E7BBF14B
:10161000080F40F0968008F1070828F00708F8E85E
:1016200002BCC4E900BC08344FF0080B1BE7732868
:101630000FD0BBF1040F02D108F104089FE7BBF102
:10164000080F7ED108F1070828F0070808F10808FC
:10165000E9E7049858F8047B01380490CFE6029833
:10166000800746D5A4EB050E4FEA9E004FF0010C13
:10167000BEF5007F1FD32349234A24484FF4F87353
:1016800007F062FE234807F05FFE4FF4F8711E4832
:1016900007F053FE6FF015009FE60F2A0DD8002DBE
:1016A0003FD0C0B202F1300CEC440CF8100C03989F
:1016B000013003901CE00F2A0CD91249124A13483A
:1016C00040F2F51307F040FE134807F03DFE40F2EC
:1016D000F511DCE715B3C0B2BCF1000FE2D002F1A6
:1016E000300CEC4460F07F000CF8100C0AF1010A99
:1016F0000132C5F1080004340590B4E6909B000067
:101700004CBB000078A3000018A2000046A2000015
:10171000B3A2000063A2000084A20000BCF1000F8D
:1017200001D1019808B10136E2E73846CDE906213A
:101730000593FFF7F5FA0236DDE90621059B06441D
:10174000D6E7384A3849394840F2312307F0FCFDE2
:101750005946374807F0F8FD40F2312197E71DB9A7
:10176000A6F10804601838E6019BC1F3870C9DF8C8
:101770000C100BB90846194685F800C06870E9706E
:1017800085F802A0BAF1000F06D008A84FF0000CAF
:10179000C5F1010E624509D10DF1200808EB0209DF
:1017A000C5F1010BC14511D1601B16E610F8011BF4
:1017B0000B0608D504EB0E08464501F07F01FFF447
:1017C0000AAE04F8011B0CF1010CE3E7BAF1000FBB
:1017D00003D098F90020002A1CDB019BEBB998F894
:1017E000002055F8227045F822303846FFF798FA65
:1017F000421C04EB0B0111448E42FFF4ECAD98F84F
:10180000001004F8011B39462046029208F097F9AF
:10181000029A144408F10108C4E70022E9E76FF0D6
:101820000D00DAE518A2000078A3000046A200002F
:101830009EA20000436803F00303032B10B5044687
:10184000816002D02BB1002000E0006800236360BB
:1018500010BD054A05490648452307F075FD0248B5
:10186000452107F06AFDEEE7CAA2000078A3000058
:1018700046A20000014B1860704700BF0000002026
:101880002DE9F84F858B2B070446914669D4022930
:1018900005F0070500F0EE81AA46D4F81880A38B66
:1018A000B8F1000F7DDA0022266823F00703C4E9AF
:1018B000002243F00103A383A38B03F007055545E2
:1018C0004FF0000740F0A5814FF0000A002E00F015
:1018D000F28043F0080304F1140BA383584605F08B
:1018E00017FB68B9934A94499448B92307F02CFD33
:1018F0009348594607F028FD8E48B92107F01DFD91
:1019000089F31188BFF36F8FBAF1000F40F088811F
:10191000002E40F09E8117B18A492046B8474FF00B
:101920002003EFF3118983F31288BFF36F8F5846BA
:1019300005F0E0FA68B97F4A834980488E2307F0B2
:1019400003FD8248594607F0FFFC7A488E2107F0D4
:10195000F4FC584605F0ECFAA38B23F00803A383AC
:101960005AE001290CBF45F0100545F0200585839C
:101970001434204605F0CCFA68B96E4A6E496F48B7
:10198000B92307F0E1FC6E48214607F0DDFC694809
:10199000B92107F0D2FC89F31188BFF36F8FBDE83E
:1019A000F88F03F00702511F012920D80021062AD1
:1019B0002668C4E9001116D1324603E0E18B1268B3
:1019C0000131E183002AF9D123F0070343F0020239
:1019D000A283204607F0E0FB00283FF46DAF42F001
:1019E0002002A28368E723F007039AB2F0E7042AF3
:1019F0001ED123F007039AB2A283204607F0CCFB46
:101A000010B142F02002A283A38B03F00705002748
:101A100055453E4640F0FD80B4F81CA01AF0100F6A
:101A200000F01F812AF01003A3830AF0070A34E7AD
:101A3000474A4849414840F21B1307F085FC444897
:101A400040F21B1107F079FCDEE75DB142493B48EB
:101A50003F4A4FF4AB7307F077FC3D484FF4AB714E
:101A600007F06BFC23685BB93C493448384A40F2C4
:101A7000571307F069FC364840F2571107F05DFC38
:101A800023691F685FB936492C48314A4FF4AD735A
:101A900007F05AFC2E484FF4AD7107F04EFCA38BB3
:101AA00023F0070343F006039BB2062DA38340F007
:101AB000AD804FF000084FF0000A5646002F7FF42B
:101AC00008AFA9E7022D0BD026491C48204A40F256
:101AD0005D1307F039FC1E4840F25D1107F02DFC44
:101AE000E38B5BB120491548194A4FF4AF7307F0F7
:101AF0002BFC17484FF4AF7107F01FFC23695F6898
:101B00005FB917490D48124A40F2611307F01CFCF7
:101B10000F4840F2611107F010FCA38B23F007037C
:101B200043F004039BB2042DA383C2D00026B04629
:101B300004256EE090A30000BDA3000046A20000B3
:101B4000D4A30000B91C0000E9A30000FEA300001C
:101B5000EDA2000078A300000FA300001BA300006B
:101B60003EA3000055A300006BA30000012D0BD085
:101B70004B494C484C4A4FF4B27307F0E5FB4A48D6
:101B80004FF4B27107F0D9FB23685BB94749454868
:101B9000454A40F2651307F0D7FB434840F2651110
:101BA00007F0CBFB23699F685FB941493D483E4A36
:101BB0004FF4B47307F0C8FB3B484FF4B47107F01F
:101BC000BCFBA38B23F0070343F005039BB2052D59
:101BD000A3833FF46EAF0026B046052519E0324AD4
:101BE0003449304840F26B1307F0AEFB2E4840F208
:101BF0006B1107F0A2FBA38B03F00702AA423FF48C
:101C00000BAF002615463746B04602E00026B04628
:101C10000625A268002A3FF457AE4FF0010A58E6A5
:101C2000A16800293FF474AED1F8009000293FF478
:101C30006FAED1F804A043462A462046D047B9F1FA
:101C4000000F04D0D9F8003049469946EEE74B46DC
:101C5000FAE7314643462A462046366807F0C8FA76
:101C600056E61AF0200F3FF483AE2AF02003A38338
:101C70000AF00705204607F08FFA00283FF478AEF7
:101C800001380428ABD801A353F820F099180000BC
:101C9000DF1B00004B1A0000C51A00006D1B00007E
:101CA0007AA3000046A20000EDA200001BA30000E2
:101CB0003EA3000078A30000F8B504460D4600F1ED
:101CC00014064FF02003EFF3118783F31288BFF35C
:101CD0006F8F304605F00EF968B90C4A0C490D4873
:101CE0008E2307F031FB0C48314607F02DFB0748E7
:101CF0008E2107F022FB304605F01AF9A5613A461D
:101D000020460121BDE8F840FFF7BABD90A30000CE
:101D1000E9A3000046A20000FEA300002DE9F04761
:101D200004460F4607F054FA051E78DB04F1140947
:101D30004FF02003EFF3118A83F31288BFF36F8F04
:101D4000484605F0D7F868B9394A3A493A488E23E7
:101D500007F0FAFA3948494607F0F6FA34488E2176
:101D600007F0EBFA484605F0E3F8E38BA68B4FF655
:101D7000FF72934206F0070654D0022E24D101339D
:101D8000E38335464FF00108484605F0C1F868B9CD
:101D9000274A2B492848B92307F0D6FA294849464B
:101DA00007F0D2FA2248B92107F0C7FA8AF311885E
:101DB000BFF36F8FB8F1000F31D0002332463946A0
:101DC000204607F015FA2AE0062E0ED8DFE806F0C6
:101DD00004190D0D042D040000233B606368ABB9AA
:101DE000C4E90077AEB135460DE017491248174AED
:101DF00040F2C91307F0A8FA144840F2C91107F0DD
:101E00009CFA6FF004054FF00008BDE71F606760A3
:101E1000E8E7524602212046FFF732FD35462846C4
:101E2000BDE8F0876FF00A05EDE76FF08505EAE79A
:101E300090A30000E9A3000046A20000FEA300005A
:101E4000BDA30000D4A300007AA30000EDA200000F
:101E5000B2F5802F2DE9F04104460E4617466CD3AB
:101E60003D493E4A3E4840F2E31307F06DFA3D48D3
:101E700007F06AFA40F2E311384807F05EFA043FCF
:101E8000F51D3E4425F0070526F00706761B172EA4
:101E90004FEAD6070ED83449304A314840F2F3139E
:101EA00007F052FA314807F04FFA2C4840F2F3118C
:101EB00007F043FA2560B7FA87F4C4F12008C4F1AB
:101EC0002404A40007340023E408EB60631CBB4235
:101ED000AF600ED92649214A21484FF4017307F01B
:101EE00033FA224807F030FA1C484FF4017107F02A
:101EF00024FA05F10C0303EB8808002243F8042FB1
:101F00004345FBD1630043F001036B8005EBC40143
:101F10003B1B58002A804880A91925F834404A8084
:101F2000AB5305EBC70321465A8842F0010228460D
:101F30005A80BDE8F04107F093B9042A9FD80D49B3
:101F4000064A07484FF4F57307F0FEF9074807F013
:101F5000FBF94FF4F5718FE7E2A4000016A400002E
:101F600046A20000F8A4000049A5000030A500002A
:101F700072A500000FA50000F0B5094E01680246E9
:101F80000A2700200B4601311C78355D6D0701D40E
:101F90001360F0BD07FB0043A3F13000F2E700BF80
:101FA00049BA00002DE9F84F15469A46D378224ADF
:101FB00012F803B06F2B80460F460BF0030B29D0AD
:101FC00024D8582B0CBF10260A26DDF8289032465C
:101FD000002340463946FEF7B1FC092AD4B21ED888
:101FE0003034B045E4B277F1000709F8014D01D370
:101FF000D14511D82B789B0605D5082E15D1AB7885
:1020000043F00803AB704846BDE8F88F03F0F703D0
:10201000702BD7E70826D8E780460F46D7E7BBF1F5
:10202000010F0CBF37345734DBE7102EEBD1AB7800
:1020300043F01003E6E700BF49BA00002DE9F04F76
:102040009FB08246039116461C460025307810B991
:10205000284600F087BD731C2528069306D00399F7
:10206000D0470028C0F27E85013528E218220021E1
:1020700010A807F072FD7378252B00F0BC800023B8
:10208000711C98469E469C4618460F4611F8012B37
:102090002B2A00F0DF8000F2D680202A00F0DD80BD
:1020A000232A00F0DD802BB19DF8483043F0400337
:1020B0008DF84830B8F1000F05D09DF8483043F056
:1020C00020038DF84830BEF1000F05D09DF8483050
:1020D00043F010038DF84830BCF1000F05D09DF897
:1020E000483043F008038DF8483028B19DF8483057
:1020F00043F004038DF848309DF8483003F0440164
:10210000442903D16FF386138DF848309DF8483089
:102110000E9743F080032A2A8DF8483040F0A580BE
:102120009DF8493043F001038DF849307B1C1A7843
:102130002E2A9DF849200CBF0121002161F34102A4
:102140008DF849200CD15A1C0E925A782A2A40F058
:102150009C809DF8492042F004028DF8492002330A
:102160001A786C2A00F0BD8000F29F80682A00F087
:10217000A5806A2A00F0BE804C2A00F0C38013F8C4
:10218000012B0693782A8DF84B2000F205816D2AE9
:1021900000F2C580692A00F2FF80572A00F2DE8033
:1021A000412A04D0A2F14503022B00F2F5809DF8EC
:1021B0004A3002F0DF020421A2F1410861F3020378
:1021C000D8F100029DF849108DF84A3042EB080220
:1021D00062F3C7110A068DF84910CBB200F11B81DA
:1021E00003F07802182A40F005816FF3C6038DF8DA
:1021F00049300023F4E0B21C06928DF84B309DF874
:102200004930DF0740F1098154F8042B0492002A79
:1022100008DA9DF8482042F004028DF84820049A1C
:1022200052420492580740F1008154F8047B002F79
:1022300080F2FF809DF849306FF341038DF84930FB
:102240004FF0FF37F5E02D2A0DD0302A7FF42BAF69
:1022500001231AE74FF0010C17E74FF0010E14E7C6
:102260004FF0010811E701200FE70EA8FFF784FEE9
:102270000E9BBB423FF45BAF9DF848201390C00F0C
:1022800060F341028DF8482051E70EA8FFF774FE75
:102290009DF848301490C3F3400242EAD07262F3D2
:1022A00041038DF848300E9B5AE7742A26D07A2ACB
:1022B0007FF465AF9DF8492006210CE05A78682A22
:1022C0009DF8492006D1012161F3C6028DF849200D
:1022D000023354E7022161F3C6028DF8492001332D
:1022E0004DE75A786C2A9DF8492001D10421EBE78B
:1022F0000321F0E79DF849200521ECE79DF84920EE
:102300000721E8E7BDF8482022F4F04222F002025B
:1023100042F4804242F00202ADF84820DFE76E3A14
:10232000D3B201229A4040F282431A429DF84930CA
:1023300039D112F0240F61D1D1072DD59DF84A2053
:1023400003F07803A3F1400C032161F30202DCF1F6
:1023500000038DF84A2043EB0C0341E0A2F1580141
:10236000C9B2012000FA01F111F4624F7FF41FAFEE
:1023700040F6010319429DF849301AD111F4043F87
:102380000AD09DF84A2060F3020203F07803402B44
:102390008DF84A207FF42DAF9DF8483043F00103BB
:1023A0008DF8483025E79DF84A20022161F30202AA
:1023B000EBE79DF84A10022003F0780360F3020176
:1023C000402B8DF84A1002BF9DF8481041F00101E2
:1023D0008DF84810632A7FF40CAF003B18BF01232F
:1023E0009DF84820C2F340010B4363F341028DF88E
:1023F000482004E713F0380FCED1FAE69DF84A20C2
:10240000032113F0780F61F302028DF84A2014BF04
:1024100001230023E4E70123E2E79DF94820002A95
:10242000B4BF139A4FF0FF32FBE699077FF508AF70
:10243000149F9DF849100023CDE913339DF84A30CD
:1024400003F00702042A07D18A0705D49DF9492021
:10245000002AACBF06270D2703F00703012BC1F3A9
:10246000C30133D1CB1E042B04D8DFE803F01046A0
:1024700046101000236801294FEAE372CDE91032BB
:102480000BD103F0FF0310930023119307E054F8DE
:10249000043BDA17CDE9103202E0022911D00434EE
:1024A0009DF8483007939B0747D0069B0399324617
:1024B000504606F02BFF0028C0F254830544069EC8
:1024C000C4E51AB2109243F3C033DEE7022B24D1E5
:1024D000CB1E042B04D8DFE803F0181010181800E6
:1024E000012954F8043B4FF0000214D00229CDE931
:1024F0001032D5D19BB21093D2E7073424F00704F1
:10250000F4E80223CDE91023CAE754F8043B109302
:1025100000231193C4E7DBB2BCE7042B08D10734D6
:1025200024F00704D4E900230834CDE91023B7E7E9
:10253000032BB5D154F8043BDDE79DF84BB0BBF15C
:10254000780FBCD8BBF1570F49D8BBF1250F00F06D
:102550009180BBF1240FB2D9BBF1410F03D0ABF195
:102560004502022AABD8DDE91012002AC0F23681FA
:10257000079B180700F13581C3F300194FEA491989
:10258000C2F30A50C2F31302002840F02D8151EA31
:10259000020614BF01260026D20242EA5152C902A5
:1025A000BBF1460F40EA010E42EAE07C08BF4FF063
:1025B000660B5EEA0C0CCDE90C1200F09E81002E39
:1025C00040F049810D9A42F00042A0F2FE380D928F
:1025D0000020DDE90C1206464FF0050C55E1ABF189
:1025E0005802202A3FF66BAF01A050F822F000BF3E
:1025F0007B270000BF240000BF240000BF24000090
:10260000BF240000BF240000BF240000BF2400003E
:10261000BF24000067250000BF240000FF26000043
:1026200013270000672500006725000067250000CC
:10263000BF24000013270000BF240000BF240000B7
:10264000BF240000BF240000B52700007B27000046
:1026500081270000BF240000BF2400007B2600006B
:10266000BF2400007B270000BF240000BF2400001F
:102670007B27000003995846F2E4002F109E3ADBB6
:102680003946304607F071FA3718002E3FF417AF7D
:102690004FF000099DF84A3013F01002059200F047
:1026A0005682023013F04003DDF84C80089318BFC7
:1026B000149BCDF81C80404418BFC018049B002B0D
:1026C00040F360829DF848201B1A50070493C2F320
:1026D000800B00F15782510640F14782B9F1000F9B
:1026E00007D003994846D0470028C0F23B82013505
:1026F000D94630223AE23046FEF712FBC4E7109B7F
:102700008DF85C304FF000090DF15D0717AE012028
:10271000C0E7079B1E0758BFC3F30019DDE910236C
:1027200054BF4FEA49194FF02B09002B06DA5242E9
:1027300063EB4303CDE910234FF02D090DF1750331
:102740000093DDE9100117AB12AAFFF72BFC064638
:10275000002F0CDB9DF848200DF175039B1B6FF3D8
:1027600086129F428DF8482001D9FB1A1393002E40
:102770003FF4A5AE0DF175075BE04FF00009DDE712
:102780001098002800F0DE810DF17503009312AA65
:1027900017AB0021FFF706FCBDF84A3003F0EF034A
:1027A00043F4F04343F010030646ADF84A304FF0CF
:1027B0000009CDE7109B07293FF681AEDFE801F065
:1027C0000C04060C08080C0C1D7078E61D8076E6DB
:1027D000EA17C3E9005272E61D6070E64FF02D095A
:1027E000CEE64FF02B09CBE640F2FF76B0422FD178
:1027F0000BF101039E48DBB20A43C35C03F0030301
:102800001ED1012B0BBF492369234E216E210CBF22
:10281000462266228DF85C309DF848308DF85D10B8
:102820006FF386138DF85E208DF848300DF15F0749
:1028300017AEB81BB9F1000F3FF42CAF013029E7F8
:10284000012B15BF6E234E23612141211A46E1E77A
:102850000026A1E6013849185241002AFADACDE9EA
:102860000C12AFE6490841EAC2715208B2F1333F97
:10287000404608F10108F5D20CFB02FEA1FB0C1248
:1028800000F102087244013E012018F1020FE9DB59
:1028900008B1CDE90C12B8F1000FDDE90C212FDCF5
:1028A000C8F1040008F11C08A0F1200CC24021FA74
:1028B00000F301FA08F80BF0DF0042EA080221FAFF
:1028C0000CFC472842EA0C0208933AD1F31C01DBC6
:1028D000B7422BDAABF10203002F5FFA83FB7FDDF7
:1028E0009DF84800800607F1FF3779D43B1E18BFDA
:1028F0000123059307F101082DE04FF0000867E67A
:10290000023241F100010CA8CDE90C2106F0CFFC08
:10291000DDE90C2108F1FF38013692184941002900
:1029200008F1FF38F9DACDE90C21B4E79DF8483019
:102930009906A7EB060751D43B1E18BF0123059348
:1029400004E00023BBF1660F0593D3D117EB060813
:102950004FF0660B46D4B8F1100FA8BF4FF0100827
:1029600010200B904FF000610020CDE90E01DDE951
:102970000E03B8F1000F38D10899121841EB03018A
:10298000B1F1805F3FD2CDE90C21079BBBF1660F0F
:1029900003F0200240F0B580002E3FDC30218DF89E
:1029A0005C10002A66D1002F40F3AF812E228DF8F3
:1029B0005D2086B17242BA42A8BF3A469DF84A10DD
:1029C0001392002AA7EB0207D4BF0022012262F370
:1029D00045118DF84A100DF15E0837E00023AEE78F
:1029E000002386E74FF00008BAE7400840EAC370CA
:1029F0005B08CDE90E030EA8099208F1FF3806F036
:102A000056FC099AB3E7520842EAC1720CA8490879
:102A1000CDE90C21013606F04AFCB6E70DF15C0861
:102A20000B99002909DD0BA90CA8079206F057FCA9
:102A3000013E08F8010B079AF2D113969AB9002FBC
:102A400040F361812E2108F8011B0026002F1ADDBA
:102A50000B9A002A17DD0BA90CA806F040FC013FD9
:102A600008F8010BF2E72E2208F8012BEDE700BF72
:102A700048BA00002E228DF85D20002EABD0002F2A
:102A800098DC0DF15E08059B002B4ED1149747464C
:102A90000BF0DF02452A23D1002EBABF76422D2348
:102AA0002B23632EC8BF64217B70D1BFBA1CB6FB39
:102AB000F1F3FA1C03F13000C8BF01FB13664FF0BD
:102AC0000A01C8BFB87087F800B0B6FBF1F317462B
:102AD00003F1300001FB1363303307F8020B53702E
:102AE000139B002B2CDC149B002BD4BF0023012351
:102AF0009DF84A2063F3861200238DF84A203B702C
:102B000096E60BA90CA8079206F0E9FB079A8DF848
:102B10005C00302818BF06F1FF3612B9002F40F3D1
:102B2000F4802E228DF85D2055E7474608F1FF38E6
:102B300017F8012C302AF8D02E2A08BF4746A7E7FD
:102B40000123D5E7724F81467E1F0520A2E51A07B3
:102B500048BF0130A6E5104609920399D0470028E6
:102B6000099A05DA1FB0BDE8F08F2022DDF810B019
:102B7000594600290BF1FF3BEDDC049BCDF810B06A
:102B80002B445D1AB9F1000F05D003994846D04790
:102B90000028E7DB0135089B002B79D09DF94930EF
:102BA000002B29DBDFF86C913346187819F80020E8
:102BB00052079B4603F101033FD49DF84A30AE1BF8
:102BC00098065E4407D44246002A08F1FF383BDCF1
:102BD000079B33449E1A9BF800002E280AD10399C4
:102BE000D0470028BEDBB8F1000F06F1010631DC4A
:102BF0000BF1010B5D4638E0B14699F800007028F2
:102C0000C84609F1010913D1AE1B149D4644354451
:102C1000AB1B002B34DC03993B464246504606F082
:102C200075FB00289EDB3044049E0546064465E0A3
:102C30000399D0470028E0DA94E705930399D04739
:102C40000028059BB1DA8DE703993020D047002892
:102C5000B9DA87E703993020D04708F1FF38C0E799
:102C60000399D0470028FFF67DAF287819F8003087
:102C70005907A84605F10105F2D4A6EB0B06C4E7F7
:102C800003993020D0470028FFF66CAF0136BFE72C
:102C90009DF84A30DA0601D41B0706D50399302087
:102CA000D0470028FFF65EAF0135059B3BB1039985
:102CB0009DF84B00D0470028FFF654AF0135A844DB
:102CC00006E003993020D0470028FFF64BAF0135CE
:102CD000A8EB0503002BF4DC03993B463246504633
:102CE00006F014FB0028FFF63DAF28449CE703994B
:102CF0002020D0470028FFF635AF0135731B002B8D
:102D0000F5DCFFF7DCBB1646BDE60DF15D08BAE663
:102D1000A2A5000049BA000008B54FF02002EFF369
:102D2000118382F31288BFF36F8F01F04DFD0348CA
:102D300006F025FA00F062FEFCE700BFA3A5000044
:102D4000F8B506460C4629B90E4D0F4B5B1B1F11FB
:102D5000BC4200DBF8BD6B685B797BB14EB90B49B7
:102D60000B480C4A862306F0EFFA0A48862106F043
:102D7000E4FA2B6831461B68284698470134103521
:102D8000E6E700BF489E0000689E000004A6000021
:102D900046A20000CCA50000014B53F8200070476C
:102DA000089F0000054A00231370054A1360054B75
:102DB000054A1A604FF4004000F096BA110F002047
:102DC000F8050020040000206593000070B5194B41
:102DD000194CE41A902C0BD918491948194A40F299
:102DE000732306F0B1FA174840F2732106F0A5FAF2
:102DF000BFF35B8F144B53E8006F721C43E8002154
:102E00000029F8D1BFF35B8F1EB92511094CAE42E2
:102E100000DB70BD237B53B123689B690BB1204657
:102E20009847636804221968204600F06FF801365D
:102E30001034ECE7489E0000689E00005CA600008D
:102E400046A2000017A6000000060020F8B50C4FAF
:102E50003D784DB90B4C0C4EFFF7B8FF361B3611C1
:102E6000B54202DB01233B70F8BD63685B791BB19F
:102E7000236820465B69984701351034F0E700BFAE
:102E8000110F0020489E0000689E0000014B0122A7
:102E90001A707047100F00200C4BBFF35B8F53E884
:102EA000001F013143E80012002AF8D1BFF35B8F05
:102EB00058B1BFF35B8F064B53E8001F013943E85D
:102EC0000012002AF8D1BFF35B8F7047F80500208D
:102ED000FC050020054B10B51B68044698470021EF
:102EE000A0602046BDE81040FFF72ABF0400002084
:102EF000044A054B9B1AB1EBD30F34BF52F8310093
:102F000000207047009E0000489E000070B5104CE5
:102F10000368041B24111B68013405460E46E4B205
:102F200063B90C490C4A0D48BB2306F00DFA0C4856
:102F300006F00AFA0848BB2106F0FFF96B681C711D
:102F40006B6801221E605A71BDE87040FFF79EBF9A
:102F5000489E0000DCA6000084A6000046A20000F7
:102F6000F2A600000EB403B503AB014653F8042BE0
:102F700004480193FFF762F802B05DF804EB03B078
:102F8000704700BF979300002DE9F04F87B01C46B3
:102F900001F0010305929DF84090BDF948A004930B
:102FA0000746884601F0020B01F0080606F0F1F929
:102FB0000246002840D037493846FFF7D3FF054680
:102FC000BBF1000F08D018F0440F37D13249224628
:102FD0003846FFF7C7FF0544049B53B12F4B3049D8
:102FE00053F829202F4B3846002A08BF1A46FFF70E
:102FF000B9FF3EB12C4B2D4953F829203846FFF735
:10300000B1FF0646BAF1000F12DB059B284C23B135
:10301000284BB9F1040F08BF1C4651469DF84400E7
:10302000FFF766FF214602463846FFF79BFF06443E
:10303000701907B0BDE8F08F0546C1E71E4B186850
:103040000028C8D01D4B4FF47A781B68B4FBF3F40A
:103050004FF46161B4FBF0F300FB134408FB04F48C
:103060004FF03C0CB3FBF1F201FB1231B4FBF0FE6C
:10307000B1FBFCF300FB1E440CFB131108FB04F432
:103080000091B4FBF0F40E49CDE901E43846FFF7B6
:1030900069FFA0E722A7000026A70000149F0000F8
:1030A0004BA7000014A70000289F00004EA70000B7
:1030B0001DA7000019A70000080600200406002034
:1030C0002FA70000CA0605D48B064CBF024903494E
:1030D000FFF748BF704700BFE3B7000054A70000E8
:1030E0002DE9F8430F460899DFF8B89004461646D4
:1030F0001D46FFF7E7FF4FF00008A84528DB76B331
:103100003A7829492046FFF72DFF01256A0703D1A8
:1031100024492046FFF726FFB54225D27A5D224991
:103120002046FFF71FFF0135102DEFD11F49204624
:10313000FFF718FFEEB91B492046FFF713FF0125E3
:10314000B5422B4617D317492046FFF70BFF1DE06A
:1031500049462046FFF706FF08F10108CDE714496C
:103160002046FFF7FFFE012511492046FFF7FAFE32
:10317000D9E700252B46FA5C0E4B0F499B5C13F0F8
:10318000970F08BF2E222046FFF7ECFE0135102DC9
:1031900006D06B07D4D103492046FFF7E3FECFE703
:1031A000BDE8F8835FA7000057A7000061A70000F3
:1031B0005DA7000049BA000063A7000038B5CB073F
:1031C00005460C4603D5054A0549FFF7CBFE2146C7
:1031D0002846BDE83840FFF775BF00BF14A70000C0
:1031E0004BA700002DE9FF470E46904636F8102BFE
:1031F0008B6812F4E07F07460D46C2F3821923D094
:103200000A784868C2F3C202D8B13049401A40F384
:10321000CF00CDE90120CDF800900022414638468C
:10322000FFF7B2FE2B68C3F349238246B3B96C881B
:10323000C4F3CB04F4B94A4641463846FFF7BEFF13
:103240002EE04FF0FF30E4E70B68C3F349236BBB7C
:103250004C88C4F3CB041CB3CA460BE01C481D4980
:1032600033463A4605F049FF002822DB6C88C4F358
:10327000CB0494B12B68C3F349231E44102C25467C
:1032800028BF10253146CDF8008053462A463846DF
:10329000FFF726FF641B2E44F0D1B9F1000FCAD10D
:1032A000384604B0BDE8F04706F09DB80A48CA4663
:1032B000D5E70A4A0A490B4840F2B72306F044F81A
:1032C000064840F2B72106F038F8CFE7009E00002C
:1032D000979300003D200000B393000066A7000014
:1032E000A4A7000046A20000074A00210123904243
:1032F00006D8064A01B901231360054B18607047D0
:1033000040085B000121F2E740420F000406002064
:10331000080600202DE9F04F85B002AFD7E90E6A0C
:103320000446884693469946002E4ED0C7F804A01E
:10333000CDF800A07A6B334610210020FEF734F858
:10334000051E09DA22492348234A672305F0FCFFBA
:103350002148672105F0F1FF204B3A6B04F0070488
:103360000BF0070BE40044EA8B1403EA45231C43EB
:103370001B4B03EAC2431C43134617332B4423F071
:103380000703ADEB030D0DF1080BA6B1CDF800A0BE
:103390007A6B334629460BF11000FEF705F800283A
:1033A00009DA0B490B480C4A812305F0CDFF0A4886
:1033B000812105F0C2FF4B4622464146584606F0A1
:1033C0001FF80C37BD46BDE8F08F3546C4E700BF97
:1033D000FAA7000046A20000CDA7000000FE0700EB
:1033E0000000F87FF8B5074F0D4604464618B44272
:1033F00001D12846F8BD386814F8011B83685B6862
:103400009847F4E724060020014B0020196070471C
:1034100020060020024B034801221A7005F0E3BF8A
:10342000130F00205C9F0000064B10B518680C4677
:10343000FFF7B2FC21460346BDE8104002480F22C8
:10344000184700BF200600205C9F000008B5094B0C
:103450000948186006F0D9FA58B908490848094AD5
:10346000792305F071FFBDE808400648792105F091
:1034700064BF08BD24060020689C000039A8000035
:1034800046A2000004A80000014B01221A707047F8
:10349000140F0020014B0020196070473C060020EB
:1034A000024B034801221A7005F09DBF150F002042
:1034B0008C9F0000064B10B518680C46FFF76CFC9B
:1034C00021460346BDE8104002480F22184700BFBE
:1034D0003C0600208C9F0000F8B5194D07460E46AB
:1034E000042432463946002003F006F9C8B101230E
:1034F0002B70144B1B782BB93046F8BD5CB92C707F
:103500004FF0FF34002003F03FF90028F4D02B786F
:10351000002BF3D1F0E7013C41F2883006F0E9FAE4
:10352000F0E72B7813B1013C04D12C702B78002BE1
:10353000D7D1E1E741F2883006F0DBFAF6E700BFC9
:10354000140F0020150F00202DE9F84305464FF019
:103550002003EFF3118683F31288BFF36F8F2148A6
:1035600003F0C8FC68B9204A204921488E2305F0A1
:10357000EBFE1C491F4805F0E7FE1B488E2105F0B5
:10358000DCFE18481C4FDFF8748003F0D1FC1C4BA4
:103590001C684FF00C09BCB9124803F0B9FC68B9BB
:1035A000114A18491248B92305F0CEFE0D491648B4
:1035B00005F0CAFE0C48B92105F0BFFE86F311885C
:1035C000BFF36F8FBDE8F883D4E90123002D18BF46
:1035D00013462BB198F8142009FB02F2B85C984707
:1035E0002468D8E74006002090A30000E9A300006B
:1035F00046A20000FEA3000048060020F00C0020B8
:1036000054060020BDA30000D4A300000A4ABFF363
:103610005B8F430902EB830200F01F00012383400C
:10362000DB4352E8000F184042E800010029F8D1BE
:10363000BFF35B8F704700BF4406002070B5194B85
:103640001C7DBFF35B8F04F01F0301229A40164BD1
:10365000610903EB8103D04353E8001F01EA000531
:1036600043E80056002EF7D1BFF35B8F0A4213D018
:103670000E4B0F4D8BB10C236343EA18E85C517875
:1036800005F02AFF0020FFF75FFF0C235C432A1997
:1036900000232B51C2E9013370BD83F31188BFF3BE
:1036A0006F8FEFE7F00C00205C060020D99400003B
:1036B000480600202DE9F843324B334A1C7DBFF306
:1036C0005B8F63094FEA830852F823302F4EBFF314
:1036D0005B8F04F01F0943FA09F313F0010F07464B
:1036E0000AD10146204600F069F828B107C80C232A
:1036F00003FB046383E807000C236343F218F55CC3
:103700002DB92046FFF782FF2846BDE8F8837B1CD1
:1037100010D0D2F808C01E4D1E4A4FF400400021C0
:10372000ECFB005100232846FDF708F90121381A67
:1037300005F038F904F09AF80120FFF705FFBFF310
:103740005B8F154B9844012303FA09F358E8002FC7
:103750001A4348E800210029F8D1BFF35B8F0F4BD3
:1037600033B10C236343F218F05C517805F0A8FEE6
:10377000FFF764FF2046FFF749FF04F0EBF8012054
:10378000C3E700BFF00C00204406002048060020DC
:103790003F420F0040420F005C060020C194000031
:1037A000054BBFF35B8F53F82000BFF35B8F0038EE
:1037B00018BF0120704700BF600600202DE9F74FB9
:1037C000884601A900F042F8441E24B204EB4404E8
:1037D000DFF86C900546A40025B92F46384603B0A3
:1037E000BDE8F08F019B185D1F19FFF7D9FF064652
:1037F00010BB7868134A4FF4004ACC463146E0FBD0
:103800000AC100236046FDF799F88346B8680D4A5F
:10381000CC463146E0FB0AC100236046FDF78EF836
:10382000094B1B685A1C01D0834205D9B8F1FF3FF0
:10383000D4D058444045D1D9013DADB20C3CCBE782
:103840003F420F0040420F000800002008B9024B21
:103850000B600020704700BF9C9F0000014805F0EE
:10386000ADBA00BF9C9F000010B5044618B90D4BBF
:103870000D485B689847616831F004030CD0082953
:103880000AD011F0020108D00848214603F092F94D
:10389000002323600023636010BD2068142206F01B
:1038A0005CF9F7E7E400002080A800007C0B002012
:1038B00008B508B34368042B10D101220368BFF395
:1038C0005B8F53E8001F002903D143E80020002844
:1038D000F7D1BFF35B8F0BD1002008BD53B1006857
:1038E0004FF0FF324FF0FF3303F05CFB0028F3D0C2
:1038F0000348F2E70348F0E76FF4E040EDE700BF6C
:10390000E98FFFFFEA8FFFFF08B5C0B14368042BC2
:1039100010D100220368BFF35B8F53E8001F012919
:1039200003D143E800200028F7D1BFF35B8F09D112
:10393000002008BD43B1006803F02EFCF8E76FF4E7
:10394000E040F6E70148F4E70148F2E7E98FFFFFBE
:10395000EA8FFFFF10B5044618B9164B16485B688E
:1039600098476368042B23D0082B21D0CBB9236858
:10397000BBB912484FF0FF324FF0FF33214603F03E
:10398000ADF808B923681BB90A4B0D485B68984726
:1039900020681422002106F0E0F8636843F0020377
:1039A0006360206806F082F8636843F00103636097
:1039B00010BD00BFE400002080A800007C0B0020A8
:1039C000A6A8000008B5064906484023142206F0C0
:1039D0003AF8BDE808400449044805F04FBA00BF72
:1039E0007C0600207C0B0020A49F0000B89F0000F4
:1039F000014910220A60704710ED00E072B64040A5
:103A000080F31188BFF36F8FBFF34F8F30BF62B663
:103A1000BFF36F8F704700BF72B6494081F31188C2
:103A200020BF80F3118862B6704700BF70B50646AC
:103A300086B00D46002938D08B6805934B680493F7
:103A40000B68039300241C4B1C490293012223465C
:103A50002046CDE9004405F0F1FC6B6905932B6924
:103A60000493EB680393164B14490094CDE901438A
:103A700001222346204605F0E1FCEB690393114B3C
:103A80000E490094CDE9014301222346204605F06A
:103A9000D5FCAB6903930C4B08490094CDE9014375
:103AA00001222346204605F0C9FC2946304606B0CF
:103AB000BDE8704002F092BED3A80000289E00002E
:103AC00002A9000031A9000040A9000040B200286E
:103AD00007DB044A4109012300F01F00834042F83C
:103AE0002130704700E100E0054B420900F01F0063
:103AF00053F82220012303FA00F01040704700BF62
:103B000000E100E070B54D1C072D04460E460FD9AC
:103B1000114A12491248572305F016FC1148314644
:103B20000723224605F010FC0B48572105F005FC41
:103B300060B20028ACBF00F160400B4B4FEA451566
:103B4000B8BF00F00F00EDB2AABF00F561401D54F0
:103B500080F8005370BD00BF6EA90000A4A900004A
:103B600046A20000BFA9000014ED00E030BFFFF73F
:103B7000FDBF00BF0B4A08B50B4B22F07F029A60D5
:103B8000BFF34F8FBFF36F8FD3F8882022F47002FA
:103B9000C3F8882002F0B6FE04F03EFD00F0E0FB22
:103BA00002F0F4FE0000000000ED00E0094A0A49BE
:103BB000936809689967094958674B6843F08053CF
:103BC0004B60002383F31188BFF36F8F9368986F66
:103BD000704700BFF00C0020FCA0000000ED00E0EA
:103BE00012498A684FF030001044EFF3098C80E8E6
:103BF000F01F202080F31288BFF36F8F0C4F4FF01F
:103C00000066CA698A603E60506F0023536780F384
:103C1000118804B5104600F03FFCBDE8044002F1F5
:103C2000300090E8F01F8CF309887047F00C0020FA
:103C300004ED00E01EF0040F0CBFEFF30880EFF37B
:103C40000980816911F8021C0229FFD001B505F035
:103C500005FC01BD42F8203C009B42F81C3C0A498F
:103C6000019B42F8183C029B42F8143C21F00101F0
:103C70004FF0807342F8043C42F8081C0023203ABD
:103C800002654367704700BF43920000094A03463C
:103C9000906870B113F1160F406E05D0A0F12002AC
:103CA0009A4205D8834203D2814228BF0020704740
:103CB00000207047F00C002008B5094B98600D46B5
:103CC000144600F0E9FB204685F30988002163B61D
:103CD00081F31188BFF36F8F0022002305F0B1FA42
:103CE000F00C002001B572B60B4A906900281EBF87
:103CF0000021916105F0CBFE62B6EFF30580A0F1E3
:103D000010004FEAC0000549014409C99847BDE8C1
:103D10000140034908470000F00C0020809C00008F
:103D2000253D0000044B9968D869884203D00349B7
:103D30004FF080520A607047F00C002004ED00E064
:103D4000F0B585B000243B4B0293CDE900442346F7
:103D500007460E4601223849204605F08EFB374BB8
:103D60009B6ADB0409D5364B33490094CDE9014306
:103D700001222346204605F080FB304B9B6A1D053F
:103D800009D5304B02930023CDE900332A490122A3
:103D9000184605F072FB294DAB6A9C051ED5002420
:103DA000294B0293012223462046CDE900442249B3
:103DB00005F063FBAB6BAA6A10040FD50393234B8A
:103DC0001D490094CDE9014301222346204605F018
:103DD00054FB1FB1AB6A23F40043AB62174B9B6AE1
:103DE000590509D51A4B02930023CDE90033124936
:103DF0000122184605F041FB104A936A13F48073C0
:103E000012D0144B02930023CDE900330A4901225A
:103E1000184605F032FB094A936A002043F47F43B9
:103E20009362307005B0F0BD926A9204F3D50A4AED
:103E30000292E9E7FFA90000289E000000ED00E0E3
:103E400015AA000026AA000039AA000052AA000004
:103E500067AA000082AA00009AAA00001FB50024E9
:103E6000334B0293CDE900442346324901222046D8
:103E700005F003FB304B9B6A9B0109D52F4B2D4965
:103E80000094CDE9014301222346204605F0F5FACE
:103E9000294B9B6ADC0109D5294B02930023CDE90C
:103EA000003324490122184605F0E7FA224B9B6AA9
:103EB000180309D5234B02930023CDE900331D4994
:103EC0000122184605F0D9FA1B4B9B6A590309D504
:103ED0001D4B02930023CDE90033164901221846F9
:103EE00005F0CBFA144B9B6A9A0309D5174B029342
:103EF0000023CDE900330F490122184605F0BDFA31
:103F00000D4B9B6ADB0309D5114B02930023CDE9CE
:103F1000003308490122184605F0AFFA064A936AB1
:103F20006FEA03436FEA13430020936204B010BDAD
:103F3000C9AA0000289E000000ED00E0E1AA0000F0
:103F4000F4AA00000EAB00002CAB000051AB000047
:103F50006BAB00002DE9F04385B00024524B029377
:103F6000CDE9004423468046894616464F49012242
:103F7000204605F082FA4E4B9B6ADF0609D54D4B71
:103F80004A490094CDE9014301222346204605F029
:103F900074FA474B9B6A1D0709D5474B02930023D0
:103FA000CDE9003341490122184605F066FA404D3B
:103FB000AB6A9C0741D46FF015073D4B9B6AD9074C
:103FC00009D53E4B02930023CDE900333749012246
:103FD000184605F052FA364B9B6A9A0609D5384BBB
:103FE00002930023CDE9003330490122184605F041
:103FF00044FA2F4CA36ADB0602D4A36A9D0750D56E
:10400000636818054DD541463846FFF73FFE002846
:1040100035D080F309880220254B9A6A920642BF68
:104020005A6A22F400525A629A6A42F0FF029A6275
:104030000023337005B0BDE8F0830024214B0293C8
:1040400020462346CDE900441849012205F015FA1F
:104050006F6BAB6A1806AED51B4B14490397CDE9BD
:104060000143009423460122204605F006FAB9F1E7
:10407000000FA2D0AB6A23F08003AB629DE7A36A76
:10408000D9060ED51149124A124840F2491305F0DB
:104090005BF9114805F058F90D4840F2491105F057
:1040A0004CF90020B8E700BF96AB0000289E000046
:1040B00000ED00E0ACAB000026AA00000DAC000053
:1040C0009AAA0000DFAB0000F7AB000066AC00006E
:1040D0002CAC000046A20000B0AC00002DE9F0417D
:1040E000834B5F6890B00446C7F30806002383F350
:1040F0001188BFF36F8F02F07F40B0F17F4F0CD17A
:1041000002F00C0008281AD17A4A7B490093CDE9C5
:1041100001321846012205F0B0F90025774A7849A6
:10412000784840F2FB3305F00FF9774805F00CF9B9
:10413000724840F2FB3105F000F9002406E0120756
:1041400046BF0C461D460125002CE7D04FF0000865
:10415000F31E8DF81F80092B00F2B080DFE803F01A
:1041600005A4A883AEAEAEAEAEAC684B604F62495C
:10417000CDF80080CDE9018300230122184605F027
:104180007CF9FE6A8DF81F8016F002060CD0604B99
:10419000CDF80080CDE9018300235749012218465C
:1041A00005F06BF9002228E0FB6A002B04DA594B7A
:1041B0000096CDE90163EFE7FB6A5B0067D5564BDC
:1041C0004D490096CDE9016301223346304605F0A2
:1041D00054F9A36933F8022C4DF602739A422CD19C
:1041E000236803934D4B44490096CDE901630122B6
:1041F0003346304605F041F922689DF81F30CBB9AF
:1042000008AE04F1200720686168334603C3083410
:10421000BC421E46F7D10F9B002D63D0C3F30801AB
:1042200021B96FEA53236FEA43230F9308A910467D
:10423000FFF7FCFB10B0BDE8F08197F8283033B1F0
:104240000DF11F0201212046FFF784FE0DE097F8D3
:1042500029302BB10DF11F010120FFF771FD04E0A2
:104260007B8D9BB21BB1FFF7F9FD0246C5E72C49D8
:10427000224A244840F2CD2305F066F8294805F08B
:1042800063F840F2CD211D4805F057F88AE724492C
:104290001A4A1C4840F2D12305F056F8224805F08E
:1042A00053F840F2D121EEE70DF11F020021CAE7D9
:1042B0000DF11F010020D0E71C4B69E71C4A1D4B84
:1042C0000D4917F4F87F18BF1346103ECDE90336A9
:1042D000194B02930023CDE900330122184605F063
:1042E000CCF85FE723F4FF7323F001039DE700BFE1
:1042F00000ED00E001AD0000289E00002CAC0000A5
:104300002CAD000046A200003FAD00007DAD0000D6
:1043100094AD0000B5AD0000C3AD0000E2AD0000FB
:1043200078A30000FEAD000022AE000052AE0000F7
:10433000E8AC0000D3AC000076AE0000024A53693E
:1043400043F010035361704700ED00E0EFF3088085
:10435000EFF3098101B57246FFF7C0FE01BD00BF52
:10436000044800232021C2180133302B82F80013A7
:10437000F9D1704700E100E0002080F31488BFF31A
:104380006F8F05F0FFFB00200D490860BFF34F8FD2
:104390000C4880F3088800F02BF8202080F3118867
:1043A00009484FF40261401880F30988EFF3148044
:1043B0000221084380F31488BFF36F8FFFF7DAFB05
:1043C00094ED00E040310020C02300200749D1F8DF
:1043D00090200023C2F307221846934200DB704767
:1043E000C1F89830C1F8A0000133F6E700ED00E015
:1043F00008B572B6002383F31388FFF7E7FF144B69
:104400004FF0FF32C3F88020C3F88420C3F888201F
:10441000C3F88C20C3F89020C3F89420C3F89820E8
:10442000C3F89C20C3F88021C3F88421C3F88821F5
:10443000C3F88C21C3F89021C3F89421C3F89821C4
:10444000C3F89C2162B6BFF34F8FBFF36F8F08BDD7
:1044500000E100E0084B9B6883420BD1EFF305833A
:1044600043B1064B5A6842F080525A605A6A22F4AD
:1044700000425A6204F01CB8F00C002000ED00E08D
:10448000024B034A0348012100F086B800000420D3
:1044900000000020C89F0000426E054B203A1A60C1
:1044A000044A2021C3E901121846012100F09CB8FA
:1044B0009C0B002000000B15F0B5284E85B00025A0
:1044C0008D4215DA4468002C45D0D3B104F1FF3C8D
:1044D00014EA0C0F0FD0224B039502930023012204
:1044E000CDE900331F49184604F0D7FF6FF01502DD
:1044F000104605B0F0BD1F2CEDD907681CEA070F68
:10450000E9D1202C0768D0F808C05FFA82FE10D9E4
:10451000B4F1004F0FD8013CB4FA84F4C4F11F0485
:104520006400BEF1070F4CEA040C06D90E4B03924F
:10453000D3E70824F5E73E24F3E727F01F041443EC
:1045400044F01004C6F89820C6F89C404CF00104D2
:10455000C6F8A040013201350C30B1E700ED00E0B3
:104560008DAE0000209E0000B0AE0000044B05227E
:10457000C3F89420BFF34F8FBFF36F8F704700BF16
:1045800000ED00E0BFF35F8F024B0022C3F89420E0
:10459000704700BF00ED00E038B50E4D01232A78CA
:1045A0000C46FFF789FF2870163011D140F2111325
:1045B000094A0A490A4804F0C7FE2146094804F09E
:1045C000C3FEBDE83840044840F2111104F0B5BE06
:1045D00038BD00BF170F0020D6AE000078A3000042
:1045E00046A200000DAF000010B5134A0023127858
:1045F0000C46FFF761FF10F1160F04D00F4B00229D
:10460000072812DD10BD0E4A0E490F484FF498736B
:1046100004F09AFE21460D4804F096FEBDE81040D5
:1046200007484FF4987104F088BEC3F89800C3F8A7
:10463000A0200130E4E700BF170F002000ED00E0EC
:10464000D6AE000078A3000046A2000039AF0000FB
:10465000284910B50C68082C13D94FF4A473264AC6
:104660002649274804F070FE26480822214604F017
:104670006BFE21484FF4A47104F05FFE4FF0FF3051
:1046800010BDFFF77FFF48681F490022944200F1E8
:104690000C000BD11D4B1C70FFF768FFD1F8903058
:1046A000C3F30723082B14D10020E9E7C1F89820B1
:1046B00050F80C3C23F01F03134343F01003C1F8E0
:1046C0009C3050F8043C43F00103C1F8A0300132A3
:1046D000DCE7094A0E490A484FF4D47304F034FE6B
:1046E0000C4804F031FE04484FF4D47104F025FE68
:1046F000DAE700BFD49F0000D6AE000078A3000028
:1047000046A2000066AF000000ED00E0170F002099
:104710009AAF0000EAAF000008B50B4BC3F100539D
:1047200003F58023B3F5006F0CD20849084A094805
:10473000812304F009FE084804F006FE04488121A4
:1047400004F0FBFD002008BD603200203BB00000FB
:104750000BB0000046A2000082B00000014B1860C0
:10476000704700BF2C00002010B54FF02003EFF37E
:10477000118083F31288BFF36F8F114A0123C2F8AF
:1047800040354FF080424FF08051C2F87835D1F873
:104790003041082C08D1D1F83411052904D8094C2E
:1047A000615C09B1C2F838364FF080430122C3F88A
:1047B000802580F31188BFF36F8F002010BD00BFEC
:1047C00000E0014018B100004FF08043C0B2C3F8D0
:1047D0001C05BFF34F8F0549054BCA6802F4E06220
:1047E0001343CB60BFF34F8F00BFFDE700ED00E048
:1047F0000400FA0520B1034B800143F00103184780
:10480000704700BF909E000037B50C460A490B4A1E
:10481000411A40230093491105462346084804F0F5
:1048200074FE011E05DA2846234603B0BDE8304079
:10483000184703B030BD00BFBC0B002075950000C9
:10484000089C000038B5CCB2012C054609D90949AD
:1048500009480A4A792304F077FD0848792104F0D1
:104860006CFD2B690C2204FB0233986C00F00700EE
:1048700038BD00BF5FB1000046A2000022B10000B9
:10488000F8B5CCB2012C0669054617460BD9194973
:1048900019481A4A40F24D1304F056FD174840F2E9
:1048A0004D1104F04AFD4FF02003EFF3118283F322
:1048B0001288BFF36F8F0C2101FB04639B6C13F014
:1048C000C00308D09F4206D082F31188BFF36F8FD8
:1048D0004FF0FF30F8BD4C4326440123B36482F30C
:1048E0001188BFF36F8F6B6823445B689847002083
:1048F000F0E700BF5FB1000046A2000022B1000057
:1049000070B50D460649411A044649110548402232
:10491000FFF7B6FF2B4601462046BDE8704018471A
:10492000BC0B0020089C0000002270B50121044649
:104930001046FFF7E7F80F4801F0B0F90E4B984228
:1049400015D101F0D1F926690C49304604F066FC16
:1049500000280BDB246909490125B56404F1200016
:1049600004F05CFC002801DB6565002070BD6FF081
:104970000400FBE7B54900000000AD0BF49F000008
:1049800001460C2309484B4370B5C418D4E91056AE
:10499000002248332264184404F0A4FD2DB13246AD
:1049A0002B460348BDE87040184770BDBC0B002083
:1049B000089C0000012808B506D0032808D0A8B933
:1049C000104B9B6C5B071BD1BDE80840FFF7D8BFBD
:1049D0000D490E4A0E4840F25E2304F0B5FC40F249
:1049E0005E21BDE80840094804F0A7BC0649074A13
:1049F000074840F2622304F0A7FC40F26221F0E78E
:104A000008BD00BFBC0B002078A3000022B100004D
:104A100046A2000008B54FF02003EFF3118183F3A5
:104A20001288BFF36F8F124A136843F002001060C0
:104A3000DA0708D481F31188BFF36F8F0120BDE836
:104A4000084001F075B94FF08043D3F80C24D3F837
:104A50000C34D307EED5074804F044FD81F31188E8
:104A6000BFF36F8F0020BDE80840FFF789BF00BF8C
:104A7000140C0020040C00201FB500220123CDE9F6
:104A80000223094ACDF800D06B46CDF804D004F0DB
:104A90006AFD002805DB4FF480420023684602F0DF
:104AA0007DFC05B05DF804FB93950000094BBFF356
:104AB0005B8F53E8002F22F0020143E8001000282A
:104AC000F7D1BFF35B8FD30702D4012001F094B973
:104AD000704700BF140C00202DE9F0414749BFF397
:104AE0005B8F0646012251E8003F41E80020002884
:104AF000F9D1BFF35B8FA3B9414942484B60CB600A
:104B00008A60FDF70BF900280BDA3F493F48404A1D
:104B10004FF4087304F018FC3D484FF4087104F09A
:104B20000CFC76B3731E012B59D8012E07D14FF020
:104B30008043D3F81C3403F00303012B21D004F08D
:104B40009EFF0546F8B9334B1B78E3B14FF0804325
:104B50000222C3F808230746DFF8BC804FF08044E8
:104B6000D4F81834D4F81824D20316D503F003036C
:104B7000012B01D0012E10D15DB387F31188BFF353
:104B80006F8FBDE8F0814FF02003EFF3118783F3BF
:104B90001288BFF36F8F0125DEE7ADB13846FEF70F
:104BA0003BFFD4F81835002BDAD1D4F80421002AC1
:104BB000D6D0C4F80431D4F804310123C4F8183530
:104BC000C8F88031A360CBE70021212003F032FC3C
:104BD000E7E74FF080430222C3F80423D1E70F49EF
:104BE0000A480B4A40F2322304F0AEFBBDE8F04124
:104BF000074840F2322104F0A0BB00BFB80B0020F0
:104C0000A80B0020DC0B0020A4A7000046A2000097
:104C100022B100002813002000E100E078A300008A
:104C200008B5084B0848186004F0EFFE38B1074893
:104C3000FFF794FD0548FCF71DFE002008BD6FF04E
:104C40001200FBE7180C0020689C0000514C00008B
:104C50000A2838B5074D044604D1286883680D2119
:104C60005B68984728688368E1B25B68984720468C
:104C700038BD00BF180C002070B5056916460C46FB
:104C800061B92249224A2348242304F05DFB2248CB
:104C900004F05AFB1E48242104F04FFB636863B9FB
:104CA0001E491B4A1B48252304F04EFB1C4804F0F8
:104CB0004BFB1748252104F040FB6B684BB1A34226
:104CC00013D1AA6823686B60944200D1AB600023C3
:104CD00023607EB9002070BD9C4206D1236813601A
:104CE000AB689C42F3D1AA60F1E71A461B68002B1F
:104CF000F2D13EB16B682360AB686C60002BE9D1E8
:104D0000AC60E7E76FF01500E5E700BFD0B1000049
:104D1000A3B1000046A20000D9B10000E8B1000034
:104D2000FAB100007FB54068057B01F01F04B2F5C1
:104D3000001F44EA451404D1204601F079FB00200D
:104D40005DE00025B2F5800FCDE9025514D1B3F135
:104D5000007F0CBF042305238DF80830002319467B
:104D600002AA204601F06AF9344B984262D101212F
:104D7000204601F0EDFAE2E7B3F1C06F41D0B3F1A4
:104D8000007F14BF012302238DF808308368CB40D5
:104D9000D807E3D4B2F1A07FE0D1660904F01F0583
:104DA00031D0012E04D14FF6FF73EB40D9070ED45A
:104DB00023492448244A40F2292304F0C5FA224812
:104DC00040F2292104F0B9FA16B3012E23D11F4B6A
:104DD00005F5E07553F82530DB07BFD40DF1070565
:104DE0002946204601F04CFA194B984220D128461A
:104DF00001F0A8FA114B98421AD06FF00B0004B0E2
:104E000070BD0323C0E74FF0FF33EB40DA07CFD587
:104E10004FF0A043DCE70C4A0E490A4840F22E232B
:104E200004F092FA084840F22E2104F086FAEFE7E7
:104E3000039593E76FF00400E1E700BF0000AD0BBE
:104E400044B2000046A2000011B20000000300506E
:104E50000400AD0B78A3000010B501F063FA04461E
:104E600068B901F037FA084B98420AD10748214641
:104E700001F000FA224605210620FEF743FE00203D
:104E800010BD6FF00400FBE70000AD0B914E000079
:104E900043092DE9F04703D0012B30D0BDE8F0875E
:104EA000194F3B695C68002CF8D000F01F00012608
:104EB0002568DFF85880DFF85890DFF858A0864062
:104EC000002CEBD0A3681E4214D0636863B9494636
:104ED00045234246504604F037FA0F4804F034FAAE
:104EE0004521404604F029FAD4E9013221463240F6
:104EF000384698472DB12B682C461D46E0E7074FF2
:104F0000CFE72B46F8E700BF389C0000A3B10000B4
:104F100067B2000046A20000FAB10000209C000029
:104F20002DE9F04347683B7B01F01F0585B00E4635
:104F300045EA43151446D2B902A9284601F0A0F962
:104F40000446284601F09EFA464B984204D06FF082
:104F5000040005B0BDE8F083844201D00020F8E7EA
:104F60009DF8080001F0E8F9A042F7D0EFE74FF014
:104F700000090DF103013046CDE9029901F080F9F5
:104F80004B46804602AA4946284601F057F8354B61
:104F9000984202D06FF01500DBE7804503D19DF801
:104FA000030001F0C9F9A3034CD540F20663234086
:104FB00040F20622934219D00CD8062B17D004D801
:104FC000ABB1022BE6D1042311E0B3F5007FE1D1B0
:104FD00001230CE040F20242934227D0B3F5C06FA8
:104FE00026D0B3F5806FD5D1022300E007238DF8DA
:104FF000043084F48033C3F30043E0068DF80530B9
:1050000054BFC4F34013032321038DF8063011D598
:105010007A680123B340C2F80835002201A9284666
:1050200001F0B4F80F4B984298D0B3E70523DEE7C0
:105030000323DCE7620341BF01237A68B340C2F86F
:105040000C35EAE7E3064FF0000354BFC4F3401405
:1050500003241A4601A928468DF8044000F0EEFF0B
:10506000E0E700BF0000AD0B7FB50BAB05930393EA
:10507000054B02930023CDE9003301221846FEF7C9
:1050800049F907B05DF804FB81B20000F0B54B7937
:10509000012B26D0032B21D110268B79032B1DD178
:1050A000CC790CB1012C19D10A7912B1022A15D18F
:1050B0000E220B684568B3F5164F2D6865D02DD8C4
:1050C000B3F5165F64D016D8B3F5966F62D00AD8E0
:1050D000B3F5967F61D0B3F5167F61D06FF0850090
:1050E00052E00026D9E7B3F5166F5CD0B3F5965FB2
:1050F000F4D1374B3CE0B3F5E14F57D007D8B3F5C7
:10510000615F55D0B3F5964FE8D1324B30E047F6AA
:105110001227BB42E2D14FF4000329E0B3F5613F0F
:1051200048D013D8B3F5963F47D009D84DF6C027DD
:10513000BB4244D0B3F5614FD0D14FF46B0317E0BD
:10514000B3F5E13FCAD14FF0EB7311E0B3F5612F36
:1051500038D008D8204FBB4237D0B3F5E12FBDD1AE
:105160004FF0E86304E01D4FBB42B7D14FF08053CE
:105170000069C5F82435031D03C934432243C5F82B
:105180006C2583E803000020F0BD4FF41D03EFE71A
:10519000134BEDE74FF49E23EAE74FF4A033E7E724
:1051A0004FF41C33E4E74FF41D23E1E70D4BDFE739
:1051B0000D4BDDE74FF06C73DAE70C4BD8E74FF49B
:1051C0006503D5E74FF07063D2E74FF08063CFE718
:1051D00000B0130000A04E0090D0030040420F002A
:1051E0000050270000C0750000F03A0000903A011E
:1051F0002DE9F043D0F804800669D8F80050D8F8BB
:105200000C9087B00021C5F800150746306005AA4C
:10521000484604F076FA041E25DB059BD9F80020E9
:105220001979186804F0C4FA041E1CDB311D3846D5
:10523000FFF72CFF0446B0B9D8F80430990729D5F8
:1052400006F1120001F022FA274B98420FD0274BAB
:105250000094CDE901432046234625490122FFF76A
:1052600003FF6FF00404204607B0BDE8F083B07C74
:10527000C30003F1804303F5F83305F10C0205F593
:105280009071C3F81015C3F814251A4A01238340FE
:10529000C2F804350823C5F8003598F808305BB922
:1052A000C5F81031D5F8103106F11103C5F83435C1
:1052B0000123C5F838352B60D8F804309A075CBF55
:1052C0004FF48072C5F80423DB0644BF4FF480031B
:1052D000C5F8043310360023C5F84465C5F84835D1
:1052E0000123AB60EB60BEE70000AD0B81B20000B4
:1052F000409E000000F00140F8B5066905460F46E3
:1053000004F0BDFBB0B92C4B1B789BB164246868DA
:1053100004F08BF9F8B9012004F0F5FA013CF6D15C
:105320000021212003F086F8F0E784F31188BFF311
:105330006F8FF5E74FF02003EFF3118483F31288AA
:10534000BFF36F8F686804F070F988B984F311882F
:10535000BFF36F8FEEE74FF02003EFF3118483F379
:105360001288BFF36F8F686804F05FF90028DCD003
:1053700006F8107F69680B680122C3F84465C3F81A
:1053800048250022C3F82021D3F82001C3F8582172
:10539000D3F858214A68D20641BF0822C3F8002535
:1053A0004FF48002C3F8042301229A6084F3118829
:1053B000BFF36F8FF8BD00BF2813002070B5012325
:1053C00083400E4ABFF35B8FDC4352E8001F01EAC3
:1053D000040542E80056002EF7D1BFF35B8F4FF46F
:1053E000803282400648C0F80823BFF35F8FBFF3C6
:1053F0006F8F0B4214BF0120002070BD380C0020BD
:10540000001001401B49F8B5044622F07F450868AA
:10541000C1E90023A5F50013101AB3F5400F0FD30F
:1054200003F012FBA30003F1804303F58833D3F8A4
:10543000402595421DD14FF40002C3F8402512E0EB
:105440000D4B1B681A0A1B065E190C4B42F1000734
:10545000C3E9006703F0F8FA094A04F5A87352F8A3
:1054600023309D4205D1064A4FF48033A340C2F851
:105470004433F8BDD00400203C0C0020D8040020A8
:105480000010014011B3BFF35B8F0123104A83402A
:1054900052E800CF4CEA030C42E800C10029F7D1E2
:1054A000BFF35B8F0B4A4FF480338340C2F8043361
:1054B000094BBFF35B8F1B68BFF35B8FC340DB07F8
:1054C00042BF064B4FF40032C3F80021704700BFC3
:1054D000380C002000100140340C002000E100E0F6
:1054E0000D4B1868010A0006BFF35F8F0B4BD3F812
:1054F0000435181841F10001B3F5801F0AD2084B9A
:10550000D3E90023904271EB030303D210F18070C2
:1055100041F10001704700BF3C0C00200010014029
:10552000D80400202DE9F74F14461D460746FFF723
:1055300045FF0090FFF7D4FFA04271EB05037AD23C
:10554000464B201A65EB0101984271F1000180F091
:105550008180434B03EB0713D3E902239D4208BF2D
:10556000944253D04FEA870A0AF1804A07F1500962
:105570000AF5883A4FEA89091FFA89F924F07F4829
:1055800009F180494FF48033DAF84005354A09F5CE
:105590008839BB404646D2F804B5A0EB0B0020F09A
:1055A0007F402BF07F410128CAF8401505D10193B7
:1055B000132004F09EFA2B4A019B0BF1020CA6EB80
:1055C0000C0020F07F40B0F5000F88BF6646002039
:1055D000C9F80000D9F80000C2F8443326F07F4033
:1055E000CAF84005D2F80405834506D0301A0238BF
:1055F00020F07F40B0F5000F1BD8A6EB080626F080
:105600007F46361945F1000334461D4614490C986F
:105610003B0101EB0712C8500D9B5360C2E90245E4
:10562000002438460099FFF72DFF204603B0BDE85F
:10563000F08F3046AFE701230B4ABFF35B8FBB40CF
:1056400052E8000F184342E800010029F8D1BFF3E7
:105650005B8FDBE76FF01504E3E700BF010000019B
:10566000C004002000100140340C002073B5194B19
:10567000194D00244FF0FF304FF0FF31C5F80845B9
:10568000C3E902014FF48033C5F80433134B0226FB
:105690004FF400320121C5F804631120C3F88021C2
:1056A0002246FEF72FFA1120FEF710FA0C4A0123CA
:1056B000AB602B6013600B4B0B4A009301940023EB
:1056C0002046FFF72FFF3046FFF706FA204602B0CC
:1056D00070BD00BFC00400200010014000E100E0E8
:1056E000380C002005540000FFFF7F002DE9F74330
:1056F000334CD4F804339A070BD5D4F8043143B1B2
:10570000304A0023C4F80431D4F80431136801335B
:1057100013604FF02003EFF3118283F31288BFF37D
:105720006F8FD4F80433DB0329D5BFF35B8F264B8F
:1057300053E8001F21F0010043E80005002DF7D1D8
:10574000BFF35B8F11B9D4F84031C3B10025C4F861
:105750004051D4F8403182F31188BFF36F8FFFF7C7
:10576000BFFE4FF02003EFF3118283F31288BFF3E3
:105770006F8F164BD3E90267B042B94106D282F36C
:105780001188BFF36F8F03B0BDE8F0834FF0FF388F
:105790004FF0FF39D3E90010C3E902891D604FF4CF
:1057A0008033C4F8483382F31188BFF36F8F002928
:1057B000E9D0009032463B4628468847E3E700BFE1
:1057C000001001403C0C0020340C0020C0040020DC
:1057D000431C13B521D0012821DDB0F5000F20DADC
:1057E000441EFFF77DFE104BD3E90013421AB2F5B9
:1057F000000F0E4828BF002401322244824228BFF5
:10580000024652184FF0000009490190009143F1FF
:105810000003FFF787FE02B010BD0448E0E7002454
:10582000DFE7024CDDE700BFD0040020FFFF7F0070
:105830000554000008B5FFF753FE024B1B68C01A61
:1058400008BD00BFD004002003685A0910B5044603
:105850001DD0012A06D14FF6FF7203F01F03DA4074
:10586000D3070BD414491548154A40F2292303F0F5
:105870006BFD134840F2292103F05FFD236803F01C
:105880001F025B09226005D14FF0A04010BD4FF010
:10589000FF32E2E7012B0CD0094A0A49074840F2DF
:1058A0002E2303F051FD064840F22E2103F045FD62
:1058B000EAE70548EAE700BF44B2000046A200005C
:1058C00011B2000078A30000000300507FB50BABBD
:1058D00005930393054B02930023CDE90033012286
:1058E0001846FDF717FD07B05DF804FBBEB20000D7
:1058F0001FB5FDF7ABFA0024064B02932046CDE915
:105900000044054923460122FFF7E0FF2046FEF749
:105910005BFF00BFBEB20000089E00004FF0805346
:10592000D3F83021082A06D1D3F83431052B02D818
:10593000024AD05C70470020704700BFE1B200000F
:10594000024AD2F80034002BFBD0704700E001403F
:105950004FF0805310B5D3F83021082A4ED14FF0C4
:1059600080420021C2F80C11C2F81011C2F838159B
:1059700002F54042D3F80414C2F82015D3F80814F5
:10598000C2F82415D3F80C14C2F82815D3F8101453
:10599000C2F82C15D3F81414C2F83015D3F8181423
:1059A000C2F83415D3F81C14C2F84015D3F82014EB
:1059B000C2F84415D3F82414C2F84815D3F82814B3
:1059C000C2F84C15D3F82C14C2F85015D3F8301483
:1059D000C2F85415D3F83414C2F86015D3F838144B
:1059E000C2F86415D3F83C14C2F86815D3F8401413
:1059F000C2F86C15D3F84434C2F87035FFF78EFF47
:105A000018B13B4B3B4AC3F88C26FFF787FF18B110
:105A1000394BFB22C3F81825FFF780FF70B14FF018
:105A200080414FF08053D1F8E42ED3F8583222F061
:105A30000F0203F00F031343C1F8E43EFFF76EFFBC
:105A400020B12E4B4FF40072C3F840264FF0805324
:105A5000D3F83031082B1AD14FF08043D3F800240B
:105A6000D20744BF6FF00102C3F800244FF0805307
:105A7000D3F83431052B02D8214AD35C3BB14FF027
:105A80001023D3F808224FF08043C3F858254FF075
:105A90001023D3F80022002A03DBD3F80432002BB2
:105AA00022DA184901234FF01020C1F804351224DE
:105AB000FFF746FFC0F80042FFF742FFC0F804427C
:105AC000FFF73EFF0023C1F80435FFF739FFBFF3AE
:105AD0004F8F0D490D4BCA6802F4E0621343CB604F
