:10000000A01D0020912E0000B5810000652E00008B
:10001000652E0000652E0000652E00000000000027
:100020000000000000000000000000005927000050
:10003000652E00000000000005270000652E00006E
:1000400009280000092800000928000009280000EC
:1000500009280000092800000928000009280000DC
:1000600009280000092800000928000009280000CC
:1000700009280000092800000928000009280000BC
:1000800009280000092800000928000009280000AC
:10009000092800000928000009280000092800009C
:1000A000092800000928000009280000092800008C
:1000B000092800000928000009280000092800007C
:1000C000092800000928000009280000092800006C
:1000D000092800000928000009280000092800005C
:1000E000092800000928000009280000092800004C
:1000F000092800000928000009280000092800003C
:1001000053B94AB9002908BF00281CBF4FF0FF317E
:100110004FF0FF3000F00CB8ADF1080C6DE904CEE3
:1001200000F008F8DDF804E0DDE9022304B07047D0
:10013000704700BF2DE9F04786468C460846089E6A
:10014000154674461946002B40F0C2808542B2FA2B
:1001500082F245D94AB1C2F1200300FA02FC2EFA1C
:1001600003F3954043EA0C0C94404FEA154EA8B2B5
:10017000BCFBFEF8230C0EFB18CC08FB00F943EA8D
:100180000C43994528D9EB1808F1FF3704D299455B
:1001900002D9A8F102072B44A3EB0903A4B2B3FBD5
:1001A000FEFC0EFB1C330CFB00F044EA0344A042AF
:1001B00014D92C190CF1FF3304D2A04202D9ACF1AE
:1001C00002032C44241A43EA07401EB1D440002302
:1001D00034607360BDE8F0874746DDE76346F1E7CA
:1001E00092BB431B01214FEA154EAFB2B3FBFEFC9D
:1001F000200C0EFB1C330CFB07F840EA0343984528
:1002000062D9EB180CF1FF3004D2984502D9ACF159
:1002100002002B44A3EB0803A4B2B3FBFEFC0EFBCD
:100220001C330CFB07F744EA0344A7424ED92C19B0
:100230000CF1FF3304D2A74202D9ACF102032C44E3
:10024000E41B43EA0040C0E7C2F1200320FA03F1B7
:10025000954090402EFA03F303434FEA154EAFB298
:10026000B1FBFEFC0EFB1C10190C0CFB07F841EA5D
:100270000041884504FA02F422D969180CF1FF30D4
:1002800004D2884502D9ACF102002944A1EB08014F
:100290009BB2B1FBFEFC0EFB1C110CFB07F743EA03
:1002A00001439F420ED9EB180CF1FF3104D29F425B
:1002B00002D9ACF102012B44DB1B41EA004192E779
:1002C0006046E3E76146F7E76046A3E76346B7E7C2
:1002D000834206D916B9002108467BE7C6E900E04B
:1002E000F9E7B3FA83F78FB9834201D3724508D88F
:1002F000BEEB020460EB030301209C461EB9002103
:1003000068E73846FAE7C6E9004CF8E7C7F1200C81
:10031000BB4022FA0CF41C432EFA0CF120FA0CF329
:10032000B84001434FEA14490EFA07F5B3FBF9F858
:100330001FFA84FE09FB18300B0C08FB0EFA43EA87
:1003400000439A4502FA07F240D9E31808F1FF305A
:1003500004D29A4502D9A8F102002344A3EB0A0370
:1003600089B2B3FBF9F809FB183308FB0EFE41EA2A
:1003700003418E452CD9611808F1FF3304D28E4514
:1003800002D9A8F10203214443EA0040A0FB0298ED
:10039000A1EB0E014145CE46434602D306D14D4561
:1003A00004D2B9EB020E68EB04030138002EA6D08C
:1003B000B5EB0E0261EB030101FA0CFC22FA07F324
:1003C0004CEA0303F940C6E9003198E74046C5E727
:1003D0004346D9E707B50849084807F0C6FC052396
:1003E000ADF8063002220DF106030121044808F0A1
:1003F00082FA03B05DF804FBEC8E0000008F000071
:10040000118F00002DE9F04F8DB01F46029202F0CF
:100410000403C2F3C2020193531C04938307DDF863
:10042000588005460E4640F02882041D30B1072949
:1004300009D86FF01B000DB0BDE8F08F01F0070682
:10044000341DC6F108064FF0000A4FF004097B1E68
:10045000CDF80CA052465146CB4605B12760049812
:10046000002800F32A81BC48874203D3BB48874257
:10047000C0F02381DDF808C0A4EB050E1CF0020FCC
:100480004FEA9E0000F037814FF0000C1EE131B9B9
:10049000252816D101214FF00409CB4611E06C2824
:1004A00000F29F804B2822D8472800F2B1802928EB
:1004B0006AD8202805D0A0F1230CDCF1000141EB23
:1004C0000C0113F8010F0028E1D1611BB1F5806F19
:1004D000C0F07381A249A34AA34840F23D2307F02C
:1004E000D7FDA24807F0D4FD40F23D21FDE0A0F188
:1004F0004C0CBCF1200F00F28B800FF2080E5EF85E
:100500002CF000BFC304000011060000110600001B
:10051000110600001106000011060000110600007F
:10052000110600001106000011060000110600006F
:10053000110600001506000011060000110600005B
:10054000110600001106000011060000110600004F
:10055000110600001106000031060000110600001F
:1005600015060000150600003106000031060000E7
:1005700031060000C3040000150600005906000003
:1005800011060000C3040000A0F12A0C4FF0010E78
:100590005FFA8CFC0EFA0CFC4FF6DA7E1CEA0E0FAA
:1005A0008FD11CF0625F43D11CF0010189D0013C66
:1005B0004C44C9F1000C04EA0C04002D65D0ABEBEF
:1005C000050CA444B4453FF634AF73286FD0BBF19B
:1005D000040F4AD158F8040B206004344FF0040B88
:1005E0006FE7A0F16E0C5FFA8CFCBCF10C0F0FD81A
:1005F0004FF0010E0EFA0CFC1CF0250F2FD140F22B
:10060000824E1CEA0E0F05D11CF4825C7FF443AFCE
:10061000002156E713F8011C6C2924D113F8021CA1
:100620006C294FF000011BD14FF00809CB46BEE703
:1006300008F1070828F007080734F8E8020124F059
:1006400007043DB1DDF814E0A644B6453FF6F1AE2F
:10065000C4E90001083400214FF008091DE700211A
:100660004FF00409E2E70021A1E7BBF1080F40F0D9
:10067000968008F1070828F00708F8E802BCC4E9EA
:1006800000BC08344FF0080B1BE773280FD0BBF1F8
:10069000040F02D108F104089FE7BBF1080F7ED1D7
:1006A00008F1070828F0070808F10808E9E70498A6
:1006B00058F8047B01380490CFE60298800746D5AD
:1006C000A4EB050E4FEA9E004FF0010CBEF5007F33
:1006D0001FD32349234A24484FF4F87307F0D8FC6A
:1006E000234807F0D5FC4FF4F8711E4807F0C9FC09
:1006F0006FF015009FE60F2A0DD8002D3FD0C0B235
:1007000002F1300CEC440CF8100C0398013003900B
:100710001CE00F2A0CD91249124A134840F2F51373
:1007200007F0B6FC134807F0B3FC40F2F511DCE724
:1007300015B3C0B2BCF1000FE2D002F1300CEC44B2
:1007400060F07F000CF8100C0AF1010A0132C5F1CB
:10075000080004340590B4E65889000088A700001A
:10076000A7A60000158F0000438F0000B08F000087
:10077000608F0000818F0000BCF1000F01D1019853
:1007800008B10136E2E73846CDE90621059307F0C6
:1007900042FD0236DDE90621059B0644D6E7384ACC
:1007A0003849394840F2312307F072FC594637483E
:1007B00007F06EFC40F2312197E71DB9A6F108045D
:1007C000601838E6019BC1F3870C9DF80C100BB93B
:1007D0000846194685F800C06870E97085F802A0DF
:1007E000BAF1000F06D008A84FF0000CC5F1010EB9
:1007F000624509D10DF1200808EB0209C5F1010B92
:10080000C14511D1601B16E610F8011B0B0608D577
:1008100004EB0E08B04501F07F013FF60AAE04F884
:10082000011B0CF1010CE3E7BAF1000F03D098F9BA
:100830000020002A1CDB019BEBB998F8002055F83A
:10084000227045F82230384607F0E5FC421C04EBE4
:100850000B011144B1423FF6ECAD98F8001004F8DA
:10086000011B39462046029207F0E5FC029A144427
:1008700008F10108C4E70022E9E76FF00D00DAE5AE
:10088000158F0000A7A60000438F00009B8F00007B
:10089000436803F00303032B10B50446816002D0C4
:1008A0002BB1002000E000680023636010BD054A02
:1008B00005490648452307F0EBFB0248452107F0B0
:1008C000E0FBEEE7C78F0000A7A60000438F000003
:1008D000014B1860704700BF000000202DE9F84F61
:1008E000858B2B070446914669D4022905F007053C
:1008F00000F0EE81AA46D4F81880A38BB8F1000F5F
:100900007DDA0022266823F00703C4E9002243F0C1
:100910000103A383A38B03F0070555454FF00007A0
:1009200040F0A5814FF0000A002E00F0F28043F065
:10093000080304F1140BA383584605F003F868B9C3
:10094000934A94499448B92307F0A2FB9348594627
:1009500007F09EFB8E48B92107F093FB89F31188BD
:10096000BFF36F8FBAF1000F40F08881002E40F086
:100970009E8117B18A492046B8474FF02003EFF314
:10098000118983F31288BFF36F8F584604F0CCFFB0
:1009900068B97F4A834980488E2307F079FB8248F3
:1009A000594607F075FB7A488E2107F06AFB5846D6
:1009B00004F0D8FFA38B23F00803A3835AE0012996
:1009C0000CBF45F0100545F0200585831434204602
:1009D00004F0B8FF68B96E4A6E496F48B92307F052
:1009E00057FB6E48214607F053FB6948B92107F0D1
:1009F00048FB89F31188BFF36F8FBDE8F88F03F0D0
:100A00000702511F012920D80021062A2668C4E9BF
:100A1000001116D1324603E0E18B12680131E18307
:100A2000002AF9D123F0070343F00202A2832046F3
:100A300007F0A8F900283FF46DAF42F02002A2832E
:100A400068E723F007039AB2F0E7042A1ED123F0E7
:100A500007039AB2A283204607F094F910B142F03E
:100A60002002A283A38B03F00705002755453E46CD
:100A700040F0FD80B4F81CA01AF0100F00F01F81A8
:100A80002AF01003A3830AF0070A34E7474A4849CB
:100A9000414840F21B1307F0FBFA444840F21B1197
:100AA00007F0EFFADEE75DB142493B483F4A4FF4B9
:100AB000AB7307F0EDFA3D484FF4AB7107F0E1FA84
:100AC00023685BB93C493448384A40F2571307F071
:100AD000DFFA364840F2571107F0D3FA23691F684E
:100AE0005FB936492C48314A4FF4AD7307F0D0FA5C
:100AF0002E484FF4AD7107F0C4FAA38B23F007031F
:100B000043F006039BB2062DA38340F0AD804FF067
:100B100000084FF0000A5646002F7FF408AFA9E7FF
:100B2000022D0BD026491C48204A40F25D1307F0E5
:100B3000AFFA1E4840F25D1107F0A3FAE38B5BB1F8
:100B400020491548194A4FF4AF7307F0A1FA174826
:100B50004FF4AF7107F095FA23695F685FB91749E1
:100B60000D48124A40F2611307F092FA0F4840F222
:100B7000611107F086FAA38B23F0070343F0040307
:100B80009BB2042DA383C2D00026B04604256EE09C
:100B90008D900000BA900000438F0000D1900000BB
:100BA000150D0000E6900000FB900000EA8F0000A9
:100BB000A7A600000C900000189000003B900000D9
:100BC0005290000068900000012D0BD04B494C481A
:100BD0004C4A4FF4B27307F05BFA4A484FF4B271D3
:100BE00007F04FFA23685BB947494548454A40F248
:100BF000651307F04DFA434840F2651107F041FADA
:100C000023699F685FB941493D483E4A4FF4B47338
:100C100007F03EFA3B484FF4B47107F032FAA38B69
:100C200023F0070343F005039BB2052DA3833FF494
:100C30006EAF0026B046052519E0324A34493048E7
:100C400040F26B1307F024FA2E4840F26B1107F0C4
:100C500018FAA38B03F00702AA423FF40BAF002659
:100C600015463746B04602E00026B0460625A26883
:100C7000002A3FF457AE4FF0010A58E6A168002958
:100C80003FF474AED1F8009000293FF46FAED1F874
:100C900004A043462A462046D047B9F1000F04D0AD
:100CA000D9F8003049469946EEE74B46FAE7314617
:100CB00043462A462046366807F090F856E61AF072
:100CC000200F3FF483AE2AF02003A3830AF0070528
:100CD000204607F057F800283FF478AE0138042882
:100CE000ABD801A353F820F0F50800003B0C00003E
:100CF000A70A0000210B0000C90B0000779000003C
:100D0000438F0000EA8F0000189000003B90000025
:100D1000A7A60000F8B504460D4600F114064FF0F2
:100D20002003EFF3118783F31288BFF36F8F3046F0
:100D300004F0FAFD68B90C4A0C490D488E2307F0FF
:100D4000A7F90C48314607F0A3F907488E2107F0B0
:100D500098F9304604F006FEA5613A462046012186
:100D6000BDE8F840FFF7BABD8D900000E6900000A6
:100D7000438F0000FB9000002DE9F04704460F462A
:100D800007F01CF8051E78DB04F114094FF020036E
:100D9000EFF3118A83F31288BFF36F8F484604F094
:100DA000C3FD68B9394A3A493A488E2307F070F9C9
:100DB0003948494607F06CF934488E2107F061F94B
:100DC000484604F0CFFDE38BA68B4FF6FF729342AB
:100DD00006F0070654D0022E24D10133E3833546B2
:100DE0004FF00108484604F0ADFD68B9274A2B4989
:100DF0002848B92307F04CF92948494607F048F933
:100E00002248B92107F03DF98AF31188BFF36F8FAB
:100E1000B8F1000F31D0002332463946204606F0A3
:100E2000DDFF2AE0062E0ED8DFE806F004190D0DCE
:100E3000042D040000233B606368ABB9C4E900776C
:100E4000AEB135460DE017491248174A40F2C913B2
:100E500007F01EF9144840F2C91107F012F96FF0BB
:100E600004054FF00008BDE71F606760E8E75246E1
:100E700002212046FFF732FD35462846BDE8F087BF
:100E80006FF00A05EDE76FF08505EAE78D90000049
:100E9000E6900000438F0000FB900000BA90000035
:100EA000D190000077900000EA8F00002DE9F84310
:100EB00001F1FF3919EA010906680F46144611D0FD
:100EC00009F1FF3313EA090F13D17B423B40042B96
:100ED0001A464F4628BF04229946E4B90025284601
:100EE000BDE8F883042914D8BDE8F843114607F09B
:100EF00042B82C4A2C492D484FF4A07307F0C8F88B
:100F00002B4807F0C5F827484FF4A07107F0B9F84F
:100F1000DBE70422E1E7B368B3EBD40FDED904F1D9
:100F20000B013944891AC908304606F0D3FF8046C0
:100F30000028D3D009F1040505EBC0057B1E35441C
:100F40001D447F423D40A5EB09052C442B1F07346F
:100F50009B1B24F00704A41BB0EBD30F4FEAD3076D
:100F60004FEAE40408D201463A46304606F0E9FF6B
:100F70004146304606F06AFF3946304606F061FFCA
:100F80003844844207D23046224606F0DAFF214632
:100F9000304606F05BFF06EBC706738843F001039B
:100FA00073809CE713910000DF910000438F0000E5
:100FB000FA910000B2F5802F2DE9F04104460E466B
:100FC00017466CD33D493E4A3E4840F2E31307F0D2
:100FD0005FF83D4807F05CF840F2E311384807F04D
:100FE00050F8043FF51D3E4425F0070526F007069E
:100FF000761B172E4FEAD6070ED83449304A3148AF
:1010000040F2F31307F044F8314807F041F82C4858
:1010100040F2F31107F035F82560B7FA87F4C4F110
:101020002008C4F12404A40007340023E408EB6082
:10103000631CBB42AF600ED92649214A21484FF4B8
:10104000017307F025F8224807F022F81C484FF4F6
:10105000017107F016F805F10C0303EB8808002274
:1010600043F8042F4345FBD1630043F001036B8039
:1010700005EBC4013B1B58002A804880A91925F8BC
:1010800034404A80AB5305EBC70321465A8842F0EF
:10109000010228465A80BDE8F04106F0D7BE042A76
:1010A0009FD80D49064A07484FF4F57306F0F0FF44
:1010B000074806F0EDFF4FF4F5718FE71792000037
:1010C00013910000438F00002D9200007E920000DB
:1010D00065920000A7920000449200002DE9F04FB5
:1010E000814695B08B4617461C460025387808B9CE
:1010F000284658E37B1C2528039306D05946C84749
:101100000028C0F25083013504E2182200210EA805
:1011100007F09CF87B78252B7DD00023781C98461F
:101120009E469C461E46014610F8012B2B2A00F0D5
:10113000A18000F29880202A00F09F80232A00F0EE
:101140009F802BB19DF8403043F040038DF8403034
:10115000B8F1000F05D09DF8403043F020038DF822
:101160004030BEF1000F05D09DF8403043F0100331
:101170008DF84030BCF1000F05D09DF8403043F0B1
:1011800008038DF840302EB19DF8403043F0040341
:101190008DF840309DF8403003F04400442803D1DE
:1011A0006FF386138DF840309DF840302A2A43F0C3
:1011B00080038DF840307FD19DF8412042F001023C
:1011C0004B1C8DF841201A782E2A9DF841200CBF27
:1011D0000121002161F341028DF8412078D15A7834
:1011E0002A2A6ED0013300224FF00A0C194611F85A
:1011F000010BA0F13006092E40F295809DF84010B9
:101200001292C1F3400040EAD2700A4660F34102F4
:101210008DF840205CE0BA1C03928DF843309DF8B5
:101220004130DA0740F12E8154F8048BB8F1000FF9
:1012300007DA9DF8402042F004028DF84020C8F102
:1012400000085E0740F1278154F804ABBAF1000FA3
:1012500080F226819DF841306FF341038DF84130D3
:101260004FF0FF3A1CE12D2A0DD0302A7FF469AFF0
:10127000012358E74FF0010C55E74FF0010E52E7FC
:101280004FF001084FE701264DE70EFB0262303AAE
:101290000346184610F8016BA6F1300CBCF1090F9B
:1012A000F3D999428FD09DF840101192D20F62F37A
:1012B00041018DF8401086E70B4600224FF00A0EE0
:1012C000E7E79DF8412042F004028DF84120023307
:1012D0001A786C2A47D02BD8682A31D06A2A4BD08A
:1012E0004C2A51D01A4612F8013B0392782B9DF8F4
:1012F00041208DF8433000F2BE806D2B51D8692B10
:1013000000F2B980572B67D8412B03D0453B022B05
:1013100000F2B1809DF84230042262F302038DF89E
:101320004230012373E00CFB0202303A0B465DE7CA
:10133000742A25D07A2AD5D19DF8412006210CE0C7
:101340005A78682A9DF8412006D1012161F3C6022E
:101350008DF841200233C5E7022161F3C6028DF802
:1013600041200133BEE75A786C2A9DF8412001D113
:101370000421EBE70321F0E79DF841200521ECE78C
:101380009DF841200721E8E7BDF8402022F4F04213
:1013900022F0020242F4804242F00202ADF8402004
:1013A000DFE76E3BD9B201238B4040F282410B4212
:1013B00037D113F0240F51D1D8075CD59DF84230B6
:1013C000032161F302038DF8423002F07803A3F1A8
:1013D00040014B424B411AE0A3F15801C9B2012030
:1013E00000FA01F111F4624F94D140F60106314246
:1013F0001DD111F4043F3ED09DF8423060F302034A
:1014000002F07802402A8DF8423034D000239DF853
:101410004020C2F340010B4363F341028DF84020AA
:10142000FDE69DF84230022161F30203E8E79DF8F2
:101430004210022002F0780260F30201402A8DF887
:10144000421002BF9DF8401041F001018DF840109C
:10145000632BDBD1131E18BF0123D8E79DF8423060
:10146000032161F3020312F0780F8DF8423014BFAC
:1014700001230023CBE79DF8403043F001038DF8B2
:101480004030C3E79DF94020002AB4BFDDF8448016
:101490004FF0FF38D5E698077FF5E2AEDDF848A0BB
:1014A0009DF841100023CDE911339DF8423003F03F
:1014B0000703012BC1F3C30133D1CB1E042B04D886
:1014C000DFE803F0104646101000236801294FEAB8
:1014D000E372CDE90E320BD103F0FF030E9300232C
:1014E0000F9307E054F8043BDA17CDE90E3202E01F
:1014F000022911D004349DF8403013F0030647D080
:10150000039B3A465946484606F0A4FD0028C0F21F
:101510004A810544039FE9E51AB20E9243F3C033B2
:10152000DEE7022B24D1CB1E042B04D8DFE803F026
:10153000181010181800012954F8043B4FF000024D
:1015400014D00229CDE90E32D5D19BB20E93D2E749
:10155000073424F00704F4E80223CDE90E23CAE798
:1015600054F8043B0E9300230F93C4E7DBB2BCE7AF
:10157000042B08D1073424F00704D4E900230834ED
:10158000CDE90E23B7E7032BB5D154F8043BDDE7D3
:101590009DF843007828BDD862281CD825283FF440
:1015A000ADAD5828B6D10DF136030093DDE90E013B
:1015B00008AB10AA06F008FDBAF1000F074680F24A
:1015C0009A80002FA6D00DF13603D81B002E00F014
:1015D000C1800130BEE0633815289BD801A252F8C3
:1015E00020F000BFB9160000CB1600001515000052
:1015F000151500001515000015150000CB1600008C
:101600001515000015150000151500001515000032
:1016100059170000F11600001717000015150000FB
:10162000151500003D16000015150000F11600000C
:101630001515000015150000F1160000BAF1000F95
:101640000E9F35DB5146384606F0ECFD07EB000AED
:10165000002F3FF45FAF00269DF8423013F01002D8
:10166000059200F0938002305B06119A48BF129BEE
:101670000492104448BFC018B8F1000F40F3A08096
:101680009DF84020A8EB0008C2F3800350070693A2
:1016900000F19680510640F189803EB159463046AE
:1016A000C84700287FDB069B01351E4630227EE0BE
:1016B000384606F0B0FDC9E70E9B8DF820300026B5
:1016C00008AF0DF1210A0120C6E719075CBFC3F37B
:1016D00000135E01DDE90E2348BF2B26002BBFF669
:1016E00062AF524263EB4303CDE90E232D265AE746
:1016F000002658E700269DF840200DF13603DB1B3D
:101700006FF386129A458DF840207FF65AAFAAEB08
:101710000303119355E70E9890B30DF13603009330
:1017200010AA08AB002106F04FFCBDF8423003F0D0
:10173000EF0343F4F04343F01003BAF1000F074600
:10174000ADF84230D6DA00283FF4E4AE0DF13603AE
:10175000181A00269A467FE70E9B07293FF6DAAE55
:10176000DFE801F00C04060C08080C0C1D70D1E633
:101770001D80CFE6EA17C3E90052CBE61D60C9E63B
:101780002E4F064607F1050A052065E71A0748BFF0
:10179000013069E70793104606925946C84700286A
:1017A000DDE9062304DA15B0BDE8F08F20224346B8
:1017B0001946002903F1FF33ECDC45446D1A9846C5
:1017C0002EB159463046C8470028ECDB01359DF85C
:1017D0004230DA0601D41B0705D559463020C847E8
:1017E0000028E0DB0135059B33B19DF843005946E5
:1017F000C8470028D7DB0135049E2E4405E0594632
:101800003020C8470028CEDB0135731B002BF6DCE7
:1018100053463A465946484606F01CFC0028C2DBAF
:101820000544A844A8EB0503002B7FF773AE594687
:101830002020C8470028B6DB0135F3E7D29200002C
:1018400008B54FF02002EFF3118382F31288BFF343
:101850006F8F01F023FD034806F087FA00F060FE69
:10186000FCE700BFD8920000F8B506460C4629B93F
:101870000E4D0F4B5B1B1F11BC4200DBF8BD6B68AC
:101880005B797BB14EB90B490B480C4A862306F0B5
:10189000FFFB0A48862106F0F4FB2B6831461B68E3
:1018A0002846984701341035E6E700BF088C000051
:1018B000288C000039930000438F00000193000042
:1018C000014B53F820007047588C0000054A002354
:1018D0001370054A1360054B054A1A604FF4004027
:1018E00000F094BA010C0020E8020020040000205F
:1018F000AD80000070B5194B194CE41A902C0BD92F
:1019000018491948194A40F2732306F0C1FB1748D9
:1019100040F2732106F0B5FBBFF35B8F144B53E825
:10192000006F721C43E800210029F8D1BFF35B8FE0
:101930001EB92511094CAE4200DB70BD237B53B1AB
:1019400023689B690BB12046984763680422196895
:10195000204600F06FF801361034ECE7088C0000E8
:10196000288C000091930000438F00004C930000EE
:10197000F0020020F8B50C4F3D784DB90B4C0C4EE1
:10198000FFF7B8FF361B3611B54202DB01233B706F
:10199000F8BD63685B791BB1236820465B69984793
:1019A00001351034F0E700BF010C0020088C000066
:1019B000288C0000014B01221A707047000C002097
:1019C0000C4BBFF35B8F53E8001F013143E800125B
:1019D000002AF8D1BFF35B8F58B1BFF35B8F064B82
:1019E00053E8001F013943E80012002AF8D1BFF381
:1019F0005B8F7047E8020020EC020020054B10B519
:101A00001B68044698470021A0602046BDE81040AE
:101A1000FFF72ABF04000020044A054B9B1AB1EBD4
:101A2000D30F34BF52F8310000207047C08B000044
:101A3000088C000070B5104C0368041B24111B684F
:101A4000013405460E46E4B263B90C490C4A0D4810
:101A5000BB2306F01DFB0C4806F01AFB0848BB210F
:101A600006F00FFB6B681C716B6801221E605A71D7
:101A7000BDE87040FFF79EBF088C00001194000085
:101A8000B9930000438F0000279400000EB403B503
:101A900003AB014653F8042B04480193FFF71EFBE8
:101AA00002B05DF804EB03B0704700BFDF800000B8
:101AB0002DE9F04F87B01C4601F0010305929DF817
:101AC0004090BDF948A004930746884601F0020BF8
:101AD00001F0080606F001FB0246002840D0374915
:101AE0003846FFF7D3FF0546BBF1000F08D018F0CA
:101AF000440F37D1324922463846FFF7C7FF054425
:101B0000049B53B12F4B304953F829202F4B3846B3
:101B1000002A08BF1A46FFF7B9FF3EB12C4B2D49EA
:101B200053F829203846FFF7B1FF0646BAF1000FF7
:101B300012DB059B284C23B1284BB9F1040F08BFD9
:101B40001C4651469DF84400FFF766FF21460246B9
:101B50003846FFF79BFF0644701907B0BDE8F08FC9
:101B60000546C1E71E4B18680028C8D01D4B4FF42E
:101B70007A781B68B4FBF3F44FF46161B4FBF0F3C3
:101B800000FB134408FB04F44FF03C0CB3FBF1F2F0
:101B900001FB1231B4FBF0FEB1FBFCF300FB1E4471
:101BA0000CFB131108FB04F40091B4FBF0F40E4994
:101BB000CDE901E43846FFF769FFA0E7579400003C
:101BC0005B940000648C0000809400004994000045
:101BD000788C000083940000529400004E94000022
:101BE000F8020020F402002064940000CA0605D424
:101BF0008B064CBF02490349FFF748BF704700BF3F
:101C0000F5A30000899400002DE9F8430F460899D8
:101C1000DFF8B890044616461D46FFF7E7FF4FF081
:101C20000008A84528DB76B33A7829492046FFF713
:101C30002DFF01256A0703D124492046FFF726FF1F
:101C4000B54225D27A5D22492046FFF71FFF0135B4
:101C5000102DEFD11F492046FFF718FFEEB91B49A1
:101C60002046FFF713FF0125B5422B4617D317492E
:101C70002046FFF70BFF1CE049462046FFF706FF12
:101C800008F10108CDE714492046FFF7FFFE0125C2
:101C900011492046FFF7FAFED9E700252B46FA5CEA
:101CA0000E49A2F120035F2B28BF2E222046FFF70A
:101CB000EDFE0135102D06D06B07D5D10349204626
:101CC000FFF7E4FED0E7BDE8F88300BF949400007E
:101CD0008C94000096940000929400009894000068
:101CE00038B5CB0705460C4603D5054A0549FFF72D
:101CF000CDFE21462846BDE83840FFF777BF00BF3C
:101D000049940000809400002DE9FF470E4690465C
:101D100036F8102B8B6812F4E07F07460D46C2F3AD
:101D2000821923D00A784868C2F3C202D8B1304978
:101D3000401A40F3CF00CDE90120CDF800900022F9
:101D400041463846FFF7B4FE2B68C3F34923824669
:101D5000B3B96C88C4F3CB04F4B94A46414638465B
:101D6000FFF7BEFF2EE04FF0FF30E4E70B68C3F350
:101D700049236BBB4C88C4F3CB041CB3CA460BE0AD
:101D80001C481D4933463A4605F0ADFF002822DBCA
:101D90006C88C4F3CB0494B12B68C3F349231E446D
:101DA000102C254628BF10253146CDF8008053461B
:101DB0002A463846FFF728FF641B2E44F0D1B9F1BC
:101DC000000FCAD1384604B0BDE8F04706F0AFB9FD
:101DD0000A48CA46D5E70A4A0A490B4840F2B723DF
:101DE00006F056F9064840F2B72106F04AF9CFE767
:101DF000C08B0000DF800000DD100000FB800000D1
:101E00009B940000D9940000438F0000074A0021F2
:101E10000123904206D8064A01B901231360054BFD
:101E20001860704740085B000121F2E740420F0054
:101E3000F4020020F80200202DE9F04F85B002AF37
:101E4000D7E90E6A0446884693469946002E4ED03E
:101E5000C7F804A0CDF800A07A6B3346102100200B
:101E6000FEF7D0FA051E09DA22492348234A6723E0
:101E700006F00EF92148672106F003F9204B3A6B72
:101E800004F007040BF0070BE40044EA8B1403EAA8
:101E900045231C431B4B03EAC2431C431346173321
:101EA0002B4423F00703ADEB030D0DF1080BA6B196
:101EB000CDF800A07A6B334629460BF11000FEF7EF
:101EC000A1FA002809DA0B490B480C4A812306F0D5
:101ED000DFF80A48812106F0D4F84B4622464146F5
:101EE000584606F031F90C37BD46BDE8F08F35464F
:101EF000C4E700BF2F950000438F0000029500004B
:101F000000FE07000000F87FF8B5074F0D460446B5
:101F10004618B44201D12846F8BD386814F8011BB0
:101F200083685B689847F4E714030020014B0020A6
:101F30001960704710030020024B034801221A70F9
:101F400006F0F5B8030C0020AC8C0000064B10B571
:101F500018680C46FFF7B4FC21460346BDE8104064
:101F600002480F22184700BF10030020AC8C00006D
:101F700008B5094B0948186006F019FC58B908491A
:101F80000848094A792306F083F8BDE80840064866
:101F9000792106F076B808BD14030020288A0000D5
:101FA0006E950000438F000039950000014B01221F
:101FB0001A707047040C0020014B00201960704714
:101FC0002C030020024B034801221A7006F0AFB820
:101FD000050C0020DC8C0000064B10B518680C4680
:101FE000FFF76EFC21460346BDE8104002480F2271
:101FF000184700BF2C030020DC8C0000F8B5194DF9
:1020000007460E46042432463946002003F0DEF827
:10201000C8B101232B70144B1B782BB93046F8BD87
:102020005CB92C704FF0FF34002003F017F9002842
:10203000F4D02B78002BF3D1F0E7013C41F288304B
:1020400006F027FCF0E72B7813B1013C04D12C708B
:102050002B78002BD7D1E1E741F2883006F019FC4C
:10206000F6E700BF040C0020050C00202DE9F84322
:1020700005464FF02003EFF3118683F31288BFF378
:102080006F8F214803F050FC68B9204A204921484D
:102090008E2305F0FDFF1C491F4805F0F9FF1B4882
:1020A0008E2105F0EEFF18481C4FDFF8748003F016
:1020B00059FC1C4B1C684FF00C09BCB9124803F0CA
:1020C00041FC68B9114A18491248B92305F0E0FFEC
:1020D0000D49164805F0DCFF0C48B92105F0D1FF89
:1020E00086F31188BFF36F8FBDE8F883D4E901232D
:1020F000002D18BF13462BB198F8142009FB02F2EB
:10210000B85C98472468D8E7300300208D90000021
:10211000E6900000438F0000FB9000003803002091
:10212000E009002044030020BA900000D190000094
:102130000A4ABFF35B8F430902EB830200F01F00E2
:1021400001238340DB4352E8000F184042E80001BE
:102150000029F8D1BFF35B8F704700BF3403002024
:1021600070B5194B1C7DBFF35B8F04F01F03012278
:102170009A40164B610903EB8103D04353E8001FDB
:1021800001EA000543E80056002EF7D1BFF35B8F4C
:102190000A4213D00E4B0F4D8BB10C236343EA1848
:1021A000E85C517806F06AF80020FFF75FFF0C2327
:1021B0005C432A1900232B51C2E9013370BD83F31C
:1021C0001188BFF36F8FEFE7E00900204C03002078
:1021D0007D820000380300202DE9F843324B334A5A
:1021E0001C7DBFF35B8F63094FEA830852F82330ED
:1021F0002F4EBFF35B8F04F01F0943FA09F313F06E
:10220000010F07460AD10146204600F069F828B1BF
:1022100007C80C2303FB046383E807000C23634314
:10222000F218F55C2DB92046FFF782FF2846BDE87D
:10223000F8837B1C10D0D2F808C01E4D1E4A4FF404
:1022400000400021ECFB005100232846FDF758FF19
:102250000121381A05F0C0F804F022F80120FFF738
:1022600005FFBFF35B8F154B9844012303FA09F375
:1022700058E8002F1A4348E800210029F8D1BFF39D
:102280005B8F0F4B33B10C236343F218F05C517832
:1022900005F0E8FFFFF764FF2046FFF749FF04F071
:1022A00073F80120C3E700BFE009002034030020D9
:1022B000380300203F420F0040420F004C03002033
:1022C00065820000054BBFF35B8F53F82000BFF31E
:1022D0005B8F003818BF0120704700BF50030020FB
:1022E0002DE9F74F884601A900F042F8441E24B2B8
:1022F00004EB4404DFF86C900546A40025B92F4692
:10230000384603B0BDE8F08F019B185D1F19FFF739
:10231000D9FF064610BB7868134A4FF4004ACC46F2
:102320003146E0FB0AC100236046FDF7E9FE834623
:10233000B8680D4ACC463146E0FB0AC1002360462E
:10234000FDF7DEFE094B1B685A1C01D0834205D9FC
:10235000B8F1FF3FD4D058444045D1D9013DADB28A
:102360000C3CCBE73F420F0040420F00080000202A
:1023700008B9024B0B600020704700BFEC8C0000D6
:10238000014805F021BB00BFEC8C000010B50446ED
:1023900018B90D4B0D485B689847616831F004032C
:1023A0000CD008290AD011F0020108D008482146B3
:1023B00003F06AF9002323600023636010BD2068E6
:1023C000142205F043FFF7E7E4000020B595000074
:1023D0006C08002008B508B34368042B10D1012213
:1023E0000368BFF35B8F53E8001F002903D143E864
:1023F00000200028F7D1BFF35B8F0BD1002008BD70
:1024000053B100684FF0FF324FF0FF3303F0E4FAAE
:102410000028F3D00348F2E70348F0E76FF4E04008
:10242000EDE700BFE98FFFFFEA8FFFFF08B5C0B1FE
:102430004368042B10D100220368BFF35B8F53E87D
:10244000001F012903D143E800200028F7D1BFF382
:102450005B8F09D1002008BD43B1006803F0B6FBD3
:10246000F8E76FF4E040F6E70148F4E70148F2E7E7
:10247000E98FFFFFEA8FFFFF10B5044618B9164B2E
:1024800016485B6898476368042B23D0082B21D03B
:10249000CBB92368BBB912484FF0FF324FF0FF337E
:1024A000214603F085F808B923681BB90A4B0D488B
:1024B0005B68984720681422002105F0C7FE636816
:1024C00043F002036360206806F0C2F9636843F0DA
:1024D0000103636010BD00BFE4000020B59500005B
:1024E0006C080020DB95000008B50649064840232B
:1024F000142206F07AF9BDE808400449044805F0C2
:10250000C3BA00BF6C0300206C080020F48C0000EC
:10251000088D0000014910220A60704710ED00E0AC
:1025200072B6404080F31188BFF36F8FBFF34F8FB7
:1025300030BF62B6BFF36F8F704700BF72B64940BD
:1025400081F3118820BF80F3118862B6704700BF05
:1025500070B5064686B00D46002938D08B680593C5
:102560004B6804930B68039300241C4B1C49029393
:10257000012223462046CDE9004405F003FE6B69A5
:1025800005932B690493EB680393164B144900944D
:10259000CDE9014301222346204605F0F3FDEB6916
:1025A0000393114B0E490094CDE9014301222346C8
:1025B000204605F0E7FDAB6903930C4B08490094F6
:1025C000CDE9014301222346204605F0DBFD2946E3
:1025D000304606B0BDE8704002F06ABE08960000C2
:1025E000E88B0000379600006696000075960000A4
:1025F00040B2002807DB044A4109012300F01F0014
:10260000834042F82130704700E100E0054B420969
:1026100000F01F0053F82220012303FA00F01040BD
:10262000704700BF00E100E070B54D1C072D044667
:102630000E460FD9114A12491248572305F028FDBA
:10264000114831460723224605F022FD0B48572149
:1026500005F017FD60B20028ACBF00F160400B4BE5
:102660004FEA4515B8BF00F00F00EDB2AABF00F564
:1026700061401D5480F8005370BD00BFA396000058
:10268000D9960000438F0000F496000014ED00E09E
:1026900030BFFFF7FDBF00BF0B4A08B50B4B22F060
:1026A0007F029A60BFF34F8FBFF36F8FD3F88820FC
:1026B00022F47002C3F8882002F08EFE04F0C6FCFB
:1026C00000F0DAFB02F0CCFE0000000000ED00E0BC
:1026D000094A0A49936809689967094958674B6824
:1026E00043F080534B60002383F31188BFF36F8F57
:1026F0009368986F704700BFE00900204C8E00007F
:1027000000ED00E012498A684FF030001044EFF30A
:10271000098C80E8F01F202080F31288BFF36F8FB0
:102720000C4F4FF00066CA698A603E60506F00230C
:10273000536780F3118804B5104600F039FCBDE8FA
:10274000044002F1300090E8F01F8CF309887047D4
:10275000E009002004ED00E01EF0040F0CBFEFF3D1
:102760000880EFF30980816911F8021C0229FFD06B
:1027700001B505F017FD01BD42F8203C009B42F871
:102780001C3C0A49019B42F8183C029B42F8143C4D
:1027900021F001014FF0807342F8043C42F8081C1C
:1027A0000023203A02654367704700BF2F7E000078
:1027B000094A0346906870B113F1160F406E05D0B8
:1027C000A0F120029A4205D8834203D2814228BF59
:1027D0000020704700207047E009002008B5094B31
:1027E00098600D46144600F0E3FB204685F3098807
:1027F000002163B681F31188BFF36F8F002200239D
:1028000005F015FBE009002001B572B60B4A90698E
:1028100000281EBF0021916106F00BF862B6EFF3AD
:102820000580A0F110004FEAC0000549014409C924
:102830009847BDE80140034908470000E00900202F
:10284000408A000049280000044B9968D8698842F2
:1028500003D003494FF080520A607047E00900201E
:1028600004ED00E0F0B585B000243B4B0293CDE9C8
:102870000044234607460E4601223849204605F00B
:10288000A0FC374B9B6ADB0409D5364B33490094D7
:10289000CDE9014301222346204605F092FC304B4E
:1028A0009B6A1D0509D5304B02930023CDE9003307
:1028B0002A490122184605F084FC294DAB6A9C0583
:1028C0001ED50024294B0293012223462046CDE940
:1028D0000044224905F075FCAB6BAA6A10040FD5C1
:1028E0000393234B1D490094CDE901430122234664
:1028F000204605F066FC1FB1AB6A23F40043AB62CF
:10290000174B9B6A590509D51A4B02930023CDE951
:10291000003312490122184605F053FC104A936A0D
:1029200013F4807312D0144B02930023CDE90033CB
:102930000A490122184605F044FC094A936A00201E
:1029400043F47F439362307005B0F0BD926A920405
:10295000F3D50A4A0292E9E734970000E88B0000B9
:1029600000ED00E04A9700005B9700006E970000C2
:10297000879700009C970000B7970000CF97000052
:102980001FB50024334B0293CDE90044234632495E
:102990000122204605F015FC304B9B6A9B0109D5AE
:1029A0002F4B2D490094CDE90143012223462046B7
:1029B00005F007FC294B9B6ADC0109D5294B0293E2
:1029C0000023CDE9003324490122184605F0F9FB24
:1029D000224B9B6A180309D5234B02930023CDE9B0
:1029E00000331D490122184605F0EBFB1B4B9B6A87
:1029F000590309D51D4B02930023CDE90033164935
:102A00000122184605F0DDFB144B9B6A9A0309D599
:102A1000174B02930023CDE900330F4901221846DA
:102A200005F0CFFB0D4B9B6ADB0309D5114B0293DD
:102A30000023CDE9003308490122184605F0C1FB07
:102A4000064A936A6FEA03436FEA134300209362D6
:102A500004B010BDFE970000E88B000000ED00E020
:102A60001698000029980000439800006198000023
:102A700086980000A09800002DE9F04385B000245E
:102A8000524B0293CDE900442346804689461646C0
:102A90004F490122204605F094FB4E4B9B6ADF060E
:102AA00009D54D4B4A490094CDE901430122234603
:102AB000204605F086FB474B9B6A1D0709D5474B0F
:102AC00002930023CDE9003341490122184605F065
:102AD00078FB404DAB6A9C0741D46FF015073D4B26
:102AE0009B6AD90709D53E4B02930023CDE90033F9
:102AF00037490122184605F064FB364B9B6A9A065B
:102B000009D5384B02930023CDE900333049012227
:102B1000184605F056FB2F4CA36ADB0602D4A36AC5
:102B20009D0750D5636818054DD541463846FFF7D7
:102B30003FFE002835D080F309880220254B9A6A91
:102B4000920642BF5A6A22F400525A629A6A42F0CE
:102B5000FF029A620023337005B0BDE8F0830024C1
:102B6000214B029320462346CDE900441849012217
:102B700005F027FB6F6BAB6A1806AED51B4B1449EB
:102B80000397CDE90143009423460122204605F036
:102B900018FBB9F1000FA2D0AB6A23F08003AB623F
:102BA0009DE7A36AD9060ED51149124A124840F290
:102BB000491305F06DFA114805F06AFA0D4840F224
:102BC000491105F05EFA0020B8E700BFCB9800007D
:102BD000E88B000000ED00E0E19800005B9700004A
:102BE00042990000CF970000149900002C99000032
:102BF0009B99000061990000438F0000E599000057
:102C00002DE9F041804B5F6890B00546C7F308049A
:102C1000002383F31188BFF36F8F02F07F40B0F180
:102C20007F4F0CD102F00C0008281AD1774A78495E
:102C30000093CDE901321846012205F0C2FA0026C0
:102C4000744A7549754840F2FB3305F021FA74481F
:102C500005F01EFA6F4840F2FB3105F012FA00252C
:102C600006E0120746BF0D461E460126002DE7D09E
:102C70004FF00008E31E8DF81F80092B00F2AB8097
:102C8000DFE803F0059FA37EA9A9A9A9A9A7654B21
:102C90005D4F5F49CDF80080CDE90183002301221B
:102CA000184605F08EFAFC6A8DF81F8014F00204B5
:102CB0000CD05D4BCDF80080CDE901830023544951
:102CC0000122184605F07DFA002428E0FB6A002B5B
:102CD00004DA564B0094CDE90143EFE7FB6A5B0051
:102CE00062D5534B4A490094CDE901430122234662
:102CF000204605F066FAAB6933F8022C4DF60273F4
:102D00009A4227D12B6803934A4B0094CDE90143A3
:102D1000204623463E49012205F053FA2C689DF8CF
:102D20001F30A3B9202229460DEB020005F083FADB
:102D30000F9B002E63D0C3F3080222B96FEA53231E
:102D40006FEA43230F9308A92046FFF701FC10B058
:102D5000BDE8F08197F8283033B10DF11F02012151
:102D60002846FFF789FE0DE097F829302BB10DF1C9
:102D70001F010120FFF776FD04E07B8D9BB21BB1A4
:102D8000FFF7FEFD0446CAE72B49224A234840F2DA
:102D9000CD2305F07DF9294805F07AF940F2CD21DF
:102DA0001C4805F06EF98FE723491A4A1B4840F288
:102DB000D12305F06DF9224805F06AF940F2D121DE
:102DC000EEE70DF11F020021CAE70DF11F010020FF
:102DD000D0E71C4B6EE71C4A1C4B0D4917F4F87FDB
:102DE00018BF1346103CCDE90334194B029300235E
:102DF000CDE900330122184605F0E3F964E723F436
:102E0000FF7323F001039DE700ED00E0369A000018
:102E1000E88B000061990000619A0000438F000078
:102E2000749A0000B29A0000C99A0000EA9A000061
:102E3000F89A0000179B0000A7A60000339B000033
:102E4000579B0000879B00001D9A0000089A000015
:102E5000AB9B0000024A536943F010035361704773
:102E600000ED00E0EFF30880EFF3098101B5724651
:102E7000FFF7C6FE01BD00BF044800232021C21891
:102E80000133302B82F80013F9D1704700E100E0E4
:102E9000002080F31488BFF36F8F05F057FD0020EA
:102EA0000D490860BFF34F8F0C4880F3088800F08D
:102EB0002BF8202080F3118809484FF40261401854
:102EC00080F30988EFF314800221084380F314880B
:102ED000BFF36F8FFFF7E0FB94ED00E0A01D002033
:102EE000201000200749D1F890200023C2F30722C8
:102EF0001846934200DB7047C1F89830C1F8A00033
:102F00000133F6E700ED00E008B572B6002383F365
:102F10001388FFF7E7FF144B4FF0FF32C3F8802010
:102F2000C3F88420C3F88820C3F88C20C3F890200D
:102F3000C3F89420C3F89820C3F89C20C3F88021DC
:102F4000C3F88421C3F88821C3F88C21C3F89021E9
:102F5000C3F89421C3F89821C3F89C2162B6BFF34B
:102F60004F8FBFF36F8F08BD00E100E0084B9B68F7
:102F700083420BD1EFF3058343B1064B5A6842F00D
:102F800080525A605A6A22F400425A6203F0AABF81
:102F9000E009002000ED00E0024B034A0348012154
:102FA00000F086B80000042000000020188D00000A
:102FB000426E054B203A1A60044A2021C3E90112EF
:102FC0001846012100F09CB88C08002000000B1569
:102FD000F0B5284E85B000258D4215DA4468002CE6
:102FE00045D0D3B104F1FF3C14EA0C0F0FD0224BB3
:102FF0000395029300230122CDE900331F491846AF
:1030000005F0EFF86FF01502104605B0F0BD1F2C6B
:10301000EDD907681CEA070FE9D1202C0768D0F822
:1030200008C05FFA82FE10D9B4F1004F0FD8013CFE
:10303000B4FA84F4C4F11F046400BEF1070F4CEA33
:10304000040C06D90E4B0392D3E70824F5E73E247F
:10305000F3E727F01F04144344F01004C6F8982047
:10306000C6F89C404CF00104C6F8A040013201357E
:103070000C30B1E700ED00E0C29B0000E08B0000E7
:10308000E59B0000044B0522C3F89420BFF34F8F4B
:10309000BFF36F8F704700BF00ED00E0BFF35F8F9D
:1030A000024B0022C3F89420704700BF00ED00E0FF
:1030B00038B50E4D01232A780C46FFF789FF28709A
:1030C000163011D140F21113094A0A490A4804F096
:1030D000DFFF2146094804F0DBFFBDE83840044823
:1030E00040F2111104F0CDBF38BD00BF070C002025
:1030F0000B9C0000A7A60000438F0000429C00002C
:1031000010B5134A002312780C46FFF761FF10F147
:10311000160F04D00F4B0022072812DD10BD0E4AF7
:103120000E490F484FF4987304F0B2FF21460D4842
:1031300004F0AEFFBDE8104007484FF4987104F06A
:10314000A0BFC3F89800C3F8A0200130E4E700BF97
:10315000070C002000ED00E00B9C0000A7A600007B
:10316000438F00006E9C0000284910B50C68082CA5
:1031700013D94FF4A473264A2649274804F088FF40
:1031800026480822214604F083FF21484FF4A47109
:1031900004F077FF4FF0FF3010BDFFF77FFF486866
:1031A0001F490022944200F10C000BD11D4B1C70F2
:1031B000FFF768FFD1F89030C3F30723082B14D131
:1031C0000020E9E7C1F8982050F80C3C23F01F03D9
:1031D000134343F01003C1F89C3050F8043C43F013
:1031E0000103C1F8A0300132DCE7094A0E490A4860
:1031F0004FF4D47304F04CFF0C4804F049FF04482A
:103200004FF4D47104F03DFFDAE700BF248D0000D5
:103210000B9C0000A7A60000438F00009B9C0000B1
:1032200000ED00E0070C0020CF9C00001F9D000077
:10323000014B1860704700BF2C00002010B54FF004
:103240002003EFF3118083F31288BFF36F8F114ACD
:103250000123C2F840354FF080424FF08051C2F850
:103260007835D1F83041082C08D1D1F8341105292E
:1032700004D8094C615C09B1C2F838364FF080437C
:103280000122C3F8802580F31188BFF36F8F0020DF
:1032900010BD00BF00E001404F9D00004FF0804393
:1032A000C0B2C3F81C05BFF34F8F0549054BCA6870
:1032B00002F4E0621343CB60BFF34F8F00BFFDE722
:1032C00000ED00E00400FA0520B1034B800143F05B
:1032D00001031847704700BF508C000037B50C46FB
:1032E0000A490B4A411A40230093491105462346D7
:1032F000084804F0DCFF011E05DA2846234603B027
:10330000BDE83040184703B030BD00BFAC08002016
:1033100019830000C889000038B5CCB2012C0546DD
:1033200009D9094909480A4A792304F0B1FE084835
:10333000792104F0A6FE2B690C2204FB0233986C61
:1033400000F0070038BD00BF969D0000438F0000CD
:10335000599D0000F8B5CCB2012C06690546174608
:103360000BD9194919481A4A40F24D1304F090FE3E
:10337000174840F24D1104F084FE4FF02003EFF3A4
:10338000118283F31288BFF36F8F0C2101FB04635A
:103390009B6C13F0C00308D09F4206D082F31188C3
:1033A000BFF36F8F4FF0FF30F8BD4C43264401232D
:1033B000B36482F31188BFF36F8F6B6823445B683B
:1033C00098470020F0E700BF969D0000438F000063
:1033D000599D000070B50D460649411A0446491131
:1033E00005484022FFF7B6FF2B4601462046BDE8C0
:1033F00070401847AC080020C8890000002270B552
:10340000012104461046FFF70FF90F4801F0B0F90B
:103410000E4B984215D101F0D1F926690C4930467E
:1034200004F0F2FC00280BDB246909490125B5648E
:1034300004F1200004F0E8FC002801DB65650020B1
:1034400070BD6FF00400FBE7893400000000AD0B95
:10345000448D000001460C2309484B4370B5C41845
:10346000D4E91056002248332264184404F00CFFBB
:103470002DB132462B460348BDE87040184770BD59
:10348000AC080020C8890000012808B506D0032830
:1034900008D0A8B9104B9B6C5B071BD1BDE8084056
:1034A000FFF7D8BF0D490E4A0E4840F25E2304F0E4
:1034B000EFFD40F25E21BDE80840094804F0E1BD9F
:1034C0000649074A074840F2622304F0E1FD40F252
:1034D0006221F0E708BD00BFAC080020A7A60000ED
:1034E000599D0000438F000008B54FF02003EFF313
:1034F000118183F31288BFF36F8F124A136843F070
:1035000002001060DA0708D481F31188BFF36F8FCF
:103510000120BDE8084001F075B94FF08043D3F8B1
:103520000C24D3F80C34D307EED5074804F0ACFED6
:1035300081F31188BFF36F8F0020BDE80840FFF7CB
:1035400089BF00BF04090020F40800201FB5002235
:103550000123CDE90223094ACDF800D06B46CDF80E
:1035600004D004F0D2FE002805DB4FF48042002393
:10357000684602F02DFC05B05DF804FB37830000BF
:10358000094BBFF35B8F53E8002F22F0020143E8A1
:1035900000100028F7D1BFF35B8FD30702D40120BE
:1035A00001F094B9704700BF040900202DE9F041F3
:1035B0004749BFF35B8F0646012251E8003F41E8CF
:1035C00000200028F9D1BFF35B8FA3B941494248DD
:1035D0004B60CB608A60FDF7CFFB00280BDA3F49D8
:1035E0003F48404A4FF4087304F052FD3D484FF401
:1035F000087104F046FD76B3731E012B59D8012ED5
:1036000007D14FF08043D3F81C3403F00303012BA0
:1036100021D005F006F90546F8B9334B1B78E3B124
:103620004FF080430222C3F808230746DFF8BC802E
:103630004FF08044D4F81834D4F81824D20316D5A7
:1036400003F00303012B01D0012E10D15DB387F3EA
:103650001188BFF36F8FBDE8F0814FF02003EFF3C7
:10366000118783F31288BFF36F8F0125DEE7ADB1B9
:103670003846FEF763FFD4F81835002BDAD1D4F8BA
:103680000421002AD6D0C4F80431D4F8043101232F
:10369000C4F81835C8F88031A360CBE70021212099
:1036A00003F0E2FBE7E74FF080430222C3F8042374
:1036B000D1E70F490A480B4A40F2322304F0E8FCF4
:1036C000BDE8F041074840F2322104F0DABC00BF07
:1036D000A808002098080020CC080020D9940000F9
:1036E000438F0000599D00001810002000E100E009
:1036F000A7A6000008B5084B0848186005F057F861
:1037000038B10748FFF794FD0548FDF7E1F80020C0
:1037100008BD6FF01200FBE708090020288A0000AE
:10372000253700000A2838B5074D044604D128681B
:1037300083680D215B68984728688368E1B25B68FD
:103740009847204638BD00BF0809002070B50569BC
:1037500016460C4661B92249224A2348242304F024
:1037600097FC224804F094FC1E48242104F089FCB4
:10377000636863B91E491B4A1B48252304F088FC73
:103780001C4804F085FC1748252104F07AFC6B687E
:103790004BB1A34213D1AA6823686B60944200D155
:1037A000AB60002323607EB9002070BD9C4206D12F
:1037B00023681360AB689C42F3D1AA60F1E71A4614
:1037C0001B68002BF2D13EB16B682360AB686C6064
:1037D000002BE9D1AC60E7E76FF01500E5E700BF2B
:1037E000079E0000DA9D0000438F0000109E00003D
:1037F0001F9E0000319E00007FB54068057B01F0F0
:103800001F04B2F5001F44EA451404D1204601F01C
:1038100079FB00205DE00025B2F5800FCDE902556F
:1038200014D1B3F1007F0CBF042305238DF80830B9
:103830000023194602AA204601F06AF9344B984247
:1038400062D10121204601F0EDFAE2E7B3F1C06F49
:1038500041D0B3F1007F14BF012302238DF808305B
:103860008368CB40D807E3D4B2F1A07FE0D16609EA
:1038700004F01F0531D0012E04D14FF6FF73EB4049
:10388000D9070ED423492448244A40F2292304F0BE
:10389000FFFB224840F2292104F0F3FB16B3012E6E
:1038A00023D11F4B05F5E07553F82530DB07BFD456
:1038B0000DF107052946204601F04CFA194B9842B4
:1038C00020D1284601F0A8FA114B98421AD06FF087
:1038D0000B0004B070BD0323C0E74FF0FF33EB4093
:1038E000DA07CFD54FF0A043DCE70C4A0E490A486F
:1038F00040F22E2304F0CCFB084840F22E2104F0C5
:10390000C0FBEFE7039593E76FF00400E1E700BF2A
:103910000000AD0B7B9E0000438F0000489E00001E
:10392000000300500400AD0BA7A6000010B501F085
:1039300063FA044668B901F037FA084B98420AD195
:103940000748214601F000FA224605210620FEF72D
:103950006BFE002010BD6FF00400FBE70000AD0B14
:103960006539000043092DE9F04703D0012B30D021
:10397000BDE8F087194F3B695C68002CF8D000F077
:103980001F0001262568DFF85880DFF85890DFF81F
:1039900058A08640002CEBD0A3681E4214D0636868
:1039A00063B9494645234246504604F071FB0F482F
:1039B00004F06EFB4521404604F063FBD4E901327C
:1039C00021463240384698472DB12B682C461D467B
:1039D000E0E7074FCFE72B46F8E700BFF889000084
:1039E000DA9D00009E9E0000438F0000319E000083
:1039F000E08900002DE9F04347683B7B01F01F059B
:103A000085B00E4645EA43151446D2B902A92846A8
:103A100001F0A0F90446284601F09EFA464B984270
:103A200004D06FF0040005B0BDE8F083844201D0FB
:103A30000020F8E79DF8080001F0E8F9A042F7D06F
:103A4000EFE74FF000090DF103013046CDE902998F
:103A500001F080F94B46804602AA4946284601F00B
:103A600057F8354B984202D06FF01500DBE78045E0
:103A700003D19DF8030001F0C9F9A3034CD540F22E
:103A80000663234040F20622934219D00CD8062B3D
:103A900017D004D8ABB1022BE6D1042311E0B3F563
:103AA000007FE1D101230CE040F20242934227D093
:103AB000B3F5C06F26D0B3F5806FD5D1022300E0F7
:103AC00007238DF8043084F48033C3F30043E00609
:103AD0008DF8053054BFC4F34013032321038DF840
:103AE000063011D57A680123B340C2F808350022A8
:103AF00001A9284601F0B4F80F4B984298D0B3E7DB
:103B00000523DEE70323DCE7620341BF01237A6874
:103B1000B340C2F80C35EAE7E3064FF0000354BFA8
:103B2000C4F3401403241A4601A928468DF8044022
:103B300000F0EEFFE0E700BF0000AD0B7FB50BAB80
:103B400005930393054B02930023CDE90033012233
:103B50001846FEF771F907B05DF804FBB89E000047
:103B6000F0B54B79012B26D0032B21D110268B7970
:103B7000032B1DD1CC790CB1012C19D10A7912B1CA
:103B8000022A15D10E220B684568B3F5164F2D6831
:103B900065D02DD8B3F5165F64D016D8B3F5966FFF
:103BA00062D00AD8B3F5967F61D0B3F5167F61D0A5
:103BB0006FF0850052E00026D9E7B3F5166F5CD0B0
:103BC000B3F5965FF4D1374B3CE0B3F5E14F57D0F6
:103BD00007D8B3F5615F55D0B3F5964FE8D1324BB6
:103BE00030E047F61227BB42E2D14FF4000329E050
:103BF000B3F5613F48D013D8B3F5963F47D009D805
:103C00004DF6C027BB4244D0B3F5614FD0D14FF43D
:103C10006B0317E0B3F5E13FCAD14FF0EB7311E04E
:103C2000B3F5612F38D008D8204FBB4237D0B3F559
:103C3000E12FBDD14FF0E86304E01D4FBB42B7D187
:103C40004FF080530069C5F82435031D03C9344380
:103C50002243C5F86C2583E803000020F0BD4FF433
:103C60001D03EFE7134BEDE74FF49E23EAE74FF414
:103C7000A033E7E74FF41C33E4E74FF41D23E1E7FB
:103C80000D4BDFE70D4BDDE74FF06C73DAE70C4BC4
:103C9000D8E74FF46503D5E74FF07063D2E74FF0F4
:103CA0008063CFE700B0130000A04E0090D0030067
:103CB00040420F000050270000C0750000F03A009D
:103CC00000903A012DE9F043D0F804800669D8F855
:103CD0000050D8F80C9087B00021C5F800150746B1
:103CE000306005AA484604F0DEFB041E25DB059B78
:103CF000D9F800201979186804F02CFC041E1CDB8C
:103D0000311D3846FFF72CFF0446B0B9D8F804300F
:103D1000990729D506F1120001F022FA274B9842A3
:103D20000FD0274B0094CDE9014320462346254977
:103D30000122FFF703FF6FF00404204607B0BDE83F
:103D4000F083B07CC30003F1804303F5F83305F141
:103D50000C0205F59071C3F81015C3F814251A4A22
:103D600001238340C2F804350823C5F8003598F8CC
:103D700008305BB9C5F81031D5F8103106F11103E0
:103D8000C5F834350123C5F838352B60D8F8043030
:103D90009A075CBF4FF48072C5F80423DB0644BF6A
:103DA0004FF48003C5F8043310360023C5F844658A
:103DB000C5F848350123AB60EB60BEE70000AD0BF2
:103DC000B89E0000008C000000F00140F8B50669C4
:103DD00005460F4604F025FDB0B92C4B1B789BB16E
:103DE0006424686804F0F3FAF8B9012004F05DFC7B
:103DF000013CF6D10021212003F036F8F0E784F3EE
:103E00001188BFF36F8FF5E74FF02003EFF31184B4
:103E100083F31288BFF36F8F686804F0D8FA88B90B
:103E200084F31188BFF36F8FEEE74FF02003EFF3B9
:103E3000118483F31288BFF36F8F686804F0C7FAA8
:103E40000028DCD006F8107F69680B680122C3F8EF
:103E50004465C3F848250022C3F82021D3F8200187
:103E6000C3F85821D3F858214A68D20641BF082226
:103E7000C3F800254FF48002C3F8042301229A609E
:103E800084F31188BFF36F8FF8BD00BF18100020B6
:103E900070B5012383400E4ABFF35B8FDC4352E8C9
:103EA000001F01EA040542E80056002EF7D1BFF3D7
:103EB0005B8F4FF4803282400648C0F80823BFF37E
:103EC0005F8FBFF36F8F0B4214BF0120002070BDC6
:103ED00028090020001001401B49F8B5044622F0D3
:103EE0007F450868C1E90023A5F50013101AB3F552
:103EF000400F0FD303F0C2FAA30003F1804303F590
:103F00008833D3F8402595421DD14FF40002C3F801
:103F1000402512E00D4B1B681A0A1B065E190C4B5C
:103F200042F10007C3E9006703F0A8FA094A04F563
:103F3000A87352F823309D4205D1064A4FF48033CE
:103F4000A340C2F84433F8BDD00100202C09002062
:103F5000D80100200010014011B3BFF35B8F012393
:103F6000104A834052E800CF4CEA030C42E800C1FB
:103F70000029F7D1BFF35B8F0B4A4FF480338340A6
:103F8000C2F80433094BBFF35B8F1B68BFF35B8F31
:103F9000C340DB0742BF064B4FF40032C3F8002199
:103FA000704700BF280900200010014024090020AC
:103FB00000E100E00D4B1868010A0006BFF35F8FB7
:103FC0000B4BD3F80435181841F10001B3F5801FED
:103FD0000AD2084BD3E90023904271EB030303D2CA
:103FE00010F1807041F10001704700BF2C090020E2
:103FF00000100140D80100202DE9F74F14461D465E
:104000000746FFF745FF0090FFF7D4FFA04271EB92
:1040100005037AD2464B201A65EB0101984271F1F3
:10402000000180F08180434B03EB0713D3E90223A7
:104030009D4208BF944253D04FEA870A0AF1804A52
:1040400007F150090AF5883A4FEA89091FFA89F9F8
:1040500024F07F4809F180494FF48033DAF84005B5
:10406000354A09F58839BB404646D2F804B5A0EB7D
:104070000B0020F07F402BF07F410128CAF840154B
:1040800005D10193132004F004FC2B4A019B0BF192
:10409000020CA6EB0C0020F07F40B0F5000F88BFAB
:1040A00066460020C9F80000D9F80000C2F8443381
:1040B00026F07F40CAF84005D2F80405834506D0B3
:1040C000301A023820F07F40B0F5000F1BD8A6EB65
:1040D000080626F07F46361945F1000334461D4692
:1040E00014490C983B0101EB0712C8500D9B53601B
:1040F000C2E90245002438460099FFF72DFF20460B
:1041000003B0BDE8F08F3046AFE701230B4ABFF3A1
:104110005B8FBB4052E8000F184342E800010029C2
:10412000F8D1BFF35B8FDBE76FF01504E3E700BF67
:1041300001000001C00100200010014024090020FE
:1041400073B5194B194D00244FF0FF304FF0FF317C
:10415000C5F80845C3E902014FF48033C5F80433BC
:10416000134B02264FF400320121C5F804631120DD
:10417000C3F880212246FEF757FA1120FEF738FADD
:104180000C4A0123AB602B6013600B4B0B4A00936E
:10419000019400232046FFF72FFF3046FFF706FA71
:1041A000204602B070BD00BFC001002000100140D9
:1041B00000E100E028090020D93E0000FFFF7F0059
:1041C0002DE9F743334CD4F804339A070BD5D4F8D0
:1041D000043143B1304A0023C4F80431D4F8043127
:1041E0001368013313604FF02003EFF3118283F360
:1041F0001288BFF36F8FD4F80433DB0329D5BFF3E4
:104200005B8F264B53E8001F21F0010043E80005B7
:10421000002DF7D1BFF35B8F11B9D4F84031C3B192
:104220000025C4F84051D4F8403182F31188BFF31F
:104230006F8FFFF7BFFE4FF02003EFF3118283F380
:104240001288BFF36F8F164BD3E90267B042B941B2
:1042500006D282F31188BFF36F8F03B0BDE8F083FD
:104260004FF0FF384FF0FF39D3E90010C3E902895E
:104270001D604FF48033C4F8483382F31188BFF3D4
:104280006F8F0029E9D0009032463B462846884788
:10429000E3E700BF001001402C09002024090020A2
:1042A000C0010020431C13B521D0012821DDB0F549
:1042B000000F20DA441EFFF77DFE104BD3E90013F8
:1042C000421AB2F5000F0E4828BF002401322244E2
:1042D000824228BF024652184FF00000094901905F
:1042E000009143F10003FFF787FE02B010BD0448C0
:1042F000E0E70024DFE7024CDDE700BFD00100204B
:10430000FFFF7F00D93E000008B5FFF753FE024BC8
:104310001B68C01A08BD00BFD001002003685A09FD
:1043200010B504461DD0012A06D14FF6FF7203F0E6
:104330001F03DA40D3070BD414491548154A40F23D
:10434000292303F0A5FE134840F2292103F099FE2A
:10435000236803F01F025B09226005D14FF0A040E3
:1043600010BD4FF0FF32E2E7012B0CD0094A0A4999
:10437000074840F22E2303F08BFE064840F22E2120
:1043800003F07FFEEAE70548EAE700BF7B9E0000F6
:10439000438F0000489E0000A7A6000000030050C5
:1043A0007FB50BAB05930393054B02930023CDE937
:1043B000003301221846FDF73FFD07B05DF804FB0E
:1043C000F59E00001FB5FDF7D5FA0024064B0293B9
:1043D0002046CDE90044054923460122FFF7E0FFCE
:1043E0002046FEF75BFF00BFF59E0000C88B000073
:1043F0004FF08053D3F83021082A06D1D3F8343156
:10440000052B02D8024AD05C70470020704700BFDD
:10441000189F0000024AD2F80034002BFBD07047EE
:1044200000E001404FF0805310B5D3F83021082A46
:104430004ED14FF080420021C2F80C11C2F8101189
:10444000C2F8381502F54042D3F80414C2F820151A
:10445000D3F80814C2F82415D3F80C14C2F82815A0
:10446000D3F81014C2F82C15D3F81414C2F8301570
:10447000D3F81814C2F83415D3F81C14C2F8401538
:10448000D3F82014C2F84415D3F82414C2F8481500
:10449000D3F82814C2F84C15D3F82C14C2F85015D0
:1044A000D3F83014C2F85415D3F83414C2F8601598
:1044B000D3F83814C2F86415D3F83C14C2F8681560
:1044C000D3F84014C2F86C15D3F84434C2F87035F0
:1044D000FFF78EFF18B13B4B3B4AC3F88C26FFF722
:1044E00087FF18B1394BFB22C3F81825FFF780FF6F
:1044F00070B14FF080414FF08053D1F8E42ED3F8E3
:10450000583222F00F0203F00F031343C1F8E43EC8
:10451000FFF76EFF20B12E4B4FF40072C3F8402618
:104520004FF08053D3F83031082B1AD14FF080432D
:10453000D3F80024D20744BF6FF00102C3F800246F
:104540004FF08053D3F83431052B02D8214AD35C85
:104550003BB14FF01023D3F808224FF08043C3F84B
:1045600058254FF01023D3F80022002A03DBD3F89C
:104570000432002B22DA184901234FF01020C1F831
:1045800004351224FFF746FFC0F80042FFF742FF50
:10459000C0F80442FFF73EFF0023C1F80435FFF7DF
:1045A00039FFBFF34F8F0D490D4BCA6802F4E0622B
:1045B0001343CB60BFF34F8F00BFFDE7094B0A4A9F
:1045C0001A6010BD005000404881030000F0004018
:1045D00000900240129F000000E0014000ED00E06A
:1045E0000400FA05580000200090D00370B50125A2
:1045F0000268BFF35B8FB2FA82F3C3F11F03DBB231
:1046000005FA03F422EA040450E8006F964204D14C
:1046100040E8004CBCF1000FF6D1BFF35B8FE7D14F
:1046200001480B7070BD00BF0000AD0B0368CB40AC
:10463000DB0710B514D401238B400268BFF35B8FF6
:1046400043EA020150E8004F944204D140E8001CC4
:10465000BCF1000FF6D1BFF35B8FEED1014810BD66
:104660000148FCE70000AD0B0400AD0BF7B50446B4
:1046700070B101282DD0394939483A4AD82303F07E
:1046800007FD3848D82103B0BDE8F04003F0F9BC7D
:104690004FF080430222C3F80823C3F80401D3F883
:1046A00004210122DA60074601238DF8073042F227
:1046B00010754FF08046CCB1012C37D027492848DF
:1046C000294A4FF44F7303F0E3FC27484FF44F712E
:1046D000D9E74FF080430022C3F80803C3F8002154
:1046E000D3F8002158600DF10707DDE79FB1D6F838
:1046F000183403F003033B60D6F81834D80313D5FD
:104700009DF80700012803D103F0CFFF013DD2D16E
:10471000012C15D008E0D6F81834D90304D50120AF
:1047200003F0C3FF013DF6D103B0F0BD67B1D6F889
:104730000C3403F001033B70D6F80C34DA03DFD4F9
:104740000A4B00225A71EFE7D6F80C34DB03F7D599
:10475000012003F0AAFF013DF6D1F1E7A7A6000072
:10476000438F00001E9F00005B9F00003009002067
:1047700010B5044658B90B490B480C4A40F21513C2
:1047800003F086FC094840F2151103F07AFC084B4F
:104790001A7922B9012207481C609A8010BD064888
:1047A000FCE700BF8F9F0000438F00001E9F0000AA
:1047B000300900200000AD0B0C00AD0B08B50D4B0F
:1047C0001B795BB90C490D480D4A4FF4977303F000
:1047D0005FFC0B484FF4977103F053FC0020FDF78A
:1047E00015FF08B9FDF704FF4FF080430022C3F81E
:1047F000182508BD300900209D9F0000438F000050
:104800001E9F00002C4B1B7910B504465BB92B4949
:104810002B482C4A4FF4B47303F03AFC29484FF468
:10482000B47103F02EFC7CB1012C3AD02649244807
:10483000244A4FF4D37303F02BFCBDE81040214809
:104840004FF4D37103F01DBC4FF08042D2F81834FE
:10485000D2F81814C80312D503F00303012B1AD1A0
:104860004FF08042C2F818350023C2F80431D2F864
:1048700004310223C2F80433012393600AE0D2F822
:104880001434D9070BD5D2F81C349B0704D4022367
:10489000C2F8043310BD13B10020FFF7E7FE002378
:1048A000DEE74FF080430022C3F80021D3F8002157
:1048B000C3F804431C60EDE7300900209D9F000011
:1048C000438F00001E9F0000A7A600000A4B1B7923
:1048D00010B504465BB9094909480A4A40F2AD13CC
:1048E00003F0D6FB074840F2AD1103F0CAFB2046A7
:1048F000BDE81040FFF7BABE300900209D9F0000C0
:10490000438F00001E9F00004FF0804310B5D3F886
:1049100000216AB10022C3F80021D3F8002101224E
:10492000C3F80823114B587910B95A711B6898477E
:104930004FF08043D3F8042172B10022C3F8042160
:10494000D3F80421D3F81824D3F81814920704D10B
:104950000122C3F818259A6010BD0222C3F808236B
:10496000024BBDE810401B680120184730090020A9
:10497000034B083033F81000C0F34010704700BFFD
:104980005C000020044B083033F8100010F01C00CD
:1049900018BF0120704700BF5C000020034B0830A7
:1049A00033F81000C0F34000704700BF5C000020E7
:1049B00070B500F108030C4C34F81330DA050546E5
:1049C0000E4607D5C3F3432304EBC30254F8333038
:1049D00052689847A3682BB1E26831462846BDE883
:1049E0007040184770BD00BF5C00002010B5044641
:1049F000006803F05CFE58B912491348134A40F2AC
:104A0000292303F045FB114840F2292103F039FB2B
:104A1000236803F01F025B09226002D14FF0A0401F
:104A200010BD012B0CD0094A0949074840F22E233A
:104A300003F02EFB054840F22E2103F022FBEDE7A8
:104A40000448EDE77B9E0000438F0000489E000075
:104A5000A7A6000000030050194A083010B532F82C
:104A60001030D9051DD5C3F3432123F4F85322F8A0
:104A7000103002F10E04002034F8023F13F4807F5E
:104A800003D0C3F3432399420BD001303028F3D134
:104A9000002342F831300B48FFF7C8FD0A4B98421B
:104AA00000D110BD09490A480A4A4FF4997303F02E
:104AB000EFFABDE8104007484FF4997103F0E1BAEE
:104AC0005C000020D00000200000AD0B1FA0000003
:104AD000438F0000BB9F000038B50246FFF748FF38
:104AE000094C02F1080540B134F8153007495B0B59
:104AF00003F5A273002041F823001046FFF7ACFF36
:104B0000002324F8153038BD5C0000200060004010
:104B1000F0B5044685B017461D46D9B103F0D8FD5F
:104B200000BB0B46CDE900008DF80E008DF80F009C
:104B30000DF10F020DF10E01204603F0D4FD434AA2
:104B400004F1080132F8113023F0020343F00103AD
:104B500022F8113047B320463E787A68FFF71EFFEF
:104B600010B1B2B13A4821E0384F04F1080C37F8DF
:104B70001C1021F02001C904C90C27F81C1042B1F7
:104B8000032EEFD813789EB9324A03F5A27342F888
:104B900023602E4A04F1080132F8113023F01C037F
:104BA00043EA860322F811303DBB2B4805B0F0BD27
:104BB0009A0002F1804202F5C04241EA4331D2F844
:104BC000100520F00300C2F81005D2F8100520F4FB
:104BD0004F3020F44070C2F810052002D2F810E5E2
:104BE00000F47C5040EA064040EA0E0041F020010B
:104BF00027F81C10C2F81005CBE7D5E9006720465E
:104C0000FFF72AFF002ED0D0104DD5E900239642A1
:104C100001D19F4218D011480DF10F01FFF7E6FCBA
:104C20000D4B9842C2D19DF80F2045F8326005EB3C
:104C3000C20308345F6035F8143043EA422343F47A
:104C4000807325F81430B0E70022EEE75C00002006
:104C50000400AD0B006000400000AD0BD000002050
:104C6000F0B5044685B0154621B3FFF797FE20B98D
:104C70002046FFF77DFE00285ED12046FFF782FE2A
:104C800010B14B78012B57D001238DF80F30002342
:104C9000CDE900134A1C8B1C20460DF10F0103F0D7
:104CA00022FD264A04F1080132F8113043F00303D3
:104CB00022F8113015B9224805B0F0BD2046FFF7A3
:104CC0006DFEC8B31D4E95F800C004F1080761469B
:104CD00036F81700890020F0200001F18041C0045F
:104CE00001F5C041C00C26F817000023C1F81035AB
:104CF0006A78002ADFD0D1F81035AD7823F4991303
:104D000023F4F853C1F81035D1F810E5230203F469
:104D10007C53120402F4403243EA0E0313432A0583
:104D200002F4801240EA4C30134340F0200026F891
:104D30001700C1F81035BEE70248BDE75C0000204F
:104D40000000AD0B0400AD0B014BC3E9020170473D
:104D50005C00002038B504460D4659B90C490D4891
:104D60000D4A40F2352303F093F90B4840F2352108
:104D700003F087F92046FFF7FBFD38B1074B0848E1
:104D8000083433F814305B0B2B7038BD0548FCE752
:104D900033A00000438F0000BB9F00005C00002098
:104DA0000000AD0B0400AD0B38B50F4C94F87850F3
:104DB000BDB96022294604F1100003F047FA06202D
:104DC000FDF716FC094B0A48C3F87C51D3F87C2147
:104DD0004FF00042C3F80423012384F8783063675E
:104DE00038BD0448FCE700BF5C00002000600040C4
:104DF0000000AD0B0500AD0B034B93F878000038B5
:104E000018BF0120704700BF5C0000200146014828
:104E1000FFF70CBCCC00002001460148FFF7E6BBC1
:104E2000CC000020F7B504460D46FFF7ABFD58B99E
:104E30002E492F482F4A40F2DF3303F029F92D483D
:104E400040F2DF3103F01DF92046FFF791FD2A4EB5
:104E500004F10807F8B12046FFF7A0FDD8B936F8ED
:104E60001720520B930003F1804101F5C24103F179
:104E7000804303F5C04308600968D3F8101541F07A
:104E80000101C3F8101525B1012393401B4AC2F854
:104E9000043303B0F0BD5DB919491548154A40F215
:104EA000EE3303F0F5F8134840F2EE3103F0E9F881
:104EB00036F81730C3F38203042B12D0052B12D01F
:104EC00001A80194FFF792FD019BD0F81015D9407D
:104ED00001F001010231204603B0BDE8F04003F0CB
:104EE0004FBC0321F7E70221F5E700BF3DA000001A
:104EF000438F0000BB9F00005C000020006000406A
:104F000052A0000008B50246FFF732FDC8B11046B6
:104F1000FFF744FDA8B908320D4B0E4933F81230A3
:104F200001225B0B9A409B0003F1804303F5C043D1
:104F3000C1F80823D3F8102522F00302C3F8102586
:104F400008BDBDE808400021104603F019BC00BFB1
:104F50005C000020006000400E4B00F1080213B519
:104F600033F81230DB07044611D5FFF7CBFF20469C
:104F7000FFF7B2FD01A80194FFF738FD019B03F58F
:104F8000E073022240F82320034802B010BD03481A
:104F9000FBE700BF5C0000200000AD0B0400AD0B80
:104FA0002DE9F04F694B6A486A49002687B0012213
:104FB00034461D6835B1D0F8045315421EBF1C603D
:104FC0001D68164304338B424FEA4202F1D1DFF8E9
:104FD0008091D9F87C31002B00F09B804FF0A043EA
:104FE000D3F820250492C3F82025D3F82028059271
:104FF000C3F820284FF000080DF1100A4FEA4813BB
:1050000000934FF0010B4BE0009B534A94FAA4F439
:10501000B4FA84F41C44E00804F1080304F0070126
:1050200032F813701AF8003003940BFA01F123EAF6
:105030000103BA080AF8003003A80192FFF7D6FC72
:10504000039B019A03F5E073C7F3820550F8233000
:1050500052072F46C3F301432CD539462046DDB213
:10506000FFF7A6FC03A80394FFF7C0FC039B03F51E
:10507000E07350F82330C3F301439D4207D1002170
:10508000204603F07DFB2946204603F079FB03A868
:105090000394FFF7ABFC039B0BFA03F3C0F8203536
:1050A0005AF82840002CAFD1B8F1000F1DD14FF0B5
:1050B0000108A3E7022B0CD10321204603F060FB7B
:1050C00005F00503012BE2D139462046FFF770FCBD
:1050D000DDE702212046019303F052FB032DF3D0BC
:1050E000019B032BD3D1022DEDE74FF0A042C9F86D
:1050F0007C41D9F87C311949D2F820350493C2F8A3
:105100002035D1F8202505921343C1F820257FF4DE
:1051100071AF012416B907B0BDE8F08F96FAA6F377
:10512000B3FA83F304FA03F29B0003F1804303F51F
:10513000C04326EA0206D3F81005D3F81015C0F3D1
:105140000520C1F30141FFF733FCE3E700610040B4
:1051500000600040206100405C000020000300501F
:1051600001460148FFF742BAD800002010B5114CA3
:10517000114A1249032323616361114BA261E36168
:105180004FF4806323620023A3626362E3622266BA
:105190000C4A62661022A266E01D2367E36663671D
:1051A00003F02FF80849204603F02BF82023A371C1
:1051B00010BD00BF380900205DA0000066A00000FF
:1051C000180C0020080C00206AA000002DE9F84F00
:1051D000214F4FF0180B14460BFB00720646936AE2
:1051E000556AAB42884631D8D2F820A0AAEB05090F
:1051F00009F1FF32944211D8182306FB03333B44D4
:10520000224658684146284403F015F82C441823D8
:1052100003FB067301205C62BDE8F88F13449C42D7
:1052200018D800FB0BBBBB444A46DBF804002C44F7
:10523000284403F000F8B4EB0A04E8D0DBF80400DB
:10524000224608EB090102F0F6FFE0E7013B5B1B99
:10525000A342D1D20020DFE738090020034B1822F7
:1052600002FB00339A6A586A801A70473809002096
:105270000E4B70B553F82040013053F82060A64221
:1052800000D870BDD4E900352846984765B1EB6871
:1052900030B10028B8BF4042FF28A8BFFF201870D7
:1052A0005A7842F001025A700834E8E7388E00005C
:1052B0002DE9F041054686B00F464FF02003EFF38D
:1052C000118883F31288BFF36F8F01F005FE042D60
:1052D00096BF294B294B53F82530294903950024C3
:1052E000CDE90434274B0094CDE90143064623461B
:1052F0000122204603F065FA6FB1FB69C3F308038E
:105300004BB1214B1E490094CDE9014301222346B4
:10531000204603F056FA2EB1304603F088FA08B161
:10532000037803B919481A4B02930023CDE90360AF
:10533000CDE9003318461249012203F042FA3946FA
:105340002846FFF73FF8042D0CD11249124A1348A2
:105350008F2302F09DFE124802F09AFE0E488F2124
:1053600002F08FFE88F31188BFF36F8F304606B0CE
:10537000BDE8F041FDF7FABD508E000071A00000BD
:10538000E88B000087A00000AFA000007FA0000015
:10539000D0A000000AA10000E8A00000438F000098
:1053A00027A1000008B50A4B012202201A70FFF75E
:1053B0005FFF02F0E3F90320FFF75AFF00F02CFA39
:1053C000FBF708F8034A137B23F00103137308BDAE
:1053D000181000206002002008B50348034A00218D
:1053E000121A03F0FEF908BDC00100201C100020B5
:1053F00070B5002386B00122CDE90423134E144D6D
:1054000001930F22CDE902321249182303FB005504
:1054100006EBC01604464FF4B07000FB04110E4BAF
:1054200000954FF4A072304600F092F9737B0B4A5E
:10543000EE6023F0040373734FF4026304FB033341
:1054400013442C756B6006B070BD00BFE0010020F6
:10545000E0090020401800207559000020100020AD
:1054600080B52F4BA6B083F308882E4D2E4E6B6966
:105470002E4F43F400736B610024E02385F8223043
:10548000EC772C766C76AC7685F820406B6A43F42A
:10549000E0236B6285F82340FDF7DCFCFDF73AF86A
:1054A0004FF0FF33AB62EB6206ADFDF75DFEFDF73B
:1054B00073FDFCF70BFA40F201132846ADF82430D7
:1054C000CDE91F4402F054F9B56003F06FF92046AE
:1054D000FFF7CEFE0120164DFFF7CAFE01F072FB6A
:1054E000144BF5610593012313490094CDE903435F
:1054F0004FF480623B46CDE90144284600F028F98C
:105500006A7B064622F0040228466A7300F0E8FD32
:105510002046FFF76DFF3A4631462846FDF75EF913
:105520004018002000ED00E0E0090020A553000035
:1055300060020020A6A10000A0190020F8B5164CBA
:10554000164D174EAC420CD9164917483D2332462A
:1055500002F09EFD154802F09BFD3D21304602F011
:1055600090FDAC4201D30020F8BDD4E9041242EA18
:10557000010313F003030BD1E068A361834201D15F
:105580002034DFE7A76917600133A2610A44F5E719
:105590006FF01500E8E700BF580100205801002017
:1055A000AEA10000D3A10000438F0000F0A10000D5
:1055B0002DE9F74304460E4690461F4600F10805C4
:1055C0004FF02003EFF3118983F31288BFF36F8F3D
:1055D000284600F0A9F968B9244A254925488E23B0
:1055E00002F056FD2448294602F052FD1F488E2144
:1055F00002F047FD284600F0B5F9A369EBB133602E
:105600001B68A361E3690133E3610024284600F0CD
:1056100099F968B9154A19491648B92302F038FDB5
:105620001748294602F034FD1048B92102F029FD3F
:1056300089F31188BFF36F8F13E058EA070203D193
:1056400033606FF00B04E1E72246CDE9008749465D
:10565000284601F0B9F8044618B90A4B9B685B6903
:105660003360204603B0BDE8F08300BF8D9000009A
:10567000E6900000438F0000FB900000BA9000000D
:10568000D1900000E00900202DE9F04104460E46CB
:1056900000F108054FF02003EFF3118783F3128820
:1056A000BFF36F8F284600F03FF968B9224A2349BB
:1056B00023488E2302F0ECFC2248294602F0E8FC45
:1056C0001D488E2102F0DDFC284600F04BF9D4F88D
:1056D0001880B8F1000F0FD1204601F021FA58B11F
:1056E00032684261C0F8788000F0FAFC39462846FA
:1056F000BDE8F04100F03CBD3368A2691A60336830
:10570000A361E369013BE361284600F01BF968B936
:10571000094A0D490A48B92302F0BAFC0B48294648
:1057200002F0B6FC0448B92102F0ABFC87F3118803
:10573000BFF36F8FBDE8F0818D900000E690000010
:10574000438F0000FB900000BA900000D190000051
:105750002DE9F04385B00446DDF83C80B8F10F0F29
:105760000F461546994632D1254B994533D104F160
:105770005803C4E91633109B23730735042363735E
:1057800025F0070507F12003C4E9193500260E9B13
:1057900084F80E80C4E90666A660E673E66605F145
:1057A000200802930D9B0193B8440C9B0093424642
:1057B0004B4639462046FCF7DFFF124B66659B6877
:1057C00003B11B6F2367404605B0BDE8F08308F1C5
:1057D00010031E2BCBD90C4A0C490D4840F2FF1385
:1057E00002F056FC41460B486FF00F030E2202F008
:1057F0004FFC054840F2FF1102F043FCB7E700BF41
:1058000075590000E00900200FA2000032A200003C
:10581000438F0000B2A200002DE9F0433B4C3C4D09
:105820003C4F87B0AC4226460ED93B493B4840F23C
:10583000D5233A4602F02CFC394802F029FC40F20C
:10584000D521384602F01DFCAE4204F130041FD3CE
:1058500000F026FD2D4C2F4EDFF8BC80DFF8BC9009
:10586000AC420ED941464FF43D733246484602F0F1
:105870000FFC2B4802F00CFC4FF43D71304602F057
:1058800000FCAC4220D307B0BDE8F04300F07CBD83
:1058900054F8043C059354F8103C049354F8143C19
:1058A000039354F8183C029354F81C3C019354F8A9
:1058B000203C009354E90A2354E90C01FFF748FF08
:1058C00054F8303C5E65ADE7636A5A1C0FD023EA9A
:1058D000E3734FF4004240F2E7300021C3FB0201C2
:1058E00051EAC333276804D1384600F085FC3034D0
:1058F000B6E74FF47A720023FAF702FC02460B4631
:1059000007F11800074901F007FCF0E758010020F3
:10591000580100200FA20000E3A20000438F000006
:10592000F0A100006D6A0000006838B1044B1B7DD7
:1059300000F00300C01A18BF012070470120704713
:10594000E0090020064A117D92680A430168034677
:1059500091424FF0000004BF18600120704700BF63
:10596000E0090020024B1A7D9B68134303607047D7
:10597000E0090020134C08B5A36893F90E30002B02
:1059800009DA11491148124A272302F081FB104815
:10599000272102F076FB0F4D4FF02002EFF3118329
:1059A00082F31288BFF36F8F01F0CEFC2B78A061D9
:1059B00013B9FCF7B5FDEFE7FCF70EFC0028EBD1BF
:1059C000F7E700BFE009002031A30000438F00008B
:1059D00010A30000181000202DE9F34104461746DB
:1059E0001E46EFF3058363B16D496E4A6E48652329
:1059F00002F04EFB6D4802F04BFB6A48652102F055
:105A000040FB4FF02003EFF3118883F31288BFF3BC
:105A10006F8F6748FFF788FF68B9664A6649624832
:105A20008E2302F035FB6249644802F031FB614885
:105A30008E2102F026FB5E48FFF794FFE368604A80
:105A40000BB3A068916888423DD057EA06033CD169
:105A50005748FFF777FF68B9564A5A495248B92361
:105A600002F016FB5249584802F012FB5148B92186
:105A700002F007FB88F31188BFF36F8F6FF00F0000
:105A800002B0BDE8F081916891F90E10484821619B
:105A90000133E3609368A360FFF754FF68B9454A98
:105AA00048494148B92302F0F3FA4149464802F017
:105AB000EFFA4048B92102F0E4FA88F31188BFF305
:105AC0006F8F0020DCE72169E0E791F90E1090F973
:105AD0000E309942A8BF19466FF07E029142B8BFBE
