:1000000040D7002011450000E9A20000E5440000AF
:10001000E5440000E5440000E54400000000000065
:10002000000000000000000000000000CD3D0000C6
:10003000E544000000000000793D0000E5440000B8
:100040007D3E00007D3E00007D3E00007D3E0000C4
:100050007D3E00007D3E00007D3E00007D3E0000B4
:100060007D3E00007D3E00007D3E00007D3E0000A4
:100070007D3E00007D3E00007D3E00007D3E000094
:100080007D3E00007D3E00007D3E00007D3E000084
:100090007D3E00007D3E00007D3E00007D3E000074
:1000A0007D3E00007D3E00007D3E00007D3E000064
:1000B0007D3E00007D3E00007D3E00007D3E000054
:1000C0007D3E00007D3E00007D3E00007D3E000044
:1000D0007D3E00007D3E00007D3E00007D3E000034
:1000E0007D3E00007D3E00007D3E00007D3E000024
:1000F0007D3E00007D3E00007D3E00007D3E000014
:1001000081F0004102E000BF83F0004330B54FEAC8
:1001100041044FEA430594EA050F08BF90EA020F35
:100120001FBF54EA000C55EA020C7FEA645C7FEAC8
:10013000655C00F0E2804FEA5454D4EB5555B8BFEB
:100140006D420CDD2C4480EA020281EA030382EA5C
:10015000000083EA010180EA020281EA0303362DEE
:1001600088BF30BD11F0004F4FEA01314FF4801CC1
:100170004CEA113102D0404261EB410113F0004FD3
:100180004FEA03334CEA133302D0524263EB43038A
:1001900094EA050F00F0A780A4F10104D5F1200E28
:1001A0000DDB02FA0EFC22FA05F2801841F1000183
:1001B00003FA0EF2801843FA05F359410EE0A5F157
:1001C00020050EF1200E012A03FA0EFC28BF4CF088
:1001D000020C43FA05F3C01851EBE37101F000453E
:1001E00007D54FF0000EDCF1000C7EEB00006EEB4B
:1001F0000101B1F5801F1BD3B1F5001F0CD34908D5
:100200005FEA30004FEA3C0C04F101044FEA44522B
:1002100012F5800F80F09A80BCF1004F08BF5FEAB2
:10022000500C50F1000041EB045141EA050130BD92
:100230005FEA4C0C404141EB0101013C28BFB1F5A4
:10024000801FE9D291F0000F04BF01460020B1FAEF
:1002500081F308BF2033A3F10B03B3F120020CDAC2
:100260000C3208DD02F1140CC2F10C0201FA0CF0A0
:1002700021FA02F10CE002F11402D8BFC2F1200C05
:1002800001FA02F120FA0CFCDCBF41EA0C019040BB
:10029000E41AA2BF01EB0451294330BD6FEA040404
:1002A0001F3C1CDA0C340EDC04F11404C4F12002EF
:1002B00020FA04F001FA02F340EA030021FA04F301
:1002C00045EA030130BDC4F10C04C4F1200220FA58
:1002D00002F001FA04F340EA0300294630BD21FA96
:1002E00004F0294630BD94F0000F83F4801306BF5C
:1002F00081F480110134013D4EE77FEA645C18BF50
:100300007FEA655C29D094EA050F08BF90EA020FE6
:1003100005D054EA000C04BF1946104630BD91EADE
:10032000030F1EBF0021002030BD5FEA545C05D1E1
:100330004000494128BF41F0004130BD14F5800420
:100340003CBF01F5801130BD01F0004545F0FE4194
:1003500041F470014FF0000030BD7FEA645C1ABFC9
:10036000194610467FEA655C1CBF0B46024650EA00
:10037000013406BF52EA033591EA030F41F400212C
:1003800030BD00BF90F0000F04BF0021704730B5B2
:100390004FF4806404F132044FF000054FF0000187
:1003A00050E700BF90F0000F04BF0021704730B548
:1003B0004FF4806404F1320410F0004548BF40421D
:1003C0004FF000013EE700BF42004FEAE2014FEA72
:1003D00031014FEA02701FBF12F07F4393F07F4F4D
:1003E00081F06051704732F07F4208BF704793F050
:1003F0007F4F04BF41F40021704730B54FF4607463
:1004000001F0004521F000411CE700BF50EA010265
:1004100008BF704730B54FF000050AE050EA01020E
:1004200008BF704730B511F0004502D5404261EB7E
:1004300041014FF4806404F132045FEA915C3FF4BF
:10044000D8AE4FF003025FEADC0C18BF03325FEA5C
:10045000DC0C18BF033202EBDC02C2F1200300FA0D
:1004600003FC20FA02F001FA03FE40EA0E0021FA32
:1004700002F11444BDE600BF70B54FF0FF0C4CF420
:10048000E06C1CEA11541DBF1CEA135594EA0C0FD2
:1004900095EA0C0F00F0DEF82C4481EA030621EA0D
:1004A0004C5123EA4C5350EA013518BF52EA033548
:1004B00041F4801143F4801338D0A0FB02CE4FF0FA
:1004C0000005E1FB02E506F00042E0FB03E54FF02A
:1004D0000006E1FB03569CF0000F18BF4EF0010E22
:1004E000A4F1FF04B6F5007F64F5407404D25FEA1E
:1004F0004E0E6D4146EB060642EAC62141EA5551D1
:100500004FEAC52040EA5E504FEACE2EB4F1FD0C12
:1005100088BFBCF5E06F1ED8BEF1004F08BF5FEA90
:10052000500E50F1000041EB045170BD06F0004642
:1005300046EA010140EA020081EA0301B4EB5C04EF
:10054000C2BFD4EB0C0541EA045170BD41F48011E7
:100550004FF0000E013C00F3AB8014F1360FDEBF0C
:10056000002001F0004170BDC4F10004203C35DAE8
:100570000C341BDC04F11404C4F1200500FA05F36B
:1005800020FA04F001FA05F240EA020001F000420C
:1005900021F0004110EBD37021FA04F642EB060182
:1005A0005EEA430E08BF20EAD37070BDC4F10C04AC
:1005B000C4F1200500FA04F320FA05F001FA04F270
:1005C00040EA020001F0004110EBD37041F100015C
:1005D0005EEA430E08BF20EAD37070BDC4F1200567
:1005E00000FA05F24EEA020E20FA04F301FA05F2CF
:1005F00043EA020321FA04F001F0004121FA04F277
:1006000020EA020000EBD3705EEA430E08BF20EA46
:10061000D37070BD94F0000F0FD101F00046400080
:1006200041EB010111F4801F08BF013CF7D041EA02
:10063000060195F0000F18BF704703F00046520006
:1006400043EB030313F4801F08BF013DF7D043EAD7
:100650000603704794EA0C0F0CEA135518BF95EA8D
:100660000C0F0CD050EA410618BF52EA4306D1D114
:1006700081EA030101F000414FF0000070BD50EA33
:10068000410606BF1046194652EA430619D094EABD
:100690000C0F02D150EA013613D195EA0C0F05D1A7
:1006A00052EA03361CBF104619460AD181EA0301FB
:1006B00001F0004141F0FE4141F470014FF00000B3
:1006C00070BD41F0FE4141F4780170BD70B54FF04E
:1006D000FF0C4CF4E06C1CEA11541DBF1CEA1355CE
:1006E00094EA0C0F95EA0C0F00F0A7F8A4EB0504B0
:1006F00081EA030E52EA03354FEA013100F08880A7
:100700004FEA03334FF0805545EA131343EA12636F
:100710004FEA022245EA111545EA10654FEA002624
:100720000EF000419D4208BF964244F1FD0404F5DD
:10073000407402D25B084FEA3202B61A65EB030539
:100740005B084FEA32024FF480104FF4002CB6EBF6
:10075000020E75EB030E22BFB61A754640EA0C0076
:100760005B084FEA3202B6EB020E75EB030E22BFB6
:10077000B61A754640EA5C005B084FEA3202B6EBF7
:10078000020E75EB030E22BFB61A754640EA9C00B6
:100790005B084FEA3202B6EB020E75EB030E22BF86
:1007A000B61A754640EADC0055EA060E18D04FEA44
:1007B000051545EA16754FEA06164FEAC30343EAE4
:1007C00052734FEAC2025FEA1C1CC0D111F4801FB1
:1007D0000BD141EA00014FF000004FF0004CB6E7AA
:1007E00011F4801F04BF01430020B4F1FD0C88BF49
:1007F000BCF5E06F3FF6AFAEB5EB030C04BFB6EB54
:10080000020C5FEA500C50F1000041EB045170BD46
:100810000EF0004E4EEA113114EB5C04C2BFD4EB73
:100820000C0541EA045170BD41F480114FF0000EF7
:10083000013C90E645EA060E8DE60CEA135594EA73
:100840000C0F08BF95EA0C0F3FF43BAF94EA0C0F76
:100850000AD150EA01347FF434AF95EA0C0F7FF4EB
:1008600025AF104619462CE795EA0C0F06D152EA3F
:1008700003353FF4FDAE1046194622E750EA410623
:1008800018BF52EA43067FF4C5AE50EA41047FF434
:100890000DAF52EA43057FF4EBAE12E74FEA410297
:1008A000B2F1E04324BFB3F5001CDCF1FE5C0DD9CE
:1008B00001F0004C4FEAC0024CEA5070B2F1004F18
:1008C00040EB830008BF20F00100704711F0804F1B
:1008D00021D113F13872BCBF01F00040704741F4E0
:1008E00080114FEA5252C2F11802C2F1200C10FAE4
:1008F0000CF320FA02F018BF40F001004FEAC123C8
:100900004FEAD32303FA0CFC40EA0C0023FA02F36B
:100910004FEA4303CCE77FEA625307D150EA013341
:100920001EBF4FF0FE4040F44000704701F0004011
:1009300040F0FE4040F40000704700BF80F00040EF
:1009400002E000BF81F0004142001FBF5FEA4103A7
:1009500092EA030F7FEA226C7FEA236C6AD04FEAA7
:100960001262D2EB1363C1BFD218414048404140EC
:10097000B8BF5B42192B88BF704710F0004F40F49E
:10098000000020F07F4018BF404211F0004F41F4BA
:10099000000121F07F4118BF494292EA030F3FD086
:1009A000A2F1010241FA03FC10EB0C00C3F1200399
:1009B00001FA03F100F0004302D5494260EB400028
:1009C000B0F5000F13D3B0F1807F06D340084FEA93
:1009D000310102F10102FE2A51D2B1F1004F40EB88
:1009E000C25008BF20F0010040EA030070474900F0
:1009F00040EB0000013A28BFB0F5000FEDD2B0FA8D
:100A000080FCACF1080CB2EB0C0200FA0CF0AABFAF
:100A100000EBC25052421843BCBFD040184370474D
:100A200092F0000F81F4000106BF80F40000013253
:100A3000013BB5E74FEA41037FEA226C18BF7FEA2A
:100A4000236C21D092EA030F04D092F0000F08BF6C
:100A50000846704790EA010F1CBF0020704712F053
:100A60007F4F04D1400028BF40F00040704712F192
:100A700000723CBF00F50000704700F0004343F0F7
:100A8000FE4040F4000070477FEA226216BF08462D
:100A90007FEA23630146420206BF5FEA412390EAF0
:100AA000010F40F4800070474FF0000304E000BFE6
:100AB00010F0004348BF40425FEA000C08BF704797
:100AC00043F0964301464FF000001CE050EA01025B
:100AD00008BF70474FF000030AE000BF50EA010270
:100AE00008BF704711F0004302D5404261EB41015D
:100AF0005FEA010C02BF84460146002043F0B64382
:100B000008BFA3F18053A3F50003BCFA8CF2083AA6
:100B1000A3EBC25310DB01FA02FC634400FA02FCAF
:100B2000C2F12002BCF1004F20FA02F243EB0200B6
:100B300008BF20F00100704702F1200201FA02FC18
:100B4000C2F1200250EA4C0021FA02F243EB02000B
:100B500008BF20EADC70704742000ED2B2F1FE4FAF
:100B60000BD34FF09E03B3EB126209D44FEA00237C
:100B700043F0004323FA02F070474FF00000704743
:100B800012F1610F01D1420202D14FF0FF307047E4
:100B90004FF00000704700BF53B94AB9002908BFA1
:100BA00000281CBF4FF0FF314FF0FF3000F00CB8B1
:100BB000ADF1080C6DE904CE00F090F8DDF804E02A
:100BC000DDE9022304B07047704700BF4FF0FF3CDF
:100BD00006E000BF4FF0010C02E000BF4FF0010C37
:100BE0004DF804CD4FEA410C7FEA6C5C4FEA430CB0
:100BF00018BF7FEA6C5C1BD001B050EA410C0CBFFF
:100C000052EA430C91EA030F02BF90EA020F002060
:100C1000704710F1000F91EA030F58BF994208BFC7
:100C200090422CBFD8176FEAE37040F00100704784
:100C30004FEA410C7FEA6C5C02D150EA013C07D1DB
:100C40004FEA430C7FEA6C5CD6D152EA033CD3D026
:100C50005DF8040B704700BF8446104662468C4620
:100C60001946634600E000BF01B5FFF7B7FF002853
:100C700048BF10F1000F01BD4DF808EDFFF7F4FF7C
:100C80000CBF012000205DF808FB00BF4DF808ED07
:100C9000FFF7EAFF34BF012000205DF808FB00BF2A
:100CA0004DF808EDFFF7E0FF94BF012000205DF84C
:100CB00008FB00BF4DF808EDFFF7CEFF94BF012001
:100CC00000205DF808FB00BF4DF808EDFFF7C4FFFA
:100CD00034BF012000205DF808FB00BF2DE9F0477C
:100CE00086468C460846089E154674461946002BD3
:100CF00040F0C2808542B2FA82F245D94AB1C2F1CF
:100D0000200300FA02FC2EFA03F3954043EA0C0C90
:100D100094404FEA154EA8B2BCFBFEF8230C0EFB24
:100D200018CC08FB00F943EA0C43994528D9EB1885
:100D300008F1FF3704D2994502D9A8F102072B44E4
:100D4000A3EB0903A4B2B3FBFEFC0EFB1C330CFBAC
:100D500000F044EA0344A04214D92C190CF1FF33EB
:100D600004D2A04202D9ACF102032C44241A43EA73
:100D700007401EB1D440002334607360BDE8F087A3
:100D80004746DDE76346F1E792BB431B01214FEA8B
:100D9000154EAFB2B3FBFEFC200C0EFB1C330CFB5C
:100DA00007F840EA0343984562D9EB180CF1FF308D
:100DB00004D2984502D9ACF102002B44A3EB0803FE
:100DC000A4B2B3FBFEFC0EFB1C330CFB07F744EA9A
:100DD0000344A7424ED92C190CF1FF3304D2A74289
:100DE00002D9ACF102032C44E41B43EA0040C0E703
:100DF000C2F1200320FA03F1954090402EFA03F34C
:100E000003434FEA154EAFB2B1FBFEFC0EFB1C10C4
:100E1000190C0CFB07F841EA0041884504FA02F47A
:100E200022D969180CF1FF3004D2884502D9ACF1FF
:100E300002002944A1EB08019BB2B1FBFEFC0EFBB2
:100E40001C110CFB07F743EA01439F420ED9EB1834
:100E50000CF1FF3104D29F4202D9ACF102012B44C4
:100E6000DB1B41EA004192E76046E3E76146F7E7B2
:100E70006046A3E76346B7E7834206D916B9002167
:100E800008467BE7C6E900E0F9E7B3FA83F78FB9D4
:100E9000834201D3724508D8BEEB020460EB030322
:100EA00001209C461EB9002168E73846FAE7C6E9EA
:100EB000004CF8E7C7F1200CBB4022FA0CF41C43AD
:100EC0002EFA0CF120FA0CF3B84001434FEA144912
:100ED0000EFA07F5B3FBF9F81FFA84FE09FB183088
:100EE0000B0C08FB0EFA43EA00439A4502FA07F29C
:100EF00040D9E31808F1FF3004D29A4502D9A8F18D
:100F000002002344A3EB0A0389B2B3FBF9F809FBFF
:100F1000183308FB0EFE41EA03418E452CD96118B7
:100F200008F1FF3304D28E4502D9A8F1020321440F
:100F300043EA0040A0FB0298A1EB0E014145CE46DA
:100F4000434602D306D14D4504D2B9EB020E68EBFD
:100F500004030138002EA6D0B5EB0E0261EB0301AD
:100F600001FA0CFC22FA07F34CEA0303F940C6E944
:100F7000003198E74046C5E74346D9E710F8012B12
:100F800011F8013B012A28BF9A42F7D0D01A7047C6
:100F9000034613F8012B002AFBD1181A01387047B9
:100FA000F8B500240D46174626462346C25CFF2AA4
:100FB0001ED00133802BF9D100F57D533F33002142
:100FC00013F8012FFF2A15D001318029F8D1A01B79
:100FD000FFF7E8F908A3D3E9002309F064FFFFF75E
:100FE0005DFC642306FB0333DB1138602B80F8BD06
:100FF0009CB2E1E78EB2EAE70000000000C05F406B
:101000002DE9F84F17469046994623F000427B425F
:10101000DFF884A13B4342EAD373534504460D46AF
:1010200009D8464221F00043064343EAD6765645A6
:101030008E46834608D942464B4620462946FFF74E
:1010400065F804460D4616E009F1404606F580169F
:101050003E4303D1BDE8F84F00F0A6B84FEAA976A9
:1010600006F0020653EA0B0B46EAD17607D1022EB0
:1010700064D0032E66D020462946BDE8F88F17437A
:1010800006D1BEF1000F68DA37A5D5E90045F2E7D1
:1010900052450FD1934206F1FF3607D1022E55D8A3
:1010A0003E4B03EBC603D3E90045E4E7022E51D8DB
:1010B0003B4BF6E75345E4D09B1AB3F1747F4FEAFC
:1010C000235221DAB9F1000F01DA3C3220DB42462B
:1010D0004B4620462946FFF7F9FA09F0E6FE00F0F4
:1010E00063F804460D46012E15D0022E17D0002EAF
:1010F000C1D01FA3D3E9002320462946FFF704F8F7
:101100001DA3D3E9002316E01DA5D5E90045EAE7B4
:1011100000240025E7E705F100431D46ABE714A3D3
:10112000D3E9002320462946FEF7EEFF02460B4690
:1011300011A1D1E90001FEF7E7FF82E70EA5D5E98D
:10114000004598E710A5D5E9004594E710A5D5E935
:10115000004590E7002400258DE709A5D5E9004565
:1011600089E700BFAFF30080182D4454FB21F9BF7D
:10117000075C143326A6A13C182D4454FB210940DA
:10118000182D4454FB21F93F182D4454FB2109C06C
:10119000182D4454FB21E93F0000F07F50B20000BD
:1011A00038B20000000000002DE9F84FBC4B21F0E0
:1011B00000469E4204460D468B4618D9B94B9E42C6
:1011C00001D809D140B122462B4620462946FEF7D8
:1011D0009DFF04460D4606E0BBF1000F40F323815E
:1011E00093A5D5E9004520462946BDE8F88FAE4BCA
:1011F0009E4211D8A3F1DE739E420AD88EA3D3E992
:101200000023FEF783FFA94B0022FFF75DFD0028B6
:10121000E9D14FF0FF3A27E009F047FEA44B9E4288
:1012200004460D4600F2B880A3F550239E4200F21A
:101230009C8002460B46FEF769FF9C4B0022FEF79E
:1012400063FF002206460F464FF0804320462946A2
:10125000FEF75CFF02460B4630463946FFF736FA8A
:101260004FF0000A04460D4622462B4620462946EA
:10127000FFF702F902460B4680468946FFF7FCF865
:101280006FA3D3E9002306460F46FFF7F5F86EA3D8
:10129000D3E90023FEF73AFF32463B46FFF7ECF86E
:1012A0006BA3D3E90023FEF731FF32463B46FFF73D
:1012B000E3F869A3D3E90023FEF728FF32463B4653
:1012C000FFF7DAF866A3D3E90023FEF71FFF3246E3
:1012D0003B46FFF7D1F864A3D3E90023FEF716FFDE
:1012E00042464B46FFF7C8F861A3D3E90023804686
:1012F000894630463946FFF7BFF85FA3D3E900239C
:10130000FEF702FF32463B46FFF7B6F85CA3D3E98F
:101310000023FEF7F9FE32463B46FFF7ADF85AA32D
:10132000D3E90023FEF7F0FE32463B46FFF7A4F870
:1013300057A3D3E90023FEF7E7FE32463B46FFF70B
:101340009BF802460B4640464946FEF7DFFE224622
:101350002B46FFF791F8BAF1FF3F02460B4644D106
:1013600020462946FEF7D0FE33E7504B0022FEF719
:10137000CBFE4E4B06460F46002220462946FEF77E
:10138000C5FE02460B4630463946FFF79FF94FF03F
:10139000010A04460D4667E7464B9E421AD2464B69
:1013A0000022FEF7B1FE444B06460F4600222046BF
:1013B0002946FFF761F83D4B0022FEF7A7FE0246E3
:1013C0000B4630463946FFF781F94FF0020A0446D2
:1013D0000D4649E702460B4600203849FFF776F9EB
:1013E0004FF0030A04460D463EE7354B354E03EBFE
:1013F000CA03D3E90023FEF787FE22462B46FEF7F9
:1014000083FE06EBCA0602460B46D6E90001FEF74C
:101410007BFEBBF1000F04460D46BFF6E4AE01F1C2
:1014200000431D46DFE61CA5D5E90045DBE600BF0D
:10143000182D4454FB21F93F9C7500883CE4377E0D
:1014400011DA22E33AAD903FEB0D76244B7BA93FB6
:10145000513DD0A0660DB13F6E204CC5CD45B73F84
:10146000FF8300922449C23F0D5555555555D53F30
:101470002F6C6A2C44B4A2BF9AFDDE522DDEAD3F24
:101480006D9A74AFF2B0B33F711623FEC671BC3FC4
:10149000C4EB98999999C93F182D4454FB21F9BF81
:1014A000FFFF0F440000F07FFFFFDB3F0000F03F35
:1014B000FFFFF23F008003400000F83F0000F0BF54
:1014C00068B2000088B2000010B5024C204609F056
:1014D000C8FCFBE7F41000202DE9F04FDFF890A0E6
:1014E000DFF890B085B001244FF0FF324FF0FF33AA
:1014F000214806F059FB09F0BBF90746DAF800006D
:1015000009F062FC0646DBF8000009F05DFC0546C8
:101510000068FEF759FF8046894668683178039174
:10152000FFF71AFB80B242464B46039900901348DE
:1015300008F0FBFCDAF80010304609F060FCDBF83C
:101540000010284609F05BFC09F092F9C01BA0428C
:1015500008D90B4A47F6FF740023E0FB0243E40B73
:1015600044EA43440748214608F0DFFCBCE700BFDB
:10157000B8070020B40700209007002070B50000D5
:1015800040420F00B4B5000010B50B78022B08D014
:10159000052B14D0012B11D1BDE81040124808F0E2
:1015A000C4BC8868CA6811494FF48043014410489C
:1015B00009F08DFC0F4A13680133136010BD0E4B08
:1015C000186883680949DC684FF480424FF47A73E5
:1015D000A04701460028F1D0084808F0A6FC4FF0CB
:1015E000FF3008F075FA00BF01B60000F45000208B
:1015F000F4100020D0070020D40700201AB6000005
:101600002DE9F7431D4E1E4D1E4F01244FF0FF33B1
:101610004FF0FF32304606F0C7FA09F029F981464B
:10162000286808F027FA01AA80460DF10201384621
:10163000FFF7B6FC019BC8F80030BDF80200FFF7C9
:1016400033FA2968C8F80400404609F0A2FB09F003
:101650000FF9A0EB0900A04208D90B4A47F6FF7426
:101660000023E0FB0243E40B44EA434407482146DD
:1016700008F05BFC064806F059FAC7E7800700202F
:10168000B4070020F410002040420F0042B60000D2
:10169000900700202DE9F8431A4E1B4D1B4F0124E3
:1016A0004FF0FF324FF0FF33304606F07DFA09F07D
:1016B000DFF88146286808F0DDF98046384609F0F1
:1016C000B9FB014688F80000114808F02EFC296893
:1016D000404609F05EFB09F0CBF8A0EB0900A04200
:1016E00008D90C4A47F6FF740023E0FB0243E40BE1
:1016F00044EA43440848214608F017FC074806F02E
:1017000015FACDE7A0070020B8070020F41000204C
:1017100087B6000040420F0093B6000090070020FB
:101720002DE9F341164B174D174E184F0193012425
:101730002B68002B1EDD3046214608F0F6FB002307
:1017400038682B6083680422D3F804800DEB020113
:101750004FF0FF33C047014628B10D4808F0E5FBC4
:1017600002B0BDE8F08101340A4806F0DFF90A480A
:1017700006F0DCF941F69D5007F030FBD8E700BFDA
:1017800041434B00D0070020DDB60000D407002005
:101790000BB70000A007002080070020F0B58FB035
:1017A0000023012200240C930D9311460DF1210317
:1017B0005F480B94CDE909448DF82140ADF82240F3
:1017C00009F0B9FA5B4B0422186002210CAB5A48AD
:1017D00009F0B1FA594B0222186001210DF12203E0
:1017E000574809F0A8FA574B18605748574D05F06D
:1017F000D1FB286020B95449554808F096FB09E010
:10180000544808F092FB286883685B6A23B9524801
:1018100008F08BFB0FB0F0BD504998475830F6D018
:10182000286883681B6833B14D49224698470146B2
:1018300020B14C48E1E76FF05701FAE72868836868
:101840004949DC684FF480424FF47A73A04704465C
:1018500010B101464548D0E701220146444809F04D
:10186000E7F901222146434809F0E2F90122214625
:10187000414809F0DDF9002600270BAB02930AABC3
:101880000193012509AB0093CDE906673B4B3C4929
:10189000049403954FF400623A4805F059FE3A4B20
:1018A00018603A4B3A490094CDE90667CDE90354F4
:1018B000CDE901444FF40062364805F049FE364B4D
:1018C00018604FF0FF324FF0FF33CDE906230323BA
:1018D000CDE90243CDE90044304B314904944FF443
:1018E0000062304805F034FE2F4B18600223CDE92A
:1018F0000243CDE90667CDE900442C4B2C49049402
:101900004FF400622B4805F023FE2B4B18602B4B45
:101910002B492C480094CDE90667CDE90354CDE965
:1019200001444FF4006205F013FE274B186071E785
:101930002CB70000B807002030B70000B407002023
:1019400034B70000B007002039B70000D4070020EA
:1019500040B700006CB7000086B70000A8B20000D6
:1019600089150000B6B70000F45000201AB6000038
:10197000A007002090070020800700209516000097
:10198000A0B5002028040020CC070020D9140000B6
:10199000409D0020A8020020C0070020C9140000BC
:1019A00080AD0020A8030020C80700200116000019
:1019B00060A5002028030020C40700202117000094
:1019C0002095002028020020BC0700202DE9F04FC0
:1019D0008DB01F46029202F00403C2F3C2020193CB
:1019E000531C04938307DDF8588005460E4640F0EB
:1019F0002882041D30B1072909D86FF01B000DB0F3
:101A0000BDE8F08F01F00706341DC6F108064FF05F
:101A1000000A4FF004097B1ECDF80CA05246514637
:101A2000CB4605B127600498002800F32A81BC4802
:101A3000874203D3BB488742C0F02381DDF808C04A
:101A4000A4EB050E1CF0020F4FEA9E0000F0378158
:101A50004FF0000C1EE131B9252816D101214FF0BD
:101A60000409CB4611E06C2800F29F804B2822D855
:101A7000472800F2B18029286AD8202805D0A0F193
:101A8000230CDCF1000141EB0C0113F8010F0028DD
:101A9000E1D1611BB1F5806FC0F07381A249A34A07
:101AA000A34840F23D2308F08DFBA24808F08AFBD2
:101AB00040F23D21FDE0A0F14C0CBCF1200F00F202
:101AC0008B800FF2080E5EF82CF000BF8B1A00001E
:101AD000D91B0000D91B0000D91B0000D91B000036
:101AE000D91B0000D91B0000D91B0000D91B000026
:101AF000D91B0000D91B0000D91B0000DD1B000012
:101B0000D91B0000D91B0000D91B0000D91B000005
:101B1000D91B0000D91B0000D91B0000D91B0000F5
:101B2000F91B0000D91B0000DD1B0000DD1B0000BD
:101B3000F91B0000F91B0000F91B00008B1A0000C4
:101B4000DD1B0000211C0000D91B00008B1A0000C7
:101B5000A0F12A0C4FF0010E5FFA8CFC0EFA0CFC7F
:101B60004FF6DA7E1CEA0E0F8FD11CF0625F43D174
:101B70001CF0010189D0013C4C44C9F1000C04EA7D
:101B80000C04002D65D0ABEB050CA4446645FFF4B6
:101B900034AF73286FD0BBF1040F4AD158F8040B4F
:101BA000206004344FF0040B6FE7A0F16E0C5FFA75
:101BB0008CFCBCF10C0F0FD84FF0010E0EFA0CFC90
:101BC0001CF0250F2FD140F2824E1CEA0E0F05D1DA
:101BD0001CF4825C7FF443AF002156E713F8011C2C
:101BE0006C2924D113F8021C6C294FF000011BD181
:101BF0004FF00809CB46BEE708F1070828F00708B0
:101C00000734F8E8020124F007043DB1DDF814E0E0
:101C1000A644B6453FF6F1AEC4E900010834002100
:101C20004FF008091DE700214FF00409E2E7002109
:101C3000A1E7BBF1080F40F0968008F1070828F0F3
:101C40000708F8E802BCC4E900BC08344FF0080BF0
:101C50001BE773280FD0BBF1040F02D108F1040871
:101C60009FE7BBF1080F7ED108F1070828F00708AD
:101C700008F10808E9E7049858F8047B0138049053
:101C8000CFE60298800746D5A4EB050E4FEA9E00EA
:101C90004FF0010CBEF5007F1FD32349234A24488F
:101CA0004FF4F87308F08EFA234808F08BFA4FF4DB
:101CB000F8711E4808F07FFA6FF015009FE60F2AB2
:101CC0000DD8002D3FD0C0B202F1300CEC440CF81E
:101CD000100C0398013003901CE00F2A0CD9124914
:101CE000124A134840F2F51308F06CFA134808F052
:101CF00069FA40F2F511DCE715B3C0B2BCF1000F90
:101D0000E2D002F1300CEC4460F07F000CF8100CD3
:101D10000AF1010A0132C5F1080004340590B4E665
:101D200038AF0000F8D20000FED00000E1B700009C
:101D30000FB800007CB800002CB800004DB80000BF
:101D4000BCF1000F01D1019808B10136E2E7384635
:101D5000CDE906210593FFF71BF90236DDE90621DF
:101D6000059B0644D6E7384A3849394840F23123C2
:101D700008F028FA5946374808F024FA40F2312191
:101D800097E71DB9A6F10804601838E6019BC1F376
:101D9000870C9DF80C100BB90846194685F800C051
:101DA0006870E97085F802A0BAF1000F06D008A8A3
:101DB0004FF0000CC5F1010E624509D10DF120086C
:101DC00008EB0209C5F1010BC14511D1601B16E6F4
:101DD00010F8011B0B0608D504EB0E08464501F070
:101DE0007F01FFF40AAE04F8011B0CF1010CE3E7DC
:101DF000BAF1000F03D098F90020002A1CDB019BE8
:101E0000EBB998F8002055F8227045F82230384692
:101E1000FFF7BEF8421C04EB0B0111448E42FFF4A5
:101E2000ECAD98F8001004F8011B394620460292E8
:101E300009F03FF8029A144408F10108C4E70022AF
:101E4000E9E76FF00D00DAE5E1B70000FED0000031
:101E50000FB8000067B80000436803F00303032BCA
:101E600010B50446816002D02BB1002000E000686C
:101E70000023636010BD054A05490648452308F064
:101E8000A1F90248452108F096F9EEE793B8000061
:101E9000FED000000FB80000014B1860704700BF73
:101EA000000000202DE9F84F858B2B070446914652
:101EB00069D4022905F0070500F0EE81AA46D4F89E
:101EC0001880A38BB8F1000F7DDA0022266823F07A
:101ED0000703C4E9002243F00103A383A38B03F0AB
:101EE000070555454FF0000740F0A5814FF0000A67
:101EF000002E00F0F28043F0080304F1140BA383DA
:101F0000584605F00BFC68B9934A94499448B923A4
:101F100008F058F99348594608F054F98E48B92109
:101F200008F049F989F31188BFF36F8FBAF1000FF8
:101F300040F08881002E40F09E8117B18A492046EA
:101F4000B8474FF02003EFF3118983F31288BFF3F2
:101F50006F8F584605F0D4FB68B97F4A83498048A3
:101F60008E2308F02FF98248594608F02BF97A4859
:101F70008E2108F020F9584605F0E0FBA38B23F0F2
:101F80000803A3835AE001290CBF45F0100545F072
:101F9000200585831434204605F0C0FB68B96E4ADD
:101FA0006E496F48B92308F00DF96E48214608F0D4
:101FB00009F96948B92108F0FEF889F31188BFF3DF
:101FC0006F8FBDE8F88F03F00702511F012920D859
:101FD0000021062A2668C4E9001116D1324603E022
:101FE000E18B12680131E183002AF9D123F0070364
:101FF00043F00202A283204607F0A4FF00283FF42A
:102000006DAF42F02002A28368E723F007039AB283
:10201000F0E7042A1ED123F007039AB2A2832046D8
:1020200007F090FF10B142F02002A283A38B03F0CF
:102030000705002755453E4640F0FD80B4F81CA03A
:102040001AF0100F00F01F812AF01003A3830AF08A
:10205000070A34E7474A4849414840F21B1308F051
:10206000B1F8444840F21B1108F0A5F8DEE75DB175
:1020700042493B483F4A4FF4AB7308F0A3F83D4850
:102080004FF4AB7108F097F823685BB93C493448CA
:10209000384A40F2571308F095F8364840F2571185
:1020A00008F089F823691F685FB936492C48314A1E
:1020B0004FF4AD7308F086F82E484FF4AD7108F078
:1020C0007AF8A38B23F0070343F006039BB2062D97
:1020D000A38340F0AD804FF000084FF0000A564651
:1020E000002F7FF408AFA9E7022D0BD026491C482A
:1020F000204A40F25D1308F065F81E4840F25D1179
:1021000008F059F8E38B5BB120491548194A4FF4A0
:10211000AF7308F057F817484FF4AF7108F04BF859
:1021200023695F685FB917490D48124A40F261138D
:1021300008F048F80F4840F2611108F03CF8A38B12
:1021400023F0070343F004039BB2042DA383C2D002
:102150000026B04604256EE059B9000086B900009B
:102160000FB800009DB90000DD220000B2B90000E8
:10217000C7B90000B6B80000FED00000D8B8000013
:10218000E4B8000007B900001EB9000034B900002F
:10219000012D0BD04B494C484C4A4FF4B27308F018
:1021A00011F84A484FF4B27108F005F823685BB99A
:1021B00047494548454A40F2651308F003F843484B
:1021C00040F2651107F0F7FF23699F685FB9414945
:1021D0003D483E4A4FF4B47307F0F4FF3B484FF4D8
:1021E000B47107F0E8FFA38B23F0070343F0050366
:1021F0009BB2052DA3833FF46EAF0026B0460525A4
:1022000019E0324A3449304840F26B1307F0DAFFE4
:102210002E4840F26B1107F0CEFFA38B03F00702AC
:10222000AA423FF40BAF002615463746B04602E0FF
:102230000026B0460625A268002A3FF457AE4FF0AC
:10224000010A58E6A16800293FF474AED1F8009065
:1022500000293FF46FAED1F804A043462A46204639
:10226000D047B9F1000F04D0D9F80030494699465B
:10227000EEE74B46FAE7314643462A4620463668A3
:1022800007F08CFE56E61AF0200F3FF483AE2AF0DA
:102290002003A3830AF00705204607F053FE002819
:1022A0003FF478AE01380428ABD801A353F820F0EE
:1022B000BD1E0000032200006F200000E920000086
:1022C0009121000043B900000FB80000B6B800002B
:1022D000E4B8000007B90000FED00000F8B50446DD
:1022E0000D4600F114064FF02003EFF3118783F33E
:1022F0001288BFF36F8F304605F002FA68B90C4AB6
:102300000C490D488E2307F05DFF0C48314607F05D
:1023100059FF07488E2107F04EFF304605F00EFAB0
:10232000A5613A4620460121BDE8F840FFF7BABD55
:1023300059B90000B2B900000FB80000C7B90000D9
:102340002DE9F04704460F4607F018FE051E78DB1E
:1023500004F114094FF02003EFF3118A83F312887C
:10236000BFF36F8F484605F0CBF968B9394A3A494F
:102370003A488E2307F026FF3948494607F022FFE6
:1023800034488E2107F017FF484605F0D7F9E38B54
:10239000A68B4FF6FF72934206F0070654D0022E2A
:1023A00024D10133E38335464FF00108484605F058
:1023B000B5F968B9274A2B492848B92307F002FF25
:1023C0002948494607F0FEFE2248B92107F0F3FEEE
:1023D0008AF31188BFF36F8FB8F1000F31D000235B
:1023E00032463946204607F0D9FD2AE0062E0ED89F
:1023F000DFE806F004190D0D042D040000233B60F6
:102400006368ABB9C4E90077AEB135460DE0174952
:102410001248174A40F2C91307F0D4FE144840F29C
:10242000C91107F0C8FE6FF004054FF00008BDE7C2
:102430001F606760E8E7524602212046FFF732FD41
:1024400035462846BDE8F0876FF00A05EDE76FF0E6
:102450008505EAE759B90000B2B900000FB80000DD
:10246000C7B9000086B900009DB9000043B900005B
:10247000B6B800002DE9F84301F1FF3919EA010966
:1024800006680F46144611D009F1FF3313EA090F0D
:1024900013D17B423B40042B1A464F4628BF0422EF
:1024A0009946E4B900252846BDE8F883042914D8E4
:1024B000BDE8F843114607F03EBE2C4A2C492D4892
:1024C0004FF4A07307F07EFE2B4807F07BFE2748F1
:1024D0004FF4A07107F06FFEDBE70422E1E7B36879
:1024E000B3EBD40FDED904F10B013944891AC908C2
:1024F000304607F0CFFD80460028D3D009F104050F
:1025000005EBC0057B1E35441D447F423D40A5EBD5
:1025100009052C442B1F07349B1B24F00704A41B24
:10252000B0EBD30F4FEAD3074FEAE40408D20146D9
:102530003A46304607F0E5FD4146304607F066FD75
:102540003946304607F05DFD3844844207D23046B4
:10255000224607F0D6FD2146304607F057FD06EB30
:10256000C706738843F0010373809CE7DFB900005E
:10257000ABBA00000FB80000C6BA0000B2F5802F59
:102580002DE9F04104460E4617466CD33D493E4ABC
:102590003E4840F2E31307F015FE3D4807F012FEF7
:1025A00040F2E311384807F006FE043FF51D3E44B3
:1025B00025F0070526F00706761B172E4FEAD607EB
:1025C0000ED83449304A314840F2F31307F0FAFD8F
:1025D000314807F0F7FD2C4840F2F31107F0EBFD0E
:1025E0002560B7FA87F4C4F12008C4F12404A400DC
:1025F00007340023E408EB60631CBB42AF600ED9D4
:102600002649214A21484FF4017307F0DBFD224897
:1026100007F0D8FD1C484FF4017107F0CCFD05F11F
:102620000C0303EB8808002243F8042F4345FBD139
:10263000630043F001036B8005EBC4013B1B5800B2
:102640002A804880A91925F834404A80AB5305EB0D
:10265000C70321465A8842F0010228465A80BDE845
:10266000F04107F0D3BC042A9FD80D49064A074819
:102670004FF4F57307F0A6FD074807F0A3FD4FF4EC
:10268000F5718FE7E3BA0000DFB900000FB8000072
:10269000F9BA00004ABB000031BB000073BB000068
:1026A00010BB0000F0B5094E016802460A27002061
:1026B0000B4601311C78355D6D0701D41360F0BD08
:1026C00007FB0043A3F13000F2E700BFF6D10000A2
:1026D0002DE9F84F15469A46D378224A12F803B0EE
:1026E0006F2B80460F460BF0030B29D024D8582BB4
:1026F0000CBF10260A26DDF82890324600234046FB
:102700003946FEF749FA092AD4B21ED83034B0450A
:10271000E4B277F1000709F8014D01D3D14511D892
:102720002B789B0605D5082E15D1AB7843F008030E
:10273000AB704846BDE8F88F03F0F703702BD7E77E
:102740000826D8E780460F46D7E7BBF1010F0CBF3C
:1027500037345734DBE7102EEBD1AB7843F010035E
:10276000E6E700BFF6D100002DE9F04F97B08246B2
:10277000039117461C460025387808B928464AE3D5
:102780007B1C2528049306D00399D0470028C0F26B
:1027900042830135F9E11822002110A808F0AAFBB4
:1027A0007B78252B00F0A3800023791C98469E4659
:1027B0009C4618460E4611F8012B2B2A00F0C680C5
:1027C00000F2BD80202A00F0C480232A00F0C480DB
:1027D0002BB19DF8483043F040038DF84830B8F1F4
:1027E000000F05D09DF8483043F020038DF84830A5
:1027F000BEF1000F05D09DF8483043F010038DF86E
:102800004830BCF1000F05D09DF8483043F0080374
:102810008DF8483028B19DF8483043F004038DF816
:1028200048309DF8483003F04401442903D16FF348
:1028300086138DF848309DF84830099643F08003A0
:102840002A2A8DF8483040F08C809DF8493043F0BA
:1028500001038DF84930731C1A782E2A9DF84920FF
:102860000CBF0121002161F341028DF849200CD1F8
:102870005A1C09925A782A2A40F083809DF84920F0
:1028800042F004028DF8492002331A786C2A00F0D5
:10289000A48000F28680682A00F08C806A2A00F00A
:1028A000A5804C2A00F0AA801A4612F8013B049237
:1028B000782B9DF849208DF84B3000F217816D2B55
:1028C00000F2A980692B00F21181572B00F2BE8023
:1028D000412B03D0453B022B00F208819DF84A3082
:1028E000042262F302038DF84A300123CAE0BA1CC5
:1028F00004928DF84B309DF84930DA0740F1FD80A5
:1029000054F8049BB9F1000F07DA9DF8482042F013
:1029100004028DF84820C9F100095E0740F1F680F5
:1029200054F804BBBBF1000F80F2F5809DF84930EC
:102930006FF341038DF849304FF0FF3BEBE02D2A58
:102940000DD0302A7FF444AF012333E74FF0010C60
:1029500030E74FF0010E2DE74FF001082AE7012084
:1029600028E709A8FFF79EFE099BB3423FF474AF26
:102970009DF848201390C00F60F341028DF8482065
:102980006AE709A8FFF78EFE9DF848301490C3F35C
:10299000400242EAD07262F341038DF84830099B4D
:1029A00073E7742A26D07A2A7FF47EAF9DF84920F7
:1029B00006210CE05A78682A9DF8492006D10121A9
:1029C00061F3C6028DF8492002336DE7022161F3FD
:1029D000C6028DF84920013366E75A786C2A9DF8C3
:1029E000492001D10421EBE70321F0E79DF84920BC
:1029F0000521ECE79DF849200721E8E7BDF84820CC
:102A000022F4F04222F0020242F4804242F002023A
:102A1000ADF84820DFE76E3BD9B201238B4040F28E
:102A200082410B4238D113F0240F52D1D8075DD523
:102A30009DF84A30032161F302038DF84A3002F019
:102A40007803A3F140014B424B411BE0A3F1580135
:102A5000C9B2012000FA01F111F4624F7FF43EAFD8
:102A600040F6010631421DD111F4043F3ED09DF8DD
:102A70004A3060F3020302F07802402A8DF84A30AF
:102A800034D000239DF84820C2F340010B4363F388
:102A900041028DF848202EE79DF84A30022161F36B
:102AA0000203E8E79DF84A10022002F0780260F382
:102AB0000201402A8DF84A1002BF9DF8481041F0EB
:102AC00001018DF84810632BDBD1131E18BF0123C1
:102AD000D8E79DF84A30032161F3020312F0780F22
:102AE0008DF84A3014BF01230023CBE79DF848300E
:102AF00043F001038DF84830C3E79DF94820002AD0
:102B0000B4BFDDF84C904FF0FF3906E798077FF52A
:102B100013AFDDF850B09DF849100023CDE9133311
:102B20009DF84A3003F00703012BC1F3C30133D1F1
:102B3000CB1E042B04D8DFE803F01046461010002B
:102B4000236801294FEAE372CDE910320BD103F07B
:102B5000FF0310930023119307E054F8043BDA17A6
:102B6000CDE9103202E0022911D004349DF848303A
:102B700013F0030647D0049B03993A46504607F0EA
:102B800003FB0028C0F247810544049FF4E51AB214
:102B9000109243F3C033DEE7022B24D1CB1E042B6B
:102BA00004D8DFE803F0181010181800012954F8B1
:102BB000043B4FF0000214D00229CDE91032D5D1E8
:102BC0009BB21093D2E7073424F00704F4E8022301
:102BD000CDE91023CAE754F8043B10930023119366
:102BE000C4E7DBB2BCE7042B08D1073424F00704A8
:102BF000D4E900230834CDE91023B7E7032BB5D17E
:102C000054F8043BDDE79DF84B007828BDD86228D6
:102C10001CD825283FF4B8AD5828B6D10DF13E0395
:102C20000093DDE910010AAB12AAFFF751FDBBF1D9
:102C3000000F074680F29880002FA6D00DF13E08C5
:102C4000A8EB0700002E4ED001304CE06338152869
:102C50009BD801A252F820F0D72C00003D2D000097
:102C60008B2B00008B2B00008B2B00008B2B00008C
:102C70003D2D00008B2B00008B2B00008B2B0000C8
:102C80008B2B0000C72D0000632D0000892D000054
:102C90008B2B00008B2B0000B12C00008B2B000035
:102CA000632D00008B2B00008B2B0000632D000098
:102CB000BBF1000F109F0ADB5946384608F02AF98D
:102CC00007EB0008002F3FF460AF00260BE038460A
:102CD000FEF75EF9F4E7109B8DF8283000260DF121
:102CE00029080AAF01209DF84A3013F0100205921E
:102CF00000F0848002305B06DDF84CB048BF149BC6
:102D0000584448BFC018B9F1000F40F391809DF8B6
:102D10004820A9EB0009C2F380035007069300F195
:102D2000878051067AD53EB103993046D0470028B6
:102D300071DB069B01351E46302270E019075CBF2F
:102D4000C3F300135E01DDE9102348BF2B26002BDF
:102D5000BFF664AF524263EB4303CDE910232D2647
:102D60005CE700265AE700269DF848200DF13E0357
:102D7000DB1B6FF386129B458DF848207FF65CAF16
:102D8000ABEB0303139357E7109880B30DF13E08A4
:102D90000AABCDF8008012AA0021FFF799FCBDF81C
:102DA0004A3003F0EF0343F4F04343F01003BBF168
:102DB000000F0746ADF84A30D5DA00283FF4E5AEFB
:102DC000A8EB000081E7109B07293FF6DEAEDFE8A5
:102DD00001F00C04060C08080C0C1D70D5E61D80D3
:102DE000D3E6EA17C3E90052CFE61D60CDE6DFF86F
:102DF000BC800646A8F10507052074E71A0748BFFE
:102E0000013078E70793104606920399D0470028CF
:102E1000DDE9062304DA17B0BDE8F08F20224B4627
:102E20001946002903F1FF33ECDC4D446D1A994635
:102E30002EB103993046D0470028ECDB01359DF8D0
:102E40004A30DA0601D41B0705D503993020D04754
:102E50000028E0DB0135059B33B103999DF84B0059
:102E6000D0470028D7DB0135AB4405E0039930207B
:102E7000D0470028CFDB0135ABEB0503002BF5DC99
:102E8000039943463A46504607F07EF90028C2DBD4
:102E90000544A944A9EB0503002B7FF776AE0399FF
:102EA0002020D0470028B6DB0135F3E7A3BB0000A4
:102EB00008B54FF02002EFF3118382F31288BFF3BD
:102EC0006F8F01F07BFD034807F02FF800F062FEE2
:102ED000FCE700BFA4BB0000F8B506460C4629B9C4
:102EE0000E4D0F4B5B1B1F11BC4200DBF8BD6B6826
:102EF0005B797BB14EB90B490B480C4A862307F02E
:102F000061F90A48862107F056F92B6831461B689B
:102F10002846984701341035E6E700BFF0B10000BD
:102F200010B2000005BC00000FB80000CDBB0000CF
:102F3000014B53F820007047B0B20000054A00234F
:102F40001370054A1360054B054A1A604FF40040A0
:102F500000F096BAF5900020D80700200400002069
:102F6000E1A1000070B5194B194CE41A902C0BD953
:102F700018491948194A40F2732307F023F91748F2
:102F800040F2732107F017F9BFF35B8F144B53E83E
:102F9000006F721C43E800210029F8D1BFF35B8F5A
:102FA0001EB92511094CAE4200DB70BD237B53B125
:102FB00023689B690BB1204698476368042219680F
:102FC000204600F06FF801361034ECE7F0B1000055
:102FD00010B200005DBC00000FB8000018BC00007B
:102FE000E0070020F8B50C4F3D784DB90B4C0C4E66
:102FF000FFF7B8FF361B3611B54202DB01233B70E9
:10300000F8BD63685B791BB1236820465B6998470C
:1030100001351034F0E700BFF5900020F0B100005A
:1030200010B20000014B01221A707047F49000208A
:103030000C4BBFF35B8F53E8001F013143E80012D4
:10304000002AF8D1BFF35B8F58B1BFF35B8F064BFB
:1030500053E8001F013943E80012002AF8D1BFF3FA
:103060005B8F7047D8070020DC070020054B10B5A8
:103070001B68044698470021A0602046BDE8104028
:10308000FFF72ABF04000020044A054B9B1AB1EB4E
:10309000D30F34BF52F8310000207047A8B10000B0
:1030A000F0B1000070B5104C0368041B24111B68BC
:1030B000013405460E46E4B263B90C490C4A0D488A
:1030C000BB2307F07FF80C4807F07CF80848BB21C9
:1030D00007F071F86B681C716B6801221E605A71F1
:1030E000BDE87040FFF79EBFF0B10000DDBC0000FE
:1030F00085BC00000FB80000F3BC00000EB403B59F
:1031000003AB014653F8042B04480193FFF72CFB53
:1031100002B05DF804EB03B0704700BF13A20000DB
:103120002DE9F04F87B01C4601F0010305929DF890
:103130004090BDF948A004930746884601F0020B71
:1031400001F0080607F063F80246002840D037492E
:103150003846FFF7D3FF0546BBF1000F08D018F043
:10316000440F37D1324922463846FFF7C7FF05449E
:10317000049B53B12F4B304953F829202F4B38462D
:10318000002A08BF1A46FFF7B9FF3EB12C4B2D4964
:1031900053F829203846FFF7B1FF0646BAF1000F71
:1031A00012DB059B284C23B1284BB9F1040F08BF53
:1031B0001C4651469DF84400FFF766FF2146024633
:1031C0003846FFF79BFF0644701907B0BDE8F08F43
:1031D0000546C1E71E4B18680028C8D01D4B4FF4A8
:1031E0007A781B68B4FBF3F44FF46161B4FBF0F33D
:1031F00000FB134408FB04F44FF03C0CB3FBF1F26A
:1032000001FB1231B4FBF0FEB1FBFCF300FB1E44EA
:103210000CFB131108FB04F40091B4FBF0F40E490D
:10322000CDE901E43846FFF769FFA0E723BD0000C0
:1032300027BD0000BCB200004CBD000015BD000061
:10324000D0B200004FBD00001EBD00001ABD00003E
:10325000E8070020E407002030BD0000CA0605D4BE
:103260008B064CBF02490349FFF748BF704700BFB8
:103270004CCE000055BD00002DE9F8430F460899DB
:10328000DFF8B890044616461D46FFF7E7FF4FF0FB
:103290000008A84528DB76B33A7829492046FFF78D
:1032A0002DFF01256A0703D124492046FFF726FF99
:1032B000B54225D27A5D22492046FFF71FFF01352E
:1032C000102DEFD11F492046FFF718FFEEB91B491B
:1032D0002046FFF713FF0125B5422B4617D31749A8
:1032E0002046FFF70BFF1DE049462046FFF706FF8B
:1032F00008F10108CDE714492046FFF7FFFE01253C
:1033000011492046FFF7FAFED9E700252B46FA5C63
:103310000E4B0F499B5C13F0970F08BF2E222046DF
:10332000FFF7ECFE0135102D06D06B07D4D1034911
:103330002046FFF7E3FECFE7BDE8F88360BD00005D
:1033400058BD000062BD00005EBD0000F6D1000067
:1033500064BD000038B5CB0705460C4603D5054AC9
:103360000549FFF7CBFE21462846BDE83840FFF768
:1033700075BF00BF15BD00004CBD00002DE9FF4723
:103380000E46904636F8102B8B6812F4E07F074605
:103390000D46C2F3821923D00A784868C2F3C202EC
:1033A000D8B13049401A40F3CF00CDE90120CDF823
:1033B0000090002241463846FFF7B2FE2B68C3F367
:1033C00049238246B3B96C88C4F3CB04F4B94A46A6
:1033D00041463846FFF7BEFF2EE04FF0FF30E4E7EE
:1033E0000B68C3F349236BBB4C88C4F3CB041CB3F9
:1033F000CA460BE01C481D4933463A4606F053FDC9
:10340000002822DB6C88C4F3CB0494B12B68C3F38F
:1034100049231E44102C254628BF10253146CDF8DF
:10342000008053462A463846FFF726FF641B2E4489
:10343000F0D1B9F1000FCAD1384604B0BDE8F04769
:1034400006F00FBF0A48CA46D5E70A4A0A490B48A0
:1034500040F2B72306F0B6FE064840F2B72106F068
:10346000AAFECFE7A8B1000013A200006927000060
:103470002FA2000067BD0000A3BD00000FB8000030
:10348000074A00210123904206D8064A01B90123C8
:103490001360054B1860704740085B000121F2E79C
:1034A00040420F00E4070020E80700202DE9F04F1C
:1034B00085B002AFD7E90E6A04468846934699461E
:1034C000002E4ED0C7F804A0CDF800A07A6B33468A
:1034D00010210020FEF77AFA051E09DA2249234856
:1034E000234A672306F06EFE2148672106F063FE3B
:1034F000204B3A6B04F007040BF0070BE40044EA9E
:103500008B1403EA45231C431B4B03EAC2431C43B1
:10351000134617332B4423F00703ADEB030D0DF1D6
:10352000080BA6B1CDF800A07A6B334629460BF103
:103530001000FEF74BFA002809DA0B490B480C4A39
:10354000812306F03FFE0A48812106F034FE4B46F7
:1035500022464146584606F091FE0C37BD46BDE86E
:10356000F08F3546C4E700BFF9BD00000FB800007A
:10357000CCBD000000FE07000000F87FF8B5074F43
:103580000D4604464618B44201D12846F8BD3868B5
:1035900014F8011B8368DB699847F4E704080020EE
:1035A000014B00201960704700080020024B0348BF
:1035B00001221A7006F055BEF790002004B30000F7
:1035C000064B10B518680C46FFF7B2FC21460346BF
:1035D000BDE8104002480F22184700BF0008002035
:1035E00004B3000008B5094B0948186007F0C8FA91
:1035F00058B908490848094A792306F0E3FDBDE8AF
:1036000008400648792106F0D6BD08BD0408002010
:1036100010B0000038BE00000FB8000003BE00006C
:10362000014B01221A707047F8900020014B0020D6
:10363000196070471C080020024B034801221A70D1
:1036400006F00FBEF990002034B30000064B10B511
:1036500018680C46FFF76CFC21460346BDE8104095
:1036600002480F22184700BF1C08002034B3000096
:10367000F8B5194D07460E46042432463946002057
:1036800003F016FCC8B101232B70144B1B782BB927
:103690003046F8BD5CB92C704FF0FF34002003F0C9
:1036A0004FFC0028F4D02B78002BF3D1F0E7013C3D
:1036B00041F2883007F0E2FAF0E72B7813B1013CD1
:1036C00004D12C702B78002BD7D1E1E741F2883060
:1036D00007F0D4FAF6E700BFF8900020F990002038
:1036E0002DE9F84305464FF02003EFF3118683F3ED
:1036F0001288BFF36F8F214804F002F868B9204A9E
:10370000204921488E2306F05DFD1C491F4806F024
:1037100059FD1B488E2106F04EFD18481C4FDFF85E
:10372000748004F00BF81C4B1C684FF00C09BCB9FA
:10373000124803F0F3FF68B9114A18491248B92337
:1037400006F040FD0D49164806F03CFD0C48B92135
:1037500006F031FD86F31188BFF36F8FBDE8F88363
:10376000D4E90123002D18BF13462BB198F814207B
:1037700009FB02F2B85C98472468D8E720080020CB
:1037800059B90000B2B900000FB80000C7B9000075
:1037900028080020D00E00203408002086B9000040
:1037A0009DB900000A4ABFF35B8F430902EB830215
:1037B00000F01F0001238340DB4352E8000F184054
:1037C00042E800010029F8D1BFF35B8F704700BFCA
:1037D0002408002070B5194B1C7DBFF35B8F04F0EB
:1037E0001F0301229A40164B610903EB8103D0436A
:1037F00053E8001F01EA000543E80056002EF7D108
:10380000BFF35B8F0A4213D00E4B0F4D8BB10C23CD
:103810006343EA18E85C517806F09CFD0020FFF74E
:103820005FFF0C235C432A1900232B51C2E90133AB
:1038300070BD83F31188BFF36F8FEFE7D00E0020C8
:103840003C08002055A30000280800202DE9F8437B
:10385000324B334A1C7DBFF35B8F63094FEA830809
:1038600052F823302F4EBFF35B8F04F01F0943FA49
:1038700009F313F0010F07460AD10146204600F074
:1038800069F828B107C80C2303FB046383E8070029
:103890000C236343F218F55C2DB92046FFF782FF35
:1038A0002846BDE8F8837B1C10D0D2F808C01E4D16
:1038B0001E4A4FF400400021ECFB00510023284633
:1038C000FDF76AF90121381A05F022FD04F01CFC0D
:1038D0000120FFF705FFBFF35B8F154B98440123D1
:1038E00003FA09F358E8002F1A4348E80021002999
:1038F000F8D1BFF35B8F0F4B33B10C236343F21846
:10390000F05C517806F01AFDFFF764FF2046FFF7E0
:1039100049FF04F06DFC0120C3E700BFD00E00207A
:1039200024080020280800203F420F0040420F00DA
:103930003C0800203DA30000054BBFF35B8F53F80C
:103940002000BFF35B8F003818BF0120704700BF15
:10395000400800202DE9F74F884601A900F042F801
:10396000441E24B204EB4404DFF86C900546A40026
:1039700025B92F46384603B0BDE8F08F019B185D8E
:103980001F19FFF7D9FF064610BB7868134A4FF49A
:10399000004ACC463146E0FB0AC100236046FDF7F1
:1039A000FBF88346B8680D4ACC463146E0FB0AC1B5
:1039B00000236046FDF7F0F8094B1B685A1C01D044
:1039C000834205D9B8F1FF3FD4D058444045D1D9FE
:1039D000013DADB20C3CCBE73F420F0040420F002F
:1039E0000800002008B9024B0B600020704700BFA0
:1039F00044B30000014806F0C7B800BF44B300005C
:103A000010B5044618B90D4B0D485B6898476168BE
:103A100031F004030CD008290AD011F0020108D0BB
:103A20000848214603F0CCFC002323600023636098
:103A300010BD2068142207F05DFAF7E74C01002062
:103A40007FBE00005C0D002008B508B34368042B5E
:103A500010D101220368BFF35B8F53E8001F0029D8
:103A600003D143E800200028F7D1BFF35B8F0BD1CF
:103A7000002008BD53B100684FF0FF324FF0FF3314
:103A800003F096FE0028F3D00348F2E70348F0E77E
:103A90006FF4E040EDE700BFE98FFFFFEA8FFFFF23
:103AA00008B5C0B14368042B10D100220368BFF3EE
:103AB0005B8F53E8001F012903D143E80020002851
:103AC000F7D1BFF35B8F09D1002008BD43B1006877
:103AD00003F068FFF8E76FF4E040F6E70148F4E729
:103AE0000148F2E7E98FFFFFEA8FFFFF10B50446B8
:103AF00018B9164B16485B6898476368042B23D0A7
:103B0000082B21D0CBB92368BBB912484FF0FF3244
:103B10004FF0FF33214603F0E7FB08B923681BB9D8
:103B20000A4B0D485B68984720681422002107F073
:103B3000E1F9636843F002036360206807F071F8FD
:103B4000636843F00103636010BD00BF4C010020B7
:103B50007FBE00005C0D0020A5BE000008B5064930
:103B600006484023142207F029F8BDE8084004491C
:103B7000044806F069B800BF5C0800205C0D002016
:103B80004CB3000060B30000014910220A60704786
:103B900010ED00E072B6404080F31188BFF36F8FE4
:103BA000BFF34F8F30BF62B6BFF36F8F704700BF58
:103BB00072B6494081F3118820BF80F3118862B644
:103BC000704700BF70B5064686B00D46002938D054
:103BD0008B6805934B6804930B68039300241C4B7C
:103BE0001C490293012223462046CDE9004406F0F9
:103BF00063FB6B6905932B690493EB680393164B86
:103C000014490094CDE9014301222346204606F0E1
:103C100053FBEB690393114B0E490094CDE901432B
:103C200001222346204606F047FBAB6903930C4B69
:103C300008490094CDE9014301222346204606F0BD
:103C40003BFB2946304606B0BDE8704003F0CCB9D6
:103C5000D2BE0000D0B1000001BF000030BF0000A4
:103C60003FBF000040B2002807DB044A410901239E
:103C700000F01F00834042F82130704700E100E06F
:103C8000054B420900F01F0053F82220012303FADC
:103C900000F01040704700BF00E100E070B54D1C1F
:103CA000072D04460E460FD9114A124912485723D0
:103CB00006F088FA114831460723224606F082FAB8
:103CC0000B48572106F077FA60B20028ACBF00F12C
:103CD00060400B4B4FEA4515B8BF00F00F00EDB246
:103CE000AABF00F561401D5480F8005370BD00BFAD
:103CF0006DBF0000A3BF00000FB80000BEBF0000F2
:103D000014ED00E030BFFFF7FDBF00BF0B4A08B560
:103D10000B4B22F07F029A60BFF34F8FBFF36F8F80
:103D2000D3F8882022F47002C3F8882003F0F0F959
:103D300005F028F900F0E0FB03F02EFA0000000087
:103D400000ED00E0094A0A49936809689967094942
:103D500058674B6843F080534B60002383F311880E
:103D6000BFF36F8F9368986F704700BFD00E00202D
:103D7000CCB4000000ED00E012498A684FF030003A
:103D80001044EFF3098C80E8F01F202080F31288A4
:103D9000BFF36F8F0C4F4FF00066CA698A603E60B8
:103DA000506F0023536780F3118804B5104600F06C
:103DB0003FFCBDE8044002F1300090E8F01F8CF3B6
:103DC00009887047D00E002004ED00E01EF0040FBB
:103DD0000CBFEFF30880EFF30980816911F8021C32
:103DE0000229FFD001B506F077FA01BD42F8203C68
:103DF000009B42F81C3C0A49019B42F8183C029B7C
:103E000042F8143C21F001014FF0807342F8043C69
:103E100042F8081C0023203A02654367704700BF40
:103E2000EF9F0000094A0346906870B113F1160F26
:103E3000406E05D0A0F120029A4205D8834203D2F9
:103E4000814228BF0020704700207047D00E00201C
:103E500008B5094B98600D46144600F0E9FB204672
:103E600085F30988002163B681F31188BFF36F8F52
:103E70000022002306F0BBF8D00E002001B572B678
:103E80000B4A906900281EBF0021916106F0BAFE1E
:103E900062B6EFF30580A0F110004FEAC0000549BB
:103EA000014409C99847BDE801400349084700009B
:103EB000D00E002028B00000BD3E0000044B9968E1
:103EC000D869884203D003494FF080520A60704796
:103ED000D00E002004ED00E0F0B585B000243B4B8F
:103EE0000293CDE90044234607460E460122384995
:103EF000204606F000FA374B9B6ADB0409D5364BA7
:103F000033490094CDE9014301222346204606F0BF
:103F1000F2F9304B9B6A1D0509D5304B0293002303
:103F2000CDE900332A490122184606F0E4F9294D6B
:103F3000AB6A9C051ED50024294B0293012223461F
:103F40002046CDE90044224906F0D5F9AB6BAA6AB8
:103F500010040FD50393234B1D490094CDE9014371
:103F600001222346204606F0C6F91FB1AB6A23F4AE
:103F70000043AB62174B9B6A590509D51A4B029354
:103F80000023CDE9003312490122184606F0B3F9A7
:103F9000104A936A13F4807312D0144B02930023D7
:103FA000CDE900330A490122184606F0A4F9094A6E
:103FB000936A002043F47F439362307005B0F0BDF4
:103FC000926A9204F3D50A4A0292E9E7FEBF000022
:103FD000D0B1000000ED00E014C0000025C00000DA
:103FE00038C0000051C0000066C0000081C0000061
:103FF00099C000001FB50024334B0293CDE9004463
:10400000234632490122204606F075F9304B9B6A5F
:104010009B0109D52F4B2D490094CDE90143012285
:104020002346204606F067F9294B9B6ADC0109D537
:10403000294B02930023CDE900332449012218467D
:1040400006F059F9224B9B6A180309D5234B0293BA
:104050000023CDE900331D490122184606F04BF933
:104060001B4B9B6A590309D51D4B02930023CDE9D5
:10407000003316490122184606F03DF9144B9B6A9D
:104080009A0309D5174B02930023CDE900330F495A
:104090000122184606F02FF90D4B9B6ADB0309D568
:1040A000114B02930023CDE9003308490122184641
:1040B00006F021F9064A936A6FEA03436FEA134355
:1040C0000020936204B010BDC8C00000D0B1000051
:1040D00000ED00E0E0C00000F3C000000DC10000F2
:1040E0002BC1000050C100006AC100002DE9F0435F
:1040F00085B00024524B0293CDE90044234680460C
:10410000894616464F490122204606F0F4F84E4BE8
:104110009B6ADF0609D54D4B4A490094CDE901431E
:1041200001222346204606F0E6F8474B9B6A1D070E
:1041300009D5474B02930023CDE9003341490122C1
:10414000184606F0D8F8404DAB6A9C0741D46FF092
:1041500015073D4B9B6AD90709D53E4B02930023B7
:10416000CDE9003337490122184606F0C4F8364B32
:104170009B6A9A0609D5384B02930023CDE9003398
:1041800030490122184606F0B6F82F4CA36ADB0628
:1041900002D4A36A9D0750D5636818054DD54146E2
:1041A0003846FFF73FFE002835D080F3098802200B
:1041B000254B9A6A920642BF5A6A22F400525A620A
:1041C0009A6A42F0FF029A620023337005B0BDE89C
:1041D000F0830024214B029320462346CDE900447E
:1041E0001849012206F087F86F6BAB6A1806AED546
:1041F0001B4B14490397CDE9014300942346012248
:10420000204606F078F8B9F1000FA2D0AB6A23F08F
:104210008003AB629DE7A36AD9060ED51149124A05
:10422000124840F2491305F0CDFF114805F0CAFFCE
:104230000D4840F2491105F0BEFF0020B8E700BF6D
:1042400095C10000D0B1000000ED00E0ABC100005E
:1042500025C000000CC2000099C00000DEC10000B3
:10426000F6C1000065C200002BC200000FB80000BC
:10427000AFC200002DE9F041834B5F6890B0044667
:10428000C7F30806002383F31188BFF36F8F02F092
:104290007F40B0F17F4F0CD102F00C0008281AD1FA
:1042A0007A4A7B490093CDE901321846012206F093
:1042B00022F80025774A7849784840F2FB3305F028
:1042C00081FF774805F07EFF724840F2FB3105F030
:1042D00072FF002406E0120746BF0C461D4601256A
:1042E000002CE7D04FF00008F31E8DF81F80092B3B
:1042F00000F2B080DFE803F005A4A883AEAEAEAE56
:10430000AEAC684B604F6249CDF80080CDE90183C7
:1043100000230122184605F0EEFFFE6A8DF81F808B
:1043200016F002060CD0604BCDF80080CDE9018379
:10433000002357490122184605F0DDFF002228E03E
:10434000FB6A002B04DA594B0096CDE90163EFE7D5
:10435000FB6A5B0067D5564B4D490096CDE901637A
:1043600001223346304605F0C6FFA36933F8022C1C
:104370004DF602739A422CD1236803934D4B444966
:104380000096CDE9016301223346304605F0B3FFC4
:1043900022689DF81F30CBB908AE04F120072068D1
:1043A0006168334603C30834BC421E46F7D10F9BF5
:1043B000002D63D0C3F3080121B96FEA53236FEADC
:1043C00043230F9308A91046FFF7FCFB10B0BDE88C
:1043D000F08197F8283033B10DF11F0201212046FA
:1043E000FFF784FE0DE097F829302BB10DF11F0186
:1043F0000120FFF771FD04E07B8D9BB21BB1FFF73D
:10440000F9FD0246C5E72C49224A244840F2CD2353
:1044100005F0D8FE294805F0D5FE40F2CD211D4813
:1044200005F0C9FE8AE724491A4A1C4840F2D12304
:1044300005F0C8FE224805F0C5FE40F2D121EEE7A6
:104440000DF11F020021CAE70DF11F010020D0E786
:104450001C4B69E71C4A1D4B0D4917F4F87F18BF28
:104460001346103ECDE90336194B02930023CDE9E4
:1044700000330122184605F03EFF5FE723F4FF7387
:1044800023F001039DE700BF00ED00E000C3000042
:10449000D0B100002BC200002BC300000FB80000F9
:1044A0003EC300007CC3000093C30000B4C30000FF
:1044B000C2C30000E1C30000FED00000FDC3000045
:1044C00021C4000051C40000E7C20000D2C20000B5
:1044D00075C40000024A536943F0100353617047EA
:1044E00000ED00E0EFF30880EFF3098101B57246BB
:1044F000FFF7C0FE01BD00BF044800232021C21801
:104500000133302B82F80013F9D1704700E100E04D
:10451000002080F31488BFF36F8F06F007FD0020A2
:104520000D490860BFF34F8F0C4880F3088800F0F6
:104530002BF8202080F3118809484FF402614018BD
:1045400080F30988EFF314800221084380F3148874
:10455000BFF36F8FFFF7DAFB94ED00E040D7002048
:10456000C0BD00200749D1F890200023C2F30722E4
:104570001846934200DB7047C1F89830C1F8A0009C
:104580000133F6E700ED00E008B572B6002383F3CF
:104590001388FFF7E7FF144B4FF0FF32C3F880207A
:1045A000C3F88420C3F88820C3F88C20C3F8902077
:1045B000C3F89420C3F89820C3F89C20C3F8802146
:1045C000C3F88421C3F88821C3F88C21C3F8902153
:1045D000C3F89421C3F89821C3F89C2162B6BFF3B5
:1045E0004F8FBFF36F8F08BD00E100E0084B9B6861
:1045F00083420BD1EFF3058343B1064B5A6842F077
:1046000080525A605A6A22F400425A6204F006BC90
:10461000D00E002000ED00E0024B034A03480121C8
:1046200000F086B8000004200000002070B30000F5
:10463000426E054B203A1A60044A2021C3E9011258
:104640001846012100F09CB87C0D002000000B15DD
:10465000F0B5284E85B000258D4215DA4468002C4F
:1046600045D0D3B104F1FF3C14EA0C0F0FD0224B1C
:104670000395029300230122CDE900331F49184618
:1046800005F049FE6FF01502104605B0F0BD1F2C75
:10469000EDD907681CEA070FE9D1202C0768D0F88C
:1046A00008C05FFA82FE10D9B4F1004F0FD8013C68
:1046B000B4FA84F4C4F11F046400BEF1070F4CEA9D
:1046C000040C06D90E4B0392D3E70824F5E73E24E9
:1046D000F3E727F01F04144344F01004C6F89820B1
:1046E000C6F89C404CF00104C6F8A04001320135E8
:1046F0000C30B1E700ED00E08CC40000C8B1000050
:10470000AFC40000044B0522C3F89420BFF34F8FC1
:10471000BFF36F8F704700BF00ED00E0BFF35F8F06
:10472000024B0022C3F89420704700BF00ED00E068
:1047300038B50E4D01232A780C46FFF789FF287003
:10474000163011D140F21113094A0A490A4805F0FE
:1047500039FD2146094805F035FDBDE838400448DB
:1047600040F2111105F027BD38BD00BFFB900020BD
:10477000D5C40000FED000000FB800000CC500003A
:1047800010B5134A002312780C46FFF761FF10F1B1
:10479000160F04D00F4B0022072812DD10BD0E4A61
:1047A0000E490F484FF4987305F00CFD21460D4853
:1047B00005F008FDBDE8104007484FF4987105F07A
:1047C000FABCC3F89800C3F8A0200130E4E700BFAA
:1047D000FB90002000ED00E0D5C40000FED00000FA
:1047E0000FB8000038C50000284910B50C68082C27
:1047F00013D94FF4A473264A2649274805F0E2FC52
:1048000026480822214605F0DDFC21484FF4A4711A
:1048100005F0D1FC4FF0FF3010BDFFF77FFF486877
:104820001F490022944200F10C000BD11D4B1C705B
:10483000FFF768FFD1F89030C3F30723082B14D19A
:104840000020E9E7C1F8982050F80C3C23F01F0342
:10485000134343F01003C1F89C3050F8043C43F07C
:104860000103C1F8A0300132DCE7094A0E490A48C9
:104870004FF4D47305F0A6FC0C4805F0A3FC0448E3
:104880004FF4D47105F097FCDAE700BF7CB3000069
:10489000D5C40000FED000000FB8000065C50000C0
:1048A00000ED00E0FB90002099C50000E9C5000084
:1048B00008B50B4BC3F1005303F58023B3F5006F2C
:1048C0000CD20849084A0948812305F07BFC0848B6
:1048D00005F078FC0448812105F06DFC002008BD3E
:1048E00060DF00203AC600000AC600000FB80000D2
:1048F00081C60000014B1860704700BF2C000020EB
:10490000F8B50A4F0D46461EC0F10104A3199D4299
:1049100001DC2846F8BD73780A2B02D13B680D20D4
:1049200098473B6816F8010F9847EFE72C000020E6
:1049300008B502480521FFF7E3FFFEE708C70000BE
:1049400008B51D210448FFF7DBFF404080F31188C4
:104950004FF0030002DF00BF0EC7000010B54FF09C
:104960002003EFF3118083F31288BFF36F8F114A96
:104970000123C2F840354FF080424FF08051C2F819
:104980007835D1F83041082C08D1D1F834110529F7
:1049900004D8094C615C09B1C2F838364FF0804345
:1049A0000122C3F8802580F31188BFF36F8F0020A8
:1049B00010BD00BF00E001403BC700004FF0804346
:1049C000C0B2C3F81C05BFF34F8F0549054BCA6839
:1049D00002F4E0621343CB60BFF34F8F00BFFDE7EB
:1049E00000ED00E00400FA0520B1034B800143F024
:1049F00001031847704700BF30B2000037B50C46BE
:104A00000A490B4A411A402300934911054623469F
:104A1000084805F0B8FC011E05DA2846234603B015
:104A2000BDE83040184703B030BD00BF9C0D0020EA
:104A3000F1A30000B0AF000038B5CCB2012C0546A0
:104A400009D9094909480A4A792305F0BBFB0848F6
:104A5000792105F0B0FB2B690C2204FB0233986C22
:104A600000F0070038BD00BF82C700000FB800008B
:104A700045C70000F8B5CCB2012C066905461746BB
:104A80000BD9194919481A4A40F24D1305F09AFBFF
:104A9000174840F24D1105F08EFB4FF02003EFF365
:104AA000118283F31288BFF36F8F0C2101FB046323
:104AB0009B6C13F0C00308D09F4206D082F311888C
:104AC000BFF36F8F4FF0FF30F8BD4C4326440123F6
:104AD000B36482F31188BFF36F8F6B6823445B6804
:104AE00098470020F0E700BF82C700000FB8000021
:104AF00045C7000070B50D460649411A04464911E4
:104B000005484022FFF7B6FF2B4601462046BDE888
:104B1000704018479C0D0020B0AF0000002270B517
:104B2000012104461046FFF7B9F80F4801F092FC46
:104B30000E4B984215D101F0B3FC26690C49304662
:104B400005F042FA00280BDB246909490125B56408
:104B500004F1200005F038FA002801DB656500202B
:104B600070BD6FF00400FBE7A94B00000000AD0B27
:104B70009CB3000001460C2309484B4370B5C41890
:104B8000D4E91056002248332264184405F0E8FBAB
:104B90002DB132462B460348BDE87040184770BD22
:104BA0009C0D0020B0AF0000012808B506D00328F6
:104BB00008D0A8B9104B9B6C5B071BD1BDE808401F
:104BC000FFF7D8BF0D490E4A0E4840F25E2305F0AC
:104BD000F9FA40F25E21BDE80840094805F0EBBA59
:104BE0000649074A074840F2622305F0EBFA40F213
:104BF0006221F0E708BD00BF9C0D0020FED0000040
:104C000045C700000FB8000008B54FF02003EFF3D0
:104C1000118183F31288BFF36F8F124A136843F038
:104C200002001060DA0708D481F31188BFF36F8F98
:104C30000120BDE8084001F057BC4FF08043D3F895
:104C40000C24D3F80C34D307EED5074805F088FBC5
:104C500081F31188BFF36F8F0020BDE80840FFF794
:104C600089BF00BFF40D0020E40D00201FB5002215
:104C70000123CDE90223094ACDF800D06B46CDF8D7
:104C800004D005F0AEFB002805DB4FF48042002382
:104C9000684602F089FF05B05DF804FB0FA4000030
:104CA000094BBFF35B8F53E8002F22F0020143E86A
:104CB00000100028F7D1BFF35B8FD30702D4012087
:104CC00001F076BC704700BFF40D00202DE9F041E3
:104CD0004749BFF35B8F0646012251E8003F41E898
:104CE00000200028F9D1BFF35B8FA3B941494248A6
:104CF0004B60CB608A60FDF723FB00280BDA3F494D
:104D00003F48404A4FF4087305F05CFA3D484FF4C1
:104D1000087105F050FA76B3731E012B59D8012E95
:104D200007D14FF08043D3F81C3403F00303012B69
:104D300021D005F05FFF0546F8B9334B1B78E3B18E
:104D40004FF080430222C3F808230746DFF8BC80F7
:104D50004FF08044D4F81834D4F81824D20316D570
:104D600003F00303012B01D0012E10D15DB387F3B3
:104D70001188BFF36F8FBDE8F0814FF02003EFF390
:104D8000118783F31288BFF36F8F0125DEE7ADB182
:104D90003846FEF70DFFD4F81835002BDAD1D4F8D9
:104DA0000421002AD6D0C4F80431D4F804310123F8
:104DB000C4F81835C8F88031A360CBE70021212062
:104DC00003F0D4FFE7E74FF080430222C3F8042347
:104DD000D1E70F490A480B4A40F2322305F0F2F9B5
:104DE000BDE8F041074840F2322105F0E4B900BFC8
:104DF000980D0020880D0020BC0D0020A3BD0000F0
:104E00000FB8000045C700000C95002000E100E04D
:104E1000FED0000008B5084B0848186005F0B0FE49
:104E200038B10748FFF766FD0548FDF735F8002063
:104E300008BD6FF01200FBE7F80D002010B0000075
:104E4000454E00000A2838B5074D044604D12868AD
:104E500083680D21DB69984728688368E1B2DB69C4
:104E60009847204638BD00BFF80D002070B5056991
:104E700016460C4661B92249224A2348242305F0EC
:104E8000A1F9224805F09EF91E48242105F093F966
:104E9000636863B91E491B4A1B48252305F092F934
:104EA0001C4805F08FF91748252105F084F96B6837
:104EB0004BB1A34213D1AA6823686B60944200D11E
:104EC000AB60002323607EB9002070BD9C4206D1F8
:104ED00023681360AB689C42F3D1AA60F1E71A46DD
:104EE0001B68002BF2D13EB16B682360AB686C602D
:104EF000002BE9D1AC60E7E76FF01500E5E700BFF4
:104F0000F3C70000C6C700000FB80000FCC70000D0
:104F10000BC800001DC800007FB54068057B01F08C
:104F20001F04B2F5001F44EA451404D1204601F0E5
:104F30005BFE00205DE00025B2F5800FCDE9025553
:104F400014D1B3F1007F0CBF042305238DF8083082
:104F50000023194602AA204601F04CFC344B98422B
:104F600062D10121204601F0CFFDE2E7B3F1C06F2D
:104F700041D0B3F1007F14BF012302238DF8083024
:104F80008368CB40D807E3D4B2F1A07FE0D16609B3
:104F900004F01F0531D0012E04D14FF6FF73EB4012
:104FA000D9070ED423492448244A40F2292305F086
:104FB00009F9224840F2292105F0FDF816B3012E27
:104FC00023D11F4B05F5E07553F82530DB07BFD41F
:104FD0000DF107052946204601F02EFD194B984298
:104FE00020D1284601F08AFD114B98421AD06FF06B
:104FF0000B0004B070BD0323C0E74FF0FF33EB405C
:10500000DA07CFD54FF0A043DCE70C4A0E490A4837
:1050100040F22E2305F0D6F8084840F22E2105F084
:10502000CAF8EFE7039593E76FF00400E1E700BFEC
:105030000000AD0B67C800000FB8000034C80000C6
:10504000000300500400AD0BFED0000010B501F0CD
:1050500045FD044668B901F019FD084B98420AD194
:105060000748214601F0E2FC224605210620FEF712
:1050700015FE002010BD6FF00400FBE70000AD0B33
:105080008550000043092DE9F04703D0012B30D0B3
:10509000BDE8F087194F3B695C68002CF8D000F040
:1050A0001F0001262568DFF85880DFF85890DFF8E8
:1050B00058A08640002CEBD0A3681E4214D0636831
:1050C00063B9494645234246504605F07BF80F48F0
:1050D00005F078F84521404605F06DF8D4E9013235
:1050E00021463240384698472DB12B682C461D4644
:1050F000E0E7074FCFE72B46F8E700BFE0AF00003F
:10510000C6C700008AC800000FB800001DC8000014
:10511000C8AF00002DE9F04347683B7B01F01F0555
:1051200085B00E4645EA43151446D2B902A9284671
:1051300001F082FC0446284601F080FD464B98426F
:1051400004D06FF0040005B0BDE8F083844201D0C4
:105150000020F8E79DF8080001F0CAFCA042F7D053
:10516000EFE74FF000090DF103013046CDE9029958
:1051700001F062FC4B46804602AA4946284601F0EF
:1051800039FB354B984202D06FF01500DBE78045C4
:1051900003D19DF8030001F0ABFCA3034CD540F212
:1051A0000663234040F20622934219D00CD8062B06
:1051B00017D004D8ABB1022BE6D1042311E0B3F52C
:1051C000007FE1D101230CE040F20242934227D05C
:1051D000B3F5C06F26D0B3F5806FD5D1022300E0C0
:1051E00007238DF8043084F48033C3F30043E006D2
:1051F0008DF8053054BFC4F34013032321038DF809
:10520000063011D57A680123B340C2F80835002270
:1052100001A9284601F096FB0F4B984298D0B3E7BE
:105220000523DEE70323DCE7620341BF01237A683D
:10523000B340C2F80C35EAE7E3064FF0000354BF71
:10524000C4F3401403241A4601A928468DF80440EB
:1052500001F0D0FAE0E700BF0000AD0B7FB50BAB6B
:1052600005930393054B02930023CDE900330122FC
:105270001846FEF71BF907B05DF804FBA4C8000050
:105280002DE9F3411C46436807690E460546196837
:105290004FF02003EFF3118883F31288BFF36F8F71
:1052A000F868C36843B188F31188BFF36F8F6FF05C
:1052B0000F0002B0BDE8F0814FF4800CC260866040
:1052C000C1F804C306F06041B1F1005F10D1C0E93C
:1052D00004623946284605F02DFA88F31188BFF399
:1052E0006F8FFB7A012B01D1631C05D10020E0E711
:1052F000036205F0D4F9ECE70B480C4AFD6824EA98
:10530000E4744FF4004600210023C4FB0601FBF7C0
:1053100043FC283502460B4600200021CDE9000160
:10532000284604F007FAE1E73F420F0040420F0031
:10533000F0B54B79012B26D0032B21D110268B7988
:10534000032B1DD1CC790CB1012C19D10A7912B1E2
:10535000022A15D10E220B684568B3F5164F2D6849
:1053600065D02DD8B3F5165F64D016D8B3F5966F17
:1053700062D00AD8B3F5967F61D0B3F5167F61D0BD
:105380006FF0850052E00026D9E7B3F5166F5CD0C8
:10539000B3F5965FF4D1374B3CE0B3F5E14F57D00E
:1053A00007D8B3F5615F55D0B3F5964FE8D1324BCE
:1053B00030E047F61227BB42E2D14FF4000329E068
:1053C000B3F5613F48D013D8B3F5963F47D009D81D
:1053D0004DF6C027BB4244D0B3F5614FD0D14FF456
:1053E0006B0317E0B3F5E13FCAD14FF0EB7311E067
:1053F000B3F5612F38D008D8204FBB4237D0B3F572
:10540000E12FBDD14FF0E86304E01D4FBB42B7D19F
:105410004FF080530069C5F82435031D03C9344398
:105420002243C5F86C2583E803000020F0BD4FF44B
:105430001D03EFE7134BEDE74FF49E23EAE74FF42C
:10544000A033E7E74FF41C33E4E74FF41D23E1E713
:105450000D4BDFE70D4BDDE74FF06C73DAE70C4BDC
:10546000D8E74FF46503D5E74FF07063D2E74FF00C
:105470008063CFE700B0130000A04E0090D003007F
:1054800040420F000050270000C0750000F03A00B5
:1054900000903A012DE9F043D0F804900669D9F85C
:1054A0000050D9F80C8087B00021C5F800150746D8
:1054B000306005AA404605F0DFF9041E25DB059B98
:1054C000D8F800201979186805F02DFA041E1CDBA5
:1054D000311D3846FFF72CFF0446B0B9D9F8043027
:1054E000990729D506F1160001F0ACFC494B98420A
:1054F0000FD0494B0094CDE901432046234647494C
:105500000122FFF7ABFE6FF00404204607B0BDE8B0
:10551000F083B07DC30003F1804303F5F83305F158
:105520000C0205F59071C3F81015C3F814253C4A18
:1055300001238340C2F80435F368002B55D07B6803
:10554000D7F810801B68D8F80C0036490422C3F83D
:1055500004230122C0F8C820C3F804130821C3F8AB
:105560000015D3F84C11A1B15A60D3F844211AB9EF
:10557000D3F82421002AF8D00022C3F84C21D3F814
:105580004C11C3F81021D3F81011C3F84421D3F8FB
:10559000443125490022883005F096FBD8F80C30BC
:1055A000D8F80C00C3F8BC8020490022283005F050
:1055B0008BFBD8F80C30C3F85C80D9F804309A071C
:1055C0005CBF4FF48072C5F80423DB0644BF4FF480
:1055D0008003C5F8043314360023C5F84465C5F8C4
:1055E00048350123AB60EB608FE70823C5F8003531
:1055F00099F80830002BE0D1C5F81031D5F81031FA
:1056000006F11503C5F834350123C5F838352B608C
:10561000D3E700BF0000AD0BA4C80000E8B1000054
:1056200000F0014010020A00A3A7000067A80000D4
:10563000F8B5066905460F4605F0DCFAB0B9284B07
:105640001B789BB16424686805F064F8002834D1A5
:10565000012005F013FA013CF5D10021212003F0CF
:1056600085FBEFE784F31188BFF36F8F4FF02003C2
:10567000EFF3118483F31288BFF36F8F69680846D4
:1056800005F048F80028EDD0F36853B1DA6842B16C
:10569000D3F8C420002A04DA0A68D2F84C25C3F8EB
:1056A000C4203146012201F8147F284604F0E8FEA8
:1056B00084F31188BFF36F8FF8BD4FF02003EFF331
:1056C000118483F31288BFF36F8F686805F022F8A6
:1056D0000028E6D184F31188BFF36F8FBDE700BFC8
:1056E0000C9500202DE9E04FD0F804A0D0F810B0C0
:1056F000DAF8008017469AF808200546894692B1E4
:10570000434A4449444840F27F3304F05BFD434838
:1057100004F058FD3E4840F27F3104F04CFD6FF03C
:105720008500BDE8E08FDBF80C1091F8D220002A4C
:105730006BD1B3F5E87FCB67D2BF5C23052293FB27
:10574000F2F3C1F880300023C1E91A330B67DAF8AD
:105750000430DA06C1E9189723D591F8D16006B371
:10576000BE4228BF3E4648463246CC3105F0A1FB3A
:10577000BF1BB14415D1DBF80C2092F8D1309B1B34
:1057800082F8D1303146284604F0A7FEDBF80C1031
:105790002846603104F0BAFE284604F0CFFE00200F
:1057A000BFE70023C8F83495C8F83875C8F8103139
:1057B000D8F81021C8F84C31D8F84C31DBF80C304F
:1057C000012283F8D220DAF80430DB0619D54FF035
:1057D0002003EFF3118183F31288BFF36F8F2B69DE
:1057E0006868DB682BB1D3F8C82042F00202C3F826
:1057F000C82003680822C3F8002581F31188BFF38D
:105800006F8F0123C8F80030C9E76FF00F0088E7F9
:10581000C3C80000FED000000FB80000F7C80000A9
:1058200043682DE9F0411D680369D5F8081188B077
:10583000044669B10022C5F80821D5F80821DA68C4
:10584000D2F8C0300133C2F8C03008B0BDE8F081F2
:10585000D5F8243113B3C5F82411D5F82431D5F87F
:105860008064C5F88064142203A805F043FB062376
:105870008DF80C30F30700F10281B70700F10181C8
:10588000700700F1008106F00806204603A98DF894
:10589000106004F01BFE204604F0ABFED5F810317A
:1058A0007BB3D5F80433D9062BD54FF00008276910
:1058B000C5F81081D5F810316368F8681E680123B7
:1058C00080F8D530883005F00BFAFA68D6F83C1528
:1058D00092F8D130906E82F8D1801B1A0B44906FF1
:1058E00023EAE37108444345906702DD204604F053
:1058F000F4FDF96891F8D230002B40F0C68081F8B1
:10590000D530D5F84C318BB3D5F8106176BB142265
:105910002769C5F84C61314603A8D5F84C3105F02C
:10592000E9FA032303A920468DF80C3004F0CEFDDC
:10593000FF68FB6F5A1C19D0D7F880008B49C7F855
:10594000843020EAE07C8E464FF400403146CCFBA8
:1059500000E1874A00237046FBF71EF902460B461A
:10596000CDE9000107F1880003F0E4FED5F84431E9
:1059700033B3D5F810611EBB2769C5F84461F968D7
:10598000D5F84431D4F804806031204604F0BEFDDF
:10599000F96820466C3104F0B9FDFB6893F8D22019
:1059A000002A00F09F8083F8D260D8F80430D8062F
:1059B00003D50221204604F086FE204604F0BEFDF9
:1059C000D5F82031DBB1D5F80433D90517D5636894
:1059D0001B684FF02001EFF3118281F31288BFF3AF
:1059E0006F8FD3F8201131B10021C3F82011D3F803
:1059F00020110121D96082F31188BFF36F8FD5F890
:105A00005831002B3FF421AFD5F804335A027FF50B
:105A10001CAF63682569D3E90073DB0667D4EB68C4
:105A20009B68002B3FF411AF4FF02003EFF311827E
:105A300083F31288BFF36F8FEB68D3F8C41000298B
:105A4000ACBFD3F8C460D7F84C6582F31188BFF3BC
:105A50006F8FE86890F8D430002B55D04FF02003BA
:105A6000EFF3118683F31288BFF36F8F2946204628
:105A700004F060FE86F31188BFF36F8FE5E6012620
:105A800003E7022601E70426FFE66031204604F022
:105A90003DFD4FF02003EFF3118183F31288BFF334
:105AA0006F8FFB68DA6ED2B11A661A6F5A660022DF
:105AB000C3E91B229A66D6F84C310BB90123336037
:105AC000D6F8003223F02003C6F8003281F31188A3
:105AD000BFF36F8FFB68002283F8D52011E7012305
